:020000040800F2
:1000000000000220C1840008857D00088D7D000865
:10001000957D00089D7D0008A57D0008000000007A
:10002000000000000000000000000000C101010805
:10003000AD7D0008000000001104010895D50008FE
:100040001185000811850008118500081185000838
:100050001185000811850008118500081185000828
:100060001185000811850008118500081185000818
:100070001185000811850008118500081185000808
:100080001185000811850008BD7D00081185000854
:1000900011850008118500081185000811850008E8
:1000A00011850008118500081185000811850008D8
:1000B00011850008D97D0008118500081185000808
:1000C00011850008118500081185000811850008B8
:1000D0001185000811850008F17D0008057E0008E3
:1000E0001185000811850008118500081185000898
:1000F0001185000811850008118500081185000888
:100100001185000811850008118500081185000877
:100110001185000811850008118500081185000867
:100120001185000811850008197E00081185000856
:100130001185000811850008118500081185000847
:100140001185000811850008118500081185000837
:100150001185000811850008118500081185000827
:100160001185000811850008118500081185000817
:1001700011850008118500081185000800000000A5
:0801800011850008118500083B
:1001900010B5054C237833B9044B13B10448AFF3C1
:1001A00000800123237010BD7403002000000000B4
:1001B0004038010808B5034B1BB103490348AFF3AE
:1001C000008008BD000000007803002040380108CE
:1001D00001F0FF01102A2BDB10F0070F08D010F8F8
:1001E000013B013A8B422DD010F0070F42B3F6D1FC
:1001F000F0B441EA012141EA014122F007047FF015
:1002000000070023F0E80256083C85EA010586EA6B
:10021000010685FA47F5A3FA87F586FA47F6A5FAA7
:1002200087F68EB9EED1F0BC01F0FF0102F00702B3
:1002300032B110F8013B013A83EA010313B1F8D15E
:100240000020704701387047002D06BF354603383F
:10025000073815F0010F07D1013015F4807F02BF78
:10026000013015F4C03F0130F0BC0138704700BFC9
:10027000034613F8012B002AFBD1181A01387047E6
:1002800081F0004102E000BF83F0004330B54FEA47
:1002900041044FEA430594EA050F08BF90EA020FB4
:1002A0001FBF54EA000C55EA020C7FEA645C7FEA47
:1002B000655C00F0E2804FEA5454D4EB5555B8BF6A
:1002C0006D420CDD2C4480EA020281EA030382EADB
:1002D000000083EA010180EA020281EA0303362D6D
:1002E00088BF30BD11F0004F4FEA01314FF4801C40
:1002F0004CEA113102D0404261EB410113F0004F52
:100300004FEA03334CEA133302D0524263EB430308
:1003100094EA050F00F0A780A4F10104D5F1200EA6
:100320000DDB02FA0EFC22FA05F2801841F1000101
:1003300003FA0EF2801843FA05F359410EE0A5F1D5
:1003400020050EF1200E012A03FA0EFC28BF4CF006
:10035000020C43FA05F3C01851EBE37101F00045BC
:1003600007D54FF0000EDCF1000C7EEB00006EEBC9
:100370000101B1F5801F1BD3B1F5001F0CD3490853
:100380005FEA30004FEA3C0C04F101044FEA4452AA
:1003900012F5800F80F09A80BCF1004F08BF5FEA31
:1003A000500C50F1000041EB045141EA050130BD11
:1003B0005FEA4C0C404141EB0101013C28BFB1F523
:1003C000801FE9D291F0000F04BF01460020B1FA6E
:1003D00081F308BF2033A3F10B03B3F120020CDA41
:1003E0000C3208DD02F1140CC2F10C0201FA0CF01F
:1003F00021FA02F10CE002F11402D8BFC2F1200C84
:1004000001FA02F120FA0CFCDCBF41EA0C01904039
:10041000E41AA2BF01EB0451294330BD6FEA040482
:100420001F3C1CDA0C340EDC04F11404C4F120026D
:1004300020FA04F001FA02F340EA030021FA04F37F
:1004400045EA030130BDC4F10C04C4F1200220FAD6
:1004500002F001FA04F340EA0300294630BD21FA14
:1004600004F0294630BD94F0000F83F4801306BFDA
:1004700081F480110134013D4EE77FEA645C18BFCE
:100480007FEA655C29D094EA050F08BF90EA020F65
:1004900005D054EA000C04BF1946104630BD91EA5D
:1004A000030F1EBF0021002030BD5FEA545C05D160
:1004B0004000494128BF41F0004130BD14F580049F
:1004C0003CBF01F5801130BD01F0004545F0FE4113
:1004D00041F470014FF0000030BD7FEA645C1ABF48
:1004E000194610467FEA655C1CBF0B46024650EA7F
:1004F000013406BF52EA033591EA030F41F40021AB
:1005000030BD00BF90F0000F04BF0021704730B530
:100510004FF4806404F132044FF000054FF0000105
:1005200050E700BF90F0000F04BF0021704730B5C6
:100530004FF4806404F1320410F0004548BF40429B
:100540004FF000013EE700BF42004FEAE2014FEAF0
:1005500031014FEA02701FBF12F07F4393F07F4FCB
:1005600081F06051704732F07F4208BF704793F0CE
:100570007F4F04BF41F40021704730B54FF46074E1
:1005800001F0004521F000411CE700BF50EA0102E4
:1005900008BF704730B54FF000050AE050EA01028D
:1005A00008BF704730B511F0004502D5404261EBFD
:1005B00041014FF4806404F132045FEA915C3FF43E
:1005C000D8AE4FF003025FEADC0C18BF03325FEADB
:1005D000DC0C18BF033202EBDC02C2F1200300FA8C
:1005E00003FC20FA02F001FA03FE40EA0E0021FAB1
:1005F00002F11444BDE600BF70B54FF0FF0C4CF49F
:10060000E06C1CEA11541DBF1CEA135594EA0C0F50
:1006100095EA0C0F00F0DEF82C4481EA030621EA8B
:100620004C5123EA4C5350EA013518BF52EA0335C6
:1006300041F4801143F4801338D0A0FB02CE4FF078
:100640000005E1FB02E506F00042E0FB03E54FF0A8
:100650000006E1FB03569CF0000F18BF4EF0010EA0
:10066000A4F1FF04B6F5007F64F5407404D25FEA9C
:100670004E0E6D4146EB060642EAC62141EA55514F
:100680004FEAC52040EA5E504FEACE2EB4F1FD0C91
:1006900088BFBCF5E06F1ED8BEF1004F08BF5FEA0F
:1006A000500E50F1000041EB045170BD06F00046C1
:1006B00046EA010140EA020081EA0301B4EB5C046E
:1006C000C2BFD4EB0C0541EA045170BD41F4801166
:1006D0004FF0000E013C00F3AB8014F1360FDEBF8B
:1006E000002001F0004170BDC4F10004203C35DA67
:1006F0000C341BDC04F11404C4F1200500FA05F3EA
:1007000020FA04F001FA05F240EA020001F000428A
:1007100021F0004110EBD37021FA04F642EB060100
:100720005EEA430E08BF20EAD37070BDC4F10C042A
:10073000C4F1200500FA04F320FA05F001FA04F2EE
:1007400040EA020001F0004110EBD37041F10001DA
:100750005EEA430E08BF20EAD37070BDC4F12005E5
:1007600000FA05F24EEA020E20FA04F301FA05F24D
:1007700043EA020321FA04F001F0004121FA04F2F5
:1007800020EA020000EBD3705EEA430E08BF20EAC5
:10079000D37070BD94F0000F0FD101F000464000FF
:1007A00041EB010111F4801F08BF013CF7D041EA81
:1007B000060195F0000F18BF704703F00046520085
:1007C00043EB030313F4801F08BF013DF7D043EA56
:1007D0000603704794EA0C0F0CEA135518BF95EA0C
:1007E0000C0F0CD050EA410618BF52EA4306D1D193
:1007F00081EA030101F000414FF0000070BD50EAB2
:10080000410606BF1046194652EA430619D094EA3B
:100810000C0F02D150EA013613D195EA0C0F05D125
:1008200052EA03361CBF104619460AD181EA030179
:1008300001F0004141F0FE4141F470014FF0000031
:1008400070BD41F0FE4141F4780170BD70B54FF0CC
:10085000FF0C4CF4E06C1CEA11541DBF1CEA13554C
:1008600094EA0C0F95EA0C0F00F0A7F8A4EB05042E
:1008700081EA030E52EA03354FEA013100F0888025
:100880004FEA03334FF0805545EA131343EA1263EE
:100890004FEA022245EA111545EA10654FEA0026A3
:1008A0000EF000419D4208BF964244F1FD0404F55C
:1008B000407402D25B084FEA3202B61A65EB0305B8
:1008C0005B084FEA32024FF480104FF4002CB6EB75
:1008D000020E75EB030E22BFB61A754640EA0C00F5
:1008E0005B084FEA3202B6EB020E75EB030E22BF35
:1008F000B61A754640EA5C005B084FEA3202B6EB76
:10090000020E75EB030E22BFB61A754640EA9C0034
:100910005B084FEA3202B6EB020E75EB030E22BF04
:10092000B61A754640EADC0055EA060E18D04FEAC2
:10093000051545EA16754FEA06164FEAC30343EA62
:1009400052734FEAC2025FEA1C1CC0D111F4801F2F
:100950000BD141EA00014FF000004FF0004CB6E728
:1009600011F4801F04BF01430020B4F1FD0C88BFC7
:10097000BCF5E06F3FF6AFAEB5EB030C04BFB6EBD2
:10098000020C5FEA500C50F1000041EB045170BDC5
:100990000EF0004E4EEA113114EB5C04C2BFD4EBF2
:1009A0000C0541EA045170BD41F480114FF0000E76
:1009B000013C90E645EA060E8DE60CEA135594EAF2
:1009C0000C0F08BF95EA0C0F3FF43BAF94EA0C0FF5
:1009D0000AD150EA01347FF434AF95EA0C0F7FF46A
:1009E00025AF104619462CE795EA0C0F06D152EABE
:1009F00003353FF4FDAE1046194622E750EA4106A2
:100A000018BF52EA43067FF4C5AE50EA41047FF4B2
:100A10000DAF52EA43057FF4EBAE12E74FF0FF3C17
:100A200006E000BF4FF0010C02E000BF4FF0010CE8
:100A30004DF804CD4FEA410C7FEA6C5C4FEA430C61
:100A400018BF7FEA6C5C1BD001B050EA410C0CBFB0
:100A500052EA430C91EA030F02BF90EA020F002012
:100A6000704710F1000F91EA030F58BF994208BF79
:100A700090422CBFD8176FEAE37040F00100704736
:100A80004FEA410C7FEA6C5C02D150EA013C07D18D
:100A90004FEA430C7FEA6C5CD6D152EA033CD3D0D8
:100AA0005DF8040B704700BF8446104662468C46D2
:100AB0001946634600E000BF01B5FFF7B7FF002805
:100AC00048BF10F1000F01BD4DF808EDFFF7F4FF2E
:100AD0000CBF012000205DF808FB00BF4DF808EDB9
:100AE000FFF7EAFF34BF012000205DF808FB00BFDC
:100AF0004DF808EDFFF7E0FF94BF012000205DF8FE
:100B000008FB00BF4DF808EDFFF7CEFF94BF0120B2
:100B100000205DF808FB00BF4DF808EDFFF7C4FFAB
:100B200034BF012000205DF808FB00BF4FEA410CF4
:100B30007FEA6C5C02D150EA013C0AD14FEA430CD7
:100B40007FEA6C5C02D152EA033C02D14FF0000014
:100B500070474FF0010070474FEA410212F5001252
:100B600015D211D56FF47873B3EB625212D94FEAF4
:100B7000C12343F0004343EA505311F0004F23FADE
:100B800002F018BF404270474FF00000704750EA33
:100B9000013005D111F0004008BF6FF000407047F0
:100BA0004FF00000704700BF4A0011D212F500124A
:100BB00011D20DD56FF47873B3EB62520ED44FEAB5
:100BC000C12343F0004343EA505323FA02F0704735
:100BD0004FF00000704750EA013002D14FF0FF3073
:100BE00070474FF00000704753B94AB9002908BF59
:100BF00000281CBF4FF0FF314FF0FF3000F06AB902
:100C0000ADF1080C6DE904CE00F006F8DDF804E063
:100C1000DDE9022304B070472DE9F047089D0C463A
:100C2000002B4ED194468C458646B2FA82F262D9A8
:100C30004AB1C2F12003914020FA03F30CFA02FCFE
:100C4000194300FA02FE4FEA1C471FFA8CF6B1FB6B
:100C5000F7F44FEA1E4307FB141143EA014304FB78
:100C600006F199420AD91CEB030304F1FF3080F02E
:100C70001281994240F20F81023C6344591A1FFAD3
:100C80008EF3B1FBF7F007FB101143EA014300FBC1
:100C900006F69E420AD91CEB030300F1FF3180F0F7
:100CA000FC809E4240F2F980634402389B1B40EA7C
:100CB000044000211DB1D3400022C5E90032BDE847
:100CC000F0878B4205D90DB1C5E900010021084626
:100CD000F5E7B3FA83F1002946D1A34202D390424B
:100CE000C0F0F080861A64EB03030120002DE6D0EB
:100CF000C5E90063E3E7002A40F09080A1EB0C0413
:100D00004FEA1C481FFA8CF70121B4FBF8F64FEAB2
:100D10001E4308FB164443EA044307FB06F09842CF
:100D200008D91CEB030306F1FF3402D2984200F20B
:100D3000CD8026461C1A1FFA8EF3B4FBF8F008FB90
:100D4000104443EA044300FB07F79F4208D91CEB19
:100D5000030300F1FF3402D29F4200F2B08020462C
:100D6000DB1B40EA0640A5E7C1F120068B4022FAD2
:100D700006F71F4320FA06FC04FA01F343EA0C03CA
:100D8000F44000FA01F8380C4FEA1349B4FBF0FEC6
:100D90001FFA87FC00FB1E4449EA04440EFB0CF9D1
:100DA000A14502FA01F20AD93C190EF1FF3A80F08E
:100DB0008480A14540F28180AEF1020E3C44A4EB58
:100DC00009041FFA83F9B4FBF0F300FB134449EA6A
:100DD000044403FB0CFCA44507D93C1903F1FF3084
:100DE00067D2A44565D9023B3C4443EA0E40A0FBD0
:100DF0000293A4EB0C049C42CE469C4651D34ED0A9
:100E000055B1B8EB0E0364EB0C0404FA06F6CB40C4
:100E10001E43CC40C5E90064002150E7C2F1200325
:100E200020FA03F10CFA02FC24FA03F394400C4379
:100E30004FEA1C4800FA02FE1FFA8CF7B3FBF8F0E9
:100E400008FB1031230C43EA014300FB07F19942F0
:100E500008D91CEB030300F1FF362CD299422AD9A2
:100E6000023863445B1AA4B2B3FBF8F108FB1133F8
:100E700044EA034401FB07F3A34208D91CEB040432
:100E800001F1FF3613D2A34211D902396444E41AA6
:100E900041EA004139E70446F0E6084606E7C8455E
:100EA000AED2B9EB020E63EB070C0138A8E731466E
:100EB000EDE7034699E73046D4E7D6467FE763443B
:100EC00002384DE70646234608460FE7023E6344D4
:100ED00030E700BF704700BF80B5DAB004AF07F558
:100EE000AC73A3F5AA73186007F17C03D922002123
:100EF000184610F046FB07F5AC73A3F5A873184627
:100F000074231A46002110F03CFB4FF47A7003F072
:100F1000AFF800F07BFD024607F1080311461846C2
:100F200010F03BFC07F108031033002200214B486E
:100F300003F037FA07F17C031946494803F03DF9FD
:100F40000346002B474B1B7803F00703072B0BD0FE
:100F5000444B1B7803F00703062B05D0414B1B784D
:100F600003F00703052B1FD13F4B1B78002B3AD111
:100F70003D4B01221A7007F5AC73A3F5A8731A69EB
:100F800007F5AC73A3F5A8735A66384B1B781A465D
:100F9000364B5B781946354B9B7800930B463449AA
:100FA000344810F08BFA1EE02F4B1B78002B1AD020
:100FB0002D4B00221A7007F5AC73A3F5A8731A69BC
:100FC00007F5AC73A3F5A8739A66284B1B781A46ED
:100FD000264B5B781946254B9B7800930B4624499A
:100FE000244810F06BFA07F5AC73A3F5A8731B69DE
:100FF00007F1080202F1540007F1080202F1500162
:1010000007F108025C32029207F10802583201929D
:10101000009303460A469FED181AF2EE040A9FED6C
:10102000170A0021164802F083FE07F1080303F1B6
:10103000700207F108036C331946124802F036FDBE
:1010400007F108031946104803F09AF802210F48E7
:1010500008F0B9FD962003F00BF863E72018002094
:10106000F4160020E5030020E60300209003002092
:1010700058380108E80300203333534000000000D3
:10108000A4030020D0030020C41700200000024069
:1010900080B582B000AF786039607B68012B12D1D7
:1010A0003B684FF6FF7293420DD10949094802F09F
:1010B00015FE4FF47A7338220749084802F0DEFC27
:1010C000074803F08BFB00BF0837BD4680BD00BF5B
:1010D000881D0020A4030020781E0020D0030020DB
:1010E000E403002080B500AF4FF6FF710120FFF749
:1010F000CFFF80BD80B584B000AFF8607B600B4649
:10110000FB721346BB72FB7A283B232B67D801A2E4
:1011100052F823F0DF110008A5110008DF110008C4
:10112000DF110008DF110008DF110008DF110008DF
:10113000DF110008DF110008DF110008DF110008CF
:10114000DF110008DF110008DF110008DF110008BF
:10115000DF110008DF110008DF110008DF110008AF
:10116000DF110008DF110008DF110008DF1100089F
:10117000DF110008DF110008DF110008DF1100088F
:10118000DF110008DF110008DF110008DF1100087F
:10119000DF110008DF110008AF110008BF110008BF
:1011A000CF110008BB7A184602F062FF17E0BB7A45
:1011B0001A464FF400710C4808F0ECFC0FE0BB7AC3
:1011C0001A464FF48051094808F0E4FC07E0BB7A66
:1011D0001A464FF48041054808F0DCFC00BF0123AB
:1011E00018461037BD4680BD000C02400004024086
:1011F00080B584B000AFF8607B600B46FB7213468D
:10120000BB72FB7A143B0C2B44D801A252F823F09A
:10121000991200089512000895120008451200085E
:10122000651200087D12000895120008951200084A
:1012300095120008951200089512000895120008F2
:1012400057120008BB7A9AB241F288337968154880
:101250000AF0C1FD21E0BB7A1A464A21F86806F07F
:1012600021F81AE0FB681B681B781A464921F868C8
:1012700006F018F8012002F0FBFE0EE0012002F05B
:10128000F7FEFB681B685B781A464921F86806F090
:1012900009F802E0002301E000BF012318461037DF
:1012A000BD4680BDEC1E002080B584B002AF7860E2
:1012B000164B174A1749184804F06EFC164805F0FB
:1012C000C2FF154804F0D7FB0021134805F0CAFF00
:1012D000124B1979114B5B79104A126801920093F5
:1012E0000B46002220210C4804F04CFB0A4804F075
:1012F00035FC4FF4FA6002F0BBFE074803F0A8FF8C
:101300004FF4FA7002F0B4FE00BFF6E7F5100008E3
:10131000F111000888470108FC030020404701083C
:1013200080B582B000AF786039603968786810F0B5
:1013300050F9034618460837BD4680BD2DE9F04FE9
:10134000ADF5137D22AF07F5E073A3F5AE7318601A
:10135000C94800F09DFC07F1E003D922002118469E
:1013600010F00FF907F5E073A3F5AA73184674237C
:101370001A46002110F005F9012387F8BF31012337
:1013800087F8BE31002387F8BD3107F1E0034B3306
:10139000BA4A14469C4604F1300E654626460FCEE6
:1013A00028606960AA60EB6010340CF1100C744581
:1013B000F3D16246234603CB106051601B78137251
:1013C00007F1E0033733AE4A1C46134607CB2060D3
:1013D0006160A2601B78237307F1E003C333A94A5D
:1013E0001068186092889A8007F1E003AF33A6492D
:1013F0001A460B4603CB1060516019889B78118107
:101400009372002387F8BC3107F1E00319469A482C
:1014100000F02AFE07F1E0030F331946964800F06A
:101420008DFE07F1E0031E331946934800F06CFF70
:1014300007F1E0032D3319468F4801F059F907F100
:101440006B0319468C4801F0A3F807F16A031946AB
:10145000894801F031F807F1E00319468B4802F0A2
:101460008FFE322002F004FE07F16C031946884813
:1014700002F0A3FE0346002B97F8BD31032B00F2C8
:10148000708201A252F823F0991400088115000817
:10149000A1160008F116000807F1E0030F337D499B
:1014A0001846FFF73DFF0346002B09D107F1E00383
:1014B0000F3379491846FFF733FF0346002B1CD042
:1014C00007F1E0031E3373491846FFF729FF03466F
:1014D000002B09D107F1E0031E336F491846FFF7CF
:1014E0001FFF0346002B08D007F5E073A3F2551346
:1014F0001B78002B01D0012300E00023002B00F01B
:10150000328207F1E003373319465B4800F000FDF3
:10151000034687F8BB31584801F052FE564801F0A7
:101520008BFE554801F0C4FE534801F0FDFE5248C1
:1015300001F036FF97F8BB31002B40F0148297F88A
:10154000BE31022B08D197F8B83119464A4801F04C
:10155000E9FB012387F8BE3197F8BF31002B0BD18F
:1015600097F8B8311946444801F002FB424801F0AF
:1015700037FA012387F8BF31012387F8BD31F2E143
:1015800007F1E0030F3343491846FFF7C9FE03464E
:10159000002B09D107F1E0030F333F491846FFF74D
:1015A000BFFE0346002B20D007F1E0031E3339496C
:1015B0001846FFF7B5FE0346002B09D107F1E003FB
:1015C0001E3335491846FFF7ABFE0346002B0CD0FF
:1015D00007F5E073A3F255131B78002B05D097F89D
:1015E000BF31002B01D0012300E00023002B00F0CD
:1015F000BC810021204800F0E3FC01211E4800F0DE
:10160000DFFC07F1E003D83319461B4801F078F9F5
:10161000034687F8BF3197F8BF31002B21D197F8E7
:10162000B81101231D4A144801F040FA034687F817
:10163000BF3197F8BF31002B09D197F8B83119465F
:101640000D4801F061FD022387F8BD318DE197F867
:10165000B8311946084801F08BFA074801F0C0F983
:1016600083E197F8B8311946034801F081FA02483E
:1016700001F0B6F979E100BF7C0400206838010868
:10168000A4380108B4380108BC380108F416002059
:10169000C41700204C40010858400108C838010810
:1016A00097F8BF31002B40F0628197F8BE31022BD2
:1016B00000F05D8197F8B81107F1E0034B331A464B
:1016C000AD4801F0B1FA034687F8BE3197F8BE3154
:1016D000022B03D1032387F8BD3148E197F8B831D5
:1016E0001946A54801F01EFB002387F8BD313EE1F5
:1016F00007F1E0034B3319469F4801F089F8034690
:1017000087F8BE3197F8BC31013387F8BC3197F8C0
:10171000BE31022B10D097F8BC31032B0CD900231B
:1017200087F8B73197F8B8311946934801F0FAFABB
:10173000002387F8BD311CE197F8BE31022B40F041
:101740001881012387F8B731002387F8BC3107F5EA
:10175000E073A3F5AA731B693B6607F5E073A3F575
:10176000AA735B691846FEF7EFFEC7E9160107F595
:10177000E073A3F5AA739B691846FEF7E5FEC7E977
:10178000140107F5E073A3F5AA73DB691846FEF7A9
:10179000DBFEC7E9120107F5E073A3F5AA731B6A24
:1017A0001846FEF7D1FEC7E9100107F5E073A3F56F
:1017B000AA735B6A1846FEF7C7FEC7E90E0107F574
:1017C000E073A3F5AA739B6A1846FEF7BDFEC7E94E
:1017D0000C0107F5E073A3F5AA73DB6A1846FEF760
:1017E000B3FEC7E90A0107F5E073A3F5AA731B6B03
:1017F0001846FEF7A9FEC7E9080107F5E073A3F54F
:10180000AA735B6B1846FEF79FFEC7E9060107F552
:10181000E073A3F5AA739B6B1846FEF795FE82460C
:101820008B4607F5E073A3F5AA73DB6B1846FEF74A
:101830008BFE8046894607F5E073A3F5AA7393F8FB
:1018400040307B6107F5E073A3F5AA7393F850303D
:101850003B6107F5E073A3F5AA735B6D1846FEF7CD
:1018600073FE04460D4607F5E073A3F5AA739A6D5F
:10187000FA6007F5E073A3F5AA73D96DB96007F5AF
:10188000E073A3F5AA731E6E7E6007F5E073A3F5FF
:10189000AA73586E07F5E073A3F5AA73996E07F55E
:1018A000E073A3F5AA73DA6E07F5E073A3F5AA73E4
:1018B0001B6F07F16C0620931F921E911D907A6892
:1018C0001C92B9681B91FA681A92CDE918453A69D9
:1018D00017927A691692CDE91489CDE912AB97ED8A
:1018E000067B8DED107B97ED087B8DED0E7B97EDE4
:1018F0000A7B8DED0C7B97ED0C7B8DED0A7B97EDD4
:101900000E7B8DED087B97ED107B8DED067B97EDC3
:10191000127B8DED047B97ED147B8DED027B97EDB3
:10192000167B8DED007B3B6E3246144914480FF058
:10193000C5FD97F8B81107F1E00303F1C302FF23D7
:101940000093104B0C4801F069FA0346052B97F8F9
:10195000B81107F1E003C3331A46074801F01AFB38
:1019600007E000BF50E500BF4EE500BF4CE500BFFB
:101970004AE500BF48E500BF7C040020D0380108DC
:101980007C0C0020AC14002080B582B000AF7860E1
:1019900039607B68012B08D13B684FF6FF72934298
:1019A00003D10449044800F00FF900BF0837BD46D1
:1019B00080BD00BF682000207C04002080B500AFFF
:1019C0004FF6FF710120FFF7DFFF80BD80B483B0C9
:1019D00000AF78600B46FB70FB781B09DBB21A4640
:1019E000094B995C7B685A1C7A600A461A70FB782E
:1019F00003F00F03044AD25C7B681A7000BF0C37F7
:101A0000BD465DF8047B70476440010890B583B023
:101A100000AF06F0CDFD0346DBB27B6006F0C8FDEB
:101A200003461D4A1B0A13601C4C06F0CDFD0346FD
:101A300023607B68232B09D97B683D2B28BF3D237E
:101A4000DBB23D33DAB2144BDA710BE07B68092B61
:101A500001D9412200E030227B68DBB21344DAB2C4
:101A60000D4BDA7106F098FD03461B0CDBB21946EC
:101A70000B48FFF7ABFF06F08FFD0346DBB21946BC
:101A80000848FFF7A3FF044B00221A73024B1846C5
:101A90000C37BD4690BD00BF301800203318002021
:101AA000381800203A18002080B500AF094802F02D
:101AB00016FB094802F013FB084802F010FB084827
:101AC00002F042FB074802F03FFB03F03DFD00BF80
:101AD00080BD00BFAC150020D0150020F4150020FB
:101AE000F4160020C417002080B500AFFFF7DCFF1C
:101AF00000BF80BD80B584B002AF786039607B687C
:101B0000012B36D13B684FF6FF72934231D1182337
:101B10000193012300934FF40073184A18491948A0
:101B200002F0BCFA18230193012300934FF40073D1
:101B3000154A1649164802F0B1FA182301930123F9
:101B400000934FF40073134A1349144802F0A6FAA5
:101B5000134BD9220121134802F0DBFA124B7422F5
:101B60000121124802F0D5FA05221149114802F06C
:101B7000F7FB00BF0837BD4680BD00BFAC3B010886
:101B80003D130008AC150020B43B0108D90E000835
:101B9000D0150020BC3B0108A9120008F415002054
:101BA00018160020F416002050170020C41700203B
:101BB000CC1E00202018002080B500AF4FF6FF712A
:101BC0000120FFF797FF80BD80B582B000AF78603D
:101BD00039607B6818464FF400631A4600210FF005
:101BE000D0FC7B6803F500634FF4006200211846C7
:101BF0000FF0C7FC7B6803F500637A6802F580523A
:101C000013607B687A6802F5805253607B6803F545
:101C1000815304333968184602F091FD7B6803F55F
:101C200081530833184602F0D9FD7B6803F58053D1
:101C30001A460023D362124B1B781946114A3B689F
:101C400042F831300E4B1B780E4ADB0013447A68A1
:101C50005A600B4B1B780133DAB2094B1A70084BF0
:101C60001B78032B02D9064B00221A70064907483D
:101C700002F00CFC7B6818460837BD4680BD00BFEB
:101C80005818002040180020693A0008053A00085A
:101C900080B586B002AF78600023FB730123019307
:101CA0000A2300934FF47A7304228F49786801F075
:101CB000B3FB41F288320021786801F0DAFC034678
:101CC000FB73012301930A2300934FF47A730422D8
:101CD0008549786801F0A0FB41F2883200217868DC
:101CE00001F0C7FC0346FB73012301930A23009311
:101CF0004FF47A7304227C49786801F08DFB41F23D
:101D000088320021786801F0B4FC0346FB7301239C
:101D100001930A2300934FF47A730B227349786876
:101D200001F07AFB41F288320021786801F0A1FCD1
:101D30000346FB7343F6982002F09AF901230193BE
:101D40000A2300934FF47A7304226749786801F0FC
:101D500063FB41F288320021786801F08AFC034677
:101D6000FB73012301930A2300934FF47A73042237
:101D70005D49786801F050FB41F2883200217868B3
:101D800001F077FC0346FB73012301930A230093C0
:101D90004FF47A7304225449786801F03DFB41F214
:101DA00088320021786801F064FC0346FB7301234C
:101DB00001930A2300934FF47A7307224C49786801
:101DC00001F02AFB41F288320021786801F051FCD1
:101DD0000346FB73012301930A2300934FF47A73A4
:101DE00006224449786801F017FB41F2883200214D
:101DF000786801F03EFC0346FB73012301930A233C
:101E000000934FF47A730B223B49786801F004FB8E
:101E100041F288320021786801F02BFC0346FB7305
:101E2000012301930A2300934FF47A730C22334960
:101E3000786801F0F1FA41F288320021786801F007
:101E400018FC0346FB73012301930A2300934FF40C
:101E50007A7318222A49786801F0DEFA41F2883252
:101E60000021786801F005FC0346FB730123019310
:101E70000A2300934FF47A730B222249786801F009
:101E8000CBFA41F288320021786801F0F2FB034678
:101E9000FB73012301930A2300934FF47A730B22FF
:101EA0001949786801F0B8FA41F28832002178685F
:101EB00001F0DFFB0346FB73012301930A23009328
:101EC0004FF47A730C221149786801F0A5FA41F2B7
:101ED00088320021786801F0CCFB0346FB73FB7B62
:101EE00018461037BD4680BD744001087C4001088B
:101EF0003041010838410108884001089440010838
:101F0000A4400108C0400108CC400108D8400108A5
:101F100080B592B002AF78603960002387F83F3017
:101F20000023FB6007F110032E22002118460FF05A
:101F300028FB07F10C033A68204918460FF0BEFA57
:101F400007F10C031846FEF793F903469AB207F11E
:101F50000C01012301930A2300934FF47A737868EC
:101F600001F05AFA4FF4FA620021786801F081FB1F
:101F7000034687F83F3097F83F30002B0FD17B683E
:101F800003F58153083379687A6802F58052928AA2
:101F900092B2184602F02EFC0346002B01D001231A
:101FA00000E00023002B02D0012387F83F3097F890
:101FB0003F3018464037BD4680BD00BFD43B0108C6
:101FC00080B58AB002AF78600B46FB700023FB77C8
:101FD0000023BB6007F10C0300221A605A609A606C
:101FE000DA60FA7807F108031E4918460FF066FA1E
:101FF00007F108031846FEF73BF903469AB207F1CA
:102000000801012301930A2300934FF47A7378683F
:1020100001F002FA41F288320021786801F029FBD0
:102020000346FB77FB7F002B0FD17B6803F58153C1
:10203000083379687A6802F58052928A92B218461B
:1020400002F0D8FB0346002B01D0012300E000235F
:10205000002B01D00123FB77FB7F18462037BD46BC
:1020600080BD00BFF03B010880B588B004AF786048
:102070003960012301930A2300934FF47A730A22F3
:102080002B49786801F0C8F94FF4FA6200217868AA
:1020900001F0EFFA0346FB73FB7B002B11D17B6849
:1020A00003F58153083379687A6802F58052928A81
:1020B00092B2184602F09EFB0346002B01D1012389
:1020C00000E00023002B24D07B6803F5815008300A
:1020D00079687B6803F580539B8A9AB23B680293C8
:1020E0000D2301933A230093124B02F0A9FB034600
:1020F000002B0CBF01230023DBB2002B13D13B6864
:102100000D491A460B4603CB106051601B781372C1
:102110000AE03B6808491A460B4603CB1060516041
:102120001B78137200E000BF1037BD4680BD00BFB2
:10213000E8400108003C0108083C010890B589B05E
:1021400004AF78603960012301930A2300934FF4B0
:102150007A730A226149786801F05EF94FF4FA62F5
:102160000021786801F085FA0346FB73FB7B002BA6
:1021700011D17B6803F58153083379687A6802F5D9
:102180008052928A92B2184602F034FB0346002B2A
:1021900001D1012300E00023002B00F093807B6835
:1021A00003F58150083079687B6803F580539B8A7A
:1021B0009AB23B6802930D2301932C230093484B62
:1021C00002F03EFB0346002B0CBF01230023DBB2D1
:1021D000002B6DD03B681B78303B072B5DD801A2EC
:1021E00052F823F0052200081522000829220008D1
:1021F0003D220008552200086522000877220008C9
:10220000872200083B6837491A460B4603CB10600B
:1022100051604CE03B6834491A460B4603CB1060D2
:1022200051601B78137242E03B6830491A460B46F6
:1022300003CB106051601B88138138E03B682C4948
:102240001A460B4603CB1060516019889B781181A8
:1022500093722CE03B6827491A460B4603CB10606B
:10226000516024E03B68244A1C46134607CB20609B
:102270006160A2601BE03B6820491A460B4603CB15
:102280001060516013E03B681D491A460B4603CBB2
:10229000106051601B78137209E03B6819491A46B7
:1022A0000B4603CB106051601B78137200BF12E025
:1022B0003B6814491A460B4603CB106051601B78EB
:1022C000137208E03B680F491A460B4603CB1060B7
:1022D00051601B7813721437BD4690BDF44001085D
:1022E000143C01081C3C0108243C0108303C010856
:1022F0003C3C0108483C0108503C01085C3C01089A
:10230000643C0108083C010890B589B004AF7860CE
:102310003960012301930A2300934FF47A730B224F
:102320005B49786801F078F84FF4FA620021786828
:1023300001F09FF90346FB73FB7B002B11D17B68F7
:1023400003F58153083379687A6802F58052928ADE
:1023500092B2184602F04EFA0346002B01D1012337
:1023600000E00023002B00F087807B6803F581509C
:10237000083079687B6803F580539B8A9AB23B6882
:1023800002930D2301932C230093424B02F058FA41
:102390000346002B0CBF01230023DBB2002B61D0CE
:1023A0003B681B78303B062B51D801A252F823F032
:1023B000CD230008DD230008F123000805240008D0
:1023C0001D2400082D2400083F2400083B683249E2
:1023D0001A460B4603CB1060516042E03B682F4920
:1023E0001A460B4603CB106051601B78137238E01D
:1023F0003B682B491A460B4603CB106051601B8883
:1024000013812EE03B6827491A460B4603CB106028
:10241000516019889B781181937222E03B682249B0
:102420001A460B4603CB106051601AE03B681F4A06
:102430001C46134607CB20606160A26011E03B6838
:102440001B491A460B4603CB1060516009E03B68FC
:1024500018491A460B4603CB106051601B78137263
:1024600000BF12E03B6813491A460B4603CB1060CD
:1024700051601B78137208E03B680E491A460B4600
:1024800003CB106051601B7813721437BD4690BDAA
:1024900000410108703C01081C3C0108243C010873
:1024A000303C01083C3C0108483C0108503C010814
:1024B0005C3C0108083C010880B58AB004AF786034
:1024C00039600023FB6007F1100300221A609A8034
:1024D0003B6802221A70012301930A2300934FF4F0
:1024E0007A730B222849786800F096FF4FF4FA625D
:1024F0000021786801F0BDF80346FB75FB7D002BD9
:1025000011D17B6803F58153083379687A6802F545
:102510008052928A92B2184602F06CF90346002B60
:1025200001D1012300E00023002B29D07B6803F5B3
:102530008150083079687B6803F580539B8A9AB292
:1025400007F10C0302932C2301933A2300930F4BC2
:1025500002F076F90346002B0CBF01230023DBB207
:10256000002B0DD03B7B302B02D0312B04D007E069
:102570003B6800221A7003E03B6801221A7000BF1A
:1025800000BF1837BD4680BD0C410108783C0108EA
:1025900080B58AB004AF786039600023BB6007F172
:1025A0000C0300221A605A60C3F807203B6800221F
:1025B0001A70012301930A2300934FF47A730A22BD
:1025C0004549786800F028FF41F288320021786898
:1025D00001F04FF80346FB75FB7D002B11D17B68A2
:1025E00003F58153083379687A6802F58052928A3C
:1025F00092B2184602F0FEF80346002B01D10123E7
:1026000000E00023002B62D07B6803F58150083086
:1026100079687B6803F580539B8A9AB207F10803B7
:1026200002932C2301933A2300932C4B02F008F9D8
:102630000346002B0CBF01230023DBB2002B46D046
:1026400007F1080326491846FEF76AFE0346002BE9
:1026500014BF01230023DBB2002B03D03B68002210
:102660001A7034E007F108031E491846FEF758FEB9
:102670000346002B14BF01230023DBB2002B03D041
:102680003B6801221A7022E007F108031649184638
:10269000FEF746FE0346002B14BF01230023DBB2E6
:1026A000002B03D03B6802221A7010E007F10803E8
:1026B0000E491846FEF734FE0346002B14BF0123D3
:1026C0000023DBB2002B02D03B6803221A7000BF4C
:1026D0001837BD4680BD00BF18410108803C010885
:1026E000883C0108943C0108983C0108A03C010882
:1026F00080B58AB004AF786039600023FB6007F1D1
:10270000100300221A609A800023FB7501230193B5
:102710000A2300934FF47A7308223949786800F04D
:102720007BFE4FF4FA620021786800F0A2FF0346B6
:10273000BB75BB7D002B11D17B6803F5815308333A
:1027400079687A6802F58052928A92B2184602F04D
:1027500051F80346002B01D1012300E00023002B98
:1027600041D07B6803F58150083079687B6803F5B8
:1027700080539B8A9AB207F10C0302932C23019396
:102780003A2300931F4B02F05BF80346002B0CBF6B
:1027900001230023DBB2002B1BD007F10C031846EA
:1027A0000EF0EAF80346FB7597F91730622B02DD4D
:1027B0000023FB7505E0FB7D5B00DBB2713BDBB208
:1027C000FB7597F917301A460F4938680EF076FEF8
:1027D00012E03B680D491A460B4603CB106051606E
:1027E0001B78137208E03B6808491A460B4603CB76
:1027F000106051601B7813721837BD4680BD00BF52
:1028000024410108A43C0108AC3C0108083C010833
:1028100080B5A0B004AF78603960012387F86E30CE
:10282000032387F86F300023BB6007F10C0360229D
:10283000002118460EF0A5FE012301930A23009300
:102840004FF47A7312222C49786800F0E5FD4FF4BA
:10285000FA520021786800F00CFF034687F86E30CA
:1028600097F86E30002B11D17B6803F58153083344
:1028700079687A6802F58052928A92B2184601F01D
:10288000B9FF0346002B01D1012300E00023002BF8
:102890002CD07B6803F58150083079687B6803F59C
:1028A00080539B8A9AB207F1080302932223019373
:1028B00022230093114B01F0C3FF0346002B0CBFF2
:1028C00001230023DBB2002B10D007F108031946C7
:1028D0003868FEF725FD0346002B14BF01230023B3
:1028E000DBB2002B02D0022387F86F3097F86F30ED
:1028F00018467037BD4680BD60410108D43C0108D0
:1029000080B58AB004AF786039600123BB750123BC
:10291000FB750023FB6007F1100300221A609A8008
:10292000032303930A230293022301932B2300938F
:102930004FF47A730F222849786800F0CFFD42F2F5
:1029400010720021786800F094FE0346BB75BB7DD1
:10295000002B11D17B6803F58153083379687A68BD
:1029600002F58052928A92B2184601F043FF034664
:10297000002B01D1012300E00023002B26D07B682F
:1029800003F58150083079687B6803F580539B8A92
:102990009AB207F10C0302930A2301933A2300939E
:1029A0000E4B01F04DFF0346002B0CBF012300230B
:1029B000DBB2002B0AD00023FB7507F10C0318468D
:1029C0000DF0DAFF0346DAB23B681A70FB7D184659
:1029D0001837BD4680BD00BF40410108E43C0108F6
:1029E00080B58AB004AF78600123BB750123FB7505
:1029F0000023FB6007F1100300221A609A80032372
:102A000003930A230293022301932B2300934FF491
:102A10007A730E222349786800F060FD42F210724A
:102A20000021786800F025FE0346BB75BB7D002BB6
:102A300011D17B6803F58153083379687A6802F510
:102A40008052928A92B2184601F0D4FE0346002BBF
:102A500001D1012300E00023002B1DD07B6803F58A
:102A60008150083079687B6803F580539B8A9AB25D
:102A700007F10C0302930A2301933A2300930A4BB4
:102A800001F0DEFE0346002B0CBF01230023DBB266
:102A9000002B01D00023FB75FB7D18461837BD467F
:102AA00080BD00BF50410108F43C010880B59CB0D6
:102AB00002AFF8607A601A460B46FB721346BB728F
:102AC000012387F86630012387F8673000237B6194
:102AD00007F118034C22002118460EF052FDFA7A35
:102AE000BB7A07F1140000937B6820490EF0E6FCE6
:102AF00007F114031846FDF7BBFB03469AB207F132
:102B00001401012301930A2300934FF47A73F868A8
:102B100000F082FC4FF4FA520021F86800F0A9FDA1
:102B2000034687F8663097F86630002B11D1FB68B2
:102B300003F581530833F968FA6802F58052928AE6
:102B400092B2184601F056FE0346002B01D1012334
:102B500000E00023002B02D0002387F8673097F8AD
:102B6000673018466837BD4680BD00BF003D01088C
:102B700080B59AB002AF78600B46FB70012387F8EE
:102B80005E30012387F85F300023FB6007F11003FC
:102B90004C22002118460EF0F4FCFA7807F10C03E1
:102BA000204918460EF08AFC07F10C031846FDF781
:102BB0005FFB03469AB207F10C01012301930A233C
:102BC00000934FF47A73786800F026FC4FF4FA52C1
:102BD0000021786800F04DFD034687F85E3097F8D5
:102BE0005E30002B11D17B6803F58153083379687F
:102BF0007A6802F58052928A92B2184601F0FAFD84
:102C00000346002B01D1012300E00023002B02D05A
:102C1000002387F85F3097F85F3018466037BD466D
:102C200080BD00BF1C3D010880B5B0B004AFF860A6
:102C30000B467A60FB72012387F8AE30012387F8D8
:102C4000AF300023BB6107F11C039222002118461C
:102C50000EF097FC00233B6100233B75FA7A07F1E5
:102C600018007B682C490EF029FC07F11803184660
:102C7000FDF7FEFA03469AB207F118010323039306
:102C80000A230293022301932B2300934FF47A73B8
:102C9000F86800F023FC47F230520021F86800F099
:102CA000E8FC034687F8AE3097F8AE30002B2CD105
:102CB000FB6803F581500830F968FB6803F5805321
:102CC0009B8A9AB207F1100302930A2301932C23E3
:102CD0000093124B01F0B4FD0346002B0CBF0123FF
:102CE0000023DBB2002B10D007F110030C4918466B
:102CF000FEF716FB0346002B14BF01230023DBB2B3
:102D0000002B02D0022387F8AF3097F8AF30184677
:102D1000B037BD4680BD00BF303D0108D43C01083E
:102D2000503D010880B5AEB004AF78600B46FB7033
:102D3000012387F8A630012387F8A73000233B61E1
:102D400007F114039222002118460EF01AFC00230A
:102D5000BB6000233B73FA7807F110032C49184637
:102D60000EF0ACFB07F110031846FDF781FA03469D
:102D70009AB207F11001032303930A23029302235B
:102D800001932B2300934FF47A73786800F0A6FB2D
:102D900042F210720021786800F06BFC034687F85D
:102DA000A63097F8A630002B2CD17B6803F5815014
:102DB000083079687B6803F580539B8A9AB207F1E3
:102DC000080302930A2301932C230093114B01F073
:102DD00037FD0346002B0CBF01230023DBB2002B81
:102DE00010D007F108030C491846FEF799FA03467C
:102DF000002B14BF01230023DBB2002B02D00323DE
:102E000087F8A73097F8A7301846A837BD4680BD89
:102E1000543D01086C3D0108503D010890B5AFB02C
:102E200004AFF8607A603B600B46FB72012387F8C1
:102E3000A630012387F8A73000233B6107F1140374
:102E40009222002118460EF09CFBFC7A7868FDF770
:102E50000FFA034607F1100022464B490EF02EFBF5
:102E600007F110031846FDF703FA03469AB207F17B
:102E70001001022301933E2300934FF47A73F86804
:102E800000F0CAFA4FF47A720021F86800F0F1FB02
:102E9000034687F8A63097F8A630002B6ED1FB6862
:102EA00003F581500830F968FB6803F580539B8A6D
:102EB0009AB2002302930A2301932C230093334BED
:102EC00001F0BEFC0346002B0CBF01230023DBB244
:102ED000002B53D07868FDF7CBF903469AB2032351
:102EE00003930A230293052301932B2300934FF4AA
:102EF0007A737968F86800F0F1FA4FF47A72002179
:102F0000F86800F0B6FB034687F8A63097F8A630BD
:102F1000002B11D1FB6803F581530833F968FA6877
:102F200002F58052928A92B2184601F063FC034681
:102F3000002B01D1012300E00023002B1ED0FB68F1
:102F400003F581500830F968B7F8B83002933B6850
:102F500001930D2300930A230D4A01F039FD034626
:102F6000002B0CBF01230023DBB2002B03D0052371
:102F700087F8A73002E0002387F8A73097F8A7303A
:102F80001846AC37BD4690BD783D0108903D01081C
:102F9000943D010890B5B1B004AFF8600B467A607B
:102FA000FB72012387F8AE30012387F8AF3000238E
:102FB000BB6107F11C039222002118460EF0E1FAD2
:102FC00000233B6100233B75FC7A7868FDF750F9DC
:102FD000034607F11800224647490EF06FFA07F141
:102FE00018031846FDF744F903469AB207F1180191
:102FF000022301933E2300934FF47A73F86800F0A4
:103000000BFA4FF47A720021F86800F032FB0346A5
:1030100087F8AE3097F8AE30002B67D1FB6803F528
:1030200081500830F968FB6803F580539B8A9AB297
:10303000002302930A2301932C2300932F4B01F0CA
:10304000FFFB0346002B0CBF01230023DBB2002B48
:103050004CD07868FDF70CF903469AB2032303932A
:103060000A230293012301932B2300934FF47A73D5
:103070007968F86800F032FA42F210720021F868BC
:1030800000F0F7FA034687F8AE3097F8AE30002B21
:103090002CD1FB6803F581500830F968FB6803F513
:1030A00080539B8A9AB207F1100302930A2301937B
:1030B0002C230093124B01F0C3FB0346002B0CBFE3
:1030C00001230023DBB2002B10D007F110030D49C0
:1030D0001846FEF725F90346002B14BF01230023F1
:1030E000DBB2002B02D0002387F8AF3097F8AF3067
:1030F0001846B437BD4690BDA83D0108903D010873
:10310000C03D0108503D010880B59AB002AF78601B
:103110000B46FB70012387F85E30012387F85F3090
:103120000023FB6007F110034C22002118460EF02B
:1031300028FAFA7807F10C03204918460EF0BEF978
:1031400007F10C031846FDF793F803469AB207F10E
:103150000C01012301930A2300934FF47A737868DA
:1031600000F05AF94FF4FA520021786800F081FA21
:10317000034687F85E3097F85E30002B11D17B68EC
:1031800003F58153083379687A6802F58052928A90
:1031900092B2184601F02EFB0346002B01D1012309
:1031A00000E00023002B02D0002387F85F3097F85F
:1031B0005F3018466037BD4680BD00BFD03D010876
:1031C00080B586B002AF78600123BB730123FB7327
:1031D000012301930A2300934FF47A731D221549AA
:1031E000786800F019F94FF4FA620021786800F06D
:1031F00040FA0346BB73BB7B002B11D17B6803F500
:103200008153083379687A6802F58052928A92B2C3
:10321000184601F0EFFA0346002B01D1012300E02C
:103220000023002B01D00023FB73FB7B18461037D3
:10323000BD4680BD7441010880B586B002AF78609C
:103240000123BB730123FB73012301930A23009322
:103250004FF47A731B221549786800F0DDF84FF4BB
:10326000FA620021786800F004FA0346BB73BB7B66
:10327000002B11D17B6803F58153083379687A6894
:1032800002F58052928A92B2184601F0B3FA0346D0
:10329000002B01D1012300E00023002B01D00023EB
:1032A000FB73FB7B18461037BD4680BD9441010877
:1032B00080B586B002AF78600123BB730123FB7336
:1032C000012301930A2300934FF47A7320221549B6
:1032D000786800F0A1F84FF4FA620021786800F0F5
:1032E000C8F90346BB73BB7B002B11D17B6803F588
:1032F0008153083379687A6802F58052928A92B2D3
:10330000184601F077FA0346002B01D1012300E0B3
:103310000023002B01D00023FB73FB7B18461037E2
:10332000BD4680BDB041010880B586B002AF78606F
:103330000123BB730123FB73012301930A23009331
:103340004FF47A732C221549786800F065F84FF431
:10335000FA620021786800F08CF90346BB73BB7BEE
:10336000002B11D17B6803F58153083379687A68A3
:1033700002F58052928A92B2184601F03BFA034657
:10338000002B01D1012300E00023002B01D00023FA
:10339000FB73FB7B18461037BD4680BDD441010846
:1033A00080B586B002AF78600123BB730123FB7345
:1033B000012301930A2300934FF47A732A221549BB
:1033C000786800F029F84FF4FA620021786800F07C
:1033D00050F90346BB73BB7B002B11D17B6803F50F
:1033E0008153083379687A6802F58052928A92B2E2
:1033F000184601F0FFF90346002B01D1012300E03C
:103400000023002B01D00023FB73FB7B18461037F1
:10341000BD4680BD0442010880B584B000AFF860AD
:10342000B96011461A460B46FB801346BB80FB6809
:103430004FF40062002118460EF0A3F8FB6803F574
:1034400000634FF40062002118460EF09AF8002144
:10345000F86800F0C8F80121F86800F0C4F8FB68CB
:1034600003F580531A463B7E1372FB6803F58053C5
:103470001A463B7FD372FB6803F5805300225A72D1
:10348000FB6803F5805300221A73FB6803F5805331
:10349000FF229A73FB68FA6802F580521361FB6899
:1034A00003F5805300229A82FB6803F581530433AD
:1034B000FA6802F5805211694FF40062184601F073
:1034C00060F9FB6803F581500430BB88FA88B9685D
:1034D00001F044F900BF1037BD4680BD80B584B00F
:1034E00000AFF860B96011461A460B46FB801346E0
:1034F000BB80FB684FF40062002118460EF041F8D3
:10350000FB6803F500634FF40062002118460EF0DB
:1035100038F80021F86800F066F80121F86800F03A
:1035200062F8FB6803F580531A4697F8203013724F
:10353000FB6803F580531A4697F82430D372FB6872
:1035400003F5805300225A72FB6803F58053002272
:103550001A73FB6803F58053FF229A73FB68FA68BD
:1035600002F580521361FB6803F5805300229A82B2
:10357000FB6803F580531A463B7E93773B7F013B04
:10358000DAB2FB6803F58053DA77FB6803F5815301
:103590000433FA6802F5805211694FF4006218464C
:1035A00001F0EFF8FB6803F581500430BB88FA881E
:1035B000B96801F0D3F800BF1037BD4680BD80B4B4
:1035C00083B000AF78600B46FB70FB787A681344D9
:1035D00003F58153093301221A7000BF0C37BD4631
:1035E0005DF8047B704780B483B000AF78600B4611
:1035F000FB70FB787A68134403F58153093300228A
:103600001A7000BF0C37BD465DF8047B704780B46C
:1036100085B000AF78600B46FB700023FB73FB782E
:103620007A68134403F5815309331B78DBB2002B0E
:1036300014BF01230023DBB2002B02D00023FB7355
:1036400010E0FB787A68134403F5815309331B7843
:10365000DBB2002B0CBF01230023DBB2002B01D017
:103660000123FB73FB7B18461437BD465DF8047BD2
:10367000704780B584B000AF78600B46FB7013468E
:103680003B800023FB737B6803F580531A460023BD
:10369000D36204F075FF02467B6803F58053DA625B
:1036A00002E00A2000F0E4FCFB7819467868FFF796
:1036B000AEFF0346002B0CD004F062FF02467B688D
:1036C00003F58053DB6AD21A3B889A4201D2012368
:1036D00000E00023002BE4D1FB7819467868FFF75F
:1036E00096FF0346002B14BF01230023DBB2002BFF
:1036F00001D00123FB73FB7B18461037BD4680BD0C
:1037000080B582B000AF78600B46FB707B6803F534
:103710008053DB7ADBB2012B0CBF01230023DBB229
:10372000002B00F08A80F8787B6803F580531B69D2
:103730005A1C796801F580510A6102461A707B684B
:1037400003F580539B8A9BB201339AB27B6803F5E1
:1037500080539A827B6803F580531B7BDBB2012B7D
:103760000CBF01230023DBB2002B0CD07B6803F5D8
:1037700080539B7B5BB2DBB20133DBB25AB27B6816
:1037800003F580539A737B6803F580539B7ADBB211
:10379000012B07D1FB784F2B02D0FB78452B01D1B1
:1037A000012300E00023002B1BD07B6803F580532E
:1037B00000229A727B6803F5805301221A73FB780A
:1037C0004F2B05D17B6803F5805302225A730DE01D
:1037D000FB78452B0AD17B6803F5805305225A7389
:1037E00004E07B6803F5805300229A72FB780A2B71
:1037F00004D17B6803F5805301229A727B6803F53C
:1038000080539B7B5BB21A467B6803F580535B7BDE
:10381000DBB29A42ACBF01230023DBB2002B00F0E5
:10382000ED8000217868FFF7CAFE7B6803F58153BD
:103830000433184600F0B7FFE0E07B6803F58053DF
:10384000DB7ADBB2022B0CBF01230023DBB2002B9F
:1038500072D0F8787B6803F580531B695A1C79682D
:1038600001F580510A6102461A707B6803F58053A6
:103870009B8A9BB201339AB27B6803F580539A828C
:103880007B6803F580531B7ADBB20A2B14BF01233C
:103890000023DBB2002B0FD0FB783E2B40F0AE8034
:1038A00000217868FFF78BFE7B6803F581530433B2
:1038B000184600F078FFA1E07B6803F580531B7B7E
:1038C000DBB2012B04D1FB78452B01D1012300E0B1
:1038D0000023002B04D07B6803F5805302229A73E7
:1038E000FB780A2B0AD17B6803F580531B7BDBB284
:1038F0000133DAB27B6803F580531A737B6803F5F2
:1039000080531B7BDBB21A467B6803F580539B7B9D
:103910005BB29A420CBF01230023DBB2002B6DD0B7
:1039200000217868FFF74BFE7B6803F58153043371
:10393000184600F038FF61E07B6803F58053DB7ABE
:10394000DBB2032B0CBF01230023DBB2002B55D0CD
:10395000F8787B6803F580531B695A1C796801F578
:1039600080510A6102461A707B6803F580539B8A76
:103970009BB201339AB27B6803F580539A827B68CD
:1039800003F580539B7FDBB2FA789A420CBF012388
:103990000023DBB2002B0CD07B6803F580539B7BAC
:1039A0005BB2DBB20133DBB25AB27B6803F5805302
:1039B0009A737B6803F580531B7ADBB2FA789A42DC
:1039C0000ED17B6803F580539B7B5BB21A467B6804
:1039D00003F58053DB7FDBB29A4201DB012300E079
:1039E0000023002B0AD000217868FFF7E8FD7B68F0
:1039F00003F581530433184600F0D5FE00BF0837A5
:103A0000BD4680BD80B584B000AF78600B46FB70CA
:103A10000023FB730023FB7309E0FB7B114A52F880
:103A200033307A689A4206D0FB7B0133FB73FB7B11
:103A3000022BF2D900E000BFFB7B0A4ADB001344F3
:103A40005B68002B09D0FB7B064ADB0013445B68F4
:103A5000FA7811461846FFF753FE00BF1037BD46EF
:103A600080BD00BF4018002080B483B000AF7860F4
:103A700000BF0C37BD465DF8047B704780B485B04D
:103A800000AFF860B9603B601346FB71FB68BA6831
:103A90005A60FB68FA791A72FB683A681A60FB6828
:103AA00018461437BD465DF8047B704780B58AB070
:103AB00002AFF860B9607A600023FB83322000F027
:103AC000D7FAAC233B7633237B760023BB76F868AA
:103AD00000F075F80346002B0CBF01230023DBB276
:103AE000002B68D0FB685868FB681B7A5B0099B2B2
:103AF000FB681B6807F118020093032306F0C2F964
:103B0000642000F0B5FAFB685868FB681B7A5B001C
:103B100099B2FB681B6807F110020093072306F0B7
:103B2000AFFA3A7CFB685A72FB685B7A5BB2002B97
:103B300036DB7B7C1A46FB681A61FB681B691B023B
:103B4000BA7C1A43FB681A61FB681B691B01FA7C8B
:103B50001209D2B21A43FB681A61FB7C03F00F0210
:103B6000FB68DA60FB68DB681B023A7D1A43FB687E
:103B7000DA60FB68DB681B027A7D1A43FB68DA6057
:103B8000BA7DFB689A72F86800F03AF80246BB68A2
:103B90001A60F86800F070F802467B681A600AE064
:103BA000FB8B0133FB830A2000F062FAFB8B322B84
:103BB00000D8A8E700BF00BF2037BD4680BD80B554
:103BC00084B000AF78600023FB737B6858687B6823
:103BD0001B7A5B0099B24FF47A73032206F082FCE1
:103BE0000346002B14BF01230023DBB2002B01D0BE
:103BF000012300E0FB7B18461037BD4680BD000066
:103C000080B584B000AF78607B68DB681846FCF74D
:103C100079FC4FF00002154BFCF718FE02460B46EC
:103C2000104619464FF00002104BFCF70FFE0246FB
:103C30000B46104619464FF000020D4BFCF7DCFC1A
:103C400002460B46104619464FF00002094BFCF79E
:103C50001BFB02460B4610461946FCF7A5FF034620
:103C6000FB60FB6818461037BD4680BD00009040E1
:103C7000000069400000494080B584B000AF786022
:103C80007B681B691846FCF73DFC4FF00002114BA6
:103C9000FCF7DCFD02460B46104619464FF00002C9
:103CA0000C4BFCF7D3FD02460B46104619464FF06D
:103CB0000002094BFCF7A0FC02460B4610461946D1
:103CC000FCF772FF0346FB60FB6818461037BD46E1
:103CD00080BD00BF000090400000594080B483B018
:103CE00000AF786039607B68104A9A607B68002278
:103CF000DA607B684FF000021A617B680B4A5A61F8
:103D00007B6800221A767B680022DA617B680022D9
:103D10001A627B6800225A627B683A689A627B6802
:103D200018460C37BD465DF8047B7047000080BF25
:103D300080B588B000AFF86187ED050AC7ED040AC9
:103D400087ED031ABA607B600B46FB76FB7EBA6890
:103D500097ED031AD7ED040A97ED050A1946F8699D
:103D600000F00EF87968F86900F0E8F83B6BFA6A41
:103D7000B96AF86900F01CF900BF2037BD4680BD64
:103D800080B59AB000AFF8610B4687ED050AC7ED24
:103D9000040A87ED031ABA60FB76002387F85B30CC
:103DA00097ED047AD7ED057A77EE677AC7ED157A45
:103DB00007F124032822002118460DF0E2FB00231E
:103DC0007B66FB699B6A002B01D10123A8E00023DD
:103DD0003B6630E0FB699B6A184604F045FC0346ED
:103DE000002B14BF01230023DBB2002B01D00123E1
:103DF00096E0FB699B6A42F21071184604F039FDA7
:103E00000346002B14BF01230023DBB2002B01D09B
:103E1000012385E0FB699B6A184604F0C5FE024653
:103E20003B6E9B00603307F108010B4443F8442CC0
:103E30003B6E01333B663B6E092BCBDDFB699B6A16
:103E4000184604F0E3FC0023FB650DE0FB6D9B00CE
:103E5000603307F10802134453F8443C7A6E13446C
:103E60007B66FB6D0133FB65FB6D092BEEDD7B6E25
:103E70002D4AA2FB0323DB087B667B6E07EE903A9C
:103E8000B8EE677ADFED296AC7EE267A9FED287AC9
:103E900067EE877AC7ED147AD7ED146A97ED037A47
:103EA000C6EE877AB3EE007A67EE877AB1EE007AD3
:103EB00077EE877AC7ED137AD7ED137AB1EE007AF1
:103EC00077EEC77AF3EE006A87EEA67AD7ED157A19
:103ED00067EE277AFB69C3ED017AFB69D3ED016ACE
:103EE00097ED157AC6EE877A9FED127A67EE877A9C
:103EF000FB69C3ED007AFB6993ED007ADFED0D6A93
:103F0000C7EE267A9FED0C7A67EE877AFCEEE77AA9
:103F1000C7ED017A3B79DAB2BB681A7097F85B306B
:103F200018466837BD4680BDCDCCCCCC000080455E
:103F3000333353400000FA430000C84280B584B0D8
:103F400000AF7860396004F01BFBF8607B6893ED8C
:103F5000027A7B68D3ED007AB4EEE77AF1EE10FADC
:103F600007D57B681A687B689A607B68FA68DA61B3
:103F700018E07B68DB69FA68D31A0C4A934211D3C4
:103F80007B6893ED027A7B68D3ED007A77EE677AEF
:103F90003B68C3ED007A7B681A687B689A607B682F
:103FA000FA68DA611037BD4680BD00BF80EE36008A
:103FB00080B584B000AFF860B9607A603B60FB68A0
:103FC0001A68FB681A61FB68D3ED057AF5EEC07AD2
:103FD000F1EE10FA04D5FB681A69FB685A6144E0F7
:103FE000FB6893ED047AFB68D3ED057A77EE677A88
:103FF000FDEEE77A17EE902AFB68DA6004F0C0FA6B
:104000000246FB681A62FB681B7E002B11D1FB681D
:10401000DB68052B25DDFB6801221A76FB681A6A2E
:10402000FB685A627B68BA681A603B6800221A60B3
:1040300017E0FB68DB68002B0FDCFB681A6AFB6883
:104040005B6AD31A41F2873293420AD9FB68002295
:104050001A763B68BA681A6003E0FB681A6AFB6864
:104060005A62FB681A69FB685A611037BD4680BD09
:1040700080B582B000AF78607B684FF47A7202FB43
:1040800003F3054AA2FB03239B0918460AF084FDAB
:1040900000BF0837BD4680BDD34D621080B584B0E7
:1040A00000AFF860B9607A607B80FB6800221A621A
:1040B000FB68BA681A60FB680433796818460DF02B
:1040C0006CFBFB687A889A82FB68BA699A61FB6824
:1040D000FA69DA61FB6818461037BD4680BDB0B595
:1040E00084B002AF78607B6818687B68191D7B68B4
:1040F0009C8A7B689D697B68DB697A6820320192C3
:1041000000932B4622460AF0E9FB00BF0837BD4664
:10411000B0BD80B485B000AFF8607B600B467B819A
:1041200013463B81FB687A89A3F85420FB683A89DF
:10413000A3F85620FB687A689A65FB68184614371E
:10414000BD465DF8047B704790B585B002AF7860DE
:104150007B68B3F8543018467B68B3F856301C4679
:104160007B689A6D7B68043300210091214609F039
:104170002FFD02467B681A6000BF0C37BD4690BD1C
:1041800080B584B000AF786039600123FB737B6831
:1041900018680023C822396809F028FE0346012B5D
:1041A00014BF01230023DBB2002B01D0032300E066
:1041B000FB7B18461037BD4680BD80B584B000AF8C
:1041C000786039600223FB737B681B683222396890
:1041D000184609F0ABFF0346012B0CBF0123002357
:1041E000DBB2002B01D0002300E0FB7B1846103728
:1041F000BD4680BD80B483B000AF78607B68184650
:104200000C37BD465DF8047B704780B582B000AFC7
:104210007860012009F0D1FD02467B681A6000BF7A
:104220000837BD4680BD80B584B000AF78600123FB
:10423000FB737B681B684FF47A7118460AF058F8D4
:104240000346012B0CBF01230023DBB2002B01D05E
:10425000002300E0FB7B18461037BD4680BD80B5CB
:1042600084B000AF78600123FB737B68186800237B
:104270000022002109F0BAFDFB7B18461037BD462D
:1042800080BD80B483B000AF78607B6818460C377F
:10429000BD465DF8047B704780B582B000AF7860A2
:1042A00009F0BCF902467B681A6000BF0837BD46BA
:1042B00080BD000080B584B000AF7860EFF3058367
:1042C000FB60FB68002B14BF01230023DBB2002B33
:1042D0001ED07B6800225A607B6818687B680433B4
:1042E0001A46012109F042FB02467B689A607B680E
:1042F0009B68002B12D07B685B68002B0ED0094BAB
:104300004FF080521A60BFF34F8FBFF36F8F05E0FD
:104310007B681B680121184609F06CFA00BF103752
:10432000BD4680BD04ED00E080B584B002AF78608A
:1043300039607B6818683B684FF47A7202FB03F3BC
:10434000064AA2FB03239B090093002301220121BB
:1043500009F07EF900BF0837BD4680BDD34D62101D
:1043600080B584B000AFF860B9601346FB71FB689C
:104370000833184600F032FAFB680C331846FFF792
:1043800039FFFB68BA685A60FB68FA791A70FB68F3
:104390000C331846FFF739FFFB6818461037BD4647
:1043A00080BDB0B590B004AFF860B9607A603B6092
:1043B0000123FB62FB680C331846FFF734FF03460A
:1043C000002B0CBF01230023DBB2002B43D0FB6882
:1043D0005B6807F114010022184607F026FBFB6812
:1043E0005B6807F128010022184607F07CFB3B6858
:1043F000002B18D0FB6803F10805FB6893F9003027
:1044000003936C4607F11C0393E8070084E8070058
:1044100007F114030CCBB96A284600F02DFB0346C4
:104420001A463B681A60BB68002B02D0BA6ABB68A8
:104430001A607B68002B06D007F11403142219467A
:1044400078680DF0B2F9FB680C331846FFF707FFE8
:104450000023FB6214E03B68002B02D03B68002283
:104460001A60BB68002B03D000231A68BB681A606F
:104470007B68002B04D01422002178680DF095F998
:10448000FB6ADBB218463037BD46B0BD80B483B09E
:1044900000AF78603960064A7B681360054A3B6864
:1044A000136000BF0C37BD465DF8047B704700BF4A
:1044B0005C1800206418002080B584B000AF7860DC
:1044C0007B685B6CBB817B6893F84230DBB2222B4C
:1044D0000CBF01230023DBB2002B30D07B681B68AC
:1044E0005B689BB2DBB2FB81BB89002B07D0BB8929
:1044F0001B021AB2B7F90E3013431BB2FB817B6863
:10450000134A93420AD1134B1B68002B06D0114B60
:104510001B68FA89D2B21146786898477B680E4AC0
:1045200093420AD10D4B1B68002B06D00B4B1B6826
:10453000FA89D2B2114678689847002303E07B6875
:104540001B685B68022318461037BD4680BD00BF5C
:10455000682000205C180020B02000206018002097
:1045600080B586B000AF78607B681B681B687B6194
:104570007B681B68DB683B617B681B685B69FB6071
:104580000023BB607B6903F00F03BB60BB68002B9B
:104590000DD17B6903F02003002B08D03B6903F0A9
:1045A0002003002B03D07868FFF786FFB0E07B681C
:1045B0001B685B69FB60BB68002B00F08380FB68B5
:1045C00003F00103002B04D13B6903F49073002B2B
:1045D00078D07B6903F00103002B0FD03B6903F413
:1045E0008073002B0AD07B681B686FF001021A6091
:1045F0007B685B6C43F001027B685A647B6903F063
:104600000203002B0FD0FB6803F00103002B0AD03C
:104610007B681B686FF002021A607B685B6C43F07A
:1046200004027B685A647B6903F00403002B0FD0FB
:10463000FB6803F00103002B0AD07B681B686FF056
:1046400004021A607B685B6C43F002027B685A6468
:104650007B6903F00803002B14D03B6903F02003AF
:10466000002B04D1FB6803F00103002B0AD07B6808
:104670001B686FF008021A607B685B6C43F00802ED
:104680007B685A647B685B6C002B14BF012300239A
:10469000DBB2002B39D07B6903F02003002B0AD05A
:1046A0003B6903F02003002B05D07B6800225A648D
:1046B0007B681B685B68786808F0D6FB7B68002223
:1046C0005A6422E07B6903F08003002B20D03B6911
:1046D00003F08003002B1BD07B680F4A934207D165
:1046E0000E4B1B68002B03D00C4B1B687868984757
:1046F0007B680B4A93420AD10A4B1B68002B06D0F9
:10470000084B1B687868984701E000BF00E000BFD5
:104710001837BD4680BD00BF682000206418002007
:10472000B02000206818002080B582B000AF78600B
:104730007868FFF715FF00BF0837BD4680BD80B41D
:1047400083B000AF786039607B683A681A607B6834
:1047500018460C37BD465DF8047B704780B584B0C1
:1047600000AFF860B9603B601346FB80FB681868D7
:10477000FA883B68B96808F015FA00BF1037BD46E3
:1047800080BD80B584B000AFF860B9601346FB808F
:10479000FB681B68FA88B968184608F08EFA00BFF3
:1047A0001037BD4680BD80B582B000AF78607B68B1
:1047B0001B68184608F0A6FA00BF0837BD4680BD42
:1047C00080B582B000AF78603960396878680CF0E5
:1047D000E0FE034618460837BD4680BD80B483B06E
:1047E00000AF78607B6818460C37BD465DF8047BE7
:1047F0007047000080B586B000AFF860B96013461E
:10480000FB800223FB750C49B8680CF0E2FE0346FE
:10481000002B02D00023FB7508E00849B8680CF0B3
:10482000D8FE0346002B01D00123FB75FB7D184603
:104830001837BD4680BD00BF3C3E0108403E010820
:1048400090B5ADF5077D00AF07F50674A4F50374C8
:10485000206007F50670A0F504700160114607F5A9
:104860000672A2F50672136007F50673A3F212230F
:104870000A461A80022387F80D320023A7F8163261
:1048800007F50673A3F212231A8807F50673A3F53A
:10489000047307F1140019680CF088FE07F506731D
:1048A000A3F5067307F11402196810460CF091FE87
:1048B0000346002B01D1022385E0D7F83032002BCC
:1048C00001D100237FE097F8282207F11403114655
:1048D0001846FFF775FFC7F80802D7F80832002B13
:1048E00016D007F11403D7F80822D31AC7F81032EC
:1048F00097F828323A2B05D1D7F810320233C7F88F
:10490000103207E0D7F810320133C7F8103201E057
:10491000022358E0D7F81032A7F80E323CE0B7F87F
:104920000E3207F50672A2F50472126813441B7862
:1049300097F82C229A420FD0B7F80E3207F506727C
:10494000A2F5047212681A44B7F81632D7F830127A
:104950000B4412781A7015E0B7F80E3207F506729C
:10496000A2F50472126813441B7897F82C229A421D
:1049700008D1B7F81632D7F83022134400221A7043
:10498000002320E0B7F80E320133A7F80E32B7F853
:1049900016320133A7F81632B7F8162207F5067358
:1049A000A3F212231988D7F81032CB1A9A4208DAE8
:1049B00007F50673A3F21223B7F80E221B889A425A
:1049C000ADD397F80D32184607F50777BD4690BD71
:1049D00080B588B000AFF860B9607A60FB700023E2
:1049E0007B76FB6A002B01D1012340E07968B8682F
:1049F0000CF0EFFDF861FB69002B01D1022336E0DA
:104A00007868FBF735FC0246FB691344FB61FB69E0
:104A10000133FB61FB781946F869FFF7D1FE786135
:104A20007B69002B01D1022321E07B690133FB610B
:104A300000237B830AE0FB695A1CFA611978FA6A41
:104A40007B8B581C788313440A461A70FB691B78C9
:104A500097F828209A4204D07A8B3B8E013B9A42E9
:104A6000E9DB7B8BFA6A134400221A707B7E1846BE
:104A70002037BD4680BD000082B080B58CB000AF4D
:104A80007860396007F1380181E80C00BB783B623F
:104A90007B78FB61FB78BB61BB69452B02DC4FF483
:104AA000FA6301E040F26C73BA691344BB6197F892
:104AB00038307B6197F839303B6197F83A30FB60CA
:104AC00097F94C2013461B019B1A9B00BB600023E7
:104AD000FB6240F2B273BB6211E0B96A786800F021
:104AE0005DF80346002B02D04FF4B77301E040F2AB
:104AF0006D13FA6A1344FB62BB6A0133BB62BA6A84
:104B0000BB699A42E9DBFB6A234A02FB03F3FB62BF
:104B100001237B620EE07A6AB969786800F06EF86A
:104B200003461D4A02FB03F3FA6A1344FB627B6AE5
:104B300001337B627A6AFB699A42ECDB3B6A013B98
:104B4000154A02FB03F3FA6A1344FB627B694FF4D4
:104B5000616202FB03F3FA6A1344FB623A6913468B
:104B60001B019B1A9B001A46FB6A1344FB62FA6AFC
:104B7000FB681344FB62BA68134612019B1A9B0040
:104B80001A46FB6A1344FB62FB6A18463037BD467F
:104B9000BDE8804002B070478051010080B483B00E
:104BA00000AF786039603B6803F00303002B0CD141
:104BB0003A68114B83FB02135911D317CB1A6421A6
:104BC00001FB03F3D31A002B0DD13A680A4B83FB88
:104BD0000213D911D317CB1A4FF4C87101FB03F399
:104BE000D31A002B01D1012300E0002318460C3713
:104BF000BD465DF8047B70471F85EB5180B584B0DE
:104C000000AFF860B9607A607B68022B08D1B968A0
:104C1000F868FFF7C3FF0346002B01D0012300E033
:104C20000023002B01D01D2304E07B68013B034AD5
:104C300052F8233018461037BD4680BD3042010877
:104C400080B586B002AF7860002000F0C5FC7868BF
:104C500000F011FF786800F0E9FB334B1979324B13
:104C60005B79314A1268019200930B46022230218F
:104C7000786800F087FE0121786801F0BCFB022112
:104C8000786801F046FE2949786801F015FD09238E
:104C900000931A2311220221786800F0B6FE244BFB
:104CA00019220321786801F065FC224B232205219B
:104CB000786801F05FFC092300931A23282202215F
:104CC000786800F0A2FE1C4B30220321786801F0C6
:104CD00051FC1A4B3A220521786801F04BFC09235C
:104CE00000931F2311225621786800F08EFE144B8A
:104CF00019225821786801F03DFC124B23225821DB
:104D0000786801F037FC786800F028FF4FF47A707B
:104D100000F044FCF860FB68002B98D000BF00BF97
:104D20001037BD4680BD00BF80470108844B010895
:104D3000003F0108083F01080C3F0108143F01082B
:104D4000183F0108203F010880B586B002AF7860A7
:104D5000002000F041FC786800F08DFE786800F0DB
:104D600065FB334B1979324B5B79314A12680192FA
:104D700000930B4602223021786800F003FE0121E7
:104D8000786801F038FB0221786801F0C2FD2949FA
:104D9000786801F091FC092300933323112202214A
:104DA000786800F032FE244B19220321786801F064
:104DB000E1FB224B23220521786801F0DBFB09236C
:104DC00000932E2328220221786800F01EFE1C4B3F
:104DD00030220321786801F0CDFB184B3A220521DF
:104DE000786801F0C7FB0923009333231122512176
:104DF000786800F00AFE134B19225221786801F0FE
:104E0000B9FB0E4B23225221786801F0B3FB78687E
:104E100000F0A4FE4FF47A7000F0C0FBF860FB686D
:104E2000002B98D000BF00BF1037BD4680BD00BF2B
:104E300078470108844B0108243F0108303F0108EE
:104E4000383F0108443F010880B586B002AF786062
:104E5000002000F0C1FB786800F00DFE786800F0DB
:104E6000E5FA334B1979324B5B79314A126801927A
:104E700000930B4602223021786800F083FD012167
:104E8000786801F0B8FA0221786801F042FD2949FA
:104E9000786801F011FC09230093292311220221D3
:104EA000786800F0B2FD244B19220321786801F0E4
:104EB00061FB224B23220F21786801F05BFB092361
:104EC00000932E2328220221786800F09EFD1C4BBF
:104ED00030220321786801F04DFB1A4B3A2205215C
:104EE000786801F047FB09230093332311225121F5
:104EF000786800F08AFD144B19225221786801F07D
:104F000039FB124B23225221786801F033FB786879
:104F100000F024FE4FF47A7000F040FBF860FB686C
:104F2000002B98D000BF00BF1037BD4680BD00BF2A
:104F300070470108844B0108503F01085C3F01089D
:104F4000603F01086C3F0108783F0108843F010879
:104F500080B586B002AF7860002000F03DFB786835
:104F600000F089FD786800F061FA334B1979324B13
:104F70005B79314A1268019200930B46022230217C
:104F8000786800F0FFFC0121786801F034FA022112
:104F9000786801F0BEFC2949786801F08DFB09238F
:104FA0000093292311220221786800F02EFD244B62
:104FB00019220321786801F0DDFA224B2322022115
:104FC000786801F0D7FA09230093332328220221BD
:104FD000786800F01AFD1C4B30220321786801F03C
:104FE000C9FA1A4B3A220521786801F0C3FA09235D
:104FF00000931F2311225421786800F006FD144B02
:1050000019225521786801F0B5FA124B232252215A
:10501000786801F0AFFA786800F0A0FD4FF47A707C
:1050200000F0BCFAF860FB68002B98D000BF00BF0E
:105030001037BD4680BD00BF68470108844B01089A
:10504000903F01089C3F0108A43F0108B03F0108C0
:10505000B83F0108C03F010880B586B002AF786054
:10506000002000F0B9FA786800F005FD786800F0DB
:10507000DDF9334B1979324B5B79314A1268019271
:1050800000930B4602223021786800F07BFC01215E
:10509000786801F0B0F90221786801F03AFC2949FA
:1050A000786801F009FB09230093292311220221CA
:1050B000786800F0AAFC244B19220321786801F0DB
:1050C00059FA224B23220221786801F053FA09236E
:1050D00000932E2328220221786800F096FC1C4BB6
:1050E00030220321786801F045FA1A4B3A22052153
:1050F000786801F03FFA092300931A231122542102
:10510000786800F082FC144B19225521786801F070
:1051100031FA124B23225321786801F02BFA786878
:1051200000F01CFD4FF47A7000F038FAF860FB686C
:10513000002B98D000BF00BF1037BD4680BD00BF18
:1051400060470108844B0108C83F0108D43F0108AB
:10515000E03F0108EC3F0108F43F0108FC3F010873
:1051600080B586B002AF7860002000F035FA78682C
:1051700000F081FC786800F059F93149786801F055
:105180009BFA304B19792F4B5B792E4A12680192AA
:1051900000930B4610220A21786800F0F3FB2A4B9B
:1051A00026220521786801F0E5F9284B2E220521F9
:1051B000786801F0DFF9234B1979224B5B79214A9A
:1051C0001268019200930B460A223621786800F09B
:1051D000D9FB1D4B20223221786801F0CBF91B4B03
:1051E00028223221786801F0C5F9164B1979154B40
:1051F0005B79144A1268019200930B4610226421D5
:10520000786800F0BFFB104B26226021786801F01F
:10521000B1F90E4B2E226021786801F0ABF9786865
:1052200000F09CFC4FF47A7000F0B8F9F860FB686D
:10523000002B9CD000BF00BF1037BD4680BD00BF13
:10524000844B010858470108044001080C4001083C
:1052500080B584B000AF7860714B1B68062B02D11B
:105260006F4B00221A600023FB810EE0FA896D4922
:1052700013461B0113449B000B441A68684B1B68C0
:105280009A4206D0FB890133FB81FB89052BEDD9BE
:1052900000E000BFFB89052B00F2B880FF2200214F
:1052A00061480CF06EF9FA895E4913461B011344FC
:1052B0009B000B4404331B687868984700F080F922
:1052C00003460A2B4ED00A2BC0F2A4803C2B00F3DD
:1052D000A1801E2BC0F29E801E3B1E2B00F29A80E6
:1052E00001A252F823F000BFAD5300081554000886
:1052F00015540008155400081554000815540008EA
:1053000015540008155400081554000815540008D9
:10531000C55300081554000815540008155400081A
:1053200015540008155400081554000815540008B9
:105330001554000815540008DD53000815540008E2
:105340001554000815540008155400081554000899
:105350001554000815540008155400081554000889
:10536000F55300080023BB600023BB601AE0FA89F4
:105370002C4913461B011344BA681344023351F8F5
:105380002330062B0BD1FA89264913461B011344FF
:105390009B000B441B68224A136000BF3BE0BB68C4
:1053A0000133BB60BB68092BE1D934E0FA891D49A0
:1053B00013461B0113449B000B4438331B68184AE7
:1053C000136028E0FA89174913461B0113449B0018
:1053D0000B4434331B68124A13601CE0FA891149EC
:1053E00013461B0113449B000B4440331B680C4ABB
:1053F000136010E0FA890B4913461B0113449B000C
:105400000B443C331B68064A136004E0044B06223D
:105410001A6000E000BF00BF1037BD4680BD00BF6E
:1054200000000020040000206C18002080B5A4B00B
:1054300002AF786007F1080207F11C01002326483B
:10544000FEF7AFFF3B7A1A467B7A1946BB7A07F123
:10545000540000930B4621490CF030F8BB7F1A46EC
:105460007B7F1946FB7F07F1200000930B461C4908
:105470000CF024F81B49786801F01EF907F1540379
:105480000A220021786801F075F807F120030A224A
:105490005821786801F06EF8134B1979124B5B793B
:1054A000114A1268019200930B4630223721786826
:1054B00000F068FA0D4B19790C4B5B790B4A1268B6
:1054C000019200930B4630227021786800F05AFA5E
:1054D00000BF8837BD4680BD201800201440010859
:1054E00024400108844B010848470108504701083F
:1054F00080B500AF00F080F800BF80BD80B582B0FD
:1055000000AF786003F03CF802467B681A6000BF89
:105510000837BD4680BD80B584B000AF7860396083
:105520000023FB7303F02CF802467B681B68D31A38
:105530003A689A4201D2012300E00023FB73FB7B0F
:1055400018461037BD4680BD80B500AF0848FEF74D
:10555000A3FE084B0022DA60064B01225A71054B6C
:1055600000221A60034B00229A6000BF80BD00BF7A
:105570006C1900207819002080B582B000AF7860E7
:10558000044A7B68D3600448FEF794FE00BF0837E6
:10559000BD4680BD781900206C19002080B582B00E
:1055A00000AF786079680448FEF7BEFE034BDB6805
:1055B00018460837BD4680BD6C19002078190020B8
:1055C00080B400AF034BDB681846BD465DF8047B32
:1055D000704700BF7819002080B483B000AF7860B6
:1055E000044A7B68D36000BF0C37BD465DF8047B7E
:1055F000704700BF7819002080B500AF994B5B79E8
:10560000002B6ED00421984804F0ACFA0346002B1E
:105610000CBF01230023DBB2002B09D09148FFF718
:105620006DFF904B00225A718E4B01229A6017E158
:1056300002218D4804F096FA0346002B0CBF01238B
:105640000023DBB2002B09D08648FFF757FF854BBC
:1056500000225A71834B03229A6001E1082182489B
:1056600004F080FA0346002B0CBF01230023DBB2B9
:10567000002B09D07B48FFF741FF7A4B00225A717B
:10568000784B04229A60EBE01021774804F06AFA24
:105690000346002B0CBF01230023DBB2002B09D0F3
:1056A0007048FFF72BFF6F4B00225A716D4B05229C
:1056B0009A60D5E020216C4804F054FA0346002B90
:1056C0000CBF01230023DBB2002B00F0C98065482A
:1056D000FFF714FF634B00225A71624B06229A6057
:1056E000BEE0604B5B79002B08D146215D48FFF797
:1056F00012FF0346002B01D0012300E00023002B02
:1057000000F0AE80574B9B68013B052B00F2A18057
:1057100001A252F823F000BF315700085358000887
:105720006B570008A5570008DF57000819580008F4
:1057300004214D4804F016FA0346002B0CBF012348
:105740000023DBB2002B09D0464B01225A71454B96
:1057500000229A600A20FFF70FFF81E0414B0122EF
:105760005A71404B00229A607AE002213E4804F0D0
:10577000F9F90346002B0CBF01230023DBB2002BF9
:1057800009D0384B01225A71364B00229A601E20F4
:10579000FFF7F2FE64E0334B01225A71314B0022D5
:1057A0009A605DE00821304804F0DCF90346002BE4
:1057B0000CBF01230023DBB2002B09D0294B0122AF
:1057C0005A71284B00229A602820FFF7D5FE47E047
:1057D000244B01225A71234B00229A6040E0102191
:1057E000214804F0BFF90346002B0CBF012300231E
:1057F000DBB2002B09D01B4B01225A71194B00223E
:105800009A603220FFF7B8FE2AE0164B01225A7147
:10581000144B00229A6023E02021134804F0A2F9DF
:105820000346002B0CBF01230023DBB2002B09D061
:105830000C4B01225A710B4B00229A603C20FFF75F
:105840009BFE0DE0074B01225A71064B00229A6025
:1058500006E0044B01225A71024B00229A6000BFFD
:1058600000BF80BD78190020000C024080B582B0D6
:1058700000AF786039607B68012B07D13B684FF639
:10588000FF72934202D10348FEF7FBFC00BF0837CA
:10589000BD4680BD6C19002080B500AF4FF6FF718A
:1058A0000120FFF7E3FF80BD80B586B002AF7860CE
:1058B000084611461A460346FB700B46BB7013465A
:1058C0007B707B6893F87D30BB73BB7B002B0CBF78
:1058D00001230023DBB27B73FA787B781344D8B2C0
:1058E000BB780133DBB2BA78F97800930346786865
:1058F00001F059F80346002B40D00123FB7335E03B
:10590000BB691A78FB7B1340DBB2002B0CD07B68A1
:10591000BA7B83F87D20BA78F978002300930123BD
:10592000786800F0D7FF10E07B6893F87C30002B9C
:105930000BD17B687A7B83F87D20BA78F9780023D5
:1059400000930123786800F0C5FFFB780133FB70FA
:10595000FB7B5B00FB73FB7B002B04D10123FB7300
:10596000BB690133BB617B78013B7B707B78002B8B
:10597000C6D17B68BA7B83F87D2000E000BF10377A
:10598000BD4680BD80B586B002AF7860084611463E
:105990001A460346FB700B46BB7013467B707B7840
:1059A000FB73FB7B0733FB73FB7BDB08FB73FA7832
:1059B0007B781344D8B2BA783B7E1344DBB2BA7812
:1059C000F97800930346786800F0EDFF0346002B5A
:1059D00017D012E07878BA78F978FB69009303461B
:1059E0007868FFF761FFFB7BFA691344FB61BB78C2
:1059F0000133BB703B7E013B3B763B7E002BE9D104
:105A000000E000BF1037BD4680BD80B584B002AF56
:105A10007860084611461A460346FB700B46BB7079
:105A200013467B70FA787B781344D8B2BA783B7C03
:105A30001344DBB2BA78F97800930346786800F033
:105A4000B2FF0346002B12D00DE07B78BA78F978CC
:105A500000200090786800F03DFFBB780133BB70F8
:105A60003B7C013B3B743B7C002BEED100E000BF54
:105A70000837BD4680BD80B584B000AF78607B68D4
:105A80001B681B7CFB607B6893F838301A46FB6808
:105A900002FB03F3FB60FB68DB00FB607B685B6B76
:105AA000FA68002118460BF06CFD00BF1037BD46A8
:105AB00080BD80B586B002AF78600B46FB701346A0
:105AC000BB707B681B681B7CFB73FB78BB817B68AE
:105AD0005B6BBB60FB7B9BB2BA8912FB03F3BB81A0
