:020000040800F2
:1000000000000220AD6F0008496700085167000832
:100010005967000861670008696700080000000070
:10002000000000000000000000000000F1E20008F5
:10003000716700080000000041E5000819C10008D0
:10004000FD6F0008FD6F0008FD6F0008FD6F0008E0
:10005000FD6F0008FD6F0008FD6F0008FD6F0008D0
:10006000FD6F0008FD6F0008FD6F0008FD6F0008C0
:10007000FD6F0008FD6F0008FD6F0008FD6F0008B0
:10008000FD6F0008FD6F000881670008FD6F000824
:10009000FD6F0008FD6F0008FD6F0008FD6F000890
:1000A000FD6F0008FD6F0008FD6F0008FD6F000880
:1000B000FD6F00089D670008FD6F0008FD6F0008D8
:1000C000FD6F0008FD6F0008FD6F0008FD6F000860
:1000D000FD6F0008FD6F0008B1670008C5670008E4
:1000E000FD6F0008FD6F0008FD6F0008FD6F000840
:1000F000FD6F0008FD6F0008FD6F0008FD6F000830
:10010000FD6F0008FD6F0008FD6F0008FD6F00081F
:10011000FD6F0008D9670008FD6F0008FD6F00083B
:10012000FD6F0008FD6F0008ED670008FD6F000817
:10013000FD6F0008FD6F0008FD6F0008FD6F0008EF
:10014000FD6F0008FD6F0008FD6F0008FD6F0008DF
:10015000FD6F0008FD6F0008FD6F0008FD6F0008CF
:10016000FD6F0008FD6F0008FD6F0008FD6F0008BF
:10017000FD6F0008FD6F0008FD6F00080000000023
:08018000FD6F0008FD6F00088F
:1001900010B5054C237833B9044B13B10448AFF3C1
:1001A00000800123237010BD3002002000000000F9
:1001B000781B010808B5034B1BB103490348AFF393
:1001C000008008BD0000000034020020781B0108F8
:1001D00001F0FF01102A2BDB10F0070F08D010F8F8
:1001E000013B013A8B422DD010F0070F42B3F6D1FC
:1001F000F0B441EA012141EA014122F007047FF015
:1002000000070023F0E80256083C85EA010586EA6B
:10021000010685FA47F5A3FA87F586FA47F6A5FAA7
:1002200087F68EB9EED1F0BC01F0FF0102F00702B3
:1002300032B110F8013B013A83EA010313B1F8D15E
:100240000020704701387047002D06BF354603383F
:10025000073815F0010F07D1013015F4807F02BF78
:10026000013015F4C03F0130F0BC0138704700BFC9
:10027000034613F8012B002AFBD1181A01387047E6
:1002800081F0004102E000BF83F0004330B54FEA47
:1002900041044FEA430594EA050F08BF90EA020FB4
:1002A0001FBF54EA000C55EA020C7FEA645C7FEA47
:1002B000655C00F0E2804FEA5454D4EB5555B8BF6A
:1002C0006D420CDD2C4480EA020281EA030382EADB
:1002D000000083EA010180EA020281EA0303362D6D
:1002E00088BF30BD11F0004F4FEA01314FF4801C40
:1002F0004CEA113102D0404261EB410113F0004F52
:100300004FEA03334CEA133302D0524263EB430308
:1003100094EA050F00F0A780A4F10104D5F1200EA6
:100320000DDB02FA0EFC22FA05F2801841F1000101
:1003300003FA0EF2801843FA05F359410EE0A5F1D5
:1003400020050EF1200E012A03FA0EFC28BF4CF006
:10035000020C43FA05F3C01851EBE37101F00045BC
:1003600007D54FF0000EDCF1000C7EEB00006EEBC9
:100370000101B1F5801F1BD3B1F5001F0CD3490853
:100380005FEA30004FEA3C0C04F101044FEA4452AA
:1003900012F5800F80F09A80BCF1004F08BF5FEA31
:1003A000500C50F1000041EB045141EA050130BD11
:1003B0005FEA4C0C404141EB0101013C28BFB1F523
:1003C000801FE9D291F0000F04BF01460020B1FA6E
:1003D00081F308BF2033A3F10B03B3F120020CDA41
:1003E0000C3208DD02F1140CC2F10C0201FA0CF01F
:1003F00021FA02F10CE002F11402D8BFC2F1200C84
:1004000001FA02F120FA0CFCDCBF41EA0C01904039
:10041000E41AA2BF01EB0451294330BD6FEA040482
:100420001F3C1CDA0C340EDC04F11404C4F120026D
:1004300020FA04F001FA02F340EA030021FA04F37F
:1004400045EA030130BDC4F10C04C4F1200220FAD6
:1004500002F001FA04F340EA0300294630BD21FA14
:1004600004F0294630BD94F0000F83F4801306BFDA
:1004700081F480110134013D4EE77FEA645C18BFCE
:100480007FEA655C29D094EA050F08BF90EA020F65
:1004900005D054EA000C04BF1946104630BD91EA5D
:1004A000030F1EBF0021002030BD5FEA545C05D160
:1004B0004000494128BF41F0004130BD14F580049F
:1004C0003CBF01F5801130BD01F0004545F0FE4113
:1004D00041F470014FF0000030BD7FEA645C1ABF48
:1004E000194610467FEA655C1CBF0B46024650EA7F
:1004F000013406BF52EA033591EA030F41F40021AB
:1005000030BD00BF90F0000F04BF0021704730B530
:100510004FF4806404F132044FF000054FF0000105
:1005200050E700BF90F0000F04BF0021704730B5C6
:100530004FF4806404F1320410F0004548BF40429B
:100540004FF000013EE700BF42004FEAE2014FEAF0
:1005500031014FEA02701FBF12F07F4393F07F4FCB
:1005600081F06051704732F07F4208BF704793F0CE
:100570007F4F04BF41F40021704730B54FF46074E1
:1005800001F0004521F000411CE700BF50EA0102E4
:1005900008BF704730B54FF000050AE050EA01028D
:1005A00008BF704730B511F0004502D5404261EBFD
:1005B00041014FF4806404F132045FEA915C3FF43E
:1005C000D8AE4FF003025FEADC0C18BF03325FEADB
:1005D000DC0C18BF033202EBDC02C2F1200300FA8C
:1005E00003FC20FA02F001FA03FE40EA0E0021FAB1
:1005F00002F11444BDE600BF70B54FF0FF0C4CF49F
:10060000E06C1CEA11541DBF1CEA135594EA0C0F50
:1006100095EA0C0F00F0DEF82C4481EA030621EA8B
:100620004C5123EA4C5350EA013518BF52EA0335C6
:1006300041F4801143F4801338D0A0FB02CE4FF078
:100640000005E1FB02E506F00042E0FB03E54FF0A8
:100650000006E1FB03569CF0000F18BF4EF0010EA0
:10066000A4F1FF04B6F5007F64F5407404D25FEA9C
:100670004E0E6D4146EB060642EAC62141EA55514F
:100680004FEAC52040EA5E504FEACE2EB4F1FD0C91
:1006900088BFBCF5E06F1ED8BEF1004F08BF5FEA0F
:1006A000500E50F1000041EB045170BD06F00046C1
:1006B00046EA010140EA020081EA0301B4EB5C046E
:1006C000C2BFD4EB0C0541EA045170BD41F4801166
:1006D0004FF0000E013C00F3AB8014F1360FDEBF8B
:1006E000002001F0004170BDC4F10004203C35DA67
:1006F0000C341BDC04F11404C4F1200500FA05F3EA
:1007000020FA04F001FA05F240EA020001F000428A
:1007100021F0004110EBD37021FA04F642EB060100
:100720005EEA430E08BF20EAD37070BDC4F10C042A
:10073000C4F1200500FA04F320FA05F001FA04F2EE
:1007400040EA020001F0004110EBD37041F10001DA
:100750005EEA430E08BF20EAD37070BDC4F12005E5
:1007600000FA05F24EEA020E20FA04F301FA05F24D
:1007700043EA020321FA04F001F0004121FA04F2F5
:1007800020EA020000EBD3705EEA430E08BF20EAC5
:10079000D37070BD94F0000F0FD101F000464000FF
:1007A00041EB010111F4801F08BF013CF7D041EA81
:1007B000060195F0000F18BF704703F00046520085
:1007C00043EB030313F4801F08BF013DF7D043EA56
:1007D0000603704794EA0C0F0CEA135518BF95EA0C
:1007E0000C0F0CD050EA410618BF52EA4306D1D193
:1007F00081EA030101F000414FF0000070BD50EAB2
:10080000410606BF1046194652EA430619D094EA3B
:100810000C0F02D150EA013613D195EA0C0F05D125
:1008200052EA03361CBF104619460AD181EA030179
:1008300001F0004141F0FE4141F470014FF0000031
:1008400070BD41F0FE4141F4780170BD70B54FF0CC
:10085000FF0C4CF4E06C1CEA11541DBF1CEA13554C
:1008600094EA0C0F95EA0C0F00F0A7F8A4EB05042E
:1008700081EA030E52EA03354FEA013100F0888025
:100880004FEA03334FF0805545EA131343EA1263EE
:100890004FEA022245EA111545EA10654FEA0026A3
:1008A0000EF000419D4208BF964244F1FD0404F55C
:1008B000407402D25B084FEA3202B61A65EB0305B8
:1008C0005B084FEA32024FF480104FF4002CB6EB75
:1008D000020E75EB030E22BFB61A754640EA0C00F5
:1008E0005B084FEA3202B6EB020E75EB030E22BF35
:1008F000B61A754640EA5C005B084FEA3202B6EB76
:10090000020E75EB030E22BFB61A754640EA9C0034
:100910005B084FEA3202B6EB020E75EB030E22BF04
:10092000B61A754640EADC0055EA060E18D04FEAC2
:10093000051545EA16754FEA06164FEAC30343EA62
:1009400052734FEAC2025FEA1C1CC0D111F4801F2F
:100950000BD141EA00014FF000004FF0004CB6E728
:1009600011F4801F04BF01430020B4F1FD0C88BFC7
:10097000BCF5E06F3FF6AFAEB5EB030C04BFB6EBD2
:10098000020C5FEA500C50F1000041EB045170BDC5
:100990000EF0004E4EEA113114EB5C04C2BFD4EBF2
:1009A0000C0541EA045170BD41F480114FF0000E76
:1009B000013C90E645EA060E8DE60CEA135594EAF2
:1009C0000C0F08BF95EA0C0F3FF43BAF94EA0C0FF5
:1009D0000AD150EA01347FF434AF95EA0C0F7FF46A
:1009E00025AF104619462CE795EA0C0F06D152EABE
:1009F00003353FF4FDAE1046194622E750EA4106A2
:100A000018BF52EA43067FF4C5AE50EA41047FF4B2
:100A10000DAF52EA43057FF4EBAE12E74FF0FF3C17
:100A200006E000BF4FF0010C02E000BF4FF0010CE8
:100A30004DF804CD4FEA410C7FEA6C5C4FEA430C61
:100A400018BF7FEA6C5C1BD001B050EA410C0CBFB0
:100A500052EA430C91EA030F02BF90EA020F002012
:100A6000704710F1000F91EA030F58BF994208BF79
:100A700090422CBFD8176FEAE37040F00100704736
:100A80004FEA410C7FEA6C5C02D150EA013C07D18D
:100A90004FEA430C7FEA6C5CD6D152EA033CD3D0D8
:100AA0005DF8040B704700BF8446104662468C46D2
:100AB0001946634600E000BF01B5FFF7B7FF002805
:100AC00048BF10F1000F01BD4DF808EDFFF7F4FF2E
:100AD0000CBF012000205DF808FB00BF4DF808EDB9
:100AE000FFF7EAFF34BF012000205DF808FB00BFDC
:100AF0004DF808EDFFF7E0FF94BF012000205DF8FE
:100B000008FB00BF4DF808EDFFF7CEFF94BF0120B2
:100B100000205DF808FB00BF4DF808EDFFF7C4FFAB
:100B200034BF012000205DF808FB00BF4FEA410CF4
:100B30007FEA6C5C02D150EA013C0AD14FEA430CD7
:100B40007FEA6C5C02D152EA033C02D14FF0000014
:100B500070474FF0010070474FEA410212F5001252
:100B600015D211D56FF47873B3EB625212D94FEAF4
:100B7000C12343F0004343EA505311F0004F23FADE
:100B800002F018BF404270474FF00000704750EA33
:100B9000013005D111F0004008BF6FF000407047F0
:100BA0004FF00000704700BF4A0011D212F500124A
:100BB00011D20DD56FF47873B3EB62520ED44FEAB5
:100BC000C12343F0004343EA505323FA02F0704735
:100BD0004FF00000704750EA013002D14FF0FF3073
:100BE00070474FF0000070474FEA4102B2F1E04316
:100BF00024BFB3F5001CDCF1FE5C0DD901F0004C04
:100C00004FEAC0024CEA5070B2F1004F40EB830053
:100C100008BF20F00100704711F0804F21D113F17F
:100C20003872BCBF01F00040704741F480114FEAB8
:100C30005252C2F11802C2F1200C10FA0CF320FA41
:100C400002F018BF40F001004FEAC1234FEAD3235E
:100C500003FA0CFC40EA0C0023FA02F34FEA4303C8
:100C6000CCE77FEA625307D150EA01331EBF4FF051
:100C7000FE4040F44000704701F0004040F0FE406C
:100C800040F40000704700BF53B94AB9002908BFBB
:100C900000281CBF4FF0FF314FF0FF3000F06AB961
:100CA000ADF1080C6DE904CE00F006F8DDF804E0C3
:100CB000DDE9022304B070472DE9F047089D0C469A
:100CC000002B4ED194468C458646B2FA82F262D908
:100CD0004AB1C2F12003914020FA03F30CFA02FC5E
:100CE000194300FA02FE4FEA1C471FFA8CF6B1FBCB
:100CF000F7F44FEA1E4307FB141143EA014304FBD8
:100D000006F199420AD91CEB030304F1FF3080F08D
:100D10001281994240F20F81023C6344591A1FFA32
:100D20008EF3B1FBF7F007FB101143EA014300FB20
:100D300006F69E420AD91CEB030300F1FF3180F056
:100D4000FC809E4240F2F980634402389B1B40EADB
:100D5000044000211DB1D3400022C5E90032BDE8A6
:100D6000F0878B4205D90DB1C5E900010021084685
:100D7000F5E7B3FA83F1002946D1A34202D39042AA
:100D8000C0F0F080861A64EB03030120002DE6D04A
:100D9000C5E90063E3E7002A40F09080A1EB0C0472
:100DA0004FEA1C481FFA8CF70121B4FBF8F64FEA12
:100DB0001E4308FB164443EA044307FB06F098422F
:100DC00008D91CEB030306F1FF3402D2984200F26B
:100DD000CD8026461C1A1FFA8EF3B4FBF8F008FBF0
:100DE000104443EA044300FB07F79F4208D91CEB79
:100DF000030300F1FF3402D29F4200F2B08020468C
:100E0000DB1B40EA0640A5E7C1F120068B4022FA31
:100E100006F71F4320FA06FC04FA01F343EA0C0329
:100E2000F44000FA01F8380C4FEA1349B4FBF0FE25
:100E30001FFA87FC00FB1E4449EA04440EFB0CF930
:100E4000A14502FA01F20AD93C190EF1FF3A80F0ED
:100E50008480A14540F28180AEF1020E3C44A4EBB7
:100E600009041FFA83F9B4FBF0F300FB134449EAC9
:100E7000044403FB0CFCA44507D93C1903F1FF30E3
:100E800067D2A44565D9023B3C4443EA0E40A0FB2F
:100E90000293A4EB0C049C42CE469C4651D34ED008
:100EA00055B1B8EB0E0364EB0C0404FA06F6CB4024
:100EB0001E43CC40C5E90064002150E7C2F1200385
:100EC00020FA03F10CFA02FC24FA03F394400C43D9
:100ED0004FEA1C4800FA02FE1FFA8CF7B3FBF8F049
:100EE00008FB1031230C43EA014300FB07F1994250
:100EF00008D91CEB030300F1FF362CD299422AD902
:100F0000023863445B1AA4B2B3FBF8F108FB113357
:100F100044EA034401FB07F3A34208D91CEB040491
:100F200001F1FF3613D2A34211D902396444E41A05
:100F300041EA004139E70446F0E6084606E7C845BD
:100F4000AED2B9EB020E63EB070C0138A8E73146CD
:100F5000EDE7034699E73046D4E7D6467FE763449A
:100F600002384DE70646234608460FE7023E634433
:100F700030E700BF704700BFB0B5ADF5926D04AF6C
:100F800007F59063A3F27C43186007F56973D922D3
:100F9000002118460EF093FC07F59063A3F5A873A3
:100FA000184674231A4600210EF089FC07F5906359
:100FB000A3F2744318464FF449731A4600210EF009
:100FC0007EFC4FF47A7004F0E3F9694801F006FA08
:100FD00001F012F9024607F54C73114618460EF05F
:100FE0007AFD00226349644809F08BFC00226349C2
:100FF000614809F0E4FC5F4B604D052203926C46AA
:1010000003F1080207CA84E807000CCB29685C4892
:1010100004F058FE03461A4607F59063A3F5A8733B
:101020001A61544B1B781A46524B5B781946514B48
:101030009B7800930B46534953480EF0DDFB4F4B12
:101040009B7819464D4B5B781A4613469B00134418
:101050004E4A1344494AD27800920A464C494D48B8
:101060000EF0CAFB07F5697319464B4804F035FAD0
:101070000346002B0CBF01230023DBB2002B1ED044
:1010800007F569730F331A4648F21011384801F01A
:10109000D1FA07F569732D331A4648F220213448F6
:1010A00001F0C8FA97F87B34012B01D13B4B00E0EB
:1010B0003B4B1A4648F230312D4801F0BBFA07F19C
:1010C0000C031946374804F008FA0346002B0CBFFE
:1010D00001230023DBB2002B00F0868107F10C0313
:1010E000643318460DF0E6FD024607F59063A3F55C
:1010F000A8731A6607F10C03A0332B4A194620483F
:1011000004F09FFD07F59063A3F2744393F8C13296
:10111000032B12D1254A45F21011154801F08AFA25
:10112000234A45F22021124801F084FA1F4A45F271
:1011300030310F4801F07EFA4EE007F59063A3F2DC
:10114000744393F8C132042B34D1194A45F210117B
:10115000074801F06FFA154A45F22021044801F0D2
:1011600069FA124A45F23031014801F063FA33E07E
:10117000A402002050020020CC3500204C020020A8
:10118000B0020020901B0108B402002000000020E3
:10119000A01B0108C80200207C2F0020B01B010802
:1011A000B81B0108CC330020DC020020C01B010862
:1011B000C41B0108A84A45F21011A84801F03AFAE8
:1011C000A54A45F22021A54801F034FAA24A45F289
:1011D0003031A24801F02EFA07F59063A3F2744370
:1011E00093F8C12207F59063A3F5A87383F8402014
:1011F00007F59063A3F5A8731B6E9BB21A4647F2DE
:101200001001964801F094F907F59063A3F2744336
:10121000D3F8182307F59063A3F5A8735A6107F56F
:101220009063A3F27443D3F81C2307F59063A3F5EE
:10123000A8739A6107F59063A3F27443D3F820234F
:1012400007F59063A3F5A873DA6107F59063A3F23D
:101250007443D3F8C82207F59063A3F5A8731A6204
:1012600007F59063A3F27443D3F8E42207F5906383
:10127000A3F5A8735A6207F59063A3F27443D3F8F9
:10128000002307F59063A3F5A8739A6207F59063AE
:10129000A3F27443D3F8CC2207F59063A3F5A873A7
:1012A000DA6207F59063A3F27443D3F8E82207F5F6
:1012B0009063A3F5A8731A6307F59063A3F27443D0
:1012C000D3F8042307F59063A3F5A8735A6307F5D1
:1012D0009063A3F27443D3F8D02207F59063A3F58B
:1012E000A8739A6307F59063A3F5A873D3ED057A05
:1012F000B0EE670A43F21011584801F057F907F5AC
:101300009063A3F5A873D3ED067AB0EE670A43F2B3
:101310002021524801F04AF907F59063A3F5A8731C
:10132000D3ED077AB0EE670A43F230314B4801F053
:101330003DF907F59063A3F5A873D3ED087AB0EEF5
:10134000670A4FF45151454801F030F907F59063B1
:10135000A3F5A873D3ED097AB0EE670A43F25051B2
:101360003E4801F023F907F59063A3F5A873D3ED88
:101370000A7AB0EE670A43F26061384801F016F964
:1013800007F59063A3F5A873D3ED0B7AB0EE670A67
:1013900043F27071314801F009F907F59063A3F544
:1013A000A873D3ED0C7AB0EE670A4FF462512B4864
:1013B00001F0FCF807F59063A3F5A873D3ED0D7A5F
:1013C000B0EE670A43F69011244801F0EFF807F5F4
:1013D0009063A3F5A873D3ED0E7AB0EE670A43F2DB
:1013E00011111E4801F0E2F81D4B1B7803F00703B2
:1013F000072B0BD01A4B1B7803F00703062B05D0E5
:10140000174B1B7803F00703052B33D1154B1B78C3
:10141000002B54D1134B01221A7007F59063A3F5EA
:10142000A8731A6907F59063A3F5A8735A660E4B63
:101430001B781A460C4B5B7819460B4B9B78009334
:101440000B460A490A480EF0D7F9094A47F220210B
:10145000024801F0EFF832E0C01B0108A4020020AE
:10146000DC020020DD02002050020020901B010859
:10147000E0020020474B1B78002B20D0454B002278
:101480001A7007F59063A3F5A8731A6907F59063BE
:10149000A3F5A8739A66404B1B781A463E4B5B78BF
:1014A00019463D4B9B7800930B463C493C480EF057
:1014B000A3F93B4A47F230313A4801F0BBF807F54F
:1014C0009063A3F5A8731B6907F54C7202F15400F1
:1014D00007F54C7202F1500107F54C725C32029232
:1014E00007F54C7258320192009303460A469FED6D
:1014F0002E1AF2EE040A9FED2D0A00212C4803F06B
:1015000077FD07F54C7303F1700207F54C736C33EC
:101510001946284803F02AFC274A41F210012148C5
:1015200001F088F8254A4FF481511E4801F082F8F5
:1015300007F59063A3F5A87393F850301A4642F26A
:101540001001184800F0F4FF07F59063A3F5A873A5
:10155000DB6E9BB21A4644F21001124800F0E8FF1D
:1015600007F59063A3F5A8731B6F9BB21A4644F26C
:1015700020010C4800F0DCFF07F54C7319461048B9
:1015800003F08EFF02210F4807F089FA962003F03E
:10159000FFFE26E5DD02002050020020901B01081E
:1015A000E0020020A402002033335340000000007A
:1015B0006402002090020020B4020020C802002033
:1015C0004C3000200000024080B582B000AF78604F
:1015D00039607B68012B16D13B684FF6FF7293424E
:1015E00011D10B490B4803F0D9FC4FF47A73382220
:1015F00009490A4803F0A2FB09490A4800F0DEFE47
:10160000094804F07AF900BF0837BD4680BD00BF25
:1016100088340020640200207835002090020020E9
:10162000C8360020A4020020B002002080B500AF20
:101630004FF6FF710120FFF7C7FF80BD80B58AB06C
:1016400000AFF8600B4687ED010AC7ED000A7B8109
:101650004FF000037B6297ED017AF0EE006AC7EE6F
:10166000267AC7ED077A00237B8427E07B8C5B001A
:10167000FA6813441B8807EE903AF8EEE76A97ED94
:10168000007AC6EE877A97ED017A67EE277AC7ED82
:10169000057A97ED057AD7ED077A77EE677AC7ED89
:1016A000047AD7ED047A67EEA77A97ED097A77EE98
:1016B000277AC7ED097A7B8C01337B847A8C7B890E
:1016C0009A42D3D37B8907EE903AB8EEE77AD7ED0A
:1016D000096AC6EE877AC7ED067AB869FEF734FF65
:1016E00002460B4643EC102B0DF0DEF953EC102BA9
:1016F00010461946FFF778FA034607EE903AB0EE27
:10170000670A2837BD4680BD80B5ADF54C7D00AF7A
:1017100007F54C73A3F54B73186007F54C73A3F5ED
:10172000497318464FF449731A4600210EF0C7F862
:101730004FF47A7003F02CFE7D4803F00DFE7D48D7
:1017400003F00AFE7C4803F007FE40F2DC527B49BE
:101750007B4805F09FFF7B4809F070FA07F10C0306
:101760001946794801F0A4F807F10C0303F2C123EC
:101770001946754801F014F9744B1B78DBB2002B45
:1017800014BF01230023DBB2002B00F0C0806F4B9D
:1017900000221A70DFED6E0A9FED6E0A4FF4FA71A7
:1017A0006D48FFF74BFFF0EE407A07F54C73A3F559
:1017B0004973C3EDC67A07F54C73A3F54973D3F8A3
:1017C00018331846FEF7C0FE57A3D3E90023FFF7EE
:1017D00085F90346002B08D007F54C73A3F5497330
:1017E0004FF00002C3F818230FE007F54C73A3F580
:1017F0004973D3EDC67A9FED597A67EE877A07F57C
:101800004C73A3F54973C3EDC67ADFED510A9FED22
:10181000510A4FF4FA715248FFF710FFF0EE407A88
:1018200007F54C73A3F54973C3EDC77A07F54C73FD
:10183000A3F54973D3F81C331846FEF785FE3AA387
:10184000D3E90023FFF74AF90346002B08D007F538
:101850004C73A3F549734FF00002C3F81C230FE04B
:1018600007F54C73A3F54973D3EDC77A9FED3B7A27
:1018700067EE877A07F54C73A3F54973C3EDC77A12
:10188000DFED330A9FED330A4FF4FA713548FFF765
:10189000D5FEF0EE407A07F54C73A3F54973C3ED1E
:1018A000C87A07F54C73A3F54973D3F8203318466B
:1018B000FEF74AFE1CA3D3E90023FFF70FF9034606
:1018C000002B08D007F54C73A3F549734FF00002C5
:1018D000C3F820230FE007F54C73A3F54973D3ED4C
:1018E000C87A9FED1E7A67EE877A07F54C73A3F5E9
:1018F0004973C3EDC87A40F2DC521049104805F034
:10190000C9FE07F10C031946174803F0C9FD07F19A
:101910000C031946144803F0C3FD642003F038FD9E
:101920001CE700BFAFF30080B81E85EB51B89E3FA7
:1019300024050020480500206C05002090050020AB
:10194000D034002038360020F4020020001D002092
:1019500000F07F4533335340481100200000FA4324
:101960003015002018190020CC33002080B485B039
:1019700000AF78607B681B681C4A93422FD100231C
:10198000FB6025E0FA6813465B001344184A32F8FE
:101990001310184AFB6822F81310FA6813465B000C
:1019A00013440133124A32F81310134AFB6822F829
:1019B0001310FA6813465B00134402330C4A32F8E2
:1019C00013100E4AFB6822F81310FB680133FB600A
:1019D000FB68B3F5FA7FD5DB094B01221A7000BF13
:1019E0001437BD465DF8047B704700BF00210140FD
:1019F0009005002048110020301500201819002003
:101A0000001D002080B485B000AF78607B681B6843
:101A10001A4A93422BD10023FB6025E0FA68134653
:101A20005B001344164A32F81310164AFB6822F87A
:101A30001310FA6813465B0013440133104A32F85E
:101A40001310114AFB6822F81310FA6813465B0062
:101A5000134402330A4A32F813100C4AFB6822F886
:101A60001310FB680133FB60FB68F92BD6DD00BF68
:101A70001437BD465DF8047B704700BF002101406C
:101A80009005002048110020301500201819002072
:101A900080B582B000AF786039607B68012B17D1C8
:101AA0003B684FF6FF72934212D14FF400430A4A4B
:101AB0000A490B4800F092FE0A490B4803F038FC33
:101AC0000A490B4803F034FC0A490B4803F030FC88
:101AD00000BF0837BD4680BD00100240A03700207F
:101AE000F40200201037002024050020E8370020F1
:101AF00048050020803600206C05002080B500AF2E
:101B00004FF6FF710120FFF7C3FF80BD80B582B0A3
:101B100000AF78603960396878680DF0F8FE0346E8
:101B200018460837BD4680BD2DE9F04FADF5137D51
:101B300022AF07F5E073A3F5AE731860C94801F052
:101B400007FA07F1E003D922002118460DF0B7FE8D
:101B500007F5E073A3F5AA73184674231A4600210B
:101B60000DF0ADFE012387F8BF31012387F8BE31A8
:101B7000002387F8BD3107F1E0034B33BA4A14461E
:101B80009C4604F1300E654626460FCE28606960FB
:101B9000AA60EB6010340CF1100C7445F3D162466E
:101BA000234603CB106051601B78137207F1E003EA
:101BB0003733AE4A1C46134607CB20606160A260F3
:101BC0001B78237307F1E003C333A94A1068186038
:101BD00092889A8007F1E003AF33A6491A460B4674
:101BE00003CB1060516019889B7811819372002398
:101BF00087F8BC3107F1E00319469A4801F094FBDD
:101C000007F1E0030F331946964801F0F7FB07F19F
:101C1000E0031E331946934801F0D6FC07F1E003B8
:101C20002D3319468F4801F0C3FE07F16B031946A7
:101C30008C4801F00DFE07F16A031946894801F04E
:101C40009BFD07F1E00319468B4803F029FC322085
:101C500003F09EFB07F16C031946884803F03DFC36
:101C60000346002B97F8BD31032B00F2708201A2CE
:101C700052F823F0851C00086D1D00088D1E000819
:101C8000DD1E000807F1E0030F337D491846FFF71A
:101C90003DFF0346002B09D107F1E0030F337949DB
:101CA0001846FFF733FF0346002B1CD007F1E00373
:101CB0001E3373491846FFF729FF0346002B09D14D
:101CC00007F1E0031E336F491846FFF71FFF034675
:101CD000002B08D007F5E073A3F255131B78002BF7
:101CE00001D0012300E00023002B00F0328207F135
:101CF000E003373319465B4801F06AFA034687F878
:101D0000BB31584802F0BCFB564802F0F5FB554881
:101D100002F02EFC534802F067FC524802F0A0FC8F
:101D200097F8BB31002B40F0148297F8BE31022B9C
:101D300008D197F8B83119464A4802F053F90123FF
:101D400087F8BE3197F8BF31002B0BD197F8B83127
:101D50001946444802F06CF8424801F0A1FF012303
:101D600087F8BF31012387F8BD31F2E107F1E003C5
:101D70000F3343491846FFF7C9FE0346002B09D12C
:101D800007F1E0030F333F491846FFF7BFFE034654
:101D9000002B20D007F1E0031E3339491846FFF726
:101DA000B5FE0346002B09D107F1E0031E33354988
:101DB0001846FFF7ABFE0346002B0CD007F5E07387
:101DC000A3F255131B78002B05D097F8BF31002BD9
:101DD00001D0012300E00023002B00F0BC81002192
:101DE000204801F04DFA01211E4801F049FA07F19F
:101DF000E003D83319461B4801F0E2FE034687F89A
:101E0000BF3197F8BF31002B21D197F8B8110123CA
:101E10001D4A144801F0AAFF034687F8BF3197F81E
:101E2000BF31002B09D197F8B83119460D4802F09F
:101E3000CBFA022387F8BD318DE197F8B831194606
:101E4000084801F0F5FF074801F02AFF83E197F801
:101E5000B8311946034801F0EBFF024801F020FFBA
:101E600079E100BF041D0020C81B0108041C010803
:101E7000141C01081C1C01087C2F00204C30002081
:101E80008C22010898220108281C010897F8BF310C
:101E9000002B40F0628197F8BE31022B00F05D818B
:101EA00097F8B81107F1E0034B331A46AD4802F03A
:101EB0001BF8034687F8BE3197F8BE31022B03D1D9
:101EC000032387F8BD3148E197F8B8311946A54892
:101ED00002F088F8002387F8BD313EE107F1E00306
:101EE0004B3319469F4801F0F3FD034687F8BE3196
:101EF00097F8BC31013387F8BC3197F8BE31022B1B
:101F000010D097F8BC31032B0CD9002387F8B731D8
:101F100097F8B8311946934802F064F8002387F81F
:101F2000BD311CE197F8BE31022B40F0188101232E
:101F300087F8B731002387F8BC3107F5E073A3F5C4
:101F4000AA731B693B6607F5E073A3F5AA735B6987
:101F50001846FEF7F9FAC7E9160107F5E073A3F58D
:101F6000AA739B691846FEF7EFFAC7E9140107F553
:101F7000E073A3F5AA73DB691846FEF7E5FAC7E933
:101F8000120107F5E073A3F5AA731B6A1846FEF762
:101F9000DBFAC7E9100107F5E073A3F5AA735B6AE2
:101FA0001846FEF7D1FAC7E90E0107F5E073A3F56D
:101FB000AA739B6A1846FEF7C7FAC7E90C0107F532
:101FC000E073A3F5AA73DB6A1846FEF7BDFAC7E90A
:101FD0000A0107F5E073A3F5AA731B6B1846FEF719
:101FE000B3FAC7E9080107F5E073A3F5AA735B6BC1
:101FF0001846FEF7A9FAC7E9060107F5E073A3F54D
:10200000AA739B6B1846FEF79FFA82468B4607F52C
:10201000E073A3F5AA73DB6B1846FEF795FA8046CA
:10202000894607F5E073A3F5AA7393F840307B6106
:1020300007F5E073A3F5AA7393F850303B6107F5F9
:10204000E073A3F5AA735B6D1846FEF77DFA0446AC
:102050000D4607F5E073A3F5AA739A6DFA6007F5CC
:10206000E073A3F5AA73D96DB96007F5E073A3F522
:10207000AA731E6E7E6007F5E073A3F5AA73586E0F
:1020800007F5E073A3F5AA73996E07F5E073A3F55E
:10209000AA73DA6E07F5E073A3F5AA731B6F07F155
:1020A0006C0620931F921E911D907A681C92B9684D
:1020B0001B91FA681A92CDE918453A6917927A6924
:1020C0001692CDE91489CDE912AB97ED067B8DED23
:1020D000107B97ED087B8DED0E7B97ED0A7B8DEDE8
:1020E0000C7B97ED0C7B8DED0A7B97ED0E7B8DEDD8
:1020F000087B97ED107B8DED067B97ED127B8DEDC8
:10210000047B97ED147B8DED027B97ED167B8DEDB7
:10211000007B3B6E3246144914480DF06DFB97F876
:10212000B81107F1E00303F1C302FF230093104B42
:102130000C4801F0D3FF0346052B97F8B81107F1BF
:10214000E003C3331A46074802F084F807E000BFF3
:1021500050E500BF4EE500BF4CE500BF4AE500BFBB
:1021600048E500BF041D0020301C010804250020A4
:10217000342D002080B582B000AF786039607B6874
:10218000012B08D13B684FF6FF72934203D10449FB
:10219000044800F079FE00BF0837BD4680BD00BF8F
:1021A00058370020041D002080B500AF4FF6FF71A6
:1021B0000120FFF7DFFF80BD80B483B000AF7860FF
:1021C0000B46FB70FB781B09DBB21A46094B995C86
:1021D0007B685A1C7A600A461A70FB7803F00F037A
:1021E000044AD25C7B681A7000BF0C37BD465DF8AC
:1021F000047B7047A422010890B583B000AF04F0BF
:102200004DFF0346DBB27B6004F048FF03461D4AE6
:102210001B0A13601C4C04F04DFF034623607B68CF
:10222000232B09D97B683D2B28BF3D23DBB23D33EF
:10223000DAB2144BDA710BE07B68092B01D9412229
:1022400000E030227B68DBB21344DAB20D4BDA7166
:1022500004F018FF03461B0CDBB219460B48FFF7CE
:10226000ABFF04F00FFF0346DBB219460848FFF747
:10227000A3FF044B00221A73024B18460C37BD46CD
:1022800090BD00BF283400202B34002030340020C3
:102290003234002080B500AF094803F0B0F8094897
:1022A00003F0ADF8084803F0AAF8084803F0DCF89A
:1022B000074803F0D9F8074803F0D6F800BF80BDFF
:1022C000342E0020582E00207C2E00207C2F002051
:1022D0004C300020CC33002080B500AFFFF7DAFF90
:1022E00000BF80BD80B584B002AF786039607B6884
:1022F000012B38D13B684FF6FF72934233D118233C
:102300000193012300934FF40073194A19491A48A5
:1023100003F054F818230193012300934FF4007342
:10232000164A1749174803F049F818230193012367
:1023300000934FF40073144A1449154803F03EF813
:10234000144BD9220121144803F073F8134B742263
:102350000121134803F06DF8124B4FF4497201212B
:10236000114803F066F800BF0837BD4680BD00BFC6
:102370000C1F0108291B0008342E0020141F01081F
:1023800009170008582E0020201F0108790F0008A7
:102390007C2E0020A02E00207C2F0020D82F002093
:1023A0004C300020A8300020CC33002080B500AF96
:1023B0004FF6FF710120FFF795FF80BD80B582B019
:1023C00000AF786039607B6808333968184603F0DD
:1023D00032FA7B6818460837BD4680BD80B582B0AA
:1023E00000AF786041F21001786800F087F94FF48F
:1023F0008151786800F082F948F21011786800F095
:102400007DF948F22021786800F078F948F23031FF
:10241000786800F073F945F21011786800F06EF9F1
:1024200045F22021786800F069F945F2303178688A
:1024300000F064F946F21011786800F05FF946F296
:102440002021786800F05AF946F23031786800F0BF
:1024500055F947F22021786800F050F947F2303101
:10246000786800F04BF9002244F21001786800F01F
:102470005FF8002244F22001786800F059F8002249
:1024800042F21001786800F053F8002247F2100180
:10249000786800F04DF89FED250A43F21011786836
:1024A00000F084F89FED210A43F22021786800F0C3
:1024B0007DF89FED1E0A43F23031786800F076F81F
:1024C0009FED1A0A4FF45151786800F06FF89FEDB4
:1024D000170A43F25051786800F068F89FED130A2C
:1024E00043F26061786800F061F89FED100A43F2F2
:1024F0001111786800F05AF89FED0C0A43F27071E0
:10250000786800F053F89FED090A4FF4625178683B
:1025100000F04CF89FED050A43F69011786800F042
:1025200045F800BF0837BD4680BD00BF0000000071
:1025300080B59CB000AF78600B467B8013463B8033
:10254000002387F86F300023BB6007F10C03602283
:10255000002118460DF0B3F95A233B72A5237B7274
:102560000523BB728223FB727B687A881A807B68A2
:102570005B783B737B681B787B737B683A881A8037
:102580007B685B78BB737B681B78FB737B6803F1AC
:10259000080007F108014FF47A73082203F06DF97F
:1025A00097F86F3018467037BD4680BD80B59EB035
:1025B00000AFF8600B4687ED010A7B81002387F8A6
:1025C000773000233B6107F1140360220021184695
:1025D0000DF075F95A233B74A5237B740723BB7454
:1025E0008223FB74FB687A891A80FB685B783B75F1
:1025F000FB681B787B75FB687A685A60FB68DB793F
:10260000BB75FB689B79FB75FB685B793B76FB6868
:102610001B797B76FB6803F1080007F110014FF48A
:102620007A730A2203F029F997F877301846783739
:10263000BD4680BD80B5A0B002AFF8600B467A60A1
:102640007B81002387F87730002387F876300023DA
:102650003B6107F114036022002118460DF02FF9A9
:102660005A233B74A5237B748223FB74FB687A890D
:102670001A80FB685B783B75FB681B787B750323CE
:1026800087F8763007F1100297F87630009306232A
:102690007968F86800F069F8034687F8763097F8AB
:1026A0007630033387F8763097F8763078333B44CA
:1026B000202203F8682C97F87630013387F87630BB
:1026C00097F8763078333B44202203F8682C97F84B
:1026D0007630BB74FB6803F1080097F876309BB244
:1026E00003339AB207F110014FF47A7303F0C5F87F
:1026F00097F8773018467837BD4680BD80B59CB0D6
:1027000000AF78600B467B80002387F86F30002392
:10271000BB6007F10C036022002118460DF0CFF8D2
:102720005A233B72A5237B720523BB728223FB7263
:102730007B687A881A807B685B783B737B681B7840
:102740007B730023BB730023FB737B6803F10800DA
:1027500007F108014FF47A73082203F08EF897F816
:102760006F3018467037BD4680BD80B586B000AF6B
:10277000F860B9607A60FB70B868FDF779FD386180
:1027800000237B611FE0BA687B6913441B78002B30
:1027900010D0BA687B691A44FB7879680B441278C8
:1027A0001A7097F82030013387F82030FB78013316
:1027B000FB7005E0FB787A68134400221A7006E08B
:1027C0007B6901337B617A693B699A42DBD397F875
:1027D000203018461837BD4680BD000080B584B053
:1027E00000AFF860B9607A607B80FB681846FF2311
:1027F0001A4600210DF063F8FB68FF33FF22002129
:1028000018460DF05CF8FB6803F1FF02FB68C3F8A3
:102810000022FA68FB68C3F80422FB6803F505731D
:10282000B968184603F007F8FB6803F50673184605
:1028300003F063F81A4B1B7819461A4ABB6842F832
:102840003130174B1B78174ADB001344FA685A6083
:10285000134B1B780133DAB2114B1A70104B1B78F3
:10286000032B02D90E4B00221A700F490F4802F0B9
:1028700067FEFB687A68C3F80C22FB687A88A3F8C5
:102880001022FB68D3F80C02FB68B3F81032002268
:10289000194606F0EBF8FB6818461037BD4680BDB8
:1028A0005034002038340020752E0008112E000806
:1028B00080B588B002AF786039600023FB750023D3
:1028C000FB73012301930D2300934FF47A730622C7
:1028D0003149786800F0F4F84FF496620021786886
:1028E00000F0E3F90346FB73FB7B002B3AD17B68D6
:1028F0001B78282B36D17B685B784E2B32D07B68D7
:102900009B78412B2ED07B68DB784B2B2AD07B68C1
:102910003B6107E0BB891A463B6913443B61FB7D81
:102920000133FB75FB7D172B18D87B6803F5067008
:10293000FA7D13469B0013445B001A463B681A4419
:102940002023019307F10C0300930A23396903F054
:1029500020F90346002B01D1012300E00023002BC6
:10296000D8D115E00023FB750FE0FA7D13469B00DC
:1029700013445B001A463B68134408491A460B4649
:102980001B881380FB7D0133FB75FB7D172BECD976
:102990001837BD4680BD00BFB4220108341F0108AE
:1029A00080B588B002AF786039600023FB750023E2
:1029B000BB75012301930D2300934FF47A73052215
:1029C0003E49786800F07CF84FF496620021786800
:1029D00000F06BF90346BB75BB7D002B6BD17B68A8
:1029E0001B78282B67D17B685B784E2B63D07B6884
:1029F0009B78412B5FD07B68DB784B2B5BD07B686F
:102A00003B617B6803F5067007F108022023019300
:102A100007F10E0300930223396903F0BAF8034665
:102A2000002B0CBF01230023DBB2002B43D03B7AE9
:102A3000423B112B3ED801A252F823F09D2A0008F8
:102A4000B52A0008AD2A0008B52A0008A52A000802
:102A5000B52A0008B52A0008B52A0008B52A0008DA
:102A6000B52A0008952A0008B52A0008B52A0008EA
:102A7000B52A0008852A0008B52A0008B52A0008EA
:102A80008D2A00083B6801221A7014E03B6802227C
:102A90001A7010E03B6803221A700CE03B680422B5
:102AA0001A7008E03B6805221A7004E03B680622B1
:102AB0001A7000E000BF1837BD4680BDBC22010877
:102AC00080B586B000AFF860B96011461A460B4673
:102AD000FB801346BB80FB68FF22002118460CF0E8
:102AE000EEFEFB68FF33FF22002118460CF0E7FEE4
:102AF0000021F86800F099F80121F86800F095F8D5
:102B0000FB6897F8202083F82A22FA68FB68C3F84C
:102B10001C22FB680022A3F82022FB6803F5057045
:102B2000FB68D3F81C32FF22194602F0B9FE97F871
:102B30002430012B3ED1FB88013B9BB21A46B96879
:102B4000F86800F0EEF80346FB82FB6803F1FF0033
:102B5000FB88013B1A46B9680CF0C5FFFB68FA8A8E
:102B6000A3F80822FB88013BFA6892F80912FA6878
:102B700013440A4683F8FF20FB880133FB80FB885F
:102B8000013BFA6892F80812FA6813440A4683F87F
:102B9000FF20FB880133FB80FB88013BFA6813446C
:102BA0000D2283F8FF20FB88FA681344002283F883
:102BB000FF2006E0FB68FF33FA88B96818460CF07E
:102BC00092FFFB68D3F80C02FB68B3F810320122C5
:102BD000194605F04BFFFB6803F50570FB6803F130
:102BE000FF01BB88FA8802F048FEFB68D3F80C02AC
:102BF000FB68B3F810320022194605F037FF00BF1A
:102C00001837BD4680BD80B483B000AF78600B46F6
:102C1000FB70FB787A681344012283F82C2200BFF2
:102C20000C37BD465DF8047B704780B483B000AFBD
:102C300078600B46FB70FB787A681344002283F8B7
:102C40002C2200BF0C37BD465DF8047B704780B472
:102C500085B000AF78600B46FB700023FB73FB78F8
:102C60007A68134493F82C32DBB2002B14BF012393
:102C70000023DBB2002B02D00023FB730EE0FB78B5
:102C80007A68134493F82C32DBB2002B0CBF01237B
:102C90000023DBB2002B01D00123FB73FB7B184622
:102CA0001437BD465DF8047B704780B584B000AF33
:102CB00078600B46FB7013463B800023FB730023B8
:102CC000BB6004F0D3F9B86002E00A2002F060FBB8
:102CD000FB7819467868FFF7BAFF0346002B09D046
:102CE00004F0C4F90246BB68D21A3B889A4201D26A
:102CF000012300E00023002BE7D1FB781946786818
:102D0000FFF7A5FF0346002B14BF01230023DBB20E
:102D1000002B01D00123FB73FB7B18461037BD4607
:102D200080BD80B487B000AFF860B9601346FB8007
:102D30004FF6FF737B820023BB822BE0BB8ABA680D
:102D400013441B787B747B7C9AB27B8A53407B82D2
:102D50000023FB7518E07B8ADBB203F001033B74B0
:102D60007B8A5B087B827B8AC3F30E037B823B7C7E
:102D7000012B06D17B8A83F4BF4383F07E03DB43C0
:102D80007B82FB7D0133FB75FB7D072BE3D9BB8A7F
:102D90000133BB82BA8AFB889A42CFD37B8A18461A
:102DA0001C37BD465DF8047B704780B582B000AF2C
:102DB00078600B46FB70F8787B68D3F81C32591C9E
:102DC0007A68C2F81C1202461A707B68B3F8203287
:102DD0009BB201339AB27B68A3F820227B6893F8F8
:102DE0002A32DBB2FA789A420CBF01230023DBB20D
:102DF000002B09D000217868FFF705FF7B6803F5F9
:102E00000573184602F05EFD00BF0837BD4680BD61
:102E100080B584B000AF78600B46FB700023FB7375
:102E20000023FB7309E0FB7B114A52F833307A68C8
:102E30009A4206D0FB7B0133FB73FB7B022BF2D95A
:102E400000E000BFFB7B0A4ADB0013445B68002BF9
:102E500009D0FB7B064ADB0013445B68FA78114615
:102E60001846FFF7A2FF00BF1037BD4680BD00BF68
:102E70003834002080B483B000AF786000BF0C37D6
:102E8000BD465DF8047B704780B582B000AF7860C6
:102E900039607B6818464FF400631A4600210CF035
:102EA0000EFD7B6803F500634FF4006200211846B5
:102EB0000CF005FD7B6803F500637A6802F580522B
:102EC00013607B687A6802F5805253607B6803F573
:102ED000815304333968184602F0ADFC7B6803F572
:102EE00081530833184602F008FD7B6803F58053D0
:102EF0001A460023D362124B1B781946114A3B68CD
:102F000042F831300E4B1B780E4ADB0013447A68CE
:102F10005A600B4B1B780133DAB2094B1A70084B1D
:102F20001B78032B02D9064B00221A70064907486A
:102F300002F0F0FA7B6818460837BD4680BD00BF36
:102F40006C34002054340020294D0008C54C000882
:102F500080B586B002AF78600023FB730123019334
:102F60000A2300934FF47A7304228F49786801F0A2
:102F7000B3FB41F288320021786801F0DAFC0346A5
:102F8000FB73012301930A2300934FF47A73042205
:102F90008549786801F0A0FB41F288320021786809
:102FA00001F0C7FC0346FB73012301930A2300933E
:102FB0004FF47A7304227C49786801F08DFB41F26A
:102FC00088320021786801F0B4FC0346FB730123CA
:102FD00001930A2300934FF47A730B2273497868A4
:102FE00001F07AFB41F288320021786801F0A1FCFF
:102FF0000346FB7343F6982002F0CAF901230193BC
:103000000A2300934FF47A7304226749786801F029
:1030100063FB41F288320021786801F08AFC0346A4
:10302000FB73012301930A2300934FF47A73042264
:103030005D49786801F050FB41F2883200217868E0
:1030400001F077FC0346FB73012301930A230093ED
:103050004FF47A7304225449786801F03DFB41F241
:1030600088320021786801F064FC0346FB73012379
:1030700001930A2300934FF47A7307224C4978682E
:1030800001F02AFB41F288320021786801F051FCFE
:103090000346FB73012301930A2300934FF47A73D1
:1030A00006224449786801F017FB41F2883200217A
:1030B000786801F03EFC0346FB73012301930A2369
:1030C00000934FF47A730B223B49786801F004FBBC
:1030D00041F288320021786801F02BFC0346FB7333
:1030E000012301930A2300934FF47A730C2233498E
:1030F000786801F0F1FA41F288320021786801F035
:1031000018FC0346FB73012301930A2300934FF439
:103110007A7318222A49786801F0DEFA41F288327F
:103120000021786801F005FC0346FB73012301933D
:103130000A2300934FF47A730B222249786801F036
:10314000CBFA41F288320021786801F0F2FB0346A5
:10315000FB73012301930A2300934FF47A730B222C
:103160001949786801F0B8FA41F28832002178688C
:1031700001F0DFFB0346FB73012301930A23009355
:103180004FF47A730C221149786801F0A5FA41F2E4
:1031900088320021786801F0CCFB0346FB73FB7B8F
:1031A00018461037BD4680BDC4220108CC22010854
:1031B0008023010888230108D8220108E42201089D
:1031C000F4220108102301081C2301082823010808
:1031D00080B592B002AF78603960002387F83F3045
:1031E0000023FB6007F110032E22002118460CF08B
:1031F00066FB07F10C033A68204918460CF0FCFA0C
:1032000007F10C031846FDF733F803469AB207F1AD
:103210000C01012301930A2300934FF47A73786819
:1032200001F05AFA4FF4FA620021786801F081FB4C
:10323000034687F83F3097F83F30002B0FD17B686B
:1032400003F58153083379687A6802F58052928ACF
:1032500092B2184602F05CFB0346002B01D001231A
:1032600000E00023002B02D0012387F83F3097F8BD
:103270003F3018464037BD4680BD00BF481F01089B
:1032800080B58AB002AF78600B46FB700023FB77F5
:103290000023BB6007F10C0300221A605A609A6099
:1032A000DA60FA7807F108031E4918460CF0A4FA10
:1032B00007F108031846FCF7DBFF03469AB207F153
:1032C0000801012301930A2300934FF47A7378686D
:1032D00001F002FA41F288320021786801F029FBFE
:1032E0000346FB77FB7F002B0FD17B6803F58153EF
:1032F000083379687A6802F58052928A92B2184649
:1033000002F006FB0346002B01D0012300E000235E
:10331000002B01D00123FB77FB7F18462037BD46E9
:1033200080BD00BF641F010880B588B004AF78601D
:103330003960012301930A2300934FF47A730A2220
:103340002B49786801F0C8F94FF4FA6200217868D7
:1033500001F0EFFA0346FB73FB7B002B11D17B6876
:1033600003F58153083379687A6802F58052928AAE
:1033700092B2184602F0CCFA0346002B01D1012389
:1033800000E00023002B24D07B6803F58150083037
:1033900079687B6803F580539B8A9AB23B680293F5
:1033A0000D2301933A230093124B02F0D7FA034600
:1033B000002B0CBF01230023DBB2002B13D13B6891
:1033C0000D491A460B4603CB106051601B781372EF
:1033D0000AE03B6808491A460B4603CB106051606F
:1033E0001B78137200E000BF1037BD4680BD00BFE0
:1033F00038230108741F01087C1F010890B589B0AB
:1034000004AF78603960012301930A2300934FF4DD
:103410007A730A226149786801F05EF94FF4FA6222
:103420000021786801F085FA0346FB73FB7B002BD3
:1034300011D17B6803F58153083379687A6802F506
:103440008052928A92B2184602F062FA0346002B2A
:1034500001D1012300E00023002B00F093807B6862
:1034600003F58150083079687B6803F580539B8AA7
:103470009AB23B6802930D2301932C230093484B8F
:1034800002F06CFA0346002B0CBF01230023DBB2D1
:10349000002B6DD03B681B78303B072B5DD801A219
:1034A00052F823F0C5340008D5340008E934000888
:1034B000FD340008153500082535000837350008AB
:1034C000473500083B6837491A460B4603CB106066
:1034D00051604CE03B6834491A460B4603CB106000
:1034E00051601B78137242E03B6830491A460B4624
:1034F00003CB106051601B88138138E03B682C4976
:103500001A460B4603CB1060516019889B781181D5
:1035100093722CE03B6827491A460B4603CB106098
:10352000516024E03B68244A1C46134607CB2060C8
:103530006160A2601BE03B6820491A460B4603CB42
:103540001060516013E03B681D491A460B4603CBDF
:10355000106051601B78137209E03B6819491A46E4
:103560000B4603CB106051601B78137200BF12E052
:103570003B6814491A460B4603CB106051601B7818
:10358000137208E03B680F491A460B4603CB1060E4
:1035900051601B7813721437BD4690BD4423010857
:1035A000881F0108901F0108981F0108A41F010827
:1035B000B01F0108BC1F0108C41F0108D01F01086B
:1035C000D81F01087C1F010890B589B004AF78604E
:1035D0003960012301930A2300934FF47A730B227D
:1035E0005B49786801F078F84FF4FA620021786856
:1035F00001F09FF90346FB73FB7B002B11D17B6825
:1036000003F58153083379687A6802F58052928A0B
:1036100092B2184602F07CF90346002B01D1012337
:1036200000E00023002B00F087807B6803F58150C9
:10363000083079687B6803F580539B8A9AB23B68AF
:1036400002930D2301932C230093424B02F086F941
:103650000346002B0CBF01230023DBB2002B61D0FB
:103660003B681B78303B062B51D801A252F823F05F
:103670008D3600089D360008B1360008C5360008B2
:10368000DD360008ED360008FF3600083B68324999
:103690001A460B4603CB1060516042E03B682F494D
:1036A0001A460B4603CB106051601B78137238E04A
:1036B0003B682B491A460B4603CB106051601B88B0
:1036C00013812EE03B6827491A460B4603CB106056
:1036D000516019889B781181937222E03B682249DE
:1036E0001A460B4603CB106051601AE03B681F4A34
:1036F0001C46134607CB20606160A26011E03B6866
:103700001B491A460B4603CB1060516009E03B6829
:1037100018491A460B4603CB106051601B78137290
:1037200000BF12E03B6813491A460B4603CB1060FA
:1037300051601B78137208E03B680E491A460B462D
:1037400003CB106051601B7813721437BD4690BDD7
:1037500050230108E41F0108901F0108981F010869
:10376000A41F0108B01F0108BC1F0108C41F0108E5
:10377000D01F01087C1F010880B58AB004AF7860B3
:1037800039600023FB6007F1100300221A609A8061
:103790003B6802221A70012301930A2300934FF41D
:1037A0007A730B222849786800F096FF4FF4FA628A
:1037B0000021786801F0BDF80346FB75FB7D002B06
:1037C00011D17B6803F58153083379687A6802F573
:1037D0008052928A92B2184602F09AF80346002B61
:1037E00001D1012300E00023002B29D07B6803F5E1
:1037F0008150083079687B6803F580539B8A9AB2C0
:1038000007F10C0302932C2301933A2300930F4BEF
:1038100002F0A4F80346002B0CBF01230023DBB207
:10382000002B0DD03B7B302B02D0312B04D007E096
:103830003B6800221A7003E03B6801221A7000BF47
:1038400000BF1837BD4680BD5C230108EC1F01088E
:1038500080B58AB004AF786039600023BB6007F19F
:103860000C0300221A605A60C3F807203B6800224C
:103870001A70012301930A2300934FF47A730A22EA
:103880004549786800F028FF41F2883200217868C5
:1038900001F04FF80346FB75FB7D002B11D17B68CF
:1038A00003F58153083379687A6802F58052928A69
:1038B00092B2184602F02CF80346002B01D10123E6
:1038C00000E00023002B62D07B6803F581500830B4
:1038D00079687B6803F580539B8A9AB207F10803E5
:1038E00002932C2301933A2300932C4B02F036F8D9
:1038F0000346002B0CBF01230023DBB2002B46D074
:1039000007F1080326491846FEF700F90346002B85
:1039100014BF01230023DBB2002B03D03B6800223D
:103920001A7034E007F108031E491846FEF7EEF856
:103930000346002B14BF01230023DBB2002B03D06E
:103940003B6801221A7022E007F108031649184665
:10395000FEF7DCF80346002B14BF01230023DBB283
:10396000002B03D03B6802221A7010E007F1080315
:103970000E491846FEF7CAF80346002B14BF012370
:103980000023DBB2002B02D03B6803221A7000BF79
:103990001837BD4680BD00BF68230108F41F010829
:1039A000FC1F0108082001080C2001081420010850
:1039B00080B58AB004AF786039600023FB6007F1FE
:1039C000100300221A609A800023FB7501230193E3
:1039D0000A2300934FF47A7308223949786800F07B
:1039E0007BFE4FF4FA620021786800F0A2FF0346E4
:1039F000BB75BB7D002B11D17B6803F58153083368
:103A000079687A6802F58052928A92B2184601F07B
:103A10007FFF0346002B01D1012300E00023002B90
:103A200041D07B6803F58150083079687B6803F5E5
:103A300080539B8A9AB207F10C0302932C230193C3
:103A40003A2300931F4B01F089FF0346002B0CBF64
:103A500001230023DBB2002B1BD007F10C03184617
:103A60000BF028F90346FB7597F91730622B02DD3E
:103A70000023FB7505E0FB7D5B00DBB2713BDBB235
:103A8000FB7597F917301A460F4938680BF0B4FEEA
:103A900012E03B680D491A460B4603CB106051609B
:103AA0001B78137208E03B6808491A460B4603CBA3
:103AB000106051601B7813721837BD4680BD00BF7F
:103AC0007423010818200108202001087C1F010828
:103AD00080B5A0B004AF78603960012387F86E30FC
:103AE000032387F86F300023BB6007F10C036022CB
:103AF000002118460BF0E3FE012301930A230093F3
:103B00004FF47A7312222C49786800F0E5FD4FF4E7
:103B1000FA520021786800F00CFF034687F86E30F7
:103B200097F86E30002B11D17B6803F58153083371
:103B300079687A6802F58052928A92B2184601F04A
:103B4000E7FE0346002B01D1012300E00023002BF8
:103B50002CD07B6803F58150083079687B6803F5C9
:103B600080539B8A9AB207F10803029322230193A0
:103B700022230093114B01F0F1FE0346002B0CBFF2
:103B800001230023DBB2002B10D007F108031946F4
:103B90003868FDF7BBFF0346002B14BF0123002349
:103BA000DBB2002B02D0022387F86F3097F86F301A
:103BB00018467037BD4680BDB02301084820010873
:103BC00080B58AB004AF786039600123BB750123EA
:103BD000FB750023FB6007F1100300221A609A8036
:103BE000032303930A230293022301932B230093BD
:103BF0004FF47A730F222849786800F0CFFD42F223
:103C000010720021786800F094FE0346BB75BB7DFE
:103C1000002B11D17B6803F58153083379687A68EA
:103C200002F58052928A92B2184601F071FE034664
:103C3000002B01D1012300E00023002B26D07B685C
:103C400003F58150083079687B6803F580539B8ABF
:103C50009AB207F10C0302930A2301933A230093CB
:103C60000E4B01F07BFE0346002B0CBF012300230B
:103C7000DBB2002B0AD00023FB7507F10C031846BA
:103C80000BF018F80346DAB23B681A70FB7D184651
:103C90001837BD4680BD00BF902301085820010899
:103CA00080B58AB004AF78600123BB750123FB7532
:103CB0000023FB6007F1100300221A609A8003239F
:103CC00003930A230293022301932B2300934FF4BF
:103CD0007A730E222349786800F060FD42F2107278
:103CE0000021786800F025FE0346BB75BB7D002BE4
:103CF00011D17B6803F58153083379687A6802F53E
:103D00008052928A92B2184601F002FE0346002BBE
:103D100001D1012300E00023002B1DD07B6803F5B7
:103D20008150083079687B6803F580539B8A9AB28A
:103D300007F10C0302930A2301933A2300930A4BE1
:103D400001F00CFE0346002B0CBF01230023DBB265
:103D5000002B01D00023FB75FB7D18461837BD46AC
:103D600080BD00BFA02301086820010880B59CB079
:103D700002AFF8607A601A460B46FB721346BB72BC
:103D8000012387F86630012387F8673000237B61C1
:103D900007F118034C22002118460BF090FDFA7A27
:103DA000BB7A07F1140000937B6820490BF024FDD7
:103DB00007F114031846FCF75BFA03469AB207F1C1
:103DC0001401012301930A2300934FF47A73F868D6
:103DD00000F082FC4FF4FA520021F86800F0A9FDCF
:103DE000034687F8663097F86630002B11D1FB68E0
:103DF00003F581530833F968FA6802F58052928A14
:103E000092B2184601F084FD0346002B01D1012334
:103E100000E00023002B02D0002387F8673097F8DA
:103E2000673018466837BD4680BD00BF7420010862
:103E300080B59AB002AF78600B46FB70012387F81B
:103E40005E30012387F85F300023FB6007F1100329
:103E50004C22002118460BF032FDFA7807F10C03D2
:103E6000204918460BF0C8FC07F10C031846FCF774
:103E7000FFF903469AB207F10C01012301930A23CB
:103E800000934FF47A73786800F026FC4FF4FA52EE
:103E90000021786800F04DFD034687F85E3097F802
:103EA0005E30002B11D17B6803F5815308337968AC
:103EB0007A6802F58052928A92B2184601F028FD83
:103EC0000346002B01D1012300E00023002B02D088
:103ED000002387F85F3097F85F3018466037BD469B
:103EE00080BD00BF9020010880B5B0B004AFF8607D
:103EF0000B467A60FB72012387F8AE30012387F806
:103F0000AF300023BB6107F11C0392220021184649
:103F10000BF0D5FC00233B6100233B75FA7A07F1D7
:103F200018007B682C490BF067FC07F11803184652
:103F3000FCF79EF903469AB207F118010323039395
:103F40000A230293022301932B2300934FF47A73E5
:103F5000F86800F023FC47F230520021F86800F0C6
:103F6000E8FC034687F8AE3097F8AE30002B2CD132
:103F7000FB6803F581500830F968FB6803F580534E
:103F80009B8A9AB207F1100302930A2301932C2310
:103F90000093124B01F0E2FC0346002B0CBF0123FF
:103FA0000023DBB2002B10D007F110030C49184698
:103FB000FDF7ACFD0346002B14BF01230023DBB249
:103FC000002B02D0022387F8AF3097F8AF301846A5
:103FD000B037BD4680BD00BFA420010848200108BD
:103FE000C420010880B5AEB004AF78600B46FB700A
:103FF000012387F8A630012387F8A73000233B610F
:1040000007F114039222002118460BF058FC0023FC
:10401000BB6000233B73FA7807F110032C49184664
:104020000BF0EAFB07F110031846FCF721F90346F1
:104030009AB207F11001032303930A230293022388
:1040400001932B2300934FF47A73786800F0A6FB5A
:1040500042F210720021786800F06BFC034687F88A
:10406000A63097F8A630002B2CD17B6803F5815041
:10407000083079687B6803F580539B8A9AB207F110
:10408000080302930A2301932C230093114B01F0A0
:1040900065FC0346002B0CBF01230023DBB2002B81
:1040A00010D007F108030C491846FDF72FFD034611
:1040B000002B14BF01230023DBB2002B02D003230B
:1040C00087F8A73097F8A7301846A837BD4680BDB7
:1040D000C8200108E0200108C420010890B5AFB055
:1040E00004AFF8607A603B600B46FB72012387F8EF
:1040F000A630012387F8A73000233B6107F11403A2
:104100009222002118460BF0DAFBFC7A7868FCF763
:10411000AFF8034607F1100022464B490BF06CFB49
:1041200007F110031846FCF7A3F803469AB207F10B
:104130001001022301933E2300934FF47A73F86831
:1041400000F0CAFA4FF47A720021F86800F0F1FB2F
:10415000034687F8A63097F8A630002B6ED1FB688F
:1041600003F581500830F968FB6803F580539B8A9A
:104170009AB2002302930A2301932C230093334B1A
:1041800001F0ECFB0346002B0CBF01230023DBB244
:10419000002B53D07868FCF76BF803469AB20323E0
:1041A00003930A230293052301932B2300934FF4D7
:1041B0007A737968F86800F0F1FA4FF47A720021A6
:1041C000F86800F0B6FB034687F8A63097F8A630EB
:1041D000002B11D1FB6803F581530833F968FA68A5
:1041E00002F58052928A92B2184601F091FB034682
:1041F000002B01D1012300E00023002B1ED0FB681F
:1042000003F581500830F968B7F8B83002933B687D
:1042100001930D2300930A230D4A01F067FC034626
:10422000002B0CBF01230023DBB2002B03D005239E
:1042300087F8A73002E0002387F8A73097F8A73067
:104240001846AC37BD4690BDEC200108042101089A
:104250000821010890B5B1B004AFF8600B467A6050
:10426000FB72012387F8AE30012387F8AF300023BB
:10427000BB6107F11C039222002118460BF01FFBC3
:1042800000233B6100233B75FC7A7868FBF7F0FF65
:10429000034607F11800224647490BF0ADFA07F133
:1042A00018031846FBF7E4FF03469AB207F118011A
:1042B000022301933E2300934FF47A73F86800F0D1
:1042C0000BFA4FF47A720021F86800F032FB0346D3
:1042D00087F8AE3097F8AE30002B67D1FB6803F556
:1042E00081500830F968FB6803F580539B8A9AB2C5
:1042F000002302930A2301932C2300932F4B01F0F8
:104300002DFB0346002B0CBF01230023DBB2002B47
:104310004CD07868FBF7ACFF03469AB203230393B3
:104320000A230293012301932B2300934FF47A7302
:104330007968F86800F032FA42F210720021F868E9
:1043400000F0F7FA034687F8AE3097F8AE30002B4E
:104350002CD1FB6803F581500830F968FB6803F540
:1043600080539B8A9AB207F1100302930A230193A8
:104370002C230093124B01F0F1FA0346002B0CBFE3
:1043800001230023DBB2002B10D007F110030D49ED
:104390001846FDF7BBFB0346002B14BF0123002387
:1043A000DBB2002B02D0002387F8AF3097F8AF3094
:1043B0001846B437BD4690BD1C21010804210108F0
:1043C00034210108C420010880B59AB002AF78609A
:1043D0000B46FB70012387F85E30012387F85F30BE
:1043E0000023FB6007F110034C22002118460BF05C
:1043F00066FAFA7807F10C03204918460BF0FCF92D
:1044000007F10C031846FBF733FF03469AB207F196
:104410000C01012301930A2300934FF47A73786807
:1044200000F05AF94FF4FA520021786800F081FA4E
:10443000034687F85E3097F85E30002B11D17B6819
:1044400003F58153083379687A6802F58052928ABD
:1044500092B2184601F05CFA0346002B01D1012309
:1044600000E00023002B02D0002387F85F3097F88C
:104470005F3018466037BD4680BD00BF442101084B
:1044800080B586B002AF78600123BB730123FB7354
:10449000012301930A2300934FF47A731D221549D7
:1044A000786800F019F94FF4FA620021786800F09A
:1044B00040FA0346BB73BB7B002B11D17B6803F52D
:1044C0008153083379687A6802F58052928A92B2F1
:1044D000184601F01DFA0346002B01D1012300E02C
:1044E0000023002B01D00023FB73FB7B1846103701
:1044F000BD4680BDC423010880B586B002AF786098
:104500000123BB730123FB73012301930A2300934F
:104510004FF47A731B221549786800F0DDF84FF4E8
:10452000FA620021786800F004FA0346BB73BB7B93
:10453000002B11D17B6803F58153083379687A68C1
:1045400002F58052928A92B2184601F0E1F90346D0
:10455000002B01D1012300E00023002B01D0002318
:10456000FB73FB7B18461037BD4680BDE423010872
:1045700080B586B002AF78600123BB730123FB7363
:10458000012301930A2300934FF47A7320221549E3
:10459000786800F0A1F84FF4FA620021786800F022
:1045A000C8F90346BB73BB7B002B11D17B6803F5B5
:1045B0008153083379687A6802F58052928A92B200
:1045C000184601F0A5F90346002B01D1012300E0B4
:1045D0000023002B01D00023FB73FB7B1846103710
:1045E000BD4680BD0024010880B586B002AF78606A
:1045F0000123BB730123FB73012301930A2300935F
:104600004FF47A732C221549786800F065F84FF45E
:10461000FA620021786800F08CF90346BB73BB7B1B
:10462000002B11D17B6803F58153083379687A68D0
:1046300002F58052928A92B2184601F069F9034657
:10464000002B01D1012300E00023002B01D0002327
:10465000FB73FB7B18461037BD4680BD2424010840
:1046600080B586B002AF78600123BB730123FB7372
:10467000012301930A2300934FF47A732A221549E8
:10468000786800F029F84FF4FA620021786800F0A9
:1046900050F90346BB73BB7B002B11D17B6803F53C
:1046A0008153083379687A6802F58052928A92B20F
:1046B000184601F02DF90346002B01D1012300E03B
:1046C0000023002B01D00023FB73FB7B184610371F
:1046D000BD4680BD5424010880B584B000AFF860A9
:1046E000B96011461A460B46FB801346BB80FB6837
:1046F0004FF40062002118460BF0E1F8FB6803F567
:1047000000634FF40062002118460BF0D8F8002136
:10471000F86800F0C8F80121F86800F0C4F8FB68F8
:1047200003F580531A463B7E1372FB6803F58053F2
:104730001A463B7FD372FB6803F5805300225A72FE
:10474000FB6803F5805300221A73FB6803F580535E
:10475000FF229A73FB68FA6802F580521361FB68C6
:1047600003F5805300229A82FB6803F581530433DA
:10477000FA6802F5805211694FF40062184601F0A0
:104780008FF8FB6803F581500430BB88FA88B9685C
:1047900001F073F800BF1037BD4680BD80B584B00E
:1047A00000AFF860B96011461A460B46FB8013460D
:1047B000BB80FB684FF40062002118460BF07FF8C5
:1047C000FB6803F500634FF40062002118460BF00C
:1047D00076F80021F86800F066F80121F86800F02A
:1047E00062F8FB6803F580531A4697F8203013727D
:1047F000FB6803F580531A4697F82430D372FB68A0
:1048000003F5805300225A72FB6803F5805300229F
:104810001A73FB6803F58053FF229A73FB68FA68EA
:1048200002F580521361FB6803F5805300229A82DF
:10483000FB6803F580531A463B7E93773B7F013B31
:10484000DAB2FB6803F58053DA77FB6803F581532E
:104850000433FA6802F5805211694FF40062184679
:1048600001F01EF8FB6803F581500430BB88FA881C
:10487000B96801F002F800BF1037BD4680BD80B4B2
:1048800083B000AF78600B46FB70FB787A68134406
:1048900003F58153093301221A7000BF0C37BD465E
:1048A0005DF8047B704780B483B000AF78600B463E
:1048B000FB70FB787A68134403F5815309330022B7
:1048C0001A7000BF0C37BD465DF8047B704780B49A
:1048D00085B000AF78600B46FB700023FB73FB785C
:1048E0007A68134403F5815309331B78DBB2002B3C
:1048F00014BF01230023DBB2002B02D00023FB7383
:1049000010E0FB787A68134403F5815309331B7870
:10491000DBB2002B0CBF01230023DBB2002B01D044
:104920000123FB73FB7B18461437BD465DF8047BFF
:10493000704780B584B000AF78600B46FB701346BB
:104940003B800023FB737B6803F580531A460023EA
:10495000D36202F08BFB02467B6803F58053DA6278
:1049600002E00A2000F014FDFB7819467868FFF792
:10497000AEFF0346002B0CD002F078FB02467B68AA
:1049800003F58053DB6AD21A3B889A4201D2012395
:1049900000E00023002BE4D1FB7819467868FFF78C
:1049A00096FF0346002B14BF01230023DBB2002B2C
:1049B00001D00123FB73FB7B18461037BD4680BD39
:1049C00080B582B000AF78600B46FB707B6803F562
:1049D0008053DB7ADBB2012B0CBF01230023DBB257
:1049E000002B00F08A80F8787B6803F580531B6900
:1049F0005A1C796801F580510A6102461A707B6879
:104A000003F580539B8A9BB201339AB27B6803F50E
:104A100080539A827B6803F580531B7BDBB2012BAA
:104A20000CBF01230023DBB2002B0CD07B6803F505
:104A300080539B7B5BB2DBB20133DBB25AB27B6843
:104A400003F580539A737B6803F580539B7ADBB23E
:104A5000012B07D1FB784F2B02D0FB78452B01D1DE
:104A6000012300E00023002B1BD07B6803F580535B
:104A700000229A727B6803F5805301221A73FB7837
:104A80004F2B05D17B6803F5805302225A730DE04A
:104A9000FB78452B0AD17B6803F5805305225A73B6
:104AA00004E07B6803F5805300229A72FB780A2B9E
:104AB00004D17B6803F5805301229A727B6803F569
:104AC00080539B7B5BB21A467B6803F580535B7B0C
:104AD000DBB29A42ACBF01230023DBB2002B00F013
:104AE000ED8000217868FFF7CAFE7B6803F58153EB
:104AF0000433184600F0E6FEE0E07B6803F58053DF
:104B0000DB7ADBB2022B0CBF01230023DBB2002BCC
:104B100072D0F8787B6803F580531B695A1C79685A
:104B200001F580510A6102461A707B6803F58053D3
:104B30009B8A9BB201339AB27B6803F580539A82B9
:104B40007B6803F580531B7ADBB20A2B14BF012369
:104B50000023DBB2002B0FD0FB783E2B40F0AE8061
:104B600000217868FFF78BFE7B6803F581530433DF
:104B7000184600F0A7FEA1E07B6803F580531B7B7D
:104B8000DBB2012B04D1FB78452B01D1012300E0DE
:104B90000023002B04D07B6803F5805302229A7314
:104BA000FB780A2B0AD17B6803F580531B7BDBB2B1
:104BB0000133DAB27B6803F580531A737B6803F51F
:104BC00080531B7BDBB21A467B6803F580539B7BCB
:104BD0005BB29A420CBF01230023DBB2002B6DD0E5
:104BE00000217868FFF74BFE7B6803F5815304339F
:104BF000184600F067FE61E07B6803F58053DB7ABE
:104C0000DBB2032B0CBF01230023DBB2002B55D0FA
:104C1000F8787B6803F580531B695A1C796801F5A5
:104C200080510A6102461A707B6803F580539B8AA3
:104C30009BB201339AB27B6803F580539A827B68FA
:104C400003F580539B7FDBB2FA789A420CBF0123B5
:104C50000023DBB2002B0CD07B6803F580539B7BD9
:104C60005BB2DBB20133DBB25AB27B6803F580532F
:104C70009A737B6803F580531B7ADBB2FA789A4209
:104C80000ED17B6803F580539B7B5BB21A467B6831
:104C900003F58053DB7FDBB29A4201DB012300E0A6
:104CA0000023002B0AD000217868FFF7E8FD7B681D
:104CB00003F581530433184600F004FE00BF0837A3
:104CC000BD4680BD80B584B000AF78600B46FB70F8
:104CD0000023FB730023FB7309E0FB7B114A52F8AE
:104CE00033307A689A4206D0FB7B0133FB73FB7B3F
:104CF000022BF2D900E000BFFB7B0A4ADB00134421
:104D00005B68002B09D0FB7B064ADB0013445B6821
:104D1000FA7811461846FFF753FE00BF1037BD461C
:104D200080BD00BF5434002080B483B000AF7860F1
:104D300000BF0C37BD465DF8047B704780B485B07A
:104D400000AFF860B9603B601346FB71FB68BA685E
:104D50005A60FB68FA791A72FB683A681A60FB6855
:104D600018461437BD465DF8047B704780B58AB09D
:104D700002AFF860B9607A600023FB83322000F054
:104D800007FBAC233B7633237B760023BB76F868A6
:104D900000F075F80346002B0CBF01230023DBB2A3
:104DA000002B68D0FB685868FB681B7A5B0099B2DF
:104DB000FB681B6807F118020093032303F0CEFF82
:104DC000642000F0E5FAFB685868FB681B7A5B001A
:104DD00099B2FB681B6807F110020093072304F0E7
:104DE000BBF83A7CFB685A72FB685B7A5BB2002BBB
:104DF00036DB7B7C1A46FB681A61FB681B691B0269
:104E0000BA7C1A43FB681A61FB681B691B01FA7CB8
:104E10001209D2B21A43FB681A61FB7C03F00F023D
:104E2000FB68DA60FB68DB681B023A7D1A43FB68AB
:104E3000DA60FB68DB681B027A7D1A43FB68DA6084
:104E4000BA7DFB689A72F86800F03AF80246BB68CF
:104E50001A60F86800F070F802467B681A600AE091
:104E6000FB8B0133FB830A2000F092FAFB8B322B81
:104E700000D8A8E700BF00BF2037BD4680BD80B581
:104E800084B000AF78600023FB737B6858687B6850
:104E90001B7A5B0099B24FF47A73032204F08EFA06
:104EA0000346002B14BF01230023DBB2002B01D0EB
:104EB000012300E0FB7B18461037BD4680BD000093
:104EC00080B584B000AF78607B68DB681846FBF77C
:104ED00019FB4FF00002154BFBF7B8FC02460B46DE
:104EE000104619464FF00002104BFBF7AFFC02468C
:104EF0000B46104619464FF000020D4BFBF77CFBAA
:104F000002460B46104619464FF00002094BFBF7CC
:104F1000BBF902460B4610461946FBF745FE034611
:104F2000FB60FB6818461037BD4680BD000090400E
:104F3000000069400000494080B584B000AF78604F
:104F40007B681B691846FBF7DDFA4FF00002114B36
:104F5000FBF77CFC02460B46104619464FF0000258
:104F60000C4BFBF773FC02460B46104619464FF0FC
:104F70000002094BFBF740FB02460B461046194660
:104F8000FBF712FE0346FB60FB6818461037BD4670
:104F900080BD00BF000090400000594080B483B045
:104FA00000AF786039607B68104A9A607B680022A5
:104FB000DA607B684FF000021A617B680B4A5A6125
:104FC0007B6800221A767B680022DA617B68002207
:104FD0001A627B6800225A627B683A689A627B6830
:104FE00018460C37BD465DF8047B7047000080BF53
:104FF00080B588B000AFF86187ED050AC7ED040AF7
:1050000087ED031ABA607B600B46FB76FB7EBA68BD
:1050100097ED031AD7ED040A97ED050A1946F869CA
:1050200000F00EF87968F86900F0E8F83B6BFA6A6E
:10503000B96AF86900F01CF900BF2037BD4680BD91
:1050400080B59AB000AFF8610B4687ED050AC7ED51
:10505000040A87ED031ABA60FB76002387F85B30F9
:1050600097ED047AD7ED057A77EE677AC7ED157A72
:1050700007F124032822002118460AF020FC00230F
:105080007B66FB699B6A002B01D10123A8E000230A
:105090003B6630E0FB699B6A184602F05BF803460A
:1050A000002B14BF01230023DBB2002B01D001230E
:1050B00096E0FB699B6A42F21071184602F04FF9C4
:1050C0000346002B14BF01230023DBB2002B01D0C9
:1050D000012385E0FB699B6A184602F0EBFB024660
:1050E0003B6E9B00603307F108010B4443F8442CEE
:1050F0003B6E01333B663B6E092BCBDDFB699B6A44
:10510000184602F0F9F80023FB650DE0FB6D9B00EB
:10511000603307F10802134453F8443C7A6E134499
:105120007B66FB6D0133FB65FB6D092BEEDD7B6E52
:105130002D4AA2FB0323DB087B667B6E07EE903AC9
:10514000B8EE677ADFED296AC7EE267A9FED287AF6
:1051500067EE877AC7ED147AD7ED146A97ED037A74
:10516000C6EE877AB3EE007A67EE877AB1EE007A00
:1051700077EE877AC7ED137AD7ED137AB1EE007A1E
:1051800077EEC77AF3EE006A87EEA67AD7ED157A46
:1051900067EE277AFB69C3ED017AFB69D3ED016AFB
:1051A00097ED157AC6EE877A9FED127A67EE877AC9
:1051B000FB69C3ED007AFB6993ED007ADFED0D6AC0
:1051C000C7EE267A9FED0C7A67EE877AFCEEE77AD7
:1051D000C7ED017A3B79DAB2BB681A7097F85B3099
:1051E00018466837BD4680BDCDCCCCCC000080458C
:1051F000333353400000FA430000C84280B584B006
:1052000000AF7860396001F031FFF8607B6893EDA2
:10521000027A7B68D3ED007AB4EEE77AF1EE10FA09
:1052200007D57B681A687B689A607B68FA68DA61E0
:1052300018E07B68DB69FA68D31A0C4A934211D3F1
:105240007B6893ED027A7B68D3ED007A77EE677A1C
:105250003B68C3ED007A7B681A687B689A607B685C
:10526000FA68DA611037BD4680BD00BF80EE3600B7
:1052700080B584B000AFF860B9607A603B60FB68CD
:105280001A68FB681A61FB68D3ED057AF5EEC07AFF
:10529000F1EE10FA04D5FB681A69FB685A6144E024
:1052A000FB6893ED047AFB68D3ED057A77EE677AB5
:1052B000FDEEE77A17EE902AFB68DA6001F0D6FE81
:1052C0000246FB681A62FB681B7E002B11D1FB684B
:1052D000DB68052B25DDFB6801221A76FB681A6A5C
:1052E000FB685A627B68BA681A603B6800221A60E1
:1052F00017E0FB68DB68002B0FDCFB681A6AFB68B1
:105300005B6AD31A41F2873293420AD9FB680022C2
:105310001A763B68BA681A6003E0FB681A6AFB6891
:105320005A62FB681A69FB685A611037BD4680BD36
:1053300080B582B000AF786039607B68043339682B
:10534000184600F078FA7B683A681A607B6818465D
:105350000837BD4680BD000080B582B000AF7860E0
:105360007B68181D4FF47A730422084900F085FA0F
:105370007B68181D7B6803F108014FF4FA7319224A
:1053800000F068FA00BF0837BD4680BD80240108E0
:1053900080B582B000AF78607B684FF47A7202FB10
:1053A00003F3054AA2FB03239B09184607F064FE9A
:1053B00000BF0837BD4680BDD34D621080B584B0B4
:1053C00000AFF860B9607A607B80FB6800221A62E7
:1053D000FB68BA681A60FB680433796818460AF0FB
:1053E0007AFBFB687A889A82FB68BA699A61FB68E3
:1053F000FA69DA61FB6818461037BD4680BDB0B562
:1054000084B002AF78607B6818687B68191D7B6880
:105410009C8A7B689D697B68DB697A68203201928F
:1054200000932B46224607F0C9FC00BF0837BD4653
:10543000B0BD80B485B000AFF8607B600B467B8167
:1054400013463B81FB687A89A3F85420FB683A89AC
:10545000A3F85620FB687A689A65FB6818461437EB
:10546000BD465DF8047B704790B585B002AF7860AB
:105470007B68B3F8543018467B68B3F856301C4646
:105480007B689A6D7B68043300210091214606F009
:10549000A5FF02467B681A6000BF0C37BD4690BD71
:1054A00080B584B000AF786039600123FB737B68FE
:1054B00018680023C822396807F030F80346012B2A
:1054C00014BF01230023DBB2002B01D0032300E033
:1054D000FB7B18461037BD4680BD80B584B000AF59
:1054E000786039600223FB737B681B68322239685D
:1054F000184607F0B3F90346012B0CBF0123002324
:10550000DBB2002B01D0002300E0FB7B18461037F4
:10551000BD4680BD80B483B000AF78603960064A74
:105520007B681360054A3B68136000BF0C37BD46BB
:105530005DF8047B704700BF743400208034002085
:1055400080B483B000AF78603960064A7B6813602E
:10555000054A3B68136000BF0C37BD465DF8047B0D
:10556000704700BF783400208434002080B584B0B8
:1055700000AF78607B685B6CBB817B6893F84230DE
:10558000DBB2222B0CBF01230023DBB2002B3FD068
:105590007B681B685B689BB2DBB2FB81BB89002B1D
:1055A00007D0BB891B021AB2B7F90E3013431BB2E6
:1055B000FB817B681A4A93420AD11A4B1B68002B65
:1055C00006D0184B1B68FA89D2B211467868984702
:1055D0007B68154A93420AD1144B1B68002B06D0F6
:1055E000124B1B68FA89D2B21146786898477B68DB
:1055F0000F4A93420AD10F4B1B68002B06D00D4B6C
:105600001B68FA89D2B2114678689847002303E0F4
:105610007B681B685B68022318461037BD4680BD57
:10562000C836002070340020583700207434002021
:10563000A03700207834002080B586B000AF7860B5
:105640007B681B681B687B617B681B68DB683B6150
:105650007B681B685B69FB600023BB607B6903F0B0
:105660000F03BB60BB68002B0DD17B6903F02003E7
:10567000002B08D03B6903F02003002B03D078688F
:10568000FFF774FFBCE07B681B685B69FB60BB686D
:10569000002B00F08380FB6803F00103002B04D192
:1056A0003B6903F49073002B78D07B6903F001030E
:1056B000002B0FD03B6903F48073002B0AD07B686A
:1056C0001B686FF001021A607B685B6C43F001029B
:1056D0007B685A647B6903F00203002B0FD0FB68E0
:1056E00003F00103002B0AD07B681B686FF00202F5
:1056F0001A607B685B6C43F004027B685A647B69C8
:1057000003F00403002B0FD0FB6803F00103002B10
:105710000AD07B681B686FF004021A607B685B6CC0
:1057200043F002027B685A647B6903F00803002B94
:1057300014D03B6903F02003002B04D1FB6803F075
:105740000103002B0AD07B681B686FF008021A6007
:105750007B685B6C43F008027B685A647B685B6C17
:10576000002B14BF01230023DBB2002B45D07B6943
:1057700003F02003002B0AD03B6903F02003002B29
:1057800005D07B6800225A647B681B685B68786878
:1057900006F02CF97B6800225A642EE07B6903F046
:1057A0008003002B2CD03B6903F08003002B27D013
:1057B0007B68154A934207D1144B1B68002B03D01A
:1057C000124B1B68786898477B68114A934207D14F
:1057D000104B1B68002B03D00E4B1B687868984752
:1057E0007B680D4A93420AD10C4B1B68002B06D0F4
:1057F0000A4B1B687868984701E000BF00E000BFD3
:105800001837BD4680BD00BFC83600207C3400205C
:105810005837002080340020A03700208434002036
:1058200080B582B000AF78607868FFF705FF00BFF1
:105830000837BD4680BD80B483B000AF7860396062
:105840007B683A681A607B6818460C37BD465DF87D
:10585000047B704780B584B000AFF860B9603B60EE
:105860001346FB80FB681868FA883B68B96805F046
:105870004EFF00BF1037BD4680BD80B584B000AF7D
:10588000F860B9603B601346FB80FB681868FA88D3
:105890003B68B96805F0B0FE00BF1037BD4680BD5B
:1058A00080B584B000AFF860B9601346FB80FB6838
:1058B0001B68FA88B968184605F0C0FF00BF1037AA
:1058C000BD4680BD80B582B000AF78607B681B6844
:1058D000184605F0D9FF00BF0837BD4680BD80B52A
:1058E00082B000AF786039603968786809F0EFFFFE
:1058F000034618460837BD4680BD80B483B000AF6C
:1059000078607B6818460C37BD465DF8047B7047AD
:1059100080B586B000AFF860B9601346FB80022303
:10592000FB750C49B86809F0F2FF0346002B02D062
:105930000023FB7508E00849B86809F0E8FF034652
:10594000002B01D00123FB75FB7D18461837BD469F
:1059500080BD00BFB0210108B421010890B5ADF5AC
:10596000077D00AF07F50674A4F50374206007F502
:105970000670A0F504700160114607F50672A2F5E5
:105980000672136007F50673A3F212230A461A8003
:10599000022387F80D320023A7F8163207F50673A5
:1059A000A3F212231A8807F50673A3F5047307F10F
:1059B0001400196809F098FF07F50673A3F506733C
:1059C00007F114021968104609F0A1FF0346002BE5
:1059D00001D1022385E0D7F83032002B01D100231A
:1059E0007FE097F8282207F1140311461846FFF7C5
:1059F00076FFC7F80802D7F80832002B16D007F157
:105A00001403D7F80822D31AC7F8103297F82832AF
:105A10003A2B05D1D7F810320233C7F8103207E01D
:105A2000D7F810320133C7F8103201E0022358E0F2
:105A3000D7F81032A7F80E323CE0B7F80E3207F56F
:105A40000672A2F50472126813441B7897F82C2290
:105A50009A420FD0B7F80E3207F50672A2F504721B
:105A600012681A44B7F81632D7F830120B4412787D
:105A70001A7015E0B7F80E3207F50672A2F5047237
:105A8000126813441B7897F82C229A4208D1B7F871
:105A90001632D7F83022134400221A70002320E077
:105AA000B7F80E320133A7F80E32B7F816320133C9
:105AB000A7F81632B7F8162207F50673A3F21223D9
:105AC0001988D7F81032CB1A9A4208DA07F506730C
:105AD000A3F21223B7F80E221B889A42ADD397F88F
