:020000040800F2
:1000000000000220718E0008358800083D88000835
:10001000458800084D880008558800080000000049
:1000200000000000000000000000000011080108AE
:100030005D88000800000000610A0108E9DB000893
:10004000C18E0008C18E0008C18E0008C18E000854
:10005000C18E0008C18E0008C18E0008C18E000844
:10006000C18E0008C18E0008C18E0008C18E000834
:10007000C18E0008C18E0008C18E0008C18E000824
:10008000C18E0008C18E00086D880008C18E00086E
:10009000C18E0008C18E0008C18E0008C18E000804
:1000A000C18E0008C18E0008C18E0008C18E0008F4
:1000B000C18E000881880008C18E0008C18E00082A
:1000C000C18E0008C18E0008C18E0008C18E0008D4
:1000D000C18E0008C18E000899880008C18E0008F2
:1000E000C18E0008C18E0008C18E0008C18E0008B4
:1000F000C18E0008C18E0008C18E0008C18E0008A4
:10010000C18E0008C18E0008C18E0008C18E000893
:10011000C18E0008C18E0008C18E0008C18E000883
:10012000C18E0008C18E0008C18E0008C18E000873
:10013000C18E0008C18E0008C18E0008C18E000863
:10014000C18E0008C18E0008C18E0008C18E000853
:10015000C18E0008C18E0008C18E0008C18E000843
:10016000C18E0008C18E0008C18E0008C18E000833
:10017000C18E0008C18E0008C18E0008000000007A
:08018000C18E0008C18E0008C9
:1001900010B5054C237833B9044B13B10448AFF3C1
:1001A00000800123237010BD7004002000000000B7
:1001B000903E010808B5034B1BB103490348AFF358
:1001C000008008BD0000000074040020903E01087B
:1001D00001F0FF01102A2BDB10F0070F08D010F8F8
:1001E000013B013A8B422DD010F0070F42B3F6D1FC
:1001F000F0B441EA012141EA014122F007047FF015
:1002000000070023F0E80256083C85EA010586EA6B
:10021000010685FA47F5A3FA87F586FA47F6A5FAA7
:1002200087F68EB9EED1F0BC01F0FF0102F00702B3
:1002300032B110F8013B013A83EA010313B1F8D15E
:100240000020704701387047002D06BF354603383F
:10025000073815F0010F07D1013015F4807F02BF78
:10026000013015F4C03F0130F0BC0138704700BFC9
:10027000034613F8012B002AFBD1181A01387047E6
:1002800081F0004102E000BF83F0004330B54FEA47
:1002900041044FEA430594EA050F08BF90EA020FB4
:1002A0001FBF54EA000C55EA020C7FEA645C7FEA47
:1002B000655C00F0E2804FEA5454D4EB5555B8BF6A
:1002C0006D420CDD2C4480EA020281EA030382EADB
:1002D000000083EA010180EA020281EA0303362D6D
:1002E00088BF30BD11F0004F4FEA01314FF4801C40
:1002F0004CEA113102D0404261EB410113F0004F52
:100300004FEA03334CEA133302D0524263EB430308
:1003100094EA050F00F0A780A4F10104D5F1200EA6
:100320000DDB02FA0EFC22FA05F2801841F1000101
:1003300003FA0EF2801843FA05F359410EE0A5F1D5
:1003400020050EF1200E012A03FA0EFC28BF4CF006
:10035000020C43FA05F3C01851EBE37101F00045BC
:1003600007D54FF0000EDCF1000C7EEB00006EEBC9
:100370000101B1F5801F1BD3B1F5001F0CD3490853
:100380005FEA30004FEA3C0C04F101044FEA4452AA
:1003900012F5800F80F09A80BCF1004F08BF5FEA31
:1003A000500C50F1000041EB045141EA050130BD11
:1003B0005FEA4C0C404141EB0101013C28BFB1F523
:1003C000801FE9D291F0000F04BF01460020B1FA6E
:1003D00081F308BF2033A3F10B03B3F120020CDA41
:1003E0000C3208DD02F1140CC2F10C0201FA0CF01F
:1003F00021FA02F10CE002F11402D8BFC2F1200C84
:1004000001FA02F120FA0CFCDCBF41EA0C01904039
:10041000E41AA2BF01EB0451294330BD6FEA040482
:100420001F3C1CDA0C340EDC04F11404C4F120026D
:1004300020FA04F001FA02F340EA030021FA04F37F
:1004400045EA030130BDC4F10C04C4F1200220FAD6
:1004500002F001FA04F340EA0300294630BD21FA14
:1004600004F0294630BD94F0000F83F4801306BFDA
:1004700081F480110134013D4EE77FEA645C18BFCE
:100480007FEA655C29D094EA050F08BF90EA020F65
:1004900005D054EA000C04BF1946104630BD91EA5D
:1004A000030F1EBF0021002030BD5FEA545C05D160
:1004B0004000494128BF41F0004130BD14F580049F
:1004C0003CBF01F5801130BD01F0004545F0FE4113
:1004D00041F470014FF0000030BD7FEA645C1ABF48
:1004E000194610467FEA655C1CBF0B46024650EA7F
:1004F000013406BF52EA033591EA030F41F40021AB
:1005000030BD00BF90F0000F04BF0021704730B530
:100510004FF4806404F132044FF000054FF0000105
:1005200050E700BF90F0000F04BF0021704730B5C6
:100530004FF4806404F1320410F0004548BF40429B
:100540004FF000013EE700BF42004FEAE2014FEAF0
:1005500031014FEA02701FBF12F07F4393F07F4FCB
:1005600081F06051704732F07F4208BF704793F0CE
:100570007F4F04BF41F40021704730B54FF46074E1
:1005800001F0004521F000411CE700BF50EA0102E4
:1005900008BF704730B54FF000050AE050EA01028D
:1005A00008BF704730B511F0004502D5404261EBFD
:1005B00041014FF4806404F132045FEA915C3FF43E
:1005C000D8AE4FF003025FEADC0C18BF03325FEADB
:1005D000DC0C18BF033202EBDC02C2F1200300FA8C
:1005E00003FC20FA02F001FA03FE40EA0E0021FAB1
:1005F00002F11444BDE600BF70B54FF0FF0C4CF49F
:10060000E06C1CEA11541DBF1CEA135594EA0C0F50
:1006100095EA0C0F00F0DEF82C4481EA030621EA8B
:100620004C5123EA4C5350EA013518BF52EA0335C6
:1006300041F4801143F4801338D0A0FB02CE4FF078
:100640000005E1FB02E506F00042E0FB03E54FF0A8
:100650000006E1FB03569CF0000F18BF4EF0010EA0
:10066000A4F1FF04B6F5007F64F5407404D25FEA9C
:100670004E0E6D4146EB060642EAC62141EA55514F
:100680004FEAC52040EA5E504FEACE2EB4F1FD0C91
:1006900088BFBCF5E06F1ED8BEF1004F08BF5FEA0F
:1006A000500E50F1000041EB045170BD06F00046C1
:1006B00046EA010140EA020081EA0301B4EB5C046E
:1006C000C2BFD4EB0C0541EA045170BD41F4801166
:1006D0004FF0000E013C00F3AB8014F1360FDEBF8B
:1006E000002001F0004170BDC4F10004203C35DA67
:1006F0000C341BDC04F11404C4F1200500FA05F3EA
:1007000020FA04F001FA05F240EA020001F000428A
:1007100021F0004110EBD37021FA04F642EB060100
:100720005EEA430E08BF20EAD37070BDC4F10C042A
:10073000C4F1200500FA04F320FA05F001FA04F2EE
:1007400040EA020001F0004110EBD37041F10001DA
:100750005EEA430E08BF20EAD37070BDC4F12005E5
:1007600000FA05F24EEA020E20FA04F301FA05F24D
:1007700043EA020321FA04F001F0004121FA04F2F5
:1007800020EA020000EBD3705EEA430E08BF20EAC5
:10079000D37070BD94F0000F0FD101F000464000FF
:1007A00041EB010111F4801F08BF013CF7D041EA81
:1007B000060195F0000F18BF704703F00046520085
:1007C00043EB030313F4801F08BF013DF7D043EA56
:1007D0000603704794EA0C0F0CEA135518BF95EA0C
:1007E0000C0F0CD050EA410618BF52EA4306D1D193
:1007F00081EA030101F000414FF0000070BD50EAB2
:10080000410606BF1046194652EA430619D094EA3B
:100810000C0F02D150EA013613D195EA0C0F05D125
:1008200052EA03361CBF104619460AD181EA030179
:1008300001F0004141F0FE4141F470014FF0000031
:1008400070BD41F0FE4141F4780170BD70B54FF0CC
:10085000FF0C4CF4E06C1CEA11541DBF1CEA13554C
:1008600094EA0C0F95EA0C0F00F0A7F8A4EB05042E
:1008700081EA030E52EA03354FEA013100F0888025
:100880004FEA03334FF0805545EA131343EA1263EE
:100890004FEA022245EA111545EA10654FEA0026A3
:1008A0000EF000419D4208BF964244F1FD0404F55C
:1008B000407402D25B084FEA3202B61A65EB0305B8
:1008C0005B084FEA32024FF480104FF4002CB6EB75
:1008D000020E75EB030E22BFB61A754640EA0C00F5
:1008E0005B084FEA3202B6EB020E75EB030E22BF35
:1008F000B61A754640EA5C005B084FEA3202B6EB76
:10090000020E75EB030E22BFB61A754640EA9C0034
:100910005B084FEA3202B6EB020E75EB030E22BF04
:10092000B61A754640EADC0055EA060E18D04FEAC2
:10093000051545EA16754FEA06164FEAC30343EA62
:1009400052734FEAC2025FEA1C1CC0D111F4801F2F
:100950000BD141EA00014FF000004FF0004CB6E728
:1009600011F4801F04BF01430020B4F1FD0C88BFC7
:10097000BCF5E06F3FF6AFAEB5EB030C04BFB6EBD2
:10098000020C5FEA500C50F1000041EB045170BDC5
:100990000EF0004E4EEA113114EB5C04C2BFD4EBF2
:1009A0000C0541EA045170BD41F480114FF0000E76
:1009B000013C90E645EA060E8DE60CEA135594EAF2
:1009C0000C0F08BF95EA0C0F3FF43BAF94EA0C0FF5
:1009D0000AD150EA01347FF434AF95EA0C0F7FF46A
:1009E00025AF104619462CE795EA0C0F06D152EABE
:1009F00003353FF4FDAE1046194622E750EA4106A2
:100A000018BF52EA43067FF4C5AE50EA41047FF4B2
:100A10000DAF52EA43057FF4EBAE12E74FF0FF3C17
:100A200006E000BF4FF0010C02E000BF4FF0010CE8
:100A30004DF804CD4FEA410C7FEA6C5C4FEA430C61
:100A400018BF7FEA6C5C1BD001B050EA410C0CBFB0
:100A500052EA430C91EA030F02BF90EA020F002012
:100A6000704710F1000F91EA030F58BF994208BF79
:100A700090422CBFD8176FEAE37040F00100704736
:100A80004FEA410C7FEA6C5C02D150EA013C07D18D
:100A90004FEA430C7FEA6C5CD6D152EA033CD3D0D8
:100AA0005DF8040B704700BF8446104662468C46D2
:100AB0001946634600E000BF01B5FFF7B7FF002805
:100AC00048BF10F1000F01BD4DF808EDFFF7F4FF2E
:100AD0000CBF012000205DF808FB00BF4DF808EDB9
:100AE000FFF7EAFF34BF012000205DF808FB00BFDC
:100AF0004DF808EDFFF7E0FF94BF012000205DF8FE
:100B000008FB00BF4DF808EDFFF7CEFF94BF0120B2
:100B100000205DF808FB00BF4DF808EDFFF7C4FFAB
:100B200034BF012000205DF808FB00BF4FEA410CF4
:100B30007FEA6C5C02D150EA013C0AD14FEA430CD7
:100B40007FEA6C5C02D152EA033C02D14FF0000014
:100B500070474FF0010070474FEA410212F5001252
:100B600015D211D56FF47873B3EB625212D94FEAF4
:100B7000C12343F0004343EA505311F0004F23FADE
:100B800002F018BF404270474FF00000704750EA33
:100B9000013005D111F0004008BF6FF000407047F0
:100BA0004FF00000704700BF4A0011D212F500124A
:100BB00011D20DD56FF47873B3EB62520ED44FEAB5
:100BC000C12343F0004343EA505323FA02F0704735
:100BD0004FF00000704750EA013002D14FF0FF3073
:100BE00070474FF00000704753B94AB9002908BF59
:100BF00000281CBF4FF0FF314FF0FF3000F06AB902
:100C0000ADF1080C6DE904CE00F006F8DDF804E063
:100C1000DDE9022304B070472DE9F047089D0C463A
:100C2000002B4ED194468C458646B2FA82F262D9A8
:100C30004AB1C2F12003914020FA03F30CFA02FCFE
:100C4000194300FA02FE4FEA1C471FFA8CF6B1FB6B
:100C5000F7F44FEA1E4307FB141143EA014304FB78
:100C600006F199420AD91CEB030304F1FF3080F02E
:100C70001281994240F20F81023C6344591A1FFAD3
:100C80008EF3B1FBF7F007FB101143EA014300FBC1
:100C900006F69E420AD91CEB030300F1FF3180F0F7
:100CA000FC809E4240F2F980634402389B1B40EA7C
:100CB000044000211DB1D3400022C5E90032BDE847
:100CC000F0878B4205D90DB1C5E900010021084626
:100CD000F5E7B3FA83F1002946D1A34202D390424B
:100CE000C0F0F080861A64EB03030120002DE6D0EB
:100CF000C5E90063E3E7002A40F09080A1EB0C0413
:100D00004FEA1C481FFA8CF70121B4FBF8F64FEAB2
:100D10001E4308FB164443EA044307FB06F09842CF
:100D200008D91CEB030306F1FF3402D2984200F20B
:100D3000CD8026461C1A1FFA8EF3B4FBF8F008FB90
:100D4000104443EA044300FB07F79F4208D91CEB19
:100D5000030300F1FF3402D29F4200F2B08020462C
:100D6000DB1B40EA0640A5E7C1F120068B4022FAD2
:100D700006F71F4320FA06FC04FA01F343EA0C03CA
:100D8000F44000FA01F8380C4FEA1349B4FBF0FEC6
:100D90001FFA87FC00FB1E4449EA04440EFB0CF9D1
:100DA000A14502FA01F20AD93C190EF1FF3A80F08E
:100DB0008480A14540F28180AEF1020E3C44A4EB58
:100DC00009041FFA83F9B4FBF0F300FB134449EA6A
:100DD000044403FB0CFCA44507D93C1903F1FF3084
:100DE00067D2A44565D9023B3C4443EA0E40A0FBD0
:100DF0000293A4EB0C049C42CE469C4651D34ED0A9
:100E000055B1B8EB0E0364EB0C0404FA06F6CB40C4
:100E10001E43CC40C5E90064002150E7C2F1200325
:100E200020FA03F10CFA02FC24FA03F394400C4379
:100E30004FEA1C4800FA02FE1FFA8CF7B3FBF8F0E9
:100E400008FB1031230C43EA014300FB07F19942F0
:100E500008D91CEB030300F1FF362CD299422AD9A2
:100E6000023863445B1AA4B2B3FBF8F108FB1133F8
:100E700044EA034401FB07F3A34208D91CEB040432
:100E800001F1FF3613D2A34211D902396444E41AA6
:100E900041EA004139E70446F0E6084606E7C8455E
:100EA000AED2B9EB020E63EB070C0138A8E731466E
:100EB000EDE7034699E73046D4E7D6467FE763443B
:100EC00002384DE70646234608460FE7023E6344D4
:100ED00030E700BF704700BF80B5D8B002AF07F55C
:100EE000AC73A3F5AA73186007F17C03D922002123
:100EF000184610F06EFE07F5AC73A3F5A8731846FC
:100F000074231A46002110F064FE4FF47A7003F047
:100F10006DF900F05BFD024607F108031146184623
:100F200010F063FF07F10803103300220021474847
:100F300003F013FB07F17C031946454803F0FBF966
:100F40000346002B434B1B7803F00703072B0BD002
:100F5000404B1B7803F00703062B05D03D4B1B7855
:100F600003F00703052B1FD13B4B1B78002B3AD115
:100F7000394B01221A7007F5AC73A3F5A8731A69EF
:100F800007F5AC73A3F5A8735A66344B1B781A4661
:100F9000324B5B781946314B9B7800930B463049B6
:100FA000304810F0B3FD1EE02B4B1B78002B1AD0FD
:100FB000294B00221A7007F5AC73A3F5A8731A69C0
:100FC00007F5AC73A3F5A8739A66244B1B781A46F1
:100FD000224B5B781946214B9B7800930B462049A6
:100FE000204810F093FD07F5AC73A3F5A8731869BA
:100FF00007F1080303F1540207F1080303F150015C
:1010000007F108035C33019307F108035833009399
:101010000346154802F0BCFE07F1080303F1700215
:1010200007F108036C331946104802F043FD07F13D
:10103000080319460E4803F061F902210D4808F033
:10104000B0FF962003F0D2F86CE700BFDC18002058
:10105000B0170020A1040020A20400208C0400206E
:10106000A83E0108A4040020EC1800202819002044
:10107000801800200000024080B582B000AF786088
:1010800039607B68012B07D13B684FF6FF729342B2
:1010900002D1034803F01CFD00BF0837BD4680BDE8
:1010A000A004002080B500AF4FF6FF710120FFF7CC
:1010B000E3FF80BD80B584B000AFF8607B600B4675
:1010C000FB721346BB72FB7A283B232B67D801A225
:1010D00052F823F09F110008651100089F110008C5
:1010E0009F1100089F1100089F1100089F11000820
:1010F0009F1100089F1100089F1100089F11000810
:101100009F1100089F1100089F1100089F110008FF
:101110009F1100089F1100089F1100089F110008EF
:101120009F1100089F1100089F1100089F110008DF
:101130009F1100089F1100089F1100089F110008CF
:101140009F1100089F1100089F1100089F110008BF
:101150009F1100089F1100086F1100087F110008FF
:101160008F110008BB7A184603F040F817E0BB7AED
:101170001A464FF400710C4808F0FAFE0FE0BB7AF3
:101180001A464FF48051094808F0F2FE07E0BB7A96
:101190001A464FF48041054808F0EAFE00BF0123DB
:1011A00018461037BD4680BD000C024000040240C6
:1011B00080B584B000AFF8607B600B46FB721346CD
:1011C000BB72FB7A143B0C2B44D801A252F823F0DB
:1011D000591200085512000855120008051200089F
:1011E000251200083D12000855120008551200088B
:1011F0005512000855120008551200085512000833
:1012000017120008BB7A9AB241F288337968154800
:101210000BF00BF921E0BB7A1A464A21F86806F078
:10122000BFFE1AE0FB681B681B781A464921F86864
:1012300006F0B6FE012002F0D9FF0EE0012002F018
:10124000D5FFFB681B685B781A464921F86806F0F1
:10125000A7FE02E0002301E000BF0123184610377B
:10126000BD4680BD501F002080B584B002AF7860BD
:10127000164B174A1749184805F00CFB164806F09C
:1012800060FE154805F075FA0021134806F068FE67
:10129000124B1979114B5B79104A12680192009335
:1012A0000B46002220210C4805F0EAF90A4805F017
:1012B000D3FA4FF4FA6002F099FF074804F00AFAF3
:1012C0004FF4FA7002F092FF00BFF6E7B510000885
:1012D000B1110008504F0108B8040020F84E010871
:1012E00080B582B000AF786039603968786810F0F6
:1012F00098FC034618460837BD4680BD2DE9F04FDF
:10130000ADF5137D22AF07F5E073A3F5AE7318605A
:10131000C94800F0B9FC07F1E003D92200211846C2
:1013200010F057FC07F5E073A3F5AA731846742371
:101330001A46002110F04DFC012387F8BF3101232C
:1013400087F8BE31002387F8BD3107F1E0034B3346
:10135000BA4A14469C4604F1300E654626460FCE26
:1013600028606960AA60EB6010340CF1100C7445C1
:10137000F3D16246234603CB106051601B78137291
:1013800007F1E0033733AE4A1C46134607CB206013
:101390006160A2601B78237307F1E003C333A94A9D
:1013A0001068186092889A8007F1E003AF33A6496D
:1013B0001A460B4603CB1060516019889B78118147
:1013C0009372002387F8BC3107F1E00319469A486D
:1013D00000F046FE07F1E0030F331946964800F08F
:1013E000A9FE07F1E0031E331946934800F088FF79
:1013F00007F1E0032D3319468F4801F075F907F125
:101400006B0319468C4801F0BFF807F16A031946CF
:10141000894801F04DF807F1E00319468B4802F0C6
:101420006DFF322002F0E2FE07F16C031946884896
:1014300002F081FF0346002B97F8BD31032B00F229
:10144000708201A252F823F05914000841150008D7
:1014500061160008B116000807F1E0030F337D495B
:101460001846FFF73DFF0346002B09D107F1E003C3
:101470000F3379491846FFF733FF0346002B1CD082
:1014800007F1E0031E3373491846FFF729FF0346AF
:10149000002B09D107F1E0031E336F491846FFF70F
:1014A0001FFF0346002B08D007F5E073A3F2551386
:1014B0001B78002B01D0012300E00023002B00F05B
:1014C000328207F1E003373319465B4800F01CFD18
:1014D000034687F8BB31584801F06EFE564801F0CC
:1014E000A7FE554801F0E0FE534801F019FF5248AD
:1014F00001F052FF97F8BB31002B40F0148297F8AF
:10150000BE31022B08D197F8B83119464A4801F08C
:1015100005FC012387F8BE3197F8BF31002B0BD1B2
:1015200097F8B8311946444801F01EFB424801F0D3
:1015300053FA012387F8BF31012387F8BD31F2E167
:1015400007F1E0030F3343491846FFF7C9FE03468E
:10155000002B09D107F1E0030F333F491846FFF78D
:10156000BFFE0346002B20D007F1E0031E333949AC
:101570001846FFF7B5FE0346002B09D107F1E0033B
:101580001E3335491846FFF7ABFE0346002B0CD03F
:1015900007F5E073A3F255131B78002B05D097F8DD
:1015A000BF31002B01D0012300E00023002B00F00D
:1015B000BC810021204800F0FFFC01211E4800F002
:1015C000FBFC07F1E003D83319461B4801F094F9FE
:1015D000034687F8BF3197F8BF31002B21D197F828
:1015E000B81101231D4A144801F05CFA034687F83C
:1015F000BF3197F8BF31002B09D197F8B8311946A0
:101600000D4801F07DFD022387F8BD318DE197F88B
:10161000B8311946084801F0A7FA074801F0DCF98B
:1016200083E197F8B8311946034801F09DFA024862
:1016300001F0D2F979E100BF38050020B83E010879
:10164000F43E0108043F01080C3F0108B0170020D8
:10165000801800204C47010858470108183F01082E
:1016600097F8BF31002B40F0628197F8BE31022B12
:1016700000F05D8197F8B81107F1E0034B331A468B
:10168000AD4801F0CDFA034687F8BE3197F8BE3178
:10169000022B03D1032387F8BD3148E197F8B83115
:1016A0001946A54801F03AFB002387F8BD313EE119
:1016B00007F1E0034B3319469F4801F0A5F80346B4
:1016C00087F8BE3197F8BC31013387F8BC3197F801
:1016D000BE31022B10D097F8BC31032B0CD900235C
:1016E00087F8B73197F8B8311946934801F016FBDF
:1016F000002387F8BD311CE197F8BE31022B40F082
:101700001881012387F8B731002387F8BC3107F52A
:10171000E073A3F5AA731B693B6607F5E073A3F5B5
:10172000AA735B691846FEF70FFFC7E9160107F5B4
:10173000E073A3F5AA739B691846FEF705FFC7E996
:10174000140107F5E073A3F5AA73DB691846FEF7E9
:10175000FBFEC7E9120107F5E073A3F5AA731B6A44
:101760001846FEF7F1FEC7E9100107F5E073A3F58F
:10177000AA735B6A1846FEF7E7FEC7E90E0107F594
:10178000E073A3F5AA739B6A1846FEF7DDFEC7E96E
:101790000C0107F5E073A3F5AA73DB6A1846FEF7A0
:1017A000D3FEC7E90A0107F5E073A3F5AA731B6B23
:1017B0001846FEF7C9FEC7E9080107F5E073A3F56F
:1017C000AA735B6B1846FEF7BFFEC7E9060107F573
:1017D000E073A3F5AA739B6B1846FEF7B5FE82462D
:1017E0008B4607F5E073A3F5AA73DB6B1846FEF78B
:1017F000ABFE8046894607F5E073A3F5AA7393F81C
:1018000040307B6107F5E073A3F5AA7393F850307D
:101810003B6107F5E073A3F5AA735B6D1846FEF70D
:1018200093FE04460D4607F5E073A3F5AA739A6D7F
:10183000FA6007F5E073A3F5AA73D96DB96007F5EF
:10184000E073A3F5AA731E6E7E6007F5E073A3F53F
:10185000AA73586E07F5E073A3F5AA73996E07F59E
:10186000E073A3F5AA73DA6E07F5E073A3F5AA7324
:101870001B6F07F16C0620931F921E911D907A68D2
:101880001C92B9681B91FA681A92CDE918453A6919
:1018900017927A691692CDE91489CDE912AB97EDCA
:1018A000067B8DED107B97ED087B8DED0E7B97ED24
:1018B0000A7B8DED0C7B97ED0C7B8DED0A7B97ED14
:1018C0000E7B8DED087B97ED107B8DED067B97ED04
:1018D000127B8DED047B97ED147B8DED027B97EDF4
:1018E000167B8DED007B3B6E32461449144810F098
:1018F0000DF997F8B81107F1E00303F1C302FF23D4
:101900000093104B0C4801F085FA0346052B97F81D
:10191000B81107F1E003C3331A46074801F036FB5C
:1019200007E000BF50E500BF4EE500BF4CE500BF3B
:101930004AE500BF48E500BF38050020203F010808
:10194000380D00206815002080B582B000AF7860A7
:1019500039607B68012B08D13B684FF6FF729342D8
:1019600003D10449044800F02BF900BF0837BD46F5
:1019700080BD00BFCC2000203805002080B500AF1E
:101980004FF6FF710120FFF7DFFF80BD80B483B009
:1019900000AF78600B46FB70FB781B09DBB21A4680
:1019A000094B995C7B685A1C7A600A461A70FB786E
:1019B00003F00F03044AD25C7B681A7000BF0C3737
:1019C000BD465DF8047B70476447010890B583B05D
:1019D00000AF07F0C5FA0346DBB27B6007F0C0FA40
:1019E00003461D4A1B0A13601C4C07F0C5FA034648
:1019F00023607B68232B09D97B683D2B28BF3D23BF
:101A0000DBB23D33DAB2144BDA710BE07B68092BA1
:101A100001D9412200E030227B68DBB21344DAB204
:101A20000D4BDA7107F090FA03461B0CDBB2194636
:101A30000B48FFF7ABFF07F087FA0346DBB2194606
:101A40000848FFF7A3FF044B00221A73024B184605
:101A50000C37BD4690BD00BF40190020431900203F
:101A6000481900204A19002080B500AF094802F04B
:101A7000F4FB094802F0F1FB084802F0EEFB0848CD
:101A800002F020FC074802F01DFC04F0CDFB00BF73
:101A900080BD00BF681600208C160020B016002004
:101AA000B01700208018002080B500AFFFF7DCFFE2
:101AB00000BF80BD80B584B002AF786039607B68BC
:101AC000012B47D13B684FF6FF72934242D1182356
:101AD0000193012300934FF40073204A20492148C9
:101AE00002F09AFB18230193012300934FF4007333
:101AF0001D4A1E491E4802F08FFB18230193012343
:101B000000934FF400731B4A1B491C4802F084FBEE
:101B10001B4BD92201211B4802F0B9FB1A4B74223E
:101B200001211A4802F0B3FB05221949194802F0B5
:101B3000F3FC9FED191AF2EE040A9FED180A1849FA
:101B4000184802F0E3F84FF47A7338221649174820
:101B500001F090FF00BF0837BD4680BDFC41010881
:101B6000FD1200086816002004420108D90E000882
:101B70008C1600200C42010869120008B0160020E3
:101B8000D4160020B01700200C1800208018002068
:101B9000301F0020DC1800203333534000000000C9
:101BA000941E0020EC180020DC1E002028190020C4
:101BB00080B500AF4FF6FF710120FFF77BFF80BDBE
:101BC00080B582B000AF786039607B6818464FF40A
:101BD00000631A4600210FF0FCFF7B6803F50063E9
:101BE0004FF40062002118460FF0F3FF7B6803F505
:101BF00000637A6802F5805213607B687A6802F5A8
:101C0000805253607B6803F581530433396818466A
:101C100002F00FFF7B6803F581530833184602F08A
:101C200057FF7B6803F580531A460023D362124B9B
:101C30001B781946114A3B6842F831300E4B1B782D
:101C40000E4ADB0013447A685A600B4B1B78013351
:101C5000DAB2094B1A70084B1B78032B02D9064BDA
:101C600000221A700649074802F0AEFD7B6818464C
:101C70000837BD4680BD00BF6819002050190020FC
:101C8000613A0008FD39000880B586B002AF78607F
:101C90000023FB73012301930A2300934FF47A730B
:101CA00004228F49786801F0B3FB41F288320021A9
:101CB000786801F0DAFC0346FB73012301930A23E1
:101CC00000934FF47A7304228549786801F0A0FBF1
:101CD00041F288320021786801F0C7FC0346FB73AB
:101CE000012301930A2300934FF47A7304227C4961
:101CF000786801F08DFB41F288320021786801F0AC
:101D0000B4FC0346FB73012301930A2300934FF4B1
:101D10007A730B227349786801F07AFB41F28832BA
:101D20000021786801F0A1FC0346FB7343F698207C
:101D300002F05CFA012301930A2300934FF47A73B3
:101D400004226749786801F063FB41F28832002180
:101D5000786801F08AFC0346FB73012301930A2390
:101D600000934FF47A7304225D49786801F050FBC8
:101D700041F288320021786801F077FC0346FB735A
:101D8000012301930A2300934FF47A7304225449E8
:101D9000786801F03DFB41F288320021786801F05B
:101DA00064FC0346FB73012301930A2300934FF461
:101DB0007A7307224C49786801F02AFB41F2883295
:101DC0000021786801F051FC0346FB730123019365
:101DD0000A2300934FF47A7306224449786801F08D
:101DE00017FB41F288320021786801F03EFC03467F
:101DF000FB73012301930A2300934FF47A730B22A0
:101E00003B49786801F004FB41F288320021786890
:101E100001F02BFC0346FB73012301930A2300937B
:101E20004FF47A730C223349786801F0F1FA41F2E9
:101E300088320021786801F018FC0346FB73012307
:101E400001930A2300934FF47A7318222A49786881
:101E500001F0DEFA41F288320021786801F005FCD9
:101E60000346FB73012301930A2300934FF47A7313
:101E70000B222249786801F0CBFA41F28832002126
:101E8000786801F0F2FB0346FB73012301930A23F8
:101E900000934FF47A730B221949786801F0B8FA6D
:101EA00041F288320021786801F0DFFB0346FB73C2
:101EB000012301930A2300934FF47A730C221149F2
:101EC000786801F0A5FA41F288320021786801F0C3
:101ED000CCFB0346FB73FB7B18461037BD4680BD29
:101EE000744701087C470108304801083848010858
:101EF0008847010894470108A4470108C047010822
:101F0000CC470108D847010880B592B002AF78608D
:101F10003960002387F83F300023FB6007F110038E
:101F20002E22002118460FF054FE07F10C033A68E8
:101F3000204918460FF0EAFD07F10C031846FEF79A
:101F400097F903469AB207F10C01012301930A2382
:101F500000934FF47A73786801F05AFA4FF4FA62FA
:101F60000021786801F081FB034687F83F3097F83D
:101F70003F30002B0FD17B6803F58153083379681C
:101F80007A6802F58052928A92B2184602F0ACFD4D
:101F90000346002B01D0012300E00023002B02D0D8
:101FA000012387F83F3097F83F3018464037BD4649
:101FB00080BD00BF2442010880B58AB002AF7860BE
:101FC0000B46FB700023FB770023BB6007F10C037B
:101FD00000221A605A609A60DA60FA7807F1080302
:101FE0001E4918460FF092FD07F108031846FEF748
:101FF0003FF903469AB207F10801012301930A232E
:1020000000934FF47A73786801F002FA41F2883253
:102010000021786801F029FB0346FB77FB7F002B4A
:102020000FD17B6803F58153083379687A6802F52C
:102030008052928A92B2184602F056FD0346002B57
:1020400001D0012300E00023002B01D00123FB7706
:10205000FB7F18462037BD4680BD00BF40420108C7
:1020600080B588B004AF78603960012301930A23FA
:1020700000934FF47A730A222B49786801F0C8F96B
:102080004FF4FA620021786801F0EFFA0346FB731F
:10209000FB7B002B11D17B6803F5815308337968F2
:1020A0007A6802F58052928A92B2184602F01CFDBC
:1020B0000346002B01D1012300E00023002B24D094
:1020C0007B6803F58150083079687B6803F580539D
:1020D0009B8A9AB23B6802930D2301933A230093A3
:1020E000124B02F027FD0346002B0CBF01230023F7
:1020F000DBB2002B13D13B680D491A460B4603CBCC
:10210000106051601B7813720AE03B6808491A4658
:102110000B4603CB106051601B78137200E000BFC8
:102120001037BD4680BD00BFE84701085042010896
:102130005842010890B589B004AF78603960012336
:1021400001930A2300934FF47A730A226149786855
:1021500001F05EF94FF4FA620021786801F085FA27
:102160000346FB73FB7B002B11D17B6803F5815386
:10217000083379687A6802F58052928A92B21846DA
:1021800002F0B2FC0346002B01D1012300E0002342
:10219000002B00F093807B6803F58150083079684C
:1021A0007B6803F580539B8A9AB23B6802930D23A8
:1021B00001932C230093484B02F0BCFC0346002BF8
:1021C0000CBF01230023DBB2002B6DD03B681B78D2
:1021D000303B072B5DD801A252F823F0FD21000807
:1021E0000D22000821220008352200084D22000897
:1021F0005D2200086F2200087F2200083B683749F3
:102200001A460B4603CB106051604CE03B683449E2
:102210001A460B4603CB106051601B78137242E0E4
:102220003B6830491A460B4603CB106051601B884F
:10223000138138E03B682C491A460B4603CB1060EB
:10224000516019889B78118193722CE03B68274973
:102250001A460B4603CB1060516024E03B68244AC9
:102260001C46134607CB20606160A2601BE03B6800
:1022700020491A460B4603CB1060516013E03B68BF
:102280001D491A460B4603CB106051601B78137230
:1022900009E03B6819491A460B4603CB10605160B0
:1022A0001B78137200BF12E03B6814491A460B46B4
:1022B00003CB106051601B78137208E03B680F4934
:1022C0001A460B4603CB106051601B78137214370B
:1022D000BD4690BDF4470108644201086C42010804
:1022E00074420108804201088C42010898420108AA
:1022F000A0420108AC420108B4420108584201085A
:1023000090B589B004AF78603960012301930A2346
:1023100000934FF47A730B225B49786801F078F8E8
:102320004FF4FA620021786801F09FF90346FB73CD
:10233000FB7B002B11D17B6803F58153083379684F
:102340007A6802F58052928A92B2184602F0CCFB6B
:102350000346002B01D1012300E00023002B00F0F5
:1023600087807B6803F58150083079687B6803F5C6
:1023700080539B8A9AB23B6802930D2301932C23CE
:102380000093424B02F0D6FB0346002B0CBF012307
:102390000023DBB2002B61D03B681B78303B062B5F
:1023A00051D801A252F823F0C5230008D523000814
:1023B000E9230008FD23000815240008252400084F
:1023C000372400083B6832491A460B4603CB10609D
:1023D000516042E03B682F491A460B4603CB106020
:1023E00051601B78137238E03B682B491A460B4644
:1023F00003CB106051601B8813812EE03B68274996
:102400001A460B4603CB1060516019889B781181E6
:10241000937222E03B6822491A460B4603CB1060B8
:1024200051601AE03B681F4A1C46134607CB2060E8
:102430006160A26011E03B681B491A460B4603CB62
:102440001060516009E03B6818491A460B4603CBFF
:10245000106051601B78137200BF12E03B68134993
:102460001A460B4603CB106051601B78137208E0CC
:102470003B680E491A460B4603CB106051601B782F
:1024800013721437BD4690BD00480108C0420108D0
:102490006C42010874420108804201088C42010824
:1024A00098420108A0420108AC42010858420108C4
:1024B00080B58AB004AF786039600023FB6007F113
:1024C000100300221A609A803B6802221A700123CE
:1024D00001930A2300934FF47A730B2228497868FA
:1024E00000F096FF4FF4FA620021786801F0BDF821
:1024F0000346FB75FB7D002B11D17B6803F58153EF
:10250000083379687A6802F58052928A92B2184646
:1025100002F0EAFA0346002B01D1012300E0002378
:10252000002B29D07B6803F58150083079687B68DF
:1025300003F580539B8A9AB207F10C0302932C2374
:1025400001933A2300930F4B02F0F4FA0346002B59
:102550000CBF01230023DBB2002B0DD03B7B302BC3
:1025600002D0312B04D007E03B6800221A7003E050
:102570003B6801221A7000BF00BF1837BD4680BDFE
:102580000C480108C842010880B58AB004AF7860E1
:1025900039600023BB6007F10C0300221A605A6007
:1025A000C3F807203B6800221A70012301930A2315
:1025B00000934FF47A730A224549786800F028FFA7
:1025C00041F288320021786801F04FF80346FB752C
:1025D000FB7D002B11D17B6803F5815308337968AB
:1025E0007A6802F58052928A92B2184602F07CFA1A
:1025F0000346002B01D1012300E00023002B62D011
:102600007B6803F58150083079687B6803F5805357
:102610009B8A9AB207F1080302932C2301933A2371
:1026200000932C4B02F086FA0346002B0CBF0123CB
:102630000023DBB2002B46D007F1080326491846D9
:10264000FEF74EFE0346002B14BF01230023DBB22E
:10265000002B03D03B6800221A7034E007F1080316
:102660001E491846FEF73CFE0346002B14BF01230B
:102670000023DBB2002B03D03B6801221A7022E05A
:1026800007F1080316491846FEF72AFE0346002BF9
:1026900014BF01230023DBB2002B03D03B680222CE
:1026A0001A7010E007F108030E491846FEF718FEED
:1026B0000346002B14BF01230023DBB2002B02D002
:1026C0003B6803221A7000BF1837BD4680BD00BFAB
:1026D00018480108D0420108D8420108E442010824
:1026E000E8420108F042010880B58AB004AF786082
:1026F00039600023FB6007F1100300221A609A8002
:102700000023FB75012301930A2300934FF47A738E
:1027100008223949786800F07BFE4FF4FA62002104
:10272000786800F0A2FF0346BB75BB7D002B11D17A
:102730007B6803F58153083379687A6802F5805223
:10274000928A92B2184602F0CFF90346002B01D1CB
:10275000012300E00023002B41D07B6803F581506A
:10276000083079687B6803F580539B8A9AB207F139
:102770000C0302932C2301933A2300931F4B02F086
:10278000D9F90346002B0CBF01230023DBB2002B39
:102790001BD007F10C0318460EF016FC0346FB7520
:1027A00097F91730622B02DD0023FB7505E0FB7DF6
:1027B0005B00DBB2713BDBB2FB7597F917301A4651
:1027C0000F4938680FF0A2F912E03B680D491A462C
:1027D0000B4603CB106051601B78137208E03B6816
:1027E00008491A460B4603CB106051601B781372E0
:1027F0001837BD4680BD00BF24480108F4420108D7
:10280000FC4201085842010880B5A0B004AF7860CE
:102810003960012387F86E30032387F86F30002377
:10282000BB6007F10C036022002118460FF0D1F9BC
:10283000012301930A2300934FF47A7312222C4947
:10284000786800F0E5FD4FF4FA520021786800F056
:102850000CFF034687F86E3097F86E30002B11D1CD
:102860007B6803F58153083379687A6802F58052F2
:10287000928A92B2184602F037F90346002B01D132
:10288000012300E00023002B2CD07B6803F581504E
:10289000083079687B6803F580539B8A9AB207F108
:1028A000080302932223019322230093114B02F089
:1028B00041F90346002B0CBF01230023DBB2002BA0
:1028C00010D007F1080319463868FEF709FD0346E2
:1028D000002B14BF01230023DBB2002B02D0022304
:1028E00087F86F3097F86F3018467037BD4680BD57
:1028F000604801082443010880B58AB004AF7860BD
:1029000039600123BB750123FB750023FB6007F1D0
:10291000100300221A609A80032303930A23029370
:10292000022301932B2300934FF47A730F2228493B
:10293000786800F0CFFD42F210720021786800F054
:1029400094FE0346BB75BB7D002B11D17B6803F55C
:102950008153083379687A6802F58052928A92B27C
:10296000184602F0C1F80346002B01D1012300E014
:102970000023002B26D07B6803F58150083079684E
:102980007B6803F580539B8A9AB207F10C0302938C
:102990000A2301933A2300930E4B02F0CBF803462F
:1029A000002B0CBF01230023DBB2002B0AD0002335
:1029B000FB7507F10C0318460EF006FB0346DAB26E
:1029C0003B681A70FB7D18461837BD4680BD00BFB6
:1029D000404801083443010880B58AB004AF7860EC
:1029E0000123BB750123FB750023FB6007F1100376
:1029F00000221A609A80032303930A23029302237E
:102A000001932B2300934FF47A730E2223497868A5
:102A100000F060FD42F210720021786800F025FE9F
:102A20000346BB75BB7D002B11D17B6803F5815339
:102A3000083379687A6802F58052928A92B2184611
:102A400002F052F80346002B01D1012300E00023DD
:102A5000002B1DD07B6803F58150083079687B68B6
:102A600003F580539B8A9AB207F10C0302930A2361
:102A700001933A2300930A4B02F05CF80346002BC3
:102A80000CBF01230023DBB2002B01D00023FB7518
:102A9000FB7D18461837BD4680BD00BF5048010871
:102AA0004443010880B59CB002AFF8607A601A46D2
:102AB0000B46FB721346BB72012387F86630012375
:102AC00087F8673000237B6107F118034C2200214F
:102AD00018460FF07EF8FA7ABB7A07F114000093DB
:102AE0007B6820490FF012F807F114031846FDF730
:102AF000BFFB03469AB207F11401012301930A2395
:102B000000934FF47A73F86800F082FC4FF4FA52A5
:102B10000021F86800F0A9FD034687F8663097F8B1
:102B20006630002B11D1FB6803F581530833F96837
:102B3000FA6802F58052928A92B2184601F0D4FFE8
:102B40000346002B01D1012300E00023002B02D01B
:102B5000002387F8673097F8673018466837BD4616
:102B600080BD00BF5043010880B59AB002AF7860C5
:102B70000B46FB70012387F85E30012387F85F3036
:102B80000023FB6007F110034C22002118460FF0D0
:102B900020F8FA7807F10C03204918460EF0B6FF2A
:102BA00007F10C031846FDF763FB03469AB207F1E1
:102BB0000C01012301930A2300934FF47A73786880
:102BC00000F026FC4FF4FA520021786800F04DFD29
:102BD000034687F85E3097F85E30002B11D17B6892
:102BE00003F58153083379687A6802F58052928A36
:102BF00092B2184601F078FF0346002B01D1012361
:102C000000E00023002B02D0002387F85F3097F804
:102C10005F3018466037BD4680BD00BF6C43010879
:102C200080B5B0B004AFF8600B467A60FB72012348
:102C300087F8AE30012387F8AF300023BB6107F17E
:102C40001C039222002118460EF0C3FF00233B61B3
:102C500000233B75FA7A07F118007B682C490EF0C7
:102C600055FF07F118031846FDF702FB03469AB219
:102C700007F11801032303930A230293022301930C
:102C80002B2300934FF47A73F86800F023FC47F28B
:102C900030520021F86800F0E8FC034687F8AE30B7
:102CA00097F8AE30002B2CD1FB6803F5815008302B
:102CB000F968FB6803F580539B8A9AB207F1100309
:102CC00002930A2301932C230093124B01F032FF4D
:102CD0000346002B0CBF01230023DBB2002B10D0D6
:102CE00007F110030C491846FEF7FAFA0346002BC9
:102CF00014BF01230023DBB2002B02D0022387F88C
:102D0000AF3097F8AF301846B037BD4680BD00BF32
:102D10008043010824430108A043010880B5AEB0F8
:102D200004AF78600B46FB70012387F8A6300123BF
:102D300087F8A73000233B6107F11403922200219A
:102D400018460EF046FF0023BB6000233B73FA7861
:102D500007F110032C4918460EF0D8FE07F11003B6
:102D60001846FDF785FA03469AB207F110010323CE
:102D700003930A230293022301932B2300934FF41E
:102D80007A73786800F0A6FB42F21072002178682E
:102D900000F06BFC034687F8A63097F8A630002BAE
:102DA0002CD17B6803F58150083079687B6803F586
:102DB00080539B8A9AB207F1080302930A23019376
:102DC0002C230093114B01F0B5FE0346002B0CBFE2
:102DD00001230023DBB2002B10D007F108030C49BC
:102DE0001846FEF77DFA0346002B14BF012300238B
:102DF000DBB2002B02D0032387F8A73097F8A73067
:102E00001846A837BD4680BDA4430108BC4301084D
:102E1000A043010890B5AFB004AFF8607A603B60A2
:102E20000B46FB72012387F8A630012387F8A730F1
:102E300000233B6107F114039222002118460EF093
:102E4000C8FEFC7A7868FDF713FA034607F1100014
:102E500022464B490EF05AFE07F110031846FDF7C3
:102E600007FA03469AB207F11001022301933E23A9
:102E700000934FF47A73F86800F0CAFA4FF47A724C
:102E80000021F86800F0F1FB034687F8A63097F8B8
:102E9000A630002B6ED1FB6803F581500830F9682D
:102EA000FB6803F580539B8A9AB2002302930A239E
:102EB00001932C230093334B01F03CFE0346002B7F
:102EC0000CBF01230023DBB2002B53D07868FDF741
:102ED000CFF903469AB2032303930A2302930523EF
:102EE00001932B2300934FF47A737968F86800F00C
:102EF000F1FA4FF47A720021F86800F0B6FB03464D
:102F000087F8A63097F8A630002B11D1FB6803F59F
:102F100081530833F968FA6802F58052928A92B2B6
:102F2000184601F0E1FD0346002B01D1012300E02A
:102F30000023002B1ED0FB6803F581500830F96890
:102F4000B7F8B83002933B6801930D2300930A232E
:102F50000D4A01F0B7FE0346002B0CBF01230023EE
:102F6000DBB2002B03D0052387F8A73002E0002353
:102F700087F8A73097F8A7301846AC37BD4690BD04
:102F8000C8430108E0430108E443010890B5B1B02B
:102F900004AFF8600B467A60FB72012387F8AE300D
:102FA000012387F8AF300023BB6107F11C03922295
:102FB000002118460EF00DFE00233B6100233B75F7
:102FC000FC7A7868FDF754F9034607F118002246A9
:102FD00047490EF09BFD07F118031846FDF748F925
:102FE00003469AB207F11801022301933E2300938E
:102FF0004FF47A73F86800F00BFA4FF47A720021FC
:10300000F86800F032FB034687F8AE3097F8AE3030
:10301000002B67D1FB6803F581500830F968FB6825
:1030200003F580539B8A9AB2002302930A230193EB
:103030002C2300932F4B01F07DFD0346002B0CBF8A
:1030400001230023DBB2002B4CD07868FDF710F988
:1030500003469AB2032303930A23029301230193A5
:103060002B2300934FF47A737968F86800F032FAF2
:1030700042F210720021F86800F0F7FA034687F870
:10308000AE3097F8AE30002B2CD1FB6803F58150A1
:103090000830F968FB6803F580539B8A9AB207F100
:1030A000100302930A2301932C230093124B01F087
:1030B00041FD0346002B0CBF01230023DBB2002B94
:1030C00010D007F110030D491846FEF709F9034621
:1030D000002B14BF01230023DBB2002B02D00023FE
:1030E00087F8AF3097F8AF301846B437BD4690BD7B
:1030F000F8430108E043010810440108A043010817
:1031000080B59AB002AF78600B46FB70012387F858
:103110005E30012387F85F300023FB6007F1100366
:103120004C22002118460EF054FDFA7807F10C03EA
:10313000204918460EF0EAFC07F10C031846FDF78B
:1031400097F803469AB207F10C01012301930A2371
:1031500000934FF47A73786800F05AF94FF4FA52FA
:103160000021786800F081FA034687F85E3097F80E
:103170005E30002B11D17B6803F5815308337968E9
:103180007A6802F58052928A92B2184601F0ACFC3D
:103190000346002B01D1012300E00023002B02D0C5
:1031A000002387F85F3097F85F3018466037BD46D8
:1031B00080BD00BF2044010880B586B002AF7860B2
:1031C0000123BB730123FB73012301930A230093A3
:1031D0004FF47A731D221549786800F019F94FF4FD
:1031E000FA620021786800F040FA0346BB73BB7BAB
:1031F000002B11D17B6803F58153083379687A6815
:1032000002F58052928A92B2184601F06DFC034694
:10321000002B01D1012300E00023002B01D000236B
:10322000FB73FB7B18461037BD4680BD7448010810
:1032300080B586B002AF78600123BB730123FB73B6
:10324000012301930A2300934FF47A731B2215493B
:10325000786800F0DDF84FF4FA620021786800F039
:1032600004FA0346BB73BB7B002B11D17B6803F5CB
:103270008153083379687A6802F58052928A92B253
:10328000184601F031FC0346002B01D1012300E078
:103290000023002B01D00023FB73FB7B1846103763
:1032A000BD4680BD9448010880B586B002AF786005
:1032B0000123BB730123FB73012301930A230093B2
:1032C0004FF47A7320221549786800F0A1F84FF482
:1032D000FA620021786800F0C8F90346BB73BB7B33
:1032E000002B11D17B6803F58153083379687A6824
:1032F00002F58052928A92B2184601F0F5FB03461D
:10330000002B01D1012300E00023002B01D000237A
:10331000FB73FB7B18461037BD4680BDB0480108E3
:1033200080B586B002AF78600123BB730123FB73C5
:10333000012301930A2300934FF47A732C22154939
:10334000786800F065F84FF4FA620021786800F0C0
:103350008CF90346BB73BB7B002B11D17B6803F553
:103360008153083379687A6802F58052928A92B262
:10337000184601F0B9FB0346002B01D1012300E000
:103380000023002B01D00023FB73FB7B1846103772
:10339000BD4680BDD448010880B586B002AF7860D4
:1033A0000123BB730123FB73012301930A230093C1
:1033B0004FF47A732A221549786800F029F84FF4FF
:1033C000FA620021786800F050F90346BB73BB7BBA
:1033D000002B11D17B6803F58153083379687A6833
:1033E00002F58052928A92B2184601F07DFB0346A4
:1033F000002B01D1012300E00023002B01D000238A
:10340000FB73FB7B18461037BD4680BD044901089D
:1034100080B584B000AFF860B96011461A460B461B
:10342000FB801346BB80FB684FF400620021184606
:103430000EF0CFFBFB6803F500634FF40062002140
:1034400018460EF0C6FB0021F86800F0C8F801210C
:10345000F86800F0C4F8FB6803F580531A463B7E19
:103460001372FB6803F580531A463B7FD372FB68E7
:1034700003F5805300225A72FB6803F58053002243
:103480001A73FB6803F58053FF229A73FB68FA688E
:1034900002F580521361FB6803F5805300229A8283
:1034A000FB6803F581530433FA6802F58052116911
:1034B0004FF40062184601F0DEFAFB6803F5815014
:1034C0000430BB88FA88B96801F0C2FA00BF10372F
:1034D000BD4680BD80B584B000AFF860B9601146CC
:1034E0001A460B46FB801346BB80FB684FF4006214
:1034F000002118460EF06DFBFB6803F500634FF4E6
:103500000062002118460EF064FB0021F86800F00C
:1035100066F80121F86800F062F8FB6803F5805353
:103520001A4697F820301372FB6803F580531A4649
:1035300097F82430D372FB6803F5805300225A7247
:10354000FB6803F5805300221A73FB6803F5805370
:10355000FF229A73FB68FA6802F580521361FB68D8
:1035600003F5805300229A82FB6803F580531A46C4
:103570003B7E93773B7F013BDAB2FB6803F58053D8
:10358000DA77FB6803F581530433FA6802F5805259
:1035900011694FF40062184601F06DFAFB6803F5FB
:1035A00081500430BB88FA88B96801F051FA00BF35
:1035B0001037BD4680BD80B483B000AF78600B4645
:1035C000FB70FB787A68134403F5815309330122B9
:1035D0001A7000BF0C37BD465DF8047B704780B49D
:1035E00083B000AF78600B46FB70FB787A681344B9
:1035F00003F58153093300221A7000BF0C37BD4612
:103600005DF8047B704780B485B000AF78600B46EE
:10361000FB700023FB73FB787A68134403F5815336
:1036200009331B78DBB2002B14BF01230023DBB26C
:10363000002B02D00023FB7310E0FB787A68134460
:1036400003F5815309331B78DBB2002B0CBF012338
:103650000023DBB2002B01D00123FB73FB7B184658
:103660001437BD465DF8047B704780B584B000AF69
:1036700078600B46FB7013463B800023FB737B682E
:1036800003F580531A460023D36205F051FC02462D
:103690007B6803F58053DA6202E00A2000F0A6FDA1
:1036A000FB7819467868FFF7AEFF0346002B0CD075
:1036B00005F03EFC02467B6803F58053DB6AD21AB4
:1036C0003B889A4201D2012300E00023002BE4D181
:1036D000FB7819467868FFF796FF0346002B14BF66
:1036E00001230023DBB2002B01D00123FB73FB7B02
:1036F00018461037BD4680BD80B582B000AF7860F7
:103700000B46FB707B6803F58053DB7ADBB2012B41
:103710000CBF01230023DBB2002B00F08A80F87875
:103720007B6803F580531B695A1C796801F5805149
:103730000A6102461A707B6803F580539B8A9BB22C
:1037400001339AB27B6803F580539A827B6803F554
:1037500080531B7BDBB2012B0CBF01230023DBB2A8
:10376000002B0CD07B6803F580539B7B5BB2DBB2F4
:103770000133DBB25AB27B6803F580539A737B68DE
:1037800003F580539B7ADBB2012B07D1FB784F2BDB
:1037900002D0FB78452B01D1012300E00023002B50
:1037A0001BD07B6803F5805300229A727B6803F577
:1037B000805301221A73FB784F2B05D17B6803F5E8
:1037C000805302225A730DE0FB78452B0AD17B68A7
:1037D00003F5805305225A7304E07B6803F5805398
:1037E00000229A72FB780A2B04D17B6803F5805380
:1037F00001229A727B6803F580539B7B5BB21A4669
:103800007B6803F580535B7BDBB29A42ACBF01233C
:103810000023DBB2002B00F0ED8000217868FFF779
:10382000CAFE7B6803F581530433184601F035F96D
:10383000E0E07B6803F58053DB7ADBB2022B0CBF40
:1038400001230023DBB2002B72D0F8787B6803F5EC
:1038500080531B695A1C796801F580510A61024640
:103860001A707B6803F580539B8A9BB201339AB22E
:103870007B6803F580539A827B6803F580531B7A3B
:10388000DBB20A2B14BF01230023DBB2002B0FD0C5
:10389000FB783E2B40F0AE8000217868FFF78BFE6E
:1038A0007B6803F581530433184601F0F6F8A1E074
:1038B0007B6803F580531B7BDBB2012B04D1FB78C3
:1038C000452B01D1012300E00023002B04D07B68AD
:1038D00003F5805302229A73FB780A2B0AD17B6886
:1038E00003F580531B7BDBB20133DAB27B6803F54F
:1038F00080531A737B6803F580531B7BDBB21A4637
:103900007B6803F580539B7B5BB29A420CBF01231B
:103910000023DBB2002B6DD000217868FFF74BFE4F
:103920007B6803F581530433184601F0B6F861E073
:103930007B6803F58053DB7ADBB2032B0CBF0123DA
:103940000023DBB2002B55D0F8787B6803F5805359
:103950001B695A1C796801F580510A6102461A7088
:103960007B6803F580539B8A9BB201339AB27B68D4
:1039700003F580539A827B6803F580539B7FDBB20B
:10398000FA789A420CBF01230023DBB2002B0CD043
:103990007B6803F580539B7B5BB2DBB20133DBB208
:1039A0005AB27B6803F580539A737B6803F58053A2
:1039B0001B7ADBB2FA789A420ED17B6803F580530A
:1039C0009B7B5BB21A467B6803F58053DB7FDBB2DF
:1039D0009A4201DB012300E00023002B0AD00021E2
:1039E0007868FFF7E8FD7B6803F5815304331846D8
:1039F00001F053F800BF0837BD4680BD80B584B0E4
:103A000000AF78600B46FB700023FB730023FB7351
:103A100009E0FB7B114A52F833307A689A4206D0AB
:103A2000FB7B0133FB73FB7B022BF2D900E000BF71
:103A3000FB7B0A4ADB0013445B68002B09D0FB7B4D
:103A4000064ADB0013445B68FA7811461846FFF714
:103A500053FE00BF1037BD4680BD00BF5019002087
:103A600080B483B000AF786000BF0C37BD465DF80E
:103A7000047B704780B584B000AFF860B9603B60EC
:103A80001346FB71FB681433184600F071FCFB68A9
:103A9000BA685A60FB68FA791A72FB683A681A6069
:103AA000FB681433184600F06EFCFB6818461037AC
:103AB000BD4680BD80B58AB002AFF860B9607A605B
:103AC000FB6814334FF47A71184600F06BFC034620
:103AD000002B0CBF01230023DBB2002B00F08480FD
:103AE0000023FB83322000F081FBAC233B763323A1
:103AF0007B760023BB76F86800F07AF80346002B4B
:103B00000CBF01230023DBB2002B68D0FB68586890
:103B1000FB681B7A5B0099B2FB681B6807F118020F
:103B20000093032306F09CFB642000F05FFBFB681E
:103B30005868FB681B7A5B0099B2FB681B6807F149
:103B400010020093072306F089FC3A7CFB685A7246
:103B5000FB685B7A5BB2002B36DB7B7C1A46FB682A
:103B60001A61FB681B691B02BA7C1A43FB681A6165
:103B7000FB681B691B01FA7C1209D2B21A43FB686D
:103B80001A61FB7C03F00F02FB68DA60FB68DB68FC
:103B90001B023A7D1A43FB68DA60FB68DB681B0294
:103BA0007A7D1A43FB68DA60BA7DFB689A72F8681E
:103BB00000F03EF80246BB681A60F86800F074F83E
:103BC00002467B681A600AE0FB8B0133FB830A2004
:103BD00000F00CFBFB8B322B00D8A8E700BFFB6882
:103BE0001433184600F006FC00BF2037BD4680BDE8
:103BF00080B584B000AF78600023FB737B685868A1
:103C00007B681B7A5B0099B24FF47A73032206F04B
:103C100057FE0346002B14BF01230023DBB2002B09
:103C200001D0012300E0FB7B18461037BD4680BD64
:103C300080B584B000AF78607B68DB681846FCF71D
:103C400061FC4FF00002154BFCF700FE02460B46EC
:103C5000104619464FF00002104BFCF7F7FD0246E4
:103C60000B46104619464FF000020D4BFCF7C4FC02
:103C700002460B46104619464FF00002094BFCF76E
:103C800003FB02460B4610461946FCF78DFF034620
:103C9000FB60FB6818461037BD4680BD00009040B1
:103CA000000069400000494080B584B000AF7860F2
:103CB0007B681B691846FCF725FC4FF00002114B8E
:103CC000FCF7C4FD02460B46104619464FF00002B1
:103CD0000C4BFCF7BBFD02460B46104619464FF055
:103CE0000002094BFCF788FC02460B4610461946B9
:103CF000FCF75AFF0346FB60FB6818461037BD46C9
:103D000080BD00BF000090400000594080B586B0E3
:103D100000AF7861396187ED030AC7ED020A87EDCC
:103D2000011A7B69194A9A607B690022DA607B6913
:103D30004FF000021A617B69144A5A617B690022C4
:103D40001A767B690022DA617B6900221A627B693C
:103D500000225A627B693833184600F009FB7B6900
:103D60003A695A637B693833184600F00CFB7B696B
:103D7000FA689A627B69BA68DA627B697A681A6360
:103D80007B6918461837BD4680BD00BF000080BF64
:103D900080B584B000AFF860B9607A603B60B96804
:103DA000F86800F00FF87968F86800F007F9FB6927
:103DB000BA693968F86800F053F900BF1037BD469A
:103DC00080BD000080B596B000AFF860B9600023F8
:103DD00087F85730FB6838334FF47A71184600F093
:103DE000E1FA0346002B0CBF01230023DBB2002BBA
:103DF00000F0D180FB6893ED0B7AFB68D3ED0A7A73
:103E000077EE677AC7ED117A07F1140328220021B3
:103E100018460DF0DEFE00233B65FB685B6B002B54
:103E200001D10123BCE00023FB643AE0FB685B6B3B
:103E3000184605F0F1F80346002B14BF01230023B8
:103E4000DBB2002B06D0FB683833184600F0D2FAFC
:103E50000123A5E0FB685B6B42F21071184605F088
:103E6000E0F90346002B14BF01230023DBB2002B33
:103E700006D0FB683833184600F0BCFA01238FE007
:103E8000FB685B6B184605F067FB0246FB6C9B000A
:103E9000503307F108010B4443F8442CFB6C013309
:103EA000FB64FB6C092BC1DDFB685B6B184605F0FE
:103EB00085F90023BB640DE0BB6C9B00503307F118
:103EC0000802134453F8443C3A6D13443B65BB6C01
:103ED0000133BB64BB6C092BEEDD3B6D324AA2FBA8
:103EE0000323DB083B653B6D07EE903AB8EE677A3B
:103EF000DFED2E6AC7EE267A9FED2D7A67EE877A80
:103F0000C7ED107AFB6893ED0C7AD7ED106AC6EE18
:103F1000877AB3EE007A67EE877AB1EE007A77EEB1
:103F2000877AC7ED0F7AD7ED0F7AB1EE007A77EE88
:103F3000C77AF3EE006A87EEA67AD7ED117A67EEBC
:103F4000277AFB68C3ED017AFB68D3ED016A97ED30
:103F5000117AC6EE877A9FED177A67EE877AFB684B
:103F6000C3ED007AFB6893ED007ADFED126AC7EECD
:103F7000267A9FED117A67EE877AFCEEE77AC7ED35
:103F8000017A3B79DAB2BB681A70FB68383318469D
:103F900000F030FA02E0012387F8573097F85730E5
:103FA00018465837BD4680BDCDCCCCCC00008045EE
:103FB000333353400000FA430000C84280B584B058
:103FC00000AF786039607B6838334FF47A711846F7
:103FD00000F0E8F90346002B0CBF01230023DBB2FD
:103FE000002B38D004F0A4FFF8607B6893ED027AD0
:103FF0007B68D3ED007AB4EEE77AF1EE10FA0CD5D7
:104000007B681A687B689A607B68FA68DA617B680B
:104010003833184600F0EEF91DE07B68DB69FA687A
:10402000D31A0E4A934211D37B6893ED027A7B68D0
:10403000D3ED007A77EE677A3B68C3ED007A7B6850
:104040001A687B689A607B68FA68DA617B68383343
:10405000184600F0CFF91037BD4680BD80EE36001F
:1040600080B584B000AFF860B9607A603B60FB68EF
:1040700038334FF47A71184600F094F90346002B58
:104080000CBF01230023DBB2002B5FD0FB681A6852
:10409000FB681A61FB68D3ED057AF5EEC07AF1EEA4
:1040A00010FA09D5FB681A69FB685A61FB68383356
:1040B000184600F09FF949E0FB6893ED047AFB682D
:1040C000D3ED057A77EE677AFDEEE77A17EE902A60
:1040D000FB68DA6004F02CFF0246FB681A62FB689A
:1040E0001B7E002B11D1FB68DB68052B25DDFB68EF
:1040F00001221A76FB681A6AFB685A627B68BA6802
:104100001A603B6800221A6017E0FB68DB68002B2E
:104110000FDCFB681A6AFB685B6AD31A41F28732CC
:1041200093420AD9FB6800221A763B68BA681A6083
:1041300003E0FB681A6AFB685A62FB681A69FB684D
:104140005A61FB683833184600F054F91037BD4601
:1041500080BD80B584B000AFF86087ED020AC7ED7E
:10416000010AFB6838334FF4FA51184600F01AF987
:104170000346002B0CBF01230023DBB2002B0AD027
:10418000FB68BA689A62FB687A68DA62FB6838335F
:10419000184600F02FF900BF1037BD4680BD80B52E
:1041A00084B000AFF860B9607A60FB6838334FF4D0
:1041B000FA51184600F0F6F80346002B0CBF012315
:1041C0000023DBB2002B0CD0FB689A6ABB681A6034
:1041D000FB68DA6A7B681A60FB683833184600F0BF
:1041E00009F900BF1037BD4680BD000080B582B020
:1041F00000AF78607B684FF47A7202FB03F3054AE4
:10420000A2FB03239B0918460AF0F0FF00BF083702
:10421000BD4680BDD34D621080B584B000AFF8605C
:10422000B9607A607B80FB6800221A62FB68BA681A
:104230001A60FB680433796818460DF0D6FDFB68F8
:104240007A889A82FB68BA699A61FB68FA69DA61CE
:10425000FB6818461037BD4680BDB0B584B002AFCC
:1042600078607B6818687B68191D7B689C8A7B680E
:104270009D697B68DB697A682032019200932B4646
:1042800022460AF055FE00BF0837BD46B0BD80B4D7
:1042900085B000AFF8607B600B467B8113463B81A5
:1042A000FB687A89A3F85420FB683A89A3F8562062
:1042B000FB687A689A65FB6818461437BD465DF856
:1042C000047B704790B585B002AF78607B68B3F827
:1042D000543018467B68B3F856301C467B689A6D9C
:1042E0007B68043300210091214609F09BFF0246C0
:1042F0007B681A6000BF0C37BD4690BD80B584B0A6
:1043000000AF786039600123FB737B681868002375
:10431000C82239680AF094F80346012B14BF012320
:104320000023DBB2002B01D0032300E0FB7B184607
:104330001037BD4680BD80B584B000AF786039606D
:104340000223FB737B681B683222396818460AF027
:1043500017FA0346012B0CBF01230023DBB2002B0D
:1043600001D0002300E0FB7B18461037BD4680BD1E
:1043700080B483B000AF78607B6818460C37BD46C8
:104380005DF8047B704780B582B000AF7860012093
:104390000AF03DF802467B681A6000BF0837BD4648
:1043A00080BD000080B584B000AF78603960012323
:1043B000FB737B681A683B684FF47A7101FB03F367
:1043C0000B49A1FB03139B09194610460AF0BAFAE0
:1043D0000346012B0CBF01230023DBB2002B01D0CD
:1043E000002300E0FB7B18461037BD4680BD00BFB0
:1043F000D34D621080B584B000AF78600123FB73A9
:104400007B6818680023002200210AF019F8FB7B62
:1044100018461037BD4680BD80B483B000AF7860C9
:104420007B6818460C37BD465DF8047B704780B545
:1044300082B000AF786009F01BFC02467B681A600E
:1044400000BF0837BD4680BD80B584B000AF78603E
:10445000EFF30583FB60FB68002B14BF01230023EF
:10446000DBB2002B1ED07B6800225A607B68186884
:104470007B6804331A46012109F0A2FD02467B68DD
:104480009A607B689B68002B12D07B685B68002B6E
:104490000ED0094B4FF080521A60BFF34F8FBFF31D
:1044A0006F8F05E07B681B680121184609F0CCFC82
:1044B00000BF1037BD4680BD04ED00E080B584B07C
:1044C00002AF78607B6818684FF0FF3300930023D9
:1044D0000122012109F0E6FB00BF0837BD4680BD7F
:1044E00080B584B002AF786039607B6818683B683B
:1044F0004FF47A7202FB03F3064AA2FB03239B09E3
:10450000009300230122012109F0CCFB00BF0837F2
:10451000BD4680BDD34D621080B584B000AFF86059
:10452000B9601346FB71FB680833184600F0D0FAF7
:10453000FB680C331846FFF71BFFFB68BA685A602C
:10454000FB68FA791A70FB680C331846FFF71BFFFB
:10455000FB6818461037BD4680BDB0B590B004AFBB
:10456000F860B9607A603B600123FB62FB680C3342
:104570004FF47A711846FFF715FF0346002B0CBF66
:1045800001230023DBB2002B42D0FB685B6807F1FC
:1045900014010022184607F0D0FCFB685B6807F1A5
:1045A00028010022184607F0AAFD3B68002B17D00F
:1045B000FB6803F10805FB6893F9003003936C4630
:1045C00007F11C0393E8070084E8070007F11403D0
:1045D0000CCBB96A284600F0C9FB02463B681A605A
:1045E000BB68002B02D0BA6ABB681A607B68002BDC
:1045F00006D007F114031422194678680DF0FDFB6C
:10460000FB680C331846FFF7F5FE0023FB6214E04D
:104610003B68002B02D03B6800221A60BB68002B6D
:1046200003D000231A68BB681A607B68002B04D093
:104630001422002178680DF0E0FBFB6ADBB218461B
:104640003037BD46B0BDB0B590B004AFF860B960CA
:104650007A603B600123FB62FB680C334FF47A7194
:104660001846FFF79FFE0346002B0CBF01230023D3
:10467000DBB2002B47D0FB685B6807F11401002216
:10468000184607F05AFCFB685B6807F12801002216
:10469000184607F034FDFB6893F900203B6C1A7054
:1046A0003B68002B17D0FB6803F10805FB6893F902
:1046B000003003936C4607F11C0393E8070084E87D
:1046C000070007F114030CCBB96A284600F04EFB33
:1046D00002463B681A60BB68002B02D0BA6ABB680E
:1046E0001A607B68002B06D007F1140314221946C8
:1046F00078680DF082FBFB680C331846FFF77AFEF2
:104700000023FB6214E03B68002B02D03B680022D0
:104710001A60BB68002B03D000231A68BB681A60BC
:104720007B68002B04D01422002178680DF065FB13
:10473000FB6ADBB218463037BD46B0BD80B58CB0E1
:1047400000AFF860B9607A60FB700123FB62FB6820
:104750000C334FF47A711846FFF724FE0346002B02
:104760000CBF01230023DBB2002B27D0FB685B6862
:1047700000227968184607F046FBFB685B68002258
:10478000B968184607F037FCFB68FA781A70FB68BE
:104790005B6807F114010022184607F0CEFBFB68A6
:1047A0005B6807F128010022184607F0A8FCFB68A7
:1047B0000C331846FFF71EFE0023FB62FB6ADBB2D8
:1047C00018463037BD4680BD80B483B000AF7860F6
:1047D0003960064A7B681360054A3B68136000BF76
:1047E0000C37BD465DF8047B704700BF6C19002094
:1047F0007019002080B584B000AF78607B685B6C76
:10480000BB817B6893F84230DBB2222B0CBF0123C3
:104810000023DBB2002B21D07B681B685B689BB256
:10482000DBB2FB81BB89002B07D0BB891B021AB20C
:10483000B7F90E3013431BB2FB817B680B4A9342DE
:104840000AD10B4B1B68002B06D0094B1B68FA8959
:10485000D2B2114678689847002303E07B681B6852
:104860005B68022318461037BD4680BDCC2000206F
:104870006C19002080B586B000AF78607B681B683B
:104880001B687B617B681B68DB683B617B681B681E
:104890005B69FB600023BB607B6903F00F03BB60B7
:1048A000BB68002B0DD17B6903F02003002B08D0DF
:1048B0003B6903F02003002B03D07868FFF79AFFD1
:1048C000A4E07B681B685B69FB60BB68002B00F0A1
:1048D0008380FB6803F00103002B04D13B6903F4E0
:1048E0009073002B78D07B6903F00103002B0FD06D
:1048F0003B6903F48073002B0AD07B681B686FF060
:1049000001021A607B685B6C43F001027B685A64A9
:104910007B6903F00203002B0FD0FB6803F0010357
:10492000002B0AD07B681B686FF002021A607B685C
:104930005B6C43F004027B685A647B6903F00403F8
:10494000002B0FD0FB6803F00103002B0AD07B681B
:104950001B686FF004021A607B685B6C43F0020214
:104960007B685A647B6903F00803002B14D03B6911
:1049700003F02003002B04D1FB6803F00103002B9C
:104980000AD07B681B686FF008021A607B685B6C5A
:1049900043F008027B685A647B685B6C002B14BF91
:1049A00001230023DBB2002B2DD07B6903F0200311
:1049B000002B0AD03B6903F02003002B05D07B6855
:1049C00000225A647B681B685B68786808F076FD93
:1049D0007B6800225A6416E07B6903F08003002B99
:1049E00014D03B6903F08003002B0FD07B68094A89
:1049F00093420AD1084B1B68002B06D0064B1B685C
:104A00007868984701E000BF00E000BF1837BD4656
:104A100080BD00BFCC2000207019002080B582B07E
:104A200000AF78607868FFF725FF00BF0837BD4604
:104A300080BD80B483B000AF786039607B683A682D
:104A40001A607B6818460C37BD465DF8047B7047DA
:104A500080B584B000AFF860B9603B601346FB805E
:104A6000FB681868FA883B68B96808F0C5FB00BFA6
:104A70001037BD4680BD80B584B000AFF860B96026
:104A80001346FB80FB681B68FA88B968184608F073
:104A90003EFC00BF1037BD4680BD80B582B000AF80
:104AA00078607B681B68184608F056FC00BF083722
:104AB000BD4680BD80B582B000AF7860396039688E
:104AC00078680DF08EF8034618460837BD4680BD5D
:104AD00080B483B000AF78607B6818460C37BD4661
:104AE0005DF8047B7047000080B586B000AFF860C9
:104AF000B9601346FB800223FB750C49B8680DF0C2
:104B000090F80346002B02D00023FB7508E008490B
:104B1000B8680DF086F80346002B01D00123FB7521
:104B2000FB7D18461837BD4680BD00BF8C44010888
:104B30009044010890B5ADF5077D00AF07F5067408
:104B4000A4F50374206007F50670A0F504700160F9
:104B5000114607F50672A2F50672136007F5067393
:104B6000A3F212230A461A80022387F80D3200238B
:104B7000A7F8163207F50673A3F212231A8807F571
:104B80000673A3F5047307F1140019680DF036F8E5
:104B900007F50673A3F5067307F1140219681046AA
:104BA0000DF03FF80346002B01D1022385E0D7F832
:104BB0003032002B01D100237FE097F8282207F143
:104BC000140311461846FFF775FFC7F80802D7F817
:104BD0000832002B16D007F11403D7F80822D31A95
:104BE000C7F8103297F828323A2B05D1D7F810328F
:104BF0000233C7F8103207E0D7F810320133C7F894
:104C0000103201E0022358E0D7F81032A7F80E3234
:104C10003CE0B7F80E3207F50672A2F5047212688E
:104C200013441B7897F82C229A420FD0B7F80E3213
:104C300007F50672A2F5047212681A44B7F8163224
:104C4000D7F830120B4412781A7015E0B7F80E320C
:104C500007F50672A2F50472126813441B7897F8E0
:104C60002C229A4208D1B7F81632D7F830221344D2
:104C700000221A70002320E0B7F80E320133A7F8A3
:104C80000E32B7F816320133A7F81632B7F81622EB
:104C900007F50673A3F212231988D7F81032CB1A3E
:104CA0009A4208DA07F50673A3F21223B7F80E2228
:104CB0001B889A42ADD397F80D32184607F507774F
:104CC000BD4690BD80B588B000AFF860B9607A602D
:104CD000FB7000237B76FB6A002B01D1012340E0AF
:104CE0007968B8680CF09DFFF861FB69002B01D171
:104CF000022336E07868FBF7BBFA0246FB691344EF
:104D0000FB61FB690133FB61FB781946F869FFF72A
:104D1000D1FE78617B69002B01D1022321E07B6900
:104D20000133FB6100237B830AE0FB695A1CFA61B3
:104D30001978FA6A7B8B581C788313440A461A70D8
:104D4000FB691B7897F828209A4204D07A8B3B8E17
:104D5000013B9A42E9DB7B8BFA6A134400221A700A
:104D60007B7E18462037BD4680BD000082B080B5EE
:104D70008CB000AF7860396007F1380181E80C0031
:104D8000BB783B627B78FB61FB78BB61BB69452BE1
:104D900002DC4FF4FA6301E040F26C73BA69134429
:104DA000BB6197F838307B6197F839303B6197F8F1
:104DB0003A30FB6097F94C2013461B019B1A9B006D
:104DC000BB600023FB6240F2B273BB6212E0B96ABF
:104DD000786800F061F80346002B02D04FF4B773F7
:104DE00001E040F26D131A46FB6A1344FB62BB6A92
:104DF0000133BB62BA6ABB699A42E8DBFB6A254AA7
:104E000002FB03F3FB6201237B620FE07A6AB9695C
:104E1000786800F071F803461E4A02FB03F31A4655
:104E2000FB6A1344FB627B6A01337B627A6AFB692B
:104E30009A42EBDB3B6A013B164A02FB03F31A463C
:104E4000FB6A1344FB627B694FF4616202FB03F36C
:104E50001A46FB6A1344FB623A6913461B019B1A0C
:104E60009B001A46FB6A1344FB62FB68FA6A134410
:104E7000FB62BA6813461B019B1A9B001A46FB6A29
:104E80009B1AFB62FB6A18463037BD46BDE880407E
:104E900002B070478051010080B483B000AF7860E9
:104EA00039603B6803F00303002B0CD13A68114BC7
:104EB00083FB02135911D317CB1A642101FB03F3AF
:104EC000D31A002B0DD13A680A4B83FB0213D91178
:104ED000D317CB1A4FF4C87101FB03F3D31A002B7D
:104EE00001D1012300E0002318460C37BD465DF8D0
:104EF000047B70471F85EB5180B584B000AFF8602C
:104F0000B9607A607B68022B08D1B968F868FFF74E
:104F1000C3FF0346002B01D0012300E00023002B38
:104F200001D01D2304E07B68013B034A52F8233083
:104F300018461037BD4680BD3049010880B588B09D
:104F400002AF78600023FB75002001F0C3F9786898
:104F500001F00FFC4B4B19794A4B5B79494A1268B7
:104F6000019200930B4600226821786801F088FBCB
:104F70000121786802F0BDF80221786802F047FB51
:104F80004149786802F016FA97F9172013469B00FA
:104F900013449B003D4A13441846FBF769F9034646
:104FA000FB73FB7DDB00DBB20333DAB2FB7B19461C
:104FB00089000B44DBB20133DBB2092100910221ED
:104FC000786801F0A0FB00233B6114E03B69DBB291
:104FD000DB00DBB20A33D9B23A6913469B001344B3
:104FE0009B002A4A13440A460321786802F040F9DC
:104FF0003B6901333B613B69012BE7DD786801F0D8
:105000002BFC01F03BF9B860BB68002B9FD0BB685C
:10501000282B06D197F91730DBB20133DBB2FB75D1
:105020001AE0BB681E2B0CD197F91730DBB2013B9D
:10503000DBB2FB7597F91730002B0DDA0123FB75F6
:105040000AE0BB680A2B07D197F91730104A52F8CB
:105050002330184601F010F897F91730002B03F0B1
:105060000103B8BF5B42FB75BB68322B06D0BB683F
:105070003C2B03D0BB680A2B7FF466AF00BF183708
:10508000BD4680BD404F01084453010860490108F6
:105090000000002080B586B002AF7860002001F0EB
:1050A00019F9786801F065FB786801F001F8354B73
:1050B0001979344B5B79334A1268019200930B469D
:1050C00002223021786801F0DBFA0121786802F0D1
:1050D00010F80221786802F09AFA2B49786802F0F9
:1050E00069F9092300931A2311220221786801F03B
:1050F0000AFB264B19220321786802F0B9F8244BE9
:1051000023220521786802F0B3F8092300931A23BB
:1051100028220221786801F0F6FA1E4B3022032182
:10512000786802F0A5F81C4B3A220521786802F055
:105130009FF8092300931F2311225621786801F05C
:10514000E2FA164B19225821786802F091F8144BB4
:1051500023225821786802F08BF8786801F07CFBF4
:105160004FF47A7001F098F8F860FB68002B98D043
:10517000FB680A2B02D1062000F07EFF00BF10372B
:10518000BD4680BD384F0108445301085045010811
:10519000584501085C450108644501086845010857
:1051A0007045010880B586B002AF7860002001F03C
:1051B00091F8786801F0DDFA786800F079FF354BF6
:1051C0001979344B5B79334A1268019200930B468C
:1051D00002223021786801F053FA0121786801F049
:1051E00088FF0221786802F012FA2B49786802F0F1
:1051F000E1F809230093332311220221786801F09A
:1052000082FA264B19220321786802F031F8244BE8
:1052100023220521786802F02BF8092300932E231E
:1052200028220221786801F06EFA1E4B30220321F9
:10523000786802F01DF81A4B3A220521786802F0CE
:1052400017F809230093332311225121786801F0C4
:105250005AFA154B19225221786802F009F8104BBE
:1052600023225221786802F003F8786801F0F4FAFA
:105270004FF47A7001F010F8F860FB68002B98D0BA
:10528000FB680A2B02D1062000F0F6FE00BF1037A3
:10529000BD4680BD304F01084453010874450108E4
:1052A00080450108884501089445010880B586B00D
:1052B00002AF7860002001F00DF8786801F059FA2B
:1052C000786800F0F5FE354B1979344B5B79334A39
:1052D0001268019200930B4602223021786801F097
:1052E000CFF90121786801F004FF0221786802F00B
:1052F0008EF92B49786802F05DF809230093292381
:1053000011220221786801F0FEF9264B19220321AF
:10531000786801F0ADFF244B23220F21786801F05B
:10532000A7FF092300932E2328220221786801F089
:10533000EAF91E4B30220321786801F099FF1C4BDB
:105340003A220521786801F093FF09230093332363
:1053500011225121786801F0D6F9164B19225221F9
:10536000786801F085FF144B23225221786801F000
:105370007FFF786801F070FA4FF47A7000F08CFFCC
:10538000F860FB68002B98D0FB680A2B02D106203E
:1053900000F072FE00BF1037BD4680BD284F0108E7
:1053A00044530108A0450108AC450108B045010877
:1053B000BC450108C8450108D445010880B586B040
:1053C00002AF7860002000F085FF786801F0D1F925
:1053D000786800F06DFE354B1979344B5B79334AB0
:1053E0001268019200930B4602223021786801F086
:1053F00047F90121786801F07CFE0221786802F00B
:1054000006F92B49786801F0D5FF09230093292379
:1054100011220221786801F076F9264B1922032126
:10542000786801F025FF244B23220221786801F0DF
:105430001FFF09230093332328220221786801F0FB
:1054400062F91E4B30220321786801F011FF1C4BDA
:105450003A220521786801F00BFF092300931F23EE
:1054600011225421786801F04EF9164B192255216A
:10547000786801F0FDFE144B23225221786801F078
:10548000F7FE786801F0E8F94FF47A7000F004FF55
:10549000F860FB68002B98D0FB680A2B02D106202D
:1054A00000F0EAFD00BF1037BD4680BD204F010867
:1054B00044530108E0450108EC450108F4450108A2
:1054C00000460108084601081046010880B586B06C
:1054D00002AF7860002000F0FDFE786801F049F925
:1054E000786800F0E5FD354B1979344B5B79334A28
:1054F0001268019200930B4602223021786801F075
:10550000BFF80121786801F0F4FD0221786802F00B
:105510007EF82B49786801F04DFF09230093292379
:1055200011220221786801F0EEF8264B192203219E
:10553000786801F09DFE244B23220221786801F057
:1055400097FE092300932E2328220221786801F078
:10555000DAF81E4B30220321786801F089FE1C4BDB
:105560003A220521786801F083FE092300931A236B
:1055700011225421786801F0C6F8164B19225521E2
:10558000786801F075FE144B23225321786801F0EE
:105590006FFE786801F060F94FF47A7000F07CFEDD
:1055A000F860FB68002B98D0FB680A2B02D106201C
:1055B00000F062FD00BF1037BD4680BD184F0108E6
:1055C00044530108184601082446010830460108E2
:1055D0003C460108444601084C46010880B586B0A7
:1055E00002AF7860002000F075FE786801F0C1F825
:1055F000786800F05DFD3349786801F0DBFE324BDE
:105600001979314B5B79304A1268019200930B464D
:1056100010220A21786801F033F82C4B262205214C
:10562000786801F025FE2A4B2E220521786801F0CA
:105630001FFE254B1979244B5B79234A126801928E
:1056400000930B460A223621786801F019F81F4BA7
:1056500020223221786801F00BFE1D4B28223221D6
:10566000786801F005FE184B1979174B5B79164ADB
:105670001268019200930B4610226421786800F0B2
:10568000FFFF124B26226021786801F0F1FD104BDC
:105690002E226021786801F0EBFD786801F0DCF8DB
:1056A0004FF47A7000F0F8FDF860FB68002B9CD096
:1056B000FB680A2B02D1062000F0DEFC00BF103789
:1056C000BD4680BD44530108104F010854460108EF
:1056D0005C46010890B585B000AF7860814B1B68CF
:1056E000092B02D17F4B00221A600023FB810EE0C0
:1056F000FA897D4913461B0113449B000B441A6829
:10570000784B1B689A4206D0FB890133FB81FB89E9
:10571000082BEDD900E000BFFB89082B00F2D980EF
:10572000FF22002171480CF054FAFA896E491346A1
:105730001B0113449B000B4404331B687868984793
:1057400000F0BCFD03460A2B4ED00A2BC0F2C580E8
:105750003C2B00F3C2801E2BC0F2BF801E3B1E2BD1
:1057600000F2BB8001A252F823F000BF735800087A
:10577000DB580008DB580008DB580008DB5800083D
:10578000DB580008DB580008DB580008DB5800082D
:10579000DB5800088B580008DB580008DB5800086D
:1057A000DB580008DB580008DB580008DB5800080D
:1057B000DB580008DB580008DB580008A358000835
:1057C000DB580008DB580008DB580008DB580008ED
:1057D000DB580008DB580008DB580008DB580008DD
:1057E000DB580008BB5800080023BB600023BB60E7
:1057F0003AE0FA893C4913461B011344BA68134442
:10580000023351F82330092B0AD1FA89364913465D
:105810001B0113449B000B441B68324A136027E0B2
:10582000FA89314913461B011344BA681344023301
:1058300051F8234000F030FC03469C420CBF01238A
:105840000023DBB2002B0CD0FA89274913461B0139
:105850001344BA681344023351F82330214A1360C9
:1058600006E0BB680133BB60BB68092BC1DD35E0D6
:1058700034E0FA891C4913461B0113449B000B4476
:1058800038331B68174A136028E0FA891649134613
:105890001B0113449B000B4434331B68114A1360F3
:1058A0001CE0FA89104913461B0113449B000B446A
:1058B00040331B680B4A136010E0FA890A4913460B
:1058C0001B0113449B000B443C331B68054A1360C7
:1058D00004E0044B09221A6000E000BF00BF143747
:1058E000BD4690BD080000200C0000207419002067
:1058F000F0B5A1B006AF786007F1280007F11002FB
:1059000007F1240107F10F0300930346BA48FEF79D
:105910009AFE002387F86730002387F8663000205E
:1059200000F0D8FC786800F024FF0121786801F0CD
:10593000E0FB0221786801F06AFEB049786801F066
:1059400039FDAF4B0A220321786801F091FC3B7CC2
:105950001E467B7C9C46BB7C97F8262097F825103A
:1059600097F82700044697F90F00054607F12C0029
:105970000495039402910192009363463246A14933
:105980000CF0C4F807F12C0314220521786801F00B
:105990006FFC97F90F3013F1090F13DA97F967309D
:1059A0000B2B0FDD97F966300233DBB21A469200FB
:1059B0001344D9B20923009305230C22786800F020
:1059C000A2FE0EE097F966300133DBB21A46920070
:1059D0001344D9B20923009305230C22786800F000
:1059E00092FE786800F0C6FB786800F035FF00F0A2
:1059F00045FC38663B6E002B94D03B6E322B13D0A7
:105A00003B6E322B00F35F813B6E282B5BD03B6EED
:105A1000282B00F358813B6E0A2B00F047813B6E28
:105A20001E2B00F0C5804EE197F96730DBB20133E1
:105A3000DBB287F8673097F96730052B25DC97F9DB
:105A40006730022B11DD97F96730032B06DD97F8DD
:105A500067300233DBB287F8663034E197F867309D
:105A60000133DBB287F866302DE197F96730022BFE
:105A700006D197F866300233DBB287F8663022E150
:105A800097F8673087F866301DE197F96730062B85
:105A90000BD097F96730082B07D097F967300A2B9E
:105AA00003D097F967300C2B06D197F86630023394
:105AB000DBB287F8663006E197F866300133DBB277
:105AC00087F86630FFE097F967300D2B00F2F88019
:105AD00001A252F823F000BF115B0008115B00081F
