:020000040800F2
:1000000000000220B19D0008899700089197000820
:1000100099970008A1970008A99700080000000020
:1000200000000000000000000000000011160108A0
:10003000B19700080000000061180108E9E9000814
:10004000019E0008019E0008019E0008019E000814
:10005000019E0008019E0008019E0008019E000804
:10006000019E0008019E0008019E0008019E0008F4
:10007000019E0008019E0008019E0008019E0008E4
:10008000019E0008019E0008019E0008019E0008D4
:10009000019E0008019E0008019E0008019E0008C4
:1000A000019E0008019E0008019E0008019E0008B4
:1000B000019E0008C1970008019E0008019E0008EB
:1000C000019E0008019E0008019E0008019E000894
:1000D000019E0008019E0008D9970008019E0008B3
:1000E000019E0008019E0008019E0008019E000874
:1000F000019E0008019E0008019E0008019E000864
:10010000019E0008019E0008019E0008019E000853
:10011000019E0008019E0008019E0008019E000843
:10012000019E0008019E0008019E0008019E000833
:10013000019E0008019E0008019E0008019E000823
:10014000019E0008019E0008019E0008019E000813
:10015000019E0008019E0008019E0008019E000803
:10016000019E0008019E0008019E0008019E0008F3
:10017000019E0008019E0008019E0008000000008A
:08018000019E0008019E000829
:1001900010B5054C237833B9044B13B10448AFF3C1
:1001A00000800123237010BD7004002000000000B7
:1001B000184E010808B5034B1BB103490348AFF3C0
:1001C000008008BD0000000074040020184E0108E3
:1001D00001F0FF01102A2BDB10F0070F08D010F8F8
:1001E000013B013A8B422DD010F0070F42B3F6D1FC
:1001F000F0B441EA012141EA014122F007047FF015
:1002000000070023F0E80256083C85EA010586EA6B
:10021000010685FA47F5A3FA87F586FA47F6A5FAA7
:1002200087F68EB9EED1F0BC01F0FF0102F00702B3
:1002300032B110F8013B013A83EA010313B1F8D15E
:100240000020704701387047002D06BF354603383F
:10025000073815F0010F07D1013015F4807F02BF78
:10026000013015F4C03F0130F0BC0138704700BFC9
:10027000034613F8012B002AFBD1181A01387047E6
:1002800081F0004102E000BF83F0004330B54FEA47
:1002900041044FEA430594EA050F08BF90EA020FB4
:1002A0001FBF54EA000C55EA020C7FEA645C7FEA47
:1002B000655C00F0E2804FEA5454D4EB5555B8BF6A
:1002C0006D420CDD2C4480EA020281EA030382EADB
:1002D000000083EA010180EA020281EA0303362D6D
:1002E00088BF30BD11F0004F4FEA01314FF4801C40
:1002F0004CEA113102D0404261EB410113F0004F52
:100300004FEA03334CEA133302D0524263EB430308
:1003100094EA050F00F0A780A4F10104D5F1200EA6
:100320000DDB02FA0EFC22FA05F2801841F1000101
:1003300003FA0EF2801843FA05F359410EE0A5F1D5
:1003400020050EF1200E012A03FA0EFC28BF4CF006
:10035000020C43FA05F3C01851EBE37101F00045BC
:1003600007D54FF0000EDCF1000C7EEB00006EEBC9
:100370000101B1F5801F1BD3B1F5001F0CD3490853
:100380005FEA30004FEA3C0C04F101044FEA4452AA
:1003900012F5800F80F09A80BCF1004F08BF5FEA31
:1003A000500C50F1000041EB045141EA050130BD11
:1003B0005FEA4C0C404141EB0101013C28BFB1F523
:1003C000801FE9D291F0000F04BF01460020B1FA6E
:1003D00081F308BF2033A3F10B03B3F120020CDA41
:1003E0000C3208DD02F1140CC2F10C0201FA0CF01F
:1003F00021FA02F10CE002F11402D8BFC2F1200C84
:1004000001FA02F120FA0CFCDCBF41EA0C01904039
:10041000E41AA2BF01EB0451294330BD6FEA040482
:100420001F3C1CDA0C340EDC04F11404C4F120026D
:1004300020FA04F001FA02F340EA030021FA04F37F
:1004400045EA030130BDC4F10C04C4F1200220FAD6
:1004500002F001FA04F340EA0300294630BD21FA14
:1004600004F0294630BD94F0000F83F4801306BFDA
:1004700081F480110134013D4EE77FEA645C18BFCE
:100480007FEA655C29D094EA050F08BF90EA020F65
:1004900005D054EA000C04BF1946104630BD91EA5D
:1004A000030F1EBF0021002030BD5FEA545C05D160
:1004B0004000494128BF41F0004130BD14F580049F
:1004C0003CBF01F5801130BD01F0004545F0FE4113
:1004D00041F470014FF0000030BD7FEA645C1ABF48
:1004E000194610467FEA655C1CBF0B46024650EA7F
:1004F000013406BF52EA033591EA030F41F40021AB
:1005000030BD00BF90F0000F04BF0021704730B530
:100510004FF4806404F132044FF000054FF0000105
:1005200050E700BF90F0000F04BF0021704730B5C6
:100530004FF4806404F1320410F0004548BF40429B
:100540004FF000013EE700BF42004FEAE2014FEAF0
:1005500031014FEA02701FBF12F07F4393F07F4FCB
:1005600081F06051704732F07F4208BF704793F0CE
:100570007F4F04BF41F40021704730B54FF46074E1
:1005800001F0004521F000411CE700BF50EA0102E4
:1005900008BF704730B54FF000050AE050EA01028D
:1005A00008BF704730B511F0004502D5404261EBFD
:1005B00041014FF4806404F132045FEA915C3FF43E
:1005C000D8AE4FF003025FEADC0C18BF03325FEADB
:1005D000DC0C18BF033202EBDC02C2F1200300FA8C
:1005E00003FC20FA02F001FA03FE40EA0E0021FAB1
:1005F00002F11444BDE600BF70B54FF0FF0C4CF49F
:10060000E06C1CEA11541DBF1CEA135594EA0C0F50
:1006100095EA0C0F00F0DEF82C4481EA030621EA8B
:100620004C5123EA4C5350EA013518BF52EA0335C6
:1006300041F4801143F4801338D0A0FB02CE4FF078
:100640000005E1FB02E506F00042E0FB03E54FF0A8
:100650000006E1FB03569CF0000F18BF4EF0010EA0
:10066000A4F1FF04B6F5007F64F5407404D25FEA9C
:100670004E0E6D4146EB060642EAC62141EA55514F
:100680004FEAC52040EA5E504FEACE2EB4F1FD0C91
:1006900088BFBCF5E06F1ED8BEF1004F08BF5FEA0F
:1006A000500E50F1000041EB045170BD06F00046C1
:1006B00046EA010140EA020081EA0301B4EB5C046E
:1006C000C2BFD4EB0C0541EA045170BD41F4801166
:1006D0004FF0000E013C00F3AB8014F1360FDEBF8B
:1006E000002001F0004170BDC4F10004203C35DA67
:1006F0000C341BDC04F11404C4F1200500FA05F3EA
:1007000020FA04F001FA05F240EA020001F000428A
:1007100021F0004110EBD37021FA04F642EB060100
:100720005EEA430E08BF20EAD37070BDC4F10C042A
:10073000C4F1200500FA04F320FA05F001FA04F2EE
:1007400040EA020001F0004110EBD37041F10001DA
:100750005EEA430E08BF20EAD37070BDC4F12005E5
:1007600000FA05F24EEA020E20FA04F301FA05F24D
:1007700043EA020321FA04F001F0004121FA04F2F5
:1007800020EA020000EBD3705EEA430E08BF20EAC5
:10079000D37070BD94F0000F0FD101F000464000FF
:1007A00041EB010111F4801F08BF013CF7D041EA81
:1007B000060195F0000F18BF704703F00046520085
:1007C00043EB030313F4801F08BF013DF7D043EA56
:1007D0000603704794EA0C0F0CEA135518BF95EA0C
:1007E0000C0F0CD050EA410618BF52EA4306D1D193
:1007F00081EA030101F000414FF0000070BD50EAB2
:10080000410606BF1046194652EA430619D094EA3B
:100810000C0F02D150EA013613D195EA0C0F05D125
:1008200052EA03361CBF104619460AD181EA030179
:1008300001F0004141F0FE4141F470014FF0000031
:1008400070BD41F0FE4141F4780170BD70B54FF0CC
:10085000FF0C4CF4E06C1CEA11541DBF1CEA13554C
:1008600094EA0C0F95EA0C0F00F0A7F8A4EB05042E
:1008700081EA030E52EA03354FEA013100F0888025
:100880004FEA03334FF0805545EA131343EA1263EE
:100890004FEA022245EA111545EA10654FEA0026A3
:1008A0000EF000419D4208BF964244F1FD0404F55C
:1008B000407402D25B084FEA3202B61A65EB0305B8
:1008C0005B084FEA32024FF480104FF4002CB6EB75
:1008D000020E75EB030E22BFB61A754640EA0C00F5
:1008E0005B084FEA3202B6EB020E75EB030E22BF35
:1008F000B61A754640EA5C005B084FEA3202B6EB76
:10090000020E75EB030E22BFB61A754640EA9C0034
:100910005B084FEA3202B6EB020E75EB030E22BF04
:10092000B61A754640EADC0055EA060E18D04FEAC2
:10093000051545EA16754FEA06164FEAC30343EA62
:1009400052734FEAC2025FEA1C1CC0D111F4801F2F
:100950000BD141EA00014FF000004FF0004CB6E728
:1009600011F4801F04BF01430020B4F1FD0C88BFC7
:10097000BCF5E06F3FF6AFAEB5EB030C04BFB6EBD2
:10098000020C5FEA500C50F1000041EB045170BDC5
:100990000EF0004E4EEA113114EB5C04C2BFD4EBF2
:1009A0000C0541EA045170BD41F480114FF0000E76
:1009B000013C90E645EA060E8DE60CEA135594EAF2
:1009C0000C0F08BF95EA0C0F3FF43BAF94EA0C0FF5
:1009D0000AD150EA01347FF434AF95EA0C0F7FF46A
:1009E00025AF104619462CE795EA0C0F06D152EABE
:1009F00003353FF4FDAE1046194622E750EA4106A2
:100A000018BF52EA43067FF4C5AE50EA41047FF4B2
:100A10000DAF52EA43057FF4EBAE12E74FF0FF3C17
:100A200006E000BF4FF0010C02E000BF4FF0010CE8
:100A30004DF804CD4FEA410C7FEA6C5C4FEA430C61
:100A400018BF7FEA6C5C1BD001B050EA410C0CBFB0
:100A500052EA430C91EA030F02BF90EA020F002012
:100A6000704710F1000F91EA030F58BF994208BF79
:100A700090422CBFD8176FEAE37040F00100704736
:100A80004FEA410C7FEA6C5C02D150EA013C07D18D
:100A90004FEA430C7FEA6C5CD6D152EA033CD3D0D8
:100AA0005DF8040B704700BF8446104662468C46D2
:100AB0001946634600E000BF01B5FFF7B7FF002805
:100AC00048BF10F1000F01BD4DF808EDFFF7F4FF2E
:100AD0000CBF012000205DF808FB00BF4DF808EDB9
:100AE000FFF7EAFF34BF012000205DF808FB00BFDC
:100AF0004DF808EDFFF7E0FF94BF012000205DF8FE
:100B000008FB00BF4DF808EDFFF7CEFF94BF0120B2
:100B100000205DF808FB00BF4DF808EDFFF7C4FFAB
:100B200034BF012000205DF808FB00BF4FEA410CF4
:100B30007FEA6C5C02D150EA013C0AD14FEA430CD7
:100B40007FEA6C5C02D152EA033C02D14FF0000014
:100B500070474FF0010070474FEA410212F5001252
:100B600015D211D56FF47873B3EB625212D94FEAF4
:100B7000C12343F0004343EA505311F0004F23FADE
:100B800002F018BF404270474FF00000704750EA33
:100B9000013005D111F0004008BF6FF000407047F0
:100BA0004FF00000704700BF4A0011D212F500124A
:100BB00011D20DD56FF47873B3EB62520ED44FEAB5
:100BC000C12343F0004343EA505323FA02F0704735
:100BD0004FF00000704750EA013002D14FF0FF3073
:100BE00070474FF0000070474FEA4102B2F1E04316
:100BF00024BFB3F5001CDCF1FE5C0DD901F0004C04
:100C00004FEAC0024CEA5070B2F1004F40EB830053
:100C100008BF20F00100704711F0804F21D113F17F
:100C20003872BCBF01F00040704741F480114FEAB8
:100C30005252C2F11802C2F1200C10FA0CF320FA41
:100C400002F018BF40F001004FEAC1234FEAD3235E
:100C500003FA0CFC40EA0C0023FA02F34FEA4303C8
:100C6000CCE77FEA625307D150EA01331EBF4FF051
:100C7000FE4040F44000704701F0004040F0FE406C
:100C800040F40000704700BF7BB972B90029BEBFB5
:100C900000204FF0004106E008BF00281CBF6FF0A5
:100CA00000414FF0FF3000F0B5B9ADF1080C6DE92F
:100CB00004CE002909DB002B1ADB00F04DF8DDF82B
:100CC00004E0DDE9022304B07047404261EB4101DA
:100CD000002B1BDB00F040F8DDF804E0DDE9022327
:100CE00004B0404261EB4101524263EB4303704761
:100CF000524263EB430300F02FF8DDF804E0DDE936
:100D0000022304B0404261EB41017047524263EB61
:100D1000430300F021F8DDF804E0DDE9022304B02C
:100D2000524263EB4303704753B94AB9002908BFE5
:100D300000281CBF4FF0FF314FF0FF3000F06AB9C0
:100D4000ADF1080C6DE904CE00F006F8DDF804E022
:100D5000DDE9022304B070472DE9F047089D0C46F9
:100D6000002B4ED194468C458646B2FA82F262D967
:100D70004AB1C2F12003914020FA03F30CFA02FCBD
:100D8000194300FA02FE4FEA1C471FFA8CF6B1FB2A
:100D9000F7F44FEA1E4307FB141143EA014304FB37
:100DA00006F199420AD91CEB030304F1FF3080F0ED
:100DB0001281994240F20F81023C6344591A1FFA92
:100DC0008EF3B1FBF7F007FB101143EA014300FB80
:100DD00006F69E420AD91CEB030300F1FF3180F0B6
:100DE000FC809E4240F2F980634402389B1B40EA3B
:100DF000044000211DB1D3400022C5E90032BDE806
:100E0000F0878B4205D90DB1C5E9000100210846E4
:100E1000F5E7B3FA83F1002946D1A34202D3904209
:100E2000C0F0F080861A64EB03030120002DE6D0A9
:100E3000C5E90063E3E7002A40F09080A1EB0C04D1
:100E40004FEA1C481FFA8CF70121B4FBF8F64FEA71
:100E50001E4308FB164443EA044307FB06F098428E
:100E600008D91CEB030306F1FF3402D2984200F2CA
:100E7000CD8026461C1A1FFA8EF3B4FBF8F008FB4F
:100E8000104443EA044300FB07F79F4208D91CEBD8
:100E9000030300F1FF3402D29F4200F2B0802046EB
:100EA000DB1B40EA0640A5E7C1F120068B4022FA91
:100EB00006F71F4320FA06FC04FA01F343EA0C0389
:100EC000F44000FA01F8380C4FEA1349B4FBF0FE85
:100ED0001FFA87FC00FB1E4449EA04440EFB0CF990
:100EE000A14502FA01F20AD93C190EF1FF3A80F04D
:100EF0008480A14540F28180AEF1020E3C44A4EB17
:100F000009041FFA83F9B4FBF0F300FB134449EA28
:100F1000044403FB0CFCA44507D93C1903F1FF3042
:100F200067D2A44565D9023B3C4443EA0E40A0FB8E
:100F30000293A4EB0C049C42CE469C4651D34ED067
:100F400055B1B8EB0E0364EB0C0404FA06F6CB4083
:100F50001E43CC40C5E90064002150E7C2F12003E4
:100F600020FA03F10CFA02FC24FA03F394400C4338
:100F70004FEA1C4800FA02FE1FFA8CF7B3FBF8F0A8
:100F800008FB1031230C43EA014300FB07F19942AF
:100F900008D91CEB030300F1FF362CD299422AD961
:100FA000023863445B1AA4B2B3FBF8F108FB1133B7
:100FB00044EA034401FB07F3A34208D91CEB0404F1
:100FC00001F1FF3613D2A34211D902396444E41A65
:100FD00041EA004139E70446F0E6084606E7C8451D
:100FE000AED2B9EB020E63EB070C0138A8E731462D
:100FF000EDE7034699E73046D4E7D6467FE76344FA
:1010000002384DE70646234608460FE7023E634492
:1010100030E700BF704700BF80B500AF0022082155
:10102000024809F00DFE00BF80BD00BF000802406D
:1010300080B500AF01220821024809F001FE00BF7F
:1010400080BD00BF0008024080B582B000AF78606C
:101050007B68D3ED127AB3EE047AF4EEC77AF1EE40
:1010600010FA10D8FFF7E4FF7B68012283F84C20C8
:101070007B681A697B68C3F884207B68D3F8843066
:10108000104A13601AE07B68D3ED127A9FED0E7A56
:10109000F4EEC77AF1EE10FA00D90FE0FFF7BCFFCB
:1010A0007B68002283F84C207B681A697B68C3F850
:1010B00090207B68D3F89030044A136000BF083753
:1010C000BD4680BD900400200000BE429404002074
:1010D00080B400AF034B1B681846BD465DF8047B27
:1010E000704700BF9004002080B400AF034B1B6822
:1010F0001846BD465DF8047B704700BF940400208D
:1011000080B5C6B002AF07F58873A3F58673186083
:1011100007F16C03A4220021184611F05AFC07F1D4
:10112000600300221A605A609A6000F09BFD02463C
:1011300007F16C031146184611F01BFE002387F8D7
:10114000B83097F8B820464B1A70FFF765FF07F1E3
:101150006C03103300220021424803F0A4FEF86F14
:1011600007F16C0303F1700207F16C0303F16C01EA
:1011700007F16C037833019307F16C037433009328
:101180000346394803F0A2F907F1440319463748EA
:1011900003F0E6FB07F128031946354803F0E0FBAE
:1011A00007F10C031946334803F0DAFB7B6CC7F8F0
:1011B0008030BB6CC7F88C30FB6CC7F89830BB6ACA
:1011C000C7F88430FB6AC7F890303B6BC7F89C3097
:1011D00007F58873A3F582731B68C7F8883007F595
:1011E0008873A3F582735B68C7F8943007F588733A
:1011F000A3F582739B68C7F8A0307B6DC7F8A83051
:1012000007F16C0319461C4803F01EFD07F160034B
:1012100019461A4803F035FD0346002B0CBF012385
:101220000023DBB2002B08D03B6EC7F8B0307B6EDA
:10123000C7F8AC30BB6EC7F8B43007F16C03184682
:10124000FFF702FF97F8B820054B1A7002210C48EF
:1012500009F00FFD4FF4FA6003F06EFC77E700BF72
:101260008D0400207819002088190020DC19002046
:10127000041A00202C1A0020B41800201C19002089
:101280000000024080B582B000AF786039607B68B2
:10129000012B07D13B684FF6FF72934202D10348FE
:1012A00004F0FFF800BF0837BD4680BD8C04002065
:1012B00080B500AF4FF6FF710120FFF7E3FF80BD5F
:1012C00080B584B000AFF8607B600B46FB721346BC
:1012D000BB72FB7A283B232B66D801A252F823F07D
:1012E000A913000871130008A9130008A913000826
:1012F000A9130008A9130008A9130008A9130008DE
:10130000A9130008A9130008A9130008A9130008CD
:10131000A9130008A9130008A9130008A9130008BD
:10132000A9130008A9130008A9130008A9130008AD
:10133000A9130008A9130008A9130008A91300089D
:10134000A9130008A9130008A9130008A91300088D
:10135000A9130008A9130008A9130008A91300087D
:10136000A91300087B1300088913000899130008CB
:10137000BB7A184603F0E0FB16E0BB7A1A46202140
:101380000C4809F05DFC0FE0BB7A1A464FF480511F
:10139000084809F055FC07E0BB7A1A464FF4804133
:1013A000044809F04DFC00BF012318461037BD4624
:1013B00080BD00BF0004024080B584B000AFF8607B
:1013C0007B600B46FB721346BB72FB7A143B0C2B03
:1013D00044D801A252F823F0611400085D140008FB
:1013E0005D1400080D1400082D14000845140008B1
:1013F0005D1400085D1400085D1400085D14000809
:101400005D1400085D1400081F140008BB7A9AB22E
:1014100041F28833796815480BF06FFE21E0BB7A02
:101420001A464A21F86807F04DFC1AE0FB681B6871
:101430001B781A464921F86807F044FC012003F0A4
:101440007BFB0EE0012003F077FBFB681B685B78F9
:101450001A464921F86807F035FC02E0002301E054
:1014600000BF012318461037BD4680BD282100204B
:1014700080B584B002AF7860164B174A17491848F8
:1014800006F09AF8164807F0EEFB154806F003F848
:101490000021134807F0F6FB124B1979114B5B79C9
:1014A000104A1268019200930B46002220210C483A
:1014B00005F078FF0A4806F061F84FF4FA6003F08F
:1014C0003BFB074804F098FF4FF4FA7003F034FB3D
:1014D00000BFF6E7C1120008B9130008E85E010872
:1014E00098040020905E010880B582B000AF78605B
:1014F00039603968786811F094FA0346184608375D
:10150000BD4680BD2DE9F04FADF51F7D22AF07F53B
:10151000F873A3F5C6731860C94800F04FFD07F5CE
:101520008873D9220021184611F053FA07F5F87391
:10153000A3F5C2731846A4231A46002111F049FAF4
:10154000012387F8EF31012387F8EE31002387F874
:10155000ED3107F588734B33BA4A14469C4604F1C3
:10156000300E654626460FCE28606960AA60EB60A3
:1015700010340CF1100C7445F3D16246234603CBB2
:10158000106051601B78137207F588733733AE4AC9
:101590001C46134607CB20606160A2601B78237352
:1015A00007F58873C333A94A1068186092889A8037
:1015B00007F58873AF33A6491A460B4603CB106074
:1015C000516019889B7811819372002387F8EC3160
:1015D00007F5887319469A4800F0DCFE07F5887312
:1015E0000F331946964800F03FFF07F588731E3306
:1015F0001946934801F01EF807F588732D331946F4
:101600008F4801F00BFA07F16B0319468C4801F083
:1016100055F907F16A031946894801F0E3F807F51F
:10162000887319468B4803F00FFB322003F084FACD
:1016300007F16C031946884803F023FB0346002B8F
:1016400097F8ED31032B00F2748201A252F823F0D7
:10165000611600084917000869180008B918000841
:1016600007F588730F337D491846FFF73DFF0346A2
:10167000002B09D107F588730F3379491846FFF716
:1016800033FF0346002B1CD007F588731E337349C4
:101690001846FFF729FF0346002B09D107F5887389
:1016A0001E336F491846FFF71FFF0346002B08D073
:1016B00007F5F873A3F285131B78002B01D00123E3
:1016C00000E00023002B00F0368207F588733733E3
:1016D00019465B4800F0B2FD034687F8EB315848E5
:1016E00001F004FF564801F03DFF554801F076FF38
:1016F000534801F0AFFF524801F0E8FF97F8EB3193
:10170000002B40F0188297F8EE31022B08D197F8A1
:10171000E83119464A4801F09BFC012387F8EE3175
:1017200097F8EF31002B0BD197F8E8311946444870
:1017300001F0B4FB424801F0E9FA012387F8EF31E8
:10174000012387F8ED31F6E107F588730F3343493C
:101750001846FFF7C9FE0346002B09D107F5887329
:101760000F333F491846FFF7BFFE0346002B20D03A
:1017700007F588731E3339491846FFF7B5FE03464F
:10178000002B09D107F588731E3335491846FFF73A
:10179000ABFE0346002B0CD007F5F873A3F28513BC
:1017A0001B78002B05D097F8EF31002B01D00123D7
:1017B00000E00023002B00F0C0810021204800F051
:1017C00095FD01211E4800F091FD07F58873D8337F
:1017D00019461B4801F02AFA034687F8EF3197F8BB
:1017E000EF31002B21D197F8E81101231D4A14484D
:1017F00001F0F2FA034687F8EF3197F8EF31002B4A
:1018000009D197F8E83119460D4801F013FE02237B
:1018100087F8ED3191E197F8E8311946084801F071
:101820003DFB074801F072FA87E197F8E831194665
:10183000034801F033FB024801F068FA7DE100BF84
:1018400018050020304E01086C4E01087C4E01083E
:10185000844E0108B4170020B4180020D85601089F
:10186000E4560108904E010897F8EF31002B40F044
:10187000668197F8EE31022B00F0618197F8E8114C
:1018800007F588734B331A46B14801F063FB0346F2
:1018900087F8EE3197F8EE31022B03D1032387F856
:1018A000ED314CE197F8E8311946A94801F0D0FB39
:1018B000002387F8ED3142E107F588734B33194671
:1018C000A34801F03BF9034687F8EE3197F8EC3175
:1018D000013387F8EC3197F8EE31022B10D097F8EE
:1018E000EC31032B0CD9002387F8E73197F8E83166
:1018F0001946974801F0ACFB002387F8ED3120E151
:1019000097F8EE31022B40F01C81012387F8E73174
:10191000002387F8EC3107F5F873A3F5C2731B6950
:101920003B6607F5F873A3F5C2735B691846FEF7CB
:101930000BFEC7E9160107F5F873A3F5C2739B699F
:101940001846FEF701FEC7E9140107F5F873A3F581
:10195000C273DB691846FEF7F7FDC7E9120107F508
:10196000F873A3F5C2731B6A1846FEF7EDFDC7E9CD
:10197000100107F5F873A3F5C2735B6A1846FEF70A
:10198000E3FDC7E90E0107F5F873A3F5C2739B6A7F
:101990001846FEF7D9FDC7E90C0107F5F873A3F562
:1019A000C273DB6A1846FEF7CFFDC7E90A0107F5E7
:1019B000F873A3F5C2731B6B1846FEF7C5FDC7E9A4
:1019C000080107F5F873A3F5C2735B6B1846FEF7C1
:1019D000BBFDC7E9060107F5F873A3F5C2739B6B5E
:1019E0001846FEF7B1FD82468B4607F5F873A3F55E
:1019F000C273DB6B1846FEF7A7FD8046894607F5E4
:101A0000F873A3F5C27393F84C307B6107F5F87354
:101A1000A3F5C27393F86C303B6107F5F873A3F537
:101A2000C2731B6F1846FEF78FFD04460D4607F57F
:101A3000F873A3F5C2735A6FFA6007F5F873A3F54C
:101A4000C273996FB96007F5F873A3F5C273DE6FBF
:101A50007E6007F5F873A3F5C273D3F8840007F529
:101A6000F873A3F5C273D3F8901007F5F873A3F5D4
:101A7000C273D3F89C2007F5F873A3F5C273D3F8AB
:101A8000A03007F16C0620931F921E911D907A687A
:101A90001C92B9681B91FA681A92CDE918453A6907
:101AA00017927A691692CDE91489CDE912AB97EDB8
:101AB000067B8DED107B97ED087B8DED0E7B97ED12
:101AC0000A7B8DED0C7B97ED0C7B8DED0A7B97ED02
:101AD0000E7B8DED087B97ED107B8DED067B97EDF2
:101AE000127B8DED047B97ED147B8DED027B97EDE2
:101AF000167B8DED007B3B6E32461649164810F082
:101B000005FF97F8E81107F5887303F1C302FF2377
:101B10000093124B0E4801F017FB0346052B97F874
:101B2000E81107F58873C3331A46094801F0C8FB6A
:101B300007E000BF06E000BF04E000BF02E000BF16
:101B400000E000BF4FF47A7002F0F6FF40E500BFFE
:101B500018050020984E0108180D00204815002097
:101B600080B582B000AF786039607B68012B08D106
:101B70003B684FF6FF72934203D10449044800F0DA
:101B8000B9F900BF0837BD4680BD00BFA4220020C0
:101B90001805002080B500AF4FF6FF710120FFF758
:101BA000DFFF80BD80B586B000AF786007F10C0321
:101BB00000221A605A609A60F7EE000A9FED150A3B
:101BC00002F06AF907F10C0304331946124802F0D7
:101BD000A7F907F10C031946104802F061FAD7ED96
:101BE000047A97ED037A07F10C030833F0EE470A05
:101BF000B0EE670A184602F0EBF807F10C0319463D
:101C0000074803F021F84FF47A7002F095FF00BF07
:101C1000D8E700BF0000C842541A0020641A002010
:101C20001C19002080B483B000AF78600B46FB70B5
:101C3000FB781B09DBB21A46094B995C7B685A1C7E
:101C40007A600A461A70FB7803F00F03044AD25CEC
:101C50007B681A7000BF0C37BD465DF8047B704787
:101C6000F056010890B583B000AF08F019F90346AB
:101C7000DBB27B6008F014F903461D4A1B0A1360AF
:101C80001C4C08F019F9034623607B68232B09D903
:101C90007B683D2B28BF3D23DBB23D33DAB2144BCA
:101CA000DA710BE07B68092B01D9412200E0302278
:101CB0007B68DBB21344DAB20D4BDA7108F0E4F85A
:101CC00003461B0CDBB219460B48FFF7ABFF08F0CD
:101CD000DBF80346DBB219460848FFF7A3FF044BC5
:101CE00000221A73024B18460C37BD4690BD00BF48
:101CF0006C1A00206F1A0020741A0020761A002037
:101D000080B500AF0C4802F04EFF0C4802F04BFFCC
:101D10000B4802F048FF0B4802F045FF0A4802F06A
:101D200077FF0A4802F074FF094802F071FF05F0DE
:101D30000DF900BF80BD00BF481600206C160020C2
:101D400090160020B4160020B4170020B41800200C
:101D50001C19002080B500AFFFF7D2FF00BF80BD87
:101D600080B584B002AF786039607B68012B6CD19C
:101D70003B684FF6FF72934267D11823019301230A
:101D800000934FF40073334A3349344802F0EAFEBB
:101D900018230193012300934FF40073304A314913
:101DA000314802F0DFFE18230193012300934FF422
:101DB00000732E4A2E492F4802F0D4FE18230193B7
:101DC000012300934FF400732B4A2C492C4802F056
:101DD000C9FE2C4BD92201212B4802F0FEFE2B4BD1
:101DE000A42201212A4802F0F8FE2A4B0C220121EC
:101DF000294802F0F2FE05222849294803F032F86A
:101E00009FED281AF2EE040A9FED270A2749284879
:101E100002F01AFB4FF47A7338222649264802F062
:101E2000C7F92649264802F07EFD2649264802F0D9
:101E30007AFD2649264802F076FD2649264802F01A
:101E400051F82649264802F013F900BF0837BD466D
:101E500080BD00BF74510108051500084816002018
:101E60007C510108011100086C1600208451010802
:101E700071140008901600208C510108A51B000861
:101E8000B4160020D8160020B41700201018002027
:101E9000B4180020101900201C190020082100206F
:101EA000781900203333534000000000DC1F00206D
:101EB00088190020B4200020C41900205C220020D2
:101EC000DC190020EC220020041A0020142200203B
:101ED0002C1A002024200020541A00206C200020FE
:101EE000641A002080B500AF4FF6FF710120FFF7A4
:101EF00037FF80BD80B582B000AF786039607B6805
:101F000018464FF400631A46002110F062FD7B680A
:101F100003F500634FF400620021184610F059FDEC
:101F20007B6803F500637A6802F5805213607B6872
:101F30007A6802F5805253607B6803F5815304335D
:101F40003968184603F04BFA7B6803F58153083370
:101F5000184603F0A6FA7B6803F580531A4600235F
:101F6000D362124B1B781946114A3B6842F8313054
:101F70000E4B1B780E4ADB0013447A685A600B4BF9
:101F80001B780133DAB2094B1A70084B1B78032B0C
:101F900002D9064B00221A700649074803F0EAF8F6
:101FA0007B6818460837BD4680BD00BF941A0020E4
:101FB0007C1A0020953D0008313D000880B586B0B0
:101FC00002AF78600023FB73012301930A2300937F
:101FD0004FF47A7304228F49786801F0B3FB41F221
:101FE00088320021786801F0DAFC0346FB73012394
:101FF00001930A2300934FF47A7304228549786889
:1020000001F0A0FB41F288320021786801F0C7FCA2
:102010000346FB73012301930A2300934FF47A7361
:1020200004227C49786801F08DFB41F2883200215E
:10203000786801F0B4FC0346FB73012301930A2383
:1020400000934FF47A730B227349786801F07AFB9E
:1020500041F288320021786801F0A1FC0346FB734D
:1020600043F6982002F068FD012301930A230093B0
:102070004FF47A7304226749786801F063FB41F2F8
:1020800088320021786801F08AFC0346FB73012343
:1020900001930A2300934FF47A7304225D49786810
:1020A00001F050FB41F288320021786801F077FCA2
:1020B0000346FB73012301930A2300934FF47A73C1
:1020C00004225449786801F03DFB41F28832002136
:1020D000786801F064FC0346FB73012301930A2333
:1020E00000934FF47A7307224C49786801F02AFB79
:1020F00041F288320021786801F051FC0346FB73FD
:10210000012301930A2300934FF47A730622444972
:10211000786801F017FB41F288320021786801F0FD
:102120003EFC0346FB73012301930A2300934FF403
:102130007A730B223B49786801F004FB41F2883244
:102140000021786801F02BFC0346FB730123019307
:102150000A2300934FF47A730C223349786801F014
:10216000F1FA41F288320021786801F018FC034648
:10217000FB73012301930A2300934FF47A7318220F
:102180002A49786801F0DEFA41F288320021786845
:1021900001F005FC0346FB73012301930A2300931E
:1021A0004FF47A730B222249786801F0CBFA41F29E
:1021B00088320021786801F0F2FB0346FB730123AB
:1021C00001930A2300934FF47A730B22194978681C
:1021D00001F0B8FA41F288320021786801F0DFFBA3
:1021E0000346FB73012301930A2300934FF47A7390
:1021F0000C221149786801F0A5FA41F288320021D9
:10220000786801F0CCFB0346FB73FB7B1846103764
:10221000BD4680BD0057010808570108BC5701089A
:10222000C457010814570108205701083057010806
:102230004C570108585701086457010880B592B0FF
:1022400002AF78603960002387F83F300023FB60DD
:1022500007F110032E220021184610F0BAFB07F1F7
:102260000C033A682049184610F050FB07F10C03A4
:102270001846FDF7FDFF03469AB207F10C01012352
:1022800001930A2300934FF47A73786801F05AFAA5
:102290004FF4FA620021786801F081FB034687F869
:1022A0003F3097F83F30002B0FD17B6803F5815307
:1022B000083379687A6802F58052928A92B2184699
:1022C00003F0FAF80346002B01D0012300E00023BD
:1022D000002B02D0012387F83F3097F83F30184693
:1022E0004037BD4680BD00BFA051010880B58AB00F
:1022F00002AF78600B46FB700023FB770023BB60C6
:1023000007F10C0300221A605A609A60DA60FA78CA
:1023100007F108031E49184610F0F8FA07F1080300
:102320001846FDF7A5FF03469AB207F108010123FD
:1023300001930A2300934FF47A73786801F002FA4C
:1023400041F288320021786801F029FB0346FB77CF
:10235000FB7F002B0FD17B6803F58153083379682D
:102360007A6802F58052928A92B2184603F0A4F875
:102370000346002B01D0012300E00023002B01D0F5
:102380000123FB77FB7F18462037BD4680BD00BF89
:10239000BC51010880B588B004AF78603960012372
:1023A00001930A2300934FF47A730A222B49786829
:1023B00001F0C8F94FF4FA620021786801F0EFFAF1
:1023C0000346FB73FB7B002B11D17B6803F5815324
:1023D000083379687A6802F58052928A92B2184678
:1023E00003F06AF80346002B01D1012300E000232B
:1023F000002B24D07B6803F58150083079687B6816
:1024000003F580539B8A9AB23B6802930D23019394
:102410003A230093124B03F075F80346002B0CBFD0
:1024200001230023DBB2002B13D13B680D491A4670
:102430000B4603CB106051601B7813720AE03B68B7
:1024400008491A460B4603CB106051601B78137283
:1024500000E000BF1037BD4680BD00BF74570108C3
:10246000CC510108D451010890B589B004AF78600F
:102470003960012301930A2300934FF47A730A22EF
:102480006149786801F05EF94FF4FA6200217868DA
:1024900001F085FA0346FB73FB7B002B11D17B68AF
:1024A00003F58153083379687A6802F58052928A7D
:1024B00092B2184603F000F80346002B01D1012325
:1024C00000E00023002B00F093807B6803F581502F
:1024D000083079687B6803F580539B8A9AB23B6821
:1024E00002930D2301932C230093484B03F00AF829
:1024F0000346002B0CBF01230023DBB2002B6DD061
:102500003B681B78303B072B5DD801A252F823F0C3
:1025100031250008412500085525000869250008D7
:102520008125000891250008A3250008B32500088F
:102530003B6837491A460B4603CB106051604CE0AC
:102540003B6834491A460B4603CB106051601B7838
:10255000137242E03B6830491A460B4603CB1060C9
:1025600051601B88138138E03B682C491A460B46A2
:1025700003CB1060516019889B78118193722CE015
:102580003B6827491A460B4603CB1060516024E094
:102590003B68244A1C46134607CB20606160A2605A
:1025A0001BE03B6820491A460B4603CB1060516084
:1025B00013E03B681D491A460B4603CB106051607F
:1025C0001B78137209E03B6819491A460B4603CB86
:1025D000106051601B78137200BF12E03B68144911
:1025E0001A460B4603CB106051601B78137208E04B
:1025F0003B680F491A460B4603CB106051601B78AD
:1026000013721437BD4690BD80570108E051010890
:10261000E8510108F0510108FC5101080852010875
:10262000145201081C5201082852010830520108B6
:10263000D451010890B589B004AF786039600123A6
:1026400001930A2300934FF47A730B225B49786855
:1026500001F078F84FF4FA620021786801F09FF9F0
:102660000346FB73FB7B002B11D17B6803F5815381
:10267000083379687A6802F58052928A92B21846D5
:1026800002F01AFF0346002B01D1012300E00023D2
:10269000002B00F087807B6803F581500830796853
:1026A0007B6803F580539B8A9AB23B6802930D23A3
:1026B00001932C230093424B02F024FF0346002B8E
:1026C0000CBF01230023DBB2002B61D03B681B78D9
:1026D000303B062B51D801A252F823F0F92600080E
:1026E000092700081D27000831270008492700088E
:1026F000592700086B2700083B6832491A460B46E9
:1027000003CB1060516042E03B682F491A460B46EC
:1027100003CB106051601B78137238E03B682B4983
:102720001A460B4603CB106051601B8813812EE0C4
:102730003B6827491A460B4603CB10605160198845
:102740009B781181937222E03B6822491A460B461E
:1027500003CB106051601AE03B681F4A1C461346C9
:1027600007CB20606160A26011E03B681B491A46FC
:102770000B4603CB1060516009E03B6818491A46CC
:102780000B4603CB106051601B78137200BF12E040
:102790003B6813491A460B4603CB106051601B7807
:1027A000137208E03B680E491A460B4603CB1060D3
:1027B00051601B7813721437BD4690BD8C570108C9
:1027C0003C520108E8510108F0510108FC51010890
:1027D00008520108145201081C520108285201082D
:1027E000D451010880B58AB004AF78603960002305
:1027F000FB6007F1100300221A609A803B680222F6
:102800001A70012301930A2300934FF47A730B2269
:102810002849786800F096FF4FF4FA620021786842
:1028200001F0BDF80346FB75FB7D002B11D17B68E1
:1028300003F58153083379687A6802F58052928AE9
:1028400092B2184602F038FE0346002B01D1012354
:1028500000E00023002B29D07B6803F5815008306D
:1028600079687B6803F580539B8A9AB207F10C0361
:1028700002932C2301933A2300930F4B02F042FE64
:102880000346002B0CBF01230023DBB2002B0DD02D
:102890003B7B302B02D0312B04D007E03B68002279
:1028A0001A7003E03B6801221A7000BF00BF18379E
:1028B000BD4680BD985701084452010880B58AB0D2
:1028C00004AF786039600023BB6007F10C0300227D
:1028D0001A605A60C3F807203B6800221A7001236F
:1028E00001930A2300934FF47A730A2245497868CA
:1028F00000F028FF41F288320021786801F04FF89B
:102900000346FB75FB7D002B11D17B6803F58153DA
:10291000083379687A6802F58052928A92B2184632
:1029200002F0CAFD0346002B01D1012300E0002381
:10293000002B62D07B6803F58150083079687B6892
:1029400003F580539B8A9AB207F1080302932C2364
:1029500001933A2300932C4B02F0D4FD0346002B45
:102960000CBF01230023DBB2002B46D007F1080384
:1029700026491846FEF7B8FD0346002B14BF012375
:102980000023DBB2002B03D03B6800221A7034E036
:1029900007F108031E491846FEF7A6FD0346002B63
:1029A00014BF01230023DBB2002B03D03B680122BC
:1029B0001A7022E007F1080316491846FEF794FD45
:1029C0000346002B14BF01230023DBB2002B03D0EE
:1029D0003B6802221A7010E007F108030E491846FE
:1029E000FEF782FD0346002B14BF01230023DBB258
:1029F000002B02D03B6803221A7000BF1837BD4677
:102A000080BD00BFA45701084C5201085452010870
:102A100060520108645201086C52010880B58AB006
:102A200004AF786039600023FB6007F110030022D7
:102A30001A609A800023FB75012301930A230093F7
:102A40004FF47A7308223949786800F07BFE4FF41E
:102A5000FA620021786800F0A2FF0346BB75BB7DD7
:102A6000002B11D17B6803F58153083379687A68AC
:102A700002F58052928A92B2184602F01DFD03467A
:102A8000002B01D1012300E00023002B41D07B6803
:102A900003F58150083079687B6803F580539B8A81
:102AA0009AB207F10C0302932C2301933A2300936B
:102AB0001F4B02F027FD0346002B0CBF0123002310
:102AC000DBB2002B1BD007F10C0318460FF07CF98A
:102AD0000346FB7597F91730622B02DD0023FB7567
:102AE00005E0FB7D5B00DBB2713BDBB2FB7597F968
:102AF00017301A460F4938680FF008FF12E03B689C
:102B00000D491A460B4603CB106051601B781372B7
:102B100008E03B6808491A460B4603CB1060516039
:102B20001B7813721837BD4680BD00BFB05701082F
:102B30007052010878520108D451010880B5A0B044
:102B400004AF78603960012387F86E30032387F87B
:102B50006F300023BB6007F10C0360220021184690
:102B60000FF037FF012301930A2300934FF47A7388
:102B700012222C49786800F0E5FD4FF4FA5200214A
:102B8000786800F00CFF034687F86E3097F86E30D7
:102B9000002B11D17B6803F58153083379687A687B
:102BA00002F58052928A92B2184602F085FC0346E2
:102BB000002B01D1012300E00023002B2CD07B68E7
:102BC00003F58150083079687B6803F580539B8A50
:102BD0009AB207F108030293222301932223009360
:102BE000114B02F08FFC0346002B0CBF0123002386
:102BF000DBB2002B10D007F1080319463868FEF746
:102C000073FC0346002B14BF01230023DBB2002B0F
:102C100002D0022387F86F3097F86F30184670376C
:102C2000BD4680BDEC570108A052010880B58AB0AE
:102C300004AF786039600123BB750123FB75002365
:102C4000FB6007F1100300221A609A8003230393AC
:102C50000A230293022301932B2300934FF47A73E8
:102C60000F222849786800F0CFFD42F2107200214F
:102C7000786800F094FE0346BB75BB7D002B11D134
:102C80007B6803F58153083379687A6802F58052CE
:102C9000928A92B2184602F00FFC0346002B01D133
:102CA000012300E00023002B26D07B6803F5815030
:102CB000083079687B6803F580539B8A9AB207F1E4
:102CC0000C0302930A2301933A2300930E4B02F064
:102CD00019FC0346002B0CBF01230023DBB2002BA1
:102CE0000AD00023FB7507F10C0318460FF06CF8AF
:102CF0000346DAB23B681A70FB7D18461837BD46AA
:102D000080BD00BFCC570108B052010880B58AB021
:102D100004AF78600123BB750123FB750023FB60C2
:102D200007F1100300221A609A80032303930A23F9
:102D30000293022301932B2300934FF47A730E2204
:102D40002349786800F060FD42F210720021786833
:102D500000F025FE0346BB75BB7D002B11D17B68BF
:102D600003F58153083379687A6802F58052928AB4
:102D700092B2184602F0A0FB0346002B01D10123BA
:102D800000E00023002B1DD07B6803F58150083044
:102D900079687B6803F580539B8A9AB207F10C032C
:102DA00002930A2301933A2300930A4B02F0AAFBF1
:102DB0000346002B0CBF01230023DBB2002B01D004
:102DC0000023FB75FB7D18461837BD4680BD00BF4C
:102DD000DC570108C052010880B59CB002AFF86012
:102DE0007A601A460B46FB721346BB72012387F8C2
:102DF0006630012387F8673000237B6107F11803F1
:102E00004C22002118460FF0E4FDFA7ABB7A07F154
:102E1000140000937B6820490FF078FD07F114033C
:102E20001846FDF725FA03469AB207F1140101236B
:102E300001930A2300934FF47A73F86800F082FC40
:102E40004FF4FA520021F86800F0A9FD034687F814
:102E5000663097F86630002B11D1FB6803F581537B
:102E60000833F968FA6802F58052928A92B21846DD
:102E700002F022FB0346002B01D1012300E00023D6
:102E8000002B02D0002387F8673097F86730184688
:102E90006837BD4680BD00BFCC52010880B59AB0EE
:102EA00002AF78600B46FB70012387F85E30012388
:102EB00087F85F300023FB6007F110034C220021EC
:102EC00018460FF086FDFA7807F10C0320491846E2
:102ED0000FF01CFD07F10C031846FDF7C9F9034676
:102EE0009AB207F10C01012301930A2300934FF4D6
:102EF0007A73786800F026FC4FF4FA520021786863
:102F000000F04DFD034687F85E3097F85E30002BE9
:102F100011D17B6803F58153083379687A6802F52B
:102F20008052928A92B2184602F0C6FA0346002BEB
:102F300001D1012300E00023002B02D0002387F8F9
:102F40005F3097F85F3018466037BD4680BD00BFE0
:102F5000E852010880B5B0B004AFF8600B467A6063
:102F6000FB72012387F8AE30012387F8AF300023CE
:102F7000BB6107F11C039222002118460FF029FDC6
:102F800000233B6100233B75FA7A07F118007B6848
:102F90002C490FF0BBFC07F118031846FDF768F940
:102FA00003469AB207F11801032303930A230293FD
:102FB000022301932B2300934FF47A73F86800F0F7
:102FC00023FC47F230520021F86800F0E8FC034689
:102FD00087F8AE3097F8AE30002B2CD1FB6803F5A4
:102FE00081500830F968FB6803F580539B8A9AB2D8
:102FF00007F1100302930A2301932C230093124B31
:1030000002F080FA0346002B0CBF01230023DBB241
:10301000002B10D007F110030C491846FEF764FA94
:103020000346002B14BF01230023DBB2002B02D088
:10303000022387F8AF3097F8AF301846B037BD4657
:1030400080BD00BFFC520108A05201081C530108BA
:1030500080B5AEB004AF78600B46FB70012387F8F3
:10306000A630012387F8A73000233B6107F1140342
:103070009222002118460FF0ACFC0023BB60002315
:103080003B73FA7807F110032C4918460FF03EFC09
:1030900007F110031846FDF7EBF803469AB207F163
:1030A0001001032303930A230293022301932B238A
:1030B00000934FF47A73786800F0A6FB42F2107226
:1030C0000021786800F06BFC034687F8A63097F87B
:1030D000A630002B2CD17B6803F58150083079682D
:1030E0007B6803F580539B8A9AB207F10803029329
:1030F0000A2301932C230093114B02F003FA034699
:10310000002B0CBF01230023DBB2002B10D007F1F2
:1031100008030C491846FEF7E7F90346002B14BFD5
:1031200001230023DBB2002B02D0032387F8A73052
:1031300097F8A7301846A837BD4680BD2053010830
:10314000385301081C53010890B5AFB004AFF860C4
:103150007A603B600B46FB72012387F8A63001239F
:1031600087F8A73000233B6107F114039222002166
:1031700018460FF02EFCFC7A7868FDF779F80346C4
:1031800007F1100022464B490FF0C0FB07F1100376
:103190001846FDF76DF803469AB207F110010223B5
:1031A00001933E2300934FF47A73F86800F0CAFA53
:1031B0004FF47A720021F86800F0F1FB034687F8BB
:1031C000A63097F8A630002B6ED1FB6803F581502E
:1031D0000830F968FB6803F580539B8A9AB2002394
:1031E00002930A2301932C230093334B02F08AF9B4
:1031F0000346002B0CBF01230023DBB2002B53D06E
:103200007868FDF735F803469AB2032303930A233F
:103210000293052301932B2300934FF47A7379686B
:10322000F86800F0F1FA4FF47A720021F86800F0C3
:10323000B6FB034687F8A63097F8A630002B11D1CD
:10324000FB6803F581530833F968FA6802F5805288
:10325000928A92B2184602F02FF90346002B01D150
:10326000012300E00023002B1ED0FB6803F58150F2
:103270000830F968B7F8B83002933B6801930D2322
:1032800000930A230D4A02F005FA0346002B0CBFF7
:1032900001230023DBB2002B03D0052387F8A730DE
:1032A00002E0002387F8A73097F8A7301846AC371C
:1032B000BD4690BD445301085C53010860530108AA
:1032C00090B5B1B004AFF8600B467A60FB72012391
:1032D00087F8AE30012387F8AF300023BB6107F1D8
:1032E0001C039222002118460FF073FB00233B6160
:1032F00000233B75FC7A7868FCF7BAFF034607F1B8
:103300001800224647490FF001FB07F11803184641
:10331000FCF7AEFF03469AB207F1180102230193AE
:103320003E2300934FF47A73F86800F00BFA4FF4E1
:103330007A720021F86800F032FB034687F8AE305D
:1033400097F8AE30002B67D1FB6803F58150083049
:10335000F968FB6803F580539B8A9AB200230293B5
:103360000A2301932C2300932F4B02F0CBF8034642
:10337000002B0CBF01230023DBB2002B4CD078685C
:10338000FCF776FF03469AB2032303930A230293C2
:10339000012301932B2300934FF47A737968F86823
:1033A00000F032FA42F210720021F86800F0F7FAE9
:1033B000034687F8AE3097F8AE30002B2CD1FB686F
:1033C00003F581500830F968FB6803F580539B8A48
:1033D0009AB207F1100302930A2301932C2300935E
:1033E000124B02F08FF80346002B0CBF0123002381
:1033F000DBB2002B10D007F110030D491846FEF781
:1034000073F80346002B14BF01230023DBB2002B0B
:1034100002D0002387F8AF3097F8AF301846B437A2
:10342000BD4690BD745301085C5301088C530108DC
:103430001C53010880B59AB002AF78600B46FB7050
:10344000012387F85E30012387F85F300023FB609B
:1034500007F110034C22002118460FF0BAFAFA784F
:1034600007F10C03204918460FF050FA07F10C033E
:103470001846FCF7FDFE03469AB207F10C01012342
:1034800001930A2300934FF47A73786800F05AF995
:103490004FF4FA520021786800F081FA034687F869
:1034A0005E3097F85E30002B11D17B6803F58153B5
:1034B000083379687A6802F58052928A92B2184687
:1034C00001F0FAFF0346002B01D1012300E00023A5
:1034D000002B02D0002387F85F3097F85F30184642
:1034E0006037BD4680BD00BF9C53010880B586B0E3
:1034F00002AF78600123BB730123FB7301230193A7
:103500000A2300934FF47A731D221549786800F05E
:1035100019F94FF4FA620021786800F040FA034686
:10352000BB73BB7B002B11D17B6803F58153083340
:1035300079687A6802F58052928A92B2184601F050
:10354000BBFF0346002B01D1012300E00023002B29
:1035500001D00023FB73FB7B18461037BD4680BDAE
:103560000058010880B586B002AF78600123BB73B4
:103570000123FB73012301930A2300934FF47A7311
:103580001B221549786800F0DDF84FF4FA6200213B
:10359000786800F004FA0346BB73BB7B002B11D1A3
:1035A0007B6803F58153083379687A6802F58052A5
:1035B000928A92B2184601F07FFF0346002B01D198
:1035C000012300E00023002B01D00023FB73FB7BD1
:1035D00018461037BD4680BD2058010880B586B01A
:1035E00002AF78600123BB730123FB7301230193B6
:1035F0000A2300934FF47A7320221549786800F06B
:10360000A1F84FF4FA620021786800F0C8F9034687
:10361000BB73BB7B002B11D17B6803F5815308334F
:1036200079687A6802F58052928A92B2184601F05F
:1036300043FF0346002B01D1012300E00023002BB0
:1036400001D00023FB73FB7B18461037BD4680BDBD
:103650003C58010880B586B002AF78600123BB7387
:103660000123FB73012301930A2300934FF47A7320
:103670002C221549786800F065F84FF4FA620021B1
:10368000786800F08CF90346BB73BB7B002B11D12B
:103690007B6803F58153083379687A6802F58052B4
:1036A000928A92B2184601F007FF0346002B01D11F
:1036B000012300E00023002B01D00023FB73FB7BE0
:1036C00018461037BD4680BD6058010880B586B0E9
:1036D00002AF78600123BB730123FB7301230193C5
:1036E0000A2300934FF47A732A221549786800F070
:1036F00029F84FF4FA620021786800F050F9034687
:10370000BB73BB7B002B11D17B6803F5815308335E
:1037100079687A6802F58052928A92B2184601F06E
:10372000CBFE0346002B01D1012300E00023002B38
:1037300001D00023FB73FB7B18461037BD4680BDCC
:103740009058010880B584B000AFF860B9601146A8
:103750001A460B46FB801346BB80FB684FF40062A1
:10376000002118460FF035F9FB6803F500634FF4AC
:103770000062002118460FF02CF90021F86800F0D3
:10378000C8F80121F86800F0C4F8FB6803F580531D
:103790001A463B7E1372FB6803F580531A463B7F43
:1037A000D372FB6803F5805300225A72FB6803F55D
:1037B000805300221A73FB6803F58053FF229A732B
:1037C000FB68FA6802F580521361FB6803F58053C9
:1037D00000229A82FB6803F581530433FA6802F5EC
:1037E000805211694FF40062184601F02DFEFB680B
:1037F00003F581500430BB88FA88B96801F011FEE6
:1038000000BF1037BD4680BD80B584B000AFF86002
:10381000B96011461A460B46FB801346BB80FB6815
:103820004FF40062002118460FF0D3F8FB6803F54F
:1038300000634FF40062002118460FF0CAF800211F
:10384000F86800F066F80121F86800F062F8FB689B
:1038500003F580531A4697F820301372FB6803F57E
:1038600080531A4697F82430D372FB6803F58053CF
:1038700000225A72FB6803F5805300221A73FB681A
:1038800003F58053FF229A73FB68FA6802F58052B1
:103890001361FB6803F5805300229A82FB6803F5ED
:1038A00080531A463B7E93773B7F013BDAB2FB683D
:1038B00003F58053DA77FB6803F581530433FA6824
:1038C00002F5805211694FF40062184601F0BCFD08
:1038D000FB6803F581500430BB88FA88B96801F0B1
:1038E000A0FD00BF1037BD4680BD80B483B000AFDF
:1038F00078600B46FB70FB787A68134403F58153BC
:10390000093301221A7000BF0C37BD465DF8047BF5
:10391000704780B483B000AF78600B46FB70FB78D3
:103920007A68134403F58153093300221A7000BFEB
:103930000C37BD465DF8047B704780B485B000AF9E
:1039400078600B46FB700023FB73FB787A681344A6
:1039500003F5815309331B78DBB2002B14BF01231D
:103960000023DBB2002B02D00023FB7310E0FB78B6
:103970007A68134403F5815309331B78DBB2002BBB
:103980000CBF01230023DBB2002B01D00123FB730A
:10399000FB7B18461437BD465DF8047B704780B545
:1039A00084B000AF78600B46FB7013463B80002369
:1039B000FB737B6803F580531A460023D36206F03D
:1039C00057FA02467B6803F58053DA6202E00A2068
:1039D00001F0B2F8FB7819467868FFF7AEFF0346AE
:1039E000002B0CD006F044FA02467B6803F58053A6
:1039F000DB6AD21A3B889A4201D2012300E00023FD
:103A0000002BE4D1FB7819467868FFF796FF034650
:103A1000002B14BF01230023DBB2002B01D00123B4
:103A2000FB73FB7B18461037BD4680BD80B582B066
:103A300000AF78600B46FB707B6803F58053DB7A40
:103A4000DBB2012B0CBF01230023DBB2002B00F003
:103A50008A80F8787B6803F580531B695A1C796863
:103A600001F580510A6102461A707B6803F58053A4
:103A70009B8A9BB201339AB27B6803F580539A828A
:103A80007B6803F580531B7BDBB2012B0CBF01234A
:103A90000023DBB2002B0CD07B6803F580539B7BAB
:103AA0005BB2DBB20133DBB25AB27B6803F5805301
:103AB0009A737B6803F580539B7ADBB2012B07D1A5
:103AC000FB784F2B02D0FB78452B01D1012300E07E
:103AD0000023002B1BD07B6803F5805300229A72D1
:103AE0007B6803F5805301221A73FB784F2B05D1B5
:103AF0007B6803F5805302225A730DE0FB78452B57
:103B00000AD17B6803F5805305225A7304E07B6871
:103B100003F5805300229A72FB780A2B04D17B684C
:103B200003F5805301229A727B6803F580539B7BD7
:103B30005BB21A467B6803F580535B7BDBB29A422B
:103B4000ACBF01230023DBB2002B00F0ED8000218D
:103B50007868FFF7CAFE7B6803F581530433184683
:103B600001F084FCE0E07B6803F58053DB7ADBB294
:103B7000022B0CBF01230023DBB2002B72D0F8789C
:103B80007B6803F580531B695A1C796801F58051E5
:103B90000A6102461A707B6803F580539B8A9BB2C8
:103BA00001339AB27B6803F580539A827B6803F5F0
:103BB00080531B7ADBB20A2B14BF01230023DBB234
:103BC000002B0FD0FB783E2B40F0AE8000217868B0
:103BD000FFF78BFE7B6803F581530433184601F031
:103BE00045FCA1E07B6803F580531B7BDBB2012B16
:103BF00004D1FB78452B01D1012300E00023002BE9
:103C000004D07B6803F5805302229A73FB780A2B59
:103C10000AD17B6803F580531B7BDBB20133DAB238
:103C20007B6803F580531A737B6803F580531B7B15
:103C3000DBB21A467B6803F580539B7B5BB29A42EA
:103C40000CBF01230023DBB2002B6DD0002178686C
:103C5000FFF74BFE7B6803F581530433184601F0F0
:103C600005FC61E07B6803F58053DB7ADBB2032B54
:103C70000CBF01230023DBB2002B55D0F8787B6802
:103C800003F580531B695A1C796801F580510A615C
:103C900002461A707B6803F580539B8A9BB20133FE
:103CA0009AB27B6803F580539A827B6803F5805350
:103CB0009B7FDBB2FA789A420CBF01230023DBB270
:103CC000002B0CD07B6803F580539B7B5BB2DBB28F
:103CD0000133DBB25AB27B6803F580539A737B6879
:103CE00003F580531B7ADBB2FA789A420ED17B68D7
:103CF00003F580539B7B5BB21A467B6803F58053C8
:103D0000DB7FDBB29A4201DB012300E00023002BC2
:103D10000AD000217868FFF7E8FD7B6803F581533E
:103D20000433184601F0A2FB00BF0837BD4680BD32
:103D300080B584B000AF78600B46FB700023FB7346
:103D40000023FB7309E0FB7B114A52F833307A6899
:103D50009A4206D0FB7B0133FB73FB7B022BF2D92B
:103D600000E000BFFB7B0A4ADB0013445B68002BCA
:103D700009D0FB7B064ADB0013445B68FA781146E6
:103D80001846FFF753FE00BF1037BD4680BD00BF89
:103D90007C1A002080B483B000AF786000BF0C377D
:103DA000BD465DF8047B704780B483B000AF074B1D
:103DB000D3ED007AFCEEE77AC7ED017A3B79DBB20E
:103DC00018460C37BD465DF8047B7047981A0020F2
:103DD00080B588B000AFF86087ED020AC7ED010A30
:103DE00006F046F8F861274B1B68FA69D31ABB61E5
:103DF000244AFB691360BB6907EE903AB8EE677A14
:103E0000DFED216AC7EE267AC7ED057A97ED027AD3
:103E1000D7ED057A27EE277ADFED1C6AC7EE267A02
:103E20009FED1A7A67EE877AC7ED047A184B93ED07
:103E3000007AD7ED047A77EE677A154BC3ED007AF6
:103E4000134BD3ED007A9FED117AF4EEC77AF1EEC1
:103E500010FA02DD0E4B0F4A1A600D4BD3ED007ABB
:103E6000F5EEC07AF1EE10FA03D5094B4FF00002DF
:103E70001A60074B1A68FB681A6000BF2037BD46FE
:103E800080BD00BFA41A002000BA5B4A0000C842EF
:103E9000981A00200000C84280B483B000AF87EDBC
:103EA000010AC7ED000A0B4A7B6813600A4A3B68A7
:103EB0001360094B93ED007ADFED086AC7EE267AAE
:103EC000074BC3ED007A00BF0C37BD465DF8047B9D
:103ED000704700BF981A00209C1A0020000061451E
:103EE000A01A002080B584B000AF786039607B688C
:103EF0000C33184600F0E2FE7B683A689A607B68F3
:103F00000C33184600F0E5FE4FF00003FB604FF065
:103F10000003BB607B6818461037BD4680BD0000BB
:103F200080B588B000AF786039604FF47A737B61F8
:103F30000023FB740023FB617B680C334FF47A7120
:103F4000184600F0D5FE0346002B0CBF01230023CA
:103F5000DBB2002B7AD07B689B68002B01D1012358
:103F600075E00023BB6135E07B689B68184605F06F
:103F7000F3FF0346002B14BF01230023DBB2002B09
:103F800006D07B680C33184600F0DAFE01235EE0B1
:103F90007B689B6843F69821184606F0E2F80346D2
:103FA000002B14BF01230023DBB2002B06D07B685B
:103FB0000C33184600F0C4FE012348E07B689B6880
:103FC000184606F059F90246FB691344FB61BB69C8
:103FD0000133BB61BB69B3F57A7FC5D37B689B684E
:103FE000184606F08BF8FB691B4AA2FB03239B09CA
:103FF000FB61FB6907EE903AB8EE677ADFED176A6E
:10400000C7EE267A9FED167A67EE877A9FED157ACE
:1040100077EEC77AC7ED037AD7ED037A9FED127A70
:1040200077EEC77AC7ED027A97ED027ADFED0F6A75
:10403000C7EE267A7B68C3ED007A7B681A683B6816
:104040001A607B680C33184600F07AFEFB7C184639
:104050002037BD4680BD00BFD34D621000008045B3
:10406000333353406F12033B3333D33F52499D3BAD
:1040700080B582B000AF786039607B680433184641
:1040800000F01CFE7B683A681A607B6804331846AF
:1040900000F01FFE7B6818460837BD4680BD000053
:1040A00080B586B000AF786039603223FB600023B2
:1040B000FB7200237B617B6804334FF47A711846EE
:1040C00000F016FE0346002B0CBF01230023DBB2D9
:1040D000002B60D07B681B68002B01D101235BE0C3
:1040E00000233B6135E07B681B68184605F034FF10
:1040F0000346002B14BF01230023DBB2002B06D0A4
:104100007B680433184600F01BFE012344E07B6803
:104110001B6843F69821184606F023F80346002B47
:1041200014BF01230023DBB2002B06D07B680433CD
:10413000184600F005FE01232EE07B681B68184638
:1041400006F09AF802467B6913447B613B690133B0
:104150003B613B69312BC6D97B69114AA2FB032322
:104160001B097B617B6907EE903AF8EE677A9FED59
:104170000D7A67EE877A9FED0C7A67EE877A9FED6E
:104180000B7A77EE877A3B68C3ED007A7B6804335D
:10419000184600F0D5FDFB7A18461837BD4680BD9D
:1041A0001F85EB513333533A52B87641B81E053E62
:1041B00080B584B000AFF860B9603B601346FB7116
:1041C000FB681433184600F079FDFB68BA685A6042
:1041D000FB68FA791A72FB683A681A60FB68143354
:1041E000184600F076FDFB6818461037BD4680BDC6
:1041F00080B58AB002AFF860B9607A60FB681433AA
:104200004FF47A71184600F073FD0346002B0CBF83
:1042100001230023DBB2002B00F084800023FB830A
:10422000322000F089FCAC233B7633237B760023DD
:10423000BB76F86800F07AF80346002B0CBF012328
:104240000023DBB2002B68D0FB685868FB681B7A40
:104250005B0099B2FB681B6807F118020093032307
:1042600006F066FE642000F067FCFB685868FB6897
:104270001B7A5B0099B2FB681B6807F11002009380
:10428000072306F053FF3A7CFB685A72FB685B7A9F
:104290005BB2002B36DB7B7C1A46FB681A61FB683D
:1042A0001B691B02BA7C1A43FB681A61FB681B6915
:1042B0001B01FA7C1209D2B21A43FB681A61FB7C1B
:1042C00003F00F02FB68DA60FB68DB681B023A7DD3
:1042D0001A43FB68DA60FB68DB681B027A7D1A43CD
:1042E000FB68DA60BA7DFB689A72F86800F03EF805
:1042F0000246BB681A60F86800F074F802467B68F2
:104300001A600AE0FB8B0133FB830A2000F014FCE7
:10431000FB8B322B00D8A8E700BFFB68143318468C
:1043200000F00EFD00BF2037BD4680BD80B584B0D3
:1043300000AF78600023FB737B6858687B681B7A4A
:104340005B0099B24FF47A73032207F021F9034618
:10435000002B14BF01230023DBB2002B01D001236B
:1043600000E0FB7B18461037BD4680BD80B584B0A9
:1043700000AF78607B68DB681846FCF7C3F84FF045
:104380000002154BFCF762FA02460B46104619462E
:104390004FF00002104BFCF759FA02460B4610464C
:1043A00019464FF000020D4BFCF726F902460B466A
:1043B000104619464FF00002094BFBF765FF024615
:1043C0000B4610461946FCF7EFFB0346FB60FB6803
:1043D00018461037BD4680BD00009040000069407F
:1043E0000000494080B584B000AF78607B681B69ED
:1043F0001846FCF787F84FF00002114BFCF726FA3D
:1044000002460B46104619464FF000020C4BFCF7D3
:104410001DFA02460B46104619464FF00002094BA2
:10442000FCF7EAF802460B4610461946FCF7BCFBBF
:104430000346FB60FB6818461037BD4680BD00BFD1
:10444000000090400000594080B586B000AF786110
:10445000396187ED030AC7ED020A87ED011A7B690E
:10446000194A9A607B690022DA607B694FF000028A
:104470001A617B69144A5A617B6900221A767B694A
:104480000022DA617B6900221A627B6900225A628B
:104490007B693833184600F011FC7B693A695A632E
:1044A0007B693833184600F014FC7B69FA689A621D
:1044B0007B69BA68DA627B697A681A637B69184635
:1044C0001837BD4680BD00BF000080BF80B584B0F6
:1044D00000AFF860B9607A603B60B968F86800F0D6
:1044E0000FF87968F86800F007F9FB69BA6939686C
:1044F000F86800F053F900BF1037BD4680BD0000DA
:1045000080B596B000AFF860B960002387F85730E7
:10451000FB6838334FF47A71184600F0E9FB034624
:10452000002B0CBF01230023DBB2002B00F0D18055
:10453000FB6893ED0B7AFB68D3ED0A7A77EE677A26
:10454000C7ED117A07F114032822002118460EF056
:1045500040FA00233B65FB685B6B002B01D1012314
:10456000BCE00023FB643AE0FB685B6B184605F097
:10457000F3FC0346002B14BF01230023DBB2002B06
:1045800006D0FB683833184600F0DAFB0123A5E0BB
:10459000FB685B6B42F21071184605F0E2FD0346C2
:1045A000002B14BF01230023DBB2002B06D0FB68D5
:1045B0003833184600F0C4FB01238FE0FB685B6BC7
:1045C000184605F059FE0246FB6C9B00503307F17C
:1045D00008010B4443F8442CFB6C0133FB64FB6C77
:1045E000092BC1DDFB685B6B184605F087FD0023D6
:1045F000BB640DE0BB6C9B00503307F10802134411
:1046000053F8443C3A6D13443B65BB6C0133BB64C7
:10461000BB6C092BEEDD3B6D324AA2FB0323DB08AA
:104620003B653B6D07EE903AB8EE677ADFED2E6A98
:10463000C7EE267A9FED2D7A67EE877AC7ED107A5E
:10464000FB6893ED0C7AD7ED106AC6EE877AB3EE6D
:10465000007A67EE877AB1EE007A77EE877AC7ED57
:104660000F7AD7ED0F7AB1EE007A77EEC77AF3EED4
:10467000006A87EEA67AD7ED117A67EE277AFB6893
:10468000C3ED017AFB68D3ED016A97ED117AC6EEAE
:10469000877A9FED177A67EE877AFB68C3ED007A19
:1046A000FB6893ED007ADFED126AC7EE267A9FED84
:1046B000117A67EE877AFCEEE77AC7ED017A3B79EB
:1046C000DAB2BB681A70FB683833184600F038FB62
:1046D00002E0012387F8573097F8573018465837CB
:1046E000BD4680BDCDCCCCCC00008045333353409B
:1046F0000000FA430000C84280B584B000AF786083
:1047000039607B6838334FF47A71184600F0F0FA5C
:104710000346002B0CBF01230023DBB2002B38D053
:1047200005F0A6FBF8607B6893ED027A7B68D3ED19
:10473000007AB4EEE77AF1EE10FA0CD57B681A68CD
:104740007B689A607B68FA68DA617B683833184660
:1047500000F0F6FA1DE07B68DB69FA68D31A0E4AAE
:10476000934211D37B6893ED027A7B68D3ED007A94
:1047700077EE677A3B68C3ED007A7B681A687B68DE
:104780009A607B68FA68DA617B683833184600F013
:10479000D7FA1037BD4680BD80EE360080B584B0B4
:1047A00000AFF860B9607A603B60FB6838334FF463
:1047B0007A71184600F09CFA0346002B0CBF0123C7
:1047C0000023DBB2002B5FD0FB681A68FB681A611C
:1047D000FB68D3ED057AF5EEC07AF1EE10FA09D553
:1047E000FB681A69FB685A61FB683833184600F0A9
:1047F000A7FA49E0FB6893ED047AFB68D3ED057AEC
:1048000077EE677AFDEEE77A17EE902AFB68DA60BA
:1048100005F02EFB0246FB681A62FB681B7E002B2C
:1048200011D1FB68DB68052B25DDFB6801221A76B8
:10483000FB681A6AFB685A627B68BA681A603B6850
:1048400000221A6017E0FB68DB68002B0FDCFB68B6
:104850001A6AFB685B6AD31A41F2873293420AD91B
:10486000FB6800221A763B68BA681A6003E0FB68AE
:104870001A6AFB685A62FB681A69FB685A61FB682E
:104880003833184600F05CFA1037BD4680BD80B55D
:1048900084B000AFF86087ED020AC7ED010AFB683B
:1048A00038334FF4FA51184600F022FA0346002B31
:1048B0000CBF01230023DBB2002B0AD0FB68BA68CF
:1048C0009A62FB687A68DA62FB683833184600F04F
:1048D00037FA00BF1037BD4680BD80B584B000AF49
:1048E000F860B9607A60FB6838334FF4FA511846C3
:1048F00000F0FEF90346002B0CBF01230023DBB2BE
:10490000002B0CD0FB689A6ABB681A60FB68DA6AF5
:104910007B681A60FB683833184600F011FA00BF54
:104920001037BD4680BD80B582B000AF7860396079
:104930007B6804333968184600F051FD7B682433E6
:10494000184600F0BBF97B683A681A607B6824332C
:10495000184600F0BEF97B6818460837BD4680BD92
:1049600080B582B000AF786039607B6824334FF443
:104970007A71184600F0BCF90346002B0CBF0123E6
:104980000023DBB2002B00F0C6807B68181D4FF4BB
:104990007A730422644900F044FD7B68181D7B682B
:1049A00003F108014FF4FA73192200F027FD4FF4C8
:1049B0007A7000F0C1F87B68181D4FF47A730822F2
:1049C0005A4900F02EFD7B68181D7B6803F1080131
:1049D0004FF47A73192200F011FD7B68DB7A1B0219
:1049E0007A68127B13431846FBF78CFD4FF00002E8
:1049F0004F4BFBF72BFF02460B4610461946FCF7C0
:104A0000F3F802463B681A607B685B7B1B027A689E
:104A1000927B1A437B68DB7B1B061A437B681B7CFB
:104A20001B0413431846FBF76DFD4FF00002414B8A
:104A3000FBF70CFF02460B4610461946FCF7D4F86C
:104A400002463B685A607B685B7C1B027A68927CFA
:104A50001A437B68DB7C1B061A437B681B7D1B04A7
:104A6000134307EE903AF8EE677A3B68C3ED027A9B
:104A70007B685B7D1B027A68927D1A437B68DB7DD5
:104A80001B061A437B681B7E1B04134307EE903AF8
:104A9000F8EE677A3B68C3ED037A7B685B7E1B02A6
:104AA0007A68927E13431846FBF72CFD4FF0000204
:104AB0001F4BFBF7CBFE02460B4610461946FCF790
:104AC00093F802463B681A617B68DB7E1B027A68BA
:104AD000127F13431846FBF715FD4FF00002154BEC
:104AE000FBF7B4FE02460B4610461946FCF77CF86D
:104AF00002463B685A617B685B7F1B029BB27A6807
:104B0000927F13439AB23B681A837B68243318461A
:104B100000F016F904E01C22002138680DF059FF5E
:104B200000BF0837BD4680BDC4580108BC58010805
:104B3000000024400000594080B582B000AF78608A
:104B40007B684FF47A7202FB03F3054AA2FB03234E
:104B50009B0918460BF04AFA00BF0837BD4680BDD6
:104B6000D34D621080B584B000AFF860B9607A6050
:104B70007B80FB6800221A62FB68BA681A60FB68D7
:104B80000433796818460EF0F4F8FB687A889A8244
:104B9000FB68BA699A61FB68FA69DA61FB681846D2
:104BA0001037BD4680BDB0B584B002AF78607B6879
:104BB00018687B68191D7B689C8A7B689D697B6887
:104BC000DB697A682032019200932B4622460BF073
:104BD000AFF800BF0837BD46B0BD80B485B000AFA8
:104BE000F8607B600B467B8113463B81FB687A89CA
:104BF000A3F85420FB683A89A3F85620FB687A682A
:104C00009A65FB6818461437BD465DF8047B70470B
:104C100090B585B002AF78607B68B3F85430184621
:104C20007B68B3F856301C467B689A6D7B6804330A
:104C30000021009121460AF0F5F902467B681A60CE
:104C400000BF0C37BD4690BD80B584B000AF786022
:104C500039600123FB737B6818680023C822396818
:104C60000AF0EEFA0346012B14BF01230023DBB246
:104C7000002B01D0032300E0FB7B18461037BD4614
:104C800080BD80B584B000AF786039600223FB73CB
:104C90007B681B683222396818460AF071FC0346AB
:104CA000012B0CBF01230023DBB2002B01D000231A
:104CB00000E0FB7B18461037BD4680BD80B483B052
:104CC00000AF78607B6818460C37BD465DF8047B02
:104CD000704780B582B000AF786001200AF097FA83
:104CE00002467B681A6000BF0837BD4680BD0000E1
:104CF00080B584B000AF786039600123FB737B68B6
:104D00001A683B684FF47A7101FB03F30B49A1FB6E
:104D100003139B09194610460AF014FD0346012BA4
:104D20000CBF01230023DBB2002B01D0002300E0E5
:104D3000FB7B18461037BD4680BD00BFD34D6210C7
:104D400080B584B000AF78600123FB737B6818687E
:104D50000023002200210AF073FAFB7B184610376B
:104D6000BD4680BD80B483B000AF78607B681846D4
:104D70000C37BD465DF8047B704780B582B000AF4C
:104D8000786009F075FE02467B681A6000BF08373C
:104D9000BD4680BD80B584B000AF7860EFF3058379
:104DA000FB60FB68002B14BF01230023DBB2002B48
:104DB0001ED07B6800225A607B6818687B680433C9
:104DC0001A46012109F0FCFF02467B689A607B6865
:104DD0009B68002B12D07B685B68002B0ED0094BC0
:104DE0004FF080521A60BFF34F8FBFF36F8F05E013
:104DF0007B681B680121184609F026FF00BF1037A9
:104E0000BD4680BD04ED00E080B584B002AF78609F
:104E10007B6818684FF0FF330093002301220121C3
:104E200009F040FE00BF0837BD4680BD80B584B0A4
:104E300002AF786039607B6818683B684FF47A721B
:104E400002FB03F3064AA2FB03239B090093002302
:104E50000122012109F026FE00BF0837BD4680BDB2
:104E6000D34D621080B584B000AFF860B9601346CE
:104E7000FB71FB680833184600F013FBFB680C332A
:104E80001846FFF71BFFFB68BA685A60FB68FA799F
:104E90001A70FB680C331846FFF71BFFFB681846B7
:104EA0001037BD4680BDB0B590B004AFF860B960B2
:104EB0007A603B600123FB62FB680C334FF47A712C
:104EC0001846FFF715FF0346002B0CBF01230023F4
:104ED000DBB2002B42D0FB685B6807F114010022B3
:104EE000184607F092FEFB685B6807F12801002274
:104EF000184607F06CFF3B68002B17D0FB6803F1E6
:104F00000805FB6893F9003003936C4607F11C0316
:104F100093E8070084E8070007F114030CCBB96A93
:104F2000284600F00BFC02463B681A60BB68002B69
:104F300002D0BA6ABB681A607B68002B06D007F102
:104F400014031422194678680DF01BFFFB680C331C
:104F50001846FFF7F5FE0023FB6214E03B68002BC8
:104F600002D03B6800221A60BB68002B03D00023EC
:104F70001A68BB681A607B68002B04D014220021D9
:104F800078680DF0FEFEFB6ADBB218463037BD468E
:104F9000B0BDB0B590B004AFF860B9607A603B6066
:104FA0000123FB62FB680C334FF47A711846FFF75C
:104FB0009FFE0346002B0CBF01230023DBB2002B16
:104FC00047D0FB685B6807F114010022184607F020
:104FD0001CFEFB685B6807F128010022184607F0F9
:104FE000F6FEFB6893F900203B6C1A703B68002BBF
:104FF00017D0FB6803F10805FB6893F900300393B1
:105000006C4607F11C0393E8070084E8070007F1EA
:1050100014030CCBB96A284600F090FB02463B68AB
:105020001A60BB68002B02D0BA6ABB681A607B6842
:10503000002B06D007F114031422194678680DF0EE
:10504000A0FEFB680C331846FFF77AFE0023FB62D4
:1050500014E03B68002B02D03B6800221A60BB685A
:10506000002B03D000231A68BB681A607B68002BF2
:1050700004D01422002178680DF083FEFB6ADBB2B5
:1050800018463037BD46B0BD80B58CB000AFF86073
:10509000B9607A60FB700123FB62FB680C334FF44C
:1050A0007A711846FFF724FE0346002B0CBF01233C
:1050B0000023DBB2002B27D0FB685B6800227968F5
:1050C000184607F008FDFB685B680022B9681846BF
:1050D00007F0F9FDFB68FA781A70FB685B6807F166
:1050E00014010022184607F090FDFB685B6807F189
:1050F00028010022184607F06AFEFB680C331846A8
:10510000FFF71EFE0023FB62FB6ADBB21846303756
:10511000BD4680BD80B586B000AFF860B9603B6029
:105120001346FB7101237B61FB680C334FF47A71EA
:105130001846FFF7DDFD0346002B0CBF01230023BB
:10514000DBB2002B0FD0FB6803F1080097F90720B2
:105150003B68B96800F088FBFB680C331846FFF722
:10516000EFFD00237B617B69DBB218461837BD4633
:1051700080BD000080B483B000AF78603960064A1B
:105180007B681360054A3B68136000BF0C37BD465F
:105190005DF8047B704700BFA81A0020AC1A0020FD
:1051A00080B584B000AF78607B685B6CBB817B6846
:1051B00093F84230DBB2222B0CBF01230023DBB279
:1051C000002B21D07B681B685B689BB2DBB2FB8144
:1051D000BB89002B07D0BB891B021AB2B7F90E306E
:1051E00013431BB2FB817B680B4A93420AD10B4BE2
:1051F0001B68002B06D0094B1B68FA89D2B21146F6
:1052000078689847002303E07B681B685B6802238B
:1052100018461037BD4680BDA4220020A81A0020E1
:1052200080B586B000AF78607B681B681B687B61C7
:105230007B681B68DB683B617B681B685B69FB60A4
:105240000023BB607B6903F00F03BB60BB68002BCE
:105250000DD17B6903F02003002B08D03B6903F0DC
:105260002003002B03D07868FFF79AFFA4E07B6847
:105270001B685B69FB60BB68002B00F08380FB68E8
:1052800003F00103002B04D13B6903F49073002B5E
:1052900078D07B6903F00103002B0FD03B6903F446
:1052A0008073002B0AD07B681B686FF001021A60C4
:1052B0007B685B6C43F001027B685A647B6903F096
:1052C0000203002B0FD0FB6803F00103002B0AD070
:1052D0007B681B686FF002021A607B685B6C43F0AE
:1052E00004027B685A647B6903F00403002B0FD02F
:1052F000FB6803F00103002B0AD07B681B686FF08A
:1053000004021A607B685B6C43F002027B685A649B
:105310007B6903F00803002B14D03B6903F02003E2
:10532000002B04D1FB6803F00103002B0AD07B683B
:105330001B686FF008021A607B685B6C43F0080220
:105340007B685A647B685B6C002B14BF01230023CD
:10535000DBB2002B2DD07B6903F02003002B0AD099
:105360003B6903F02003002B05D07B6800225A64C0
:105370007B681B685B68786808F0A0FF7B68002288
:105380005A6416E07B6903F08003002B14D03B695C
:1053900003F08003002B0FD07B68094A93420AD1A7
:1053A000084B1B68002B06D0064B1B687868984793
:1053B00001E000BF00E000BF1837BD4680BD00BF60
:1053C000A4220020AC1A002080B582B000AF786023
:1053D0007868FFF725FF00BF0837BD4680BD80B461
:1053E00083B000AF786039607B683A681A607B6888
:1053F00018460C37BD465DF8047B704780B584B015
:1054000000AFF860B9603B601346FB80FB6818682A
:10541000FA883B68B96808F0E2FD00BF1037BD4666
:1054200080BD80B584B000AFF860B9603B601346C2
:10543000FB80FB681868FA883B68B96808F044FD8F
:1054400000BF1037BD4680BD80B584B000AFF860A6
:10545000B9601346FB80FB681B68FA88B968184678
:1054600008F054FE00BF1037BD4680BD80B582B045
:1054700000AF78607B681B68184608F06DFE00BFBF
:105480000837BD4680BD80B582B000AF7860396016
:10549000396878680DF0A5FA034618460837BD4606
:1054A00080BD80B483B000AF78607B6818460C374D
:1054B000BD465DF8047B704780B586B000AFF860EC
:1054C000B9601346FB800223FB750C49B8680DF0E8
:1054D000A8FA0346002B02D00023FB7508E0084918
:1054E000B8680DF09EFA0346002B01D00123FB752E
:1054F000FB7D18461837BD4680BD00BF0854010823
:105500000C54010890B5ADF5077D00AF07F50674A2
:10551000A4F50374206007F50670A0F5047001601F
:10552000114607F50672A2F50672136007F50673B9
:10553000A3F212230A461A80022387F80D320023B1
:10554000A7F8163207F50673A3F212231A8807F597
:105550000673A3F5047307F1140019680DF04EFAF1
:1055600007F50673A3F5067307F1140219681046D0
:105570000DF057FA0346002B01D1022385E0D7F83E
:105580003032002B01D100237FE097F8282207F169
:10559000140311461846FFF776FFC7F80802D7F83C
:1055A0000832002B16D007F11403D7F80822D31ABB
:1055B000C7F8103297F828323A2B05D1D7F81032B5
:1055C0000233C7F8103207E0D7F810320133C7F8BA
:1055D000103201E0022358E0D7F81032A7F80E325B
:1055E0003CE0B7F80E3207F50672A2F504721268B5
:1055F00013441B7897F82C229A420FD0B7F80E323A
:1056000007F50672A2F5047212681A44B7F816324A
:10561000D7F830120B4412781A7015E0B7F80E3232
:1056200007F50672A2F50472126813441B7897F806
:105630002C229A4208D1B7F81632D7F830221344F8
:1056400000221A70002320E0B7F80E320133A7F8C9
:105650000E32B7F816320133A7F81632B7F8162211
:1056600007F50673A3F212231988D7F81032CB1A64
:105670009A4208DA07F50673A3F21223B7F80E224E
:105680001B889A42ADD397F80D32184607F5077775
:10569000BD4690BD80B588B000AFF860B9607A6053
:1056A000FB7000237B76FB6A002B01D1012340E0D5
:1056B0007968B8680DF0B5F9F861FB69002B01D184
:1056C000022336E07868FAF7D3FD0246FB691344FB
:1056D000FB61FB690133FB61FB781946F869FFF751
:1056E000D2FE78617B69002B01D1022321E07B6926
:1056F0000133FB6100237B830AE0FB695A1CFA61DA
:105700001978FA6A7B8B581C788313440A461A70FE
:10571000FB691B7897F828209A4204D07A8B3B8E3D
:10572000013B9A42E9DB7B8BFA6A134400221A7030
:105730007B7E18462037BD4680BD000082B080B514
:105740008CB000AF7860396007F1380181E80C0057
:10575000BB783B627B78FB61FB78BB61BB69452B07
:1057600002DC4FF4FA6301E040F26C73BA6913444F
:10577000BB6197F838307B6197F839303B6197F817
:105780003A30FB6097F94C2013461B019B1A9B0093
:10579000BB600023FB6240F2B273BB6212E0B96AE5
:1057A000786800F09BF80346002B02D04FF4B773E3
:1057B00001E040F26D131A46FB6A1344FB62BB6AB8
:1057C0000133BB62BA6ABB699A42E8DBFB6A254ACD
:1057D00002FB03F3FB6201237B620FE07A6AB96983
:1057E000786800F0ABF803461E4A02FB03F31A4642
:1057F000FB6A1344FB627B6A01337B627A6AFB6952
:105800009A42EBDB3B6A013B164A02FB03F31A4662
:10581000FB6A1344FB627B694FF4616202FB03F392
:105820001A46FB6A1344FB623A6913461B019B1A32
:105830009B001A46FB6A1344FB62FB68FA6A134436
:10584000FB62BA6813461B019B1A9B001A46FB6A4F
:105850009B1AFB62FB6A18463037BD46BDE88040A4
:1058600002B0704780510100B0B58CB000AFF86055
:10587000B9607A603B607B689B00FB62FA6A134602
:105880001B019B1ABB62BA6A13461B019B1A9B0041
:105890001A46BB681344BB60BB6800221C46154611
:1058A000C7E9044507F1100318460DF0D1F87862F6
:1058B0007B6A9B683B627B6A5B68FB617B6A1B68F7
:1058C000BB61BB693A6A044938680DF01FF800BF34
:1058D0003037BD46B0BD00BFCC54010880B483B0A2
:1058E00000AF786039603B6803F00303002B0CD1F4
:1058F0003A68114B83FB02135911D317CB1A642159
:1059000001FB03F3D31A002B0DD13A680A4B83FB3A
:105910000213D911D317CB1A4FF4C87101FB03F34B
:10592000D31A002B01D1012300E0002318460C37C5
:10593000BD465DF8047B70471F85EB5180B584B090
:1059400000AFF860B9607A607B68022B08D1B96853
:10595000F868FFF7C3FF0346002B01D0012300E0E6
:105960000023002B01D01D2304E07B68013B034A88
:1059700052F8233018461037BD4680BDC85801087C
:1059800080B588B002AF78600023FB75002001F07D
:1059900033FB786801F07FFD4B4B19794A4B5B79FB
:1059A000494A1268019200930B46002268217868E8
:1059B00001F0F8FC0121786802F02DFA02217868E4
:1059C00002F0B7FC4149786802F086FB97F917208E
:1059D00013469B0013449B003D4A13441846FAF7B4
:1059E00047FC0346FB73FB7DDB00DBB20333DAB21B
:1059F000FB7B194689000B44DBB20133DBB2092182
:105A000000910221786801F010FD00233B6114E051
:105A10003B69DBB2DB00DBB20A33D9B23A69134629
:105A20009B0013449B002A4A13440A4603217868CA
:105A300002F0B0FA3B6901333B613B69012BE7DDC2
:105A4000786801F09BFD01F0ABFAB860BB68002BF1
:105A50009FD0BB68282B06D197F91730DBB20133F2
:105A6000DBB2FB751AE0BB681E2B0CD197F917301F
:105A7000DBB2013BDBB2FB7597F91730002B0DDA77
:105A80000123FB750AE0BB680A2B07D197F9173091
:105A9000104A52F82330184601F080F997F9173070
:105AA000002B03F00103B8BF5B42FB75BB68322BD0
:105AB00006D0BB683C2B03D0BB680A2B7FF466AFD3
:105AC00000BF1837BD4680BDD85E010834630108A9
:105AD000F85801080000002080B58EB002AF786051
