:020000040800F2
:1000000000000220B98900087D830008858300086C
:100010008D830008958300089D8300080000000080
:100020000000000000000000000000006103010863
:10003000A583000800000000B105010831D70008C1
:10004000098A0008098A0008098A0008098A000844
:10005000098A0008098A0008098A0008098A000834
:10006000098A0008098A0008098A0008098A000824
:10007000098A0008098A0008098A0008098A000814
:10008000098A0008098A0008B5830008098A00085F
:10009000098A0008098A0008098A0008098A0008F4
:1000A000098A0008098A0008098A0008098A0008E4
:1000B000098A0008C9830008098A0008098A00081B
:1000C000098A0008098A0008098A0008098A0008C4
:1000D000098A0008098A0008E1830008098A0008E3
:1000E000098A0008098A0008098A0008098A0008A4
:1000F000098A0008098A0008098A0008098A000894
:10010000098A0008098A0008098A0008098A000883
:10011000098A0008098A0008098A0008098A000873
:10012000098A0008098A0008098A0008098A000863
:10013000098A0008098A0008098A0008098A000853
:10014000098A0008098A0008098A0008098A000843
:10015000098A0008098A0008098A0008098A000833
:10016000098A0008098A0008098A0008098A000823
:10017000098A0008098A0008098A000800000000AE
:08018000098A0008098A000841
:1001900010B5054C237833B9044B13B10448AFF3C1
:1001A00000800123237010BD5804002000000000CF
:1001B000E039010808B5034B1BB103490348AFF30D
:1001C000008008BD000000005C040020E039010848
:1001D00001F0FF01102A2BDB10F0070F08D010F8F8
:1001E000013B013A8B422DD010F0070F42B3F6D1FC
:1001F000F0B441EA012141EA014122F007047FF015
:1002000000070023F0E80256083C85EA010586EA6B
:10021000010685FA47F5A3FA87F586FA47F6A5FAA7
:1002200087F68EB9EED1F0BC01F0FF0102F00702B3
:1002300032B110F8013B013A83EA010313B1F8D15E
:100240000020704701387047002D06BF354603383F
:10025000073815F0010F07D1013015F4807F02BF78
:10026000013015F4C03F0130F0BC0138704700BFC9
:10027000034613F8012B002AFBD1181A01387047E6
:1002800081F0004102E000BF83F0004330B54FEA47
:1002900041044FEA430594EA050F08BF90EA020FB4
:1002A0001FBF54EA000C55EA020C7FEA645C7FEA47
:1002B000655C00F0E2804FEA5454D4EB5555B8BF6A
:1002C0006D420CDD2C4480EA020281EA030382EADB
:1002D000000083EA010180EA020281EA0303362D6D
:1002E00088BF30BD11F0004F4FEA01314FF4801C40
:1002F0004CEA113102D0404261EB410113F0004F52
:100300004FEA03334CEA133302D0524263EB430308
:1003100094EA050F00F0A780A4F10104D5F1200EA6
:100320000DDB02FA0EFC22FA05F2801841F1000101
:1003300003FA0EF2801843FA05F359410EE0A5F1D5
:1003400020050EF1200E012A03FA0EFC28BF4CF006
:10035000020C43FA05F3C01851EBE37101F00045BC
:1003600007D54FF0000EDCF1000C7EEB00006EEBC9
:100370000101B1F5801F1BD3B1F5001F0CD3490853
:100380005FEA30004FEA3C0C04F101044FEA4452AA
:1003900012F5800F80F09A80BCF1004F08BF5FEA31
:1003A000500C50F1000041EB045141EA050130BD11
:1003B0005FEA4C0C404141EB0101013C28BFB1F523
:1003C000801FE9D291F0000F04BF01460020B1FA6E
:1003D00081F308BF2033A3F10B03B3F120020CDA41
:1003E0000C3208DD02F1140CC2F10C0201FA0CF01F
:1003F00021FA02F10CE002F11402D8BFC2F1200C84
:1004000001FA02F120FA0CFCDCBF41EA0C01904039
:10041000E41AA2BF01EB0451294330BD6FEA040482
:100420001F3C1CDA0C340EDC04F11404C4F120026D
:1004300020FA04F001FA02F340EA030021FA04F37F
:1004400045EA030130BDC4F10C04C4F1200220FAD6
:1004500002F001FA04F340EA0300294630BD21FA14
:1004600004F0294630BD94F0000F83F4801306BFDA
:1004700081F480110134013D4EE77FEA645C18BFCE
:100480007FEA655C29D094EA050F08BF90EA020F65
:1004900005D054EA000C04BF1946104630BD91EA5D
:1004A000030F1EBF0021002030BD5FEA545C05D160
:1004B0004000494128BF41F0004130BD14F580049F
:1004C0003CBF01F5801130BD01F0004545F0FE4113
:1004D00041F470014FF0000030BD7FEA645C1ABF48
:1004E000194610467FEA655C1CBF0B46024650EA7F
:1004F000013406BF52EA033591EA030F41F40021AB
:1005000030BD00BF90F0000F04BF0021704730B530
:100510004FF4806404F132044FF000054FF0000105
:1005200050E700BF90F0000F04BF0021704730B5C6
:100530004FF4806404F1320410F0004548BF40429B
:100540004FF000013EE700BF42004FEAE2014FEAF0
:1005500031014FEA02701FBF12F07F4393F07F4FCB
:1005600081F06051704732F07F4208BF704793F0CE
:100570007F4F04BF41F40021704730B54FF46074E1
:1005800001F0004521F000411CE700BF50EA0102E4
:1005900008BF704730B54FF000050AE050EA01028D
:1005A00008BF704730B511F0004502D5404261EBFD
:1005B00041014FF4806404F132045FEA915C3FF43E
:1005C000D8AE4FF003025FEADC0C18BF03325FEADB
:1005D000DC0C18BF033202EBDC02C2F1200300FA8C
:1005E00003FC20FA02F001FA03FE40EA0E0021FAB1
:1005F00002F11444BDE600BF70B54FF0FF0C4CF49F
:10060000E06C1CEA11541DBF1CEA135594EA0C0F50
:1006100095EA0C0F00F0DEF82C4481EA030621EA8B
:100620004C5123EA4C5350EA013518BF52EA0335C6
:1006300041F4801143F4801338D0A0FB02CE4FF078
:100640000005E1FB02E506F00042E0FB03E54FF0A8
:100650000006E1FB03569CF0000F18BF4EF0010EA0
:10066000A4F1FF04B6F5007F64F5407404D25FEA9C
:100670004E0E6D4146EB060642EAC62141EA55514F
:100680004FEAC52040EA5E504FEACE2EB4F1FD0C91
:1006900088BFBCF5E06F1ED8BEF1004F08BF5FEA0F
:1006A000500E50F1000041EB045170BD06F00046C1
:1006B00046EA010140EA020081EA0301B4EB5C046E
:1006C000C2BFD4EB0C0541EA045170BD41F4801166
:1006D0004FF0000E013C00F3AB8014F1360FDEBF8B
:1006E000002001F0004170BDC4F10004203C35DA67
:1006F0000C341BDC04F11404C4F1200500FA05F3EA
:1007000020FA04F001FA05F240EA020001F000428A
:1007100021F0004110EBD37021FA04F642EB060100
:100720005EEA430E08BF20EAD37070BDC4F10C042A
:10073000C4F1200500FA04F320FA05F001FA04F2EE
:1007400040EA020001F0004110EBD37041F10001DA
:100750005EEA430E08BF20EAD37070BDC4F12005E5
:1007600000FA05F24EEA020E20FA04F301FA05F24D
:1007700043EA020321FA04F001F0004121FA04F2F5
:1007800020EA020000EBD3705EEA430E08BF20EAC5
:10079000D37070BD94F0000F0FD101F000464000FF
:1007A00041EB010111F4801F08BF013CF7D041EA81
:1007B000060195F0000F18BF704703F00046520085
:1007C00043EB030313F4801F08BF013DF7D043EA56
:1007D0000603704794EA0C0F0CEA135518BF95EA0C
:1007E0000C0F0CD050EA410618BF52EA4306D1D193
:1007F00081EA030101F000414FF0000070BD50EAB2
:10080000410606BF1046194652EA430619D094EA3B
:100810000C0F02D150EA013613D195EA0C0F05D125
:1008200052EA03361CBF104619460AD181EA030179
:1008300001F0004141F0FE4141F470014FF0000031
:1008400070BD41F0FE4141F4780170BD70B54FF0CC
:10085000FF0C4CF4E06C1CEA11541DBF1CEA13554C
:1008600094EA0C0F95EA0C0F00F0A7F8A4EB05042E
:1008700081EA030E52EA03354FEA013100F0888025
:100880004FEA03334FF0805545EA131343EA1263EE
:100890004FEA022245EA111545EA10654FEA0026A3
:1008A0000EF000419D4208BF964244F1FD0404F55C
:1008B000407402D25B084FEA3202B61A65EB0305B8
:1008C0005B084FEA32024FF480104FF4002CB6EB75
:1008D000020E75EB030E22BFB61A754640EA0C00F5
:1008E0005B084FEA3202B6EB020E75EB030E22BF35
:1008F000B61A754640EA5C005B084FEA3202B6EB76
:10090000020E75EB030E22BFB61A754640EA9C0034
:100910005B084FEA3202B6EB020E75EB030E22BF04
:10092000B61A754640EADC0055EA060E18D04FEAC2
:10093000051545EA16754FEA06164FEAC30343EA62
:1009400052734FEAC2025FEA1C1CC0D111F4801F2F
:100950000BD141EA00014FF000004FF0004CB6E728
:1009600011F4801F04BF01430020B4F1FD0C88BFC7
:10097000BCF5E06F3FF6AFAEB5EB030C04BFB6EBD2
:10098000020C5FEA500C50F1000041EB045170BDC5
:100990000EF0004E4EEA113114EB5C04C2BFD4EBF2
:1009A0000C0541EA045170BD41F480114FF0000E76
:1009B000013C90E645EA060E8DE60CEA135594EAF2
:1009C0000C0F08BF95EA0C0F3FF43BAF94EA0C0FF5
:1009D0000AD150EA01347FF434AF95EA0C0F7FF46A
:1009E00025AF104619462CE795EA0C0F06D152EABE
:1009F00003353FF4FDAE1046194622E750EA4106A2
:100A000018BF52EA43067FF4C5AE50EA41047FF4B2
:100A10000DAF52EA43057FF4EBAE12E74FF0FF3C17
:100A200006E000BF4FF0010C02E000BF4FF0010CE8
:100A30004DF804CD4FEA410C7FEA6C5C4FEA430C61
:100A400018BF7FEA6C5C1BD001B050EA410C0CBFB0
:100A500052EA430C91EA030F02BF90EA020F002012
:100A6000704710F1000F91EA030F58BF994208BF79
:100A700090422CBFD8176FEAE37040F00100704736
:100A80004FEA410C7FEA6C5C02D150EA013C07D18D
:100A90004FEA430C7FEA6C5CD6D152EA033CD3D0D8
:100AA0005DF8040B704700BF8446104662468C46D2
:100AB0001946634600E000BF01B5FFF7B7FF002805
:100AC00048BF10F1000F01BD4DF808EDFFF7F4FF2E
:100AD0000CBF012000205DF808FB00BF4DF808EDB9
:100AE000FFF7EAFF34BF012000205DF808FB00BFDC
:100AF0004DF808EDFFF7E0FF94BF012000205DF8FE
:100B000008FB00BF4DF808EDFFF7CEFF94BF0120B2
:100B100000205DF808FB00BF4DF808EDFFF7C4FFAB
:100B200034BF012000205DF808FB00BF4FEA410CF4
:100B30007FEA6C5C02D150EA013C0AD14FEA430CD7
:100B40007FEA6C5C02D152EA033C02D14FF0000014
:100B500070474FF0010070474FEA410212F5001252
:100B600015D211D56FF47873B3EB625212D94FEAF4
:100B7000C12343F0004343EA505311F0004F23FADE
:100B800002F018BF404270474FF00000704750EA33
:100B9000013005D111F0004008BF6FF000407047F0
:100BA0004FF00000704700BF4A0011D212F500124A
:100BB00011D20DD56FF47873B3EB62520ED44FEAB5
:100BC000C12343F0004343EA505323FA02F0704735
:100BD0004FF00000704750EA013002D14FF0FF3073
:100BE00070474FF00000704753B94AB9002908BF59
:100BF00000281CBF4FF0FF314FF0FF3000F06AB902
:100C0000ADF1080C6DE904CE00F006F8DDF804E063
:100C1000DDE9022304B070472DE9F047089D0C463A
:100C2000002B4ED194468C458646B2FA82F262D9A8
:100C30004AB1C2F12003914020FA03F30CFA02FCFE
:100C4000194300FA02FE4FEA1C471FFA8CF6B1FB6B
:100C5000F7F44FEA1E4307FB141143EA014304FB78
:100C600006F199420AD91CEB030304F1FF3080F02E
:100C70001281994240F20F81023C6344591A1FFAD3
:100C80008EF3B1FBF7F007FB101143EA014300FBC1
:100C900006F69E420AD91CEB030300F1FF3180F0F7
:100CA000FC809E4240F2F980634402389B1B40EA7C
:100CB000044000211DB1D3400022C5E90032BDE847
:100CC000F0878B4205D90DB1C5E900010021084626
:100CD000F5E7B3FA83F1002946D1A34202D390424B
:100CE000C0F0F080861A64EB03030120002DE6D0EB
:100CF000C5E90063E3E7002A40F09080A1EB0C0413
:100D00004FEA1C481FFA8CF70121B4FBF8F64FEAB2
:100D10001E4308FB164443EA044307FB06F09842CF
:100D200008D91CEB030306F1FF3402D2984200F20B
:100D3000CD8026461C1A1FFA8EF3B4FBF8F008FB90
:100D4000104443EA044300FB07F79F4208D91CEB19
:100D5000030300F1FF3402D29F4200F2B08020462C
:100D6000DB1B40EA0640A5E7C1F120068B4022FAD2
:100D700006F71F4320FA06FC04FA01F343EA0C03CA
:100D8000F44000FA01F8380C4FEA1349B4FBF0FEC6
:100D90001FFA87FC00FB1E4449EA04440EFB0CF9D1
:100DA000A14502FA01F20AD93C190EF1FF3A80F08E
:100DB0008480A14540F28180AEF1020E3C44A4EB58
:100DC00009041FFA83F9B4FBF0F300FB134449EA6A
:100DD000044403FB0CFCA44507D93C1903F1FF3084
:100DE00067D2A44565D9023B3C4443EA0E40A0FBD0
:100DF0000293A4EB0C049C42CE469C4651D34ED0A9
:100E000055B1B8EB0E0364EB0C0404FA06F6CB40C4
:100E10001E43CC40C5E90064002150E7C2F1200325
:100E200020FA03F10CFA02FC24FA03F394400C4379
:100E30004FEA1C4800FA02FE1FFA8CF7B3FBF8F0E9
:100E400008FB1031230C43EA014300FB07F19942F0
:100E500008D91CEB030300F1FF362CD299422AD9A2
:100E6000023863445B1AA4B2B3FBF8F108FB1133F8
:100E700044EA034401FB07F3A34208D91CEB040432
:100E800001F1FF3613D2A34211D902396444E41AA6
:100E900041EA004139E70446F0E6084606E7C8455E
:100EA000AED2B9EB020E63EB070C0138A8E731466E
:100EB000EDE7034699E73046D4E7D6467FE763443B
:100EC00002384DE70646234608460FE7023E6344D4
:100ED00030E700BF704700BF80B5DAB004AF07F558
:100EE000AC73A3F5AA73186007F17C03D922002123
:100EF000184610F016FC07F5AC73A3F5A873184656
:100F000074231A46002110F00CFC4FF47A7003F0A1
:100F1000AFF800F07BFD024607F1080311461846C2
:100F200010F00BFD07F108031033002200214B489D
:100F300003F049FA07F17C031946494803F03DF9EB
:100F40000346002B474B1B7803F00703072B0BD0FE
:100F5000444B1B7803F00703062B05D0414B1B784D
:100F600003F00703052B1FD13F4B1B78002B3AD111
:100F70003D4B01221A7007F5AC73A3F5A8731A69EB
:100F800007F5AC73A3F5A8735A66384B1B781A465D
:100F9000364B5B781946354B9B7800930B463449AA
:100FA000344810F05BFB1EE02F4B1B78002B1AD04F
:100FB0002D4B00221A7007F5AC73A3F5A8731A69BC
:100FC00007F5AC73A3F5A8739A66284B1B781A46ED
:100FD000264B5B781946254B9B7800930B4624499A
:100FE000244810F03BFB07F5AC73A3F5A8731B690D
:100FF00007F1080202F1540007F1080202F1500162
:1010000007F108025C32029207F10802583201929D
:10101000009303460A469FED181AF2EE040A9FED6C
:10102000170A0021164802F083FE07F1080303F1B6
:10103000700207F108036C331946124802F036FDBE
:1010400007F108031946104803F09AF802210F48E7
:1010500008F04BFD962003F00BF863E7041900201D
:10106000D8170020C9040020CA04002074040020FE
:10107000F8390108CC04002033335340000000004D
:1010800088040020B4040020A818002000000240BA
:1010900080B582B000AF786039607B68012B12D1D7
:1010A0003B684FF6FF7293420DD10949094802F09F
:1010B00015FE4FF47A7338220749084802F0DEFC27
:1010C000074803F035FC00BF0837BD4680BD00BFB0
:1010D000681E002088040020B01E0020B4040020F8
:1010E000C804002080B500AF4FF6FF710120FFF764
:1010F000CFFF80BD80B584B000AFF8607B600B4649
:10110000FB721346BB72FB7A283B232B67D801A2E4
:1011100052F823F0DF110008A5110008DF110008C4
:10112000DF110008DF110008DF110008DF110008DF
:10113000DF110008DF110008DF110008DF110008CF
:10114000DF110008DF110008DF110008DF110008BF
:10115000DF110008DF110008DF110008DF110008AF
:10116000DF110008DF110008DF110008DF1100089F
:10117000DF110008DF110008DF110008DF1100088F
:10118000DF110008DF110008DF110008DF1100087F
:10119000DF110008DF110008AF110008BF110008BF
:1011A000CF110008BB7A184602F062FF17E0BB7A45
:1011B0001A464FF400710C4808F07EFC0FE0BB7A31
:1011C0001A464FF48051094808F076FC07E0BB7AD4
:1011D0001A464FF48041054808F06EFC00BF012319
:1011E00018461037BD4680BD000C02400004024086
:1011F00080B584B000AFF8607B600B46FB7213468D
:10120000BB72FB7A143B0C2B44D801A252F823F09A
:10121000991200089512000895120008451200085E
:10122000651200087D12000895120008951200084A
:1012300095120008951200089512000895120008F2
:1012400057120008BB7A9AB241F288337968154880
:101250000AF08FFE21E0BB7A1A464A21F86806F0B0
:1012600043FC1AE0FB681B681B781A464921F868A2
:1012700006F03AFC012002F0FBFE0EE0012002F035
:10128000F7FEFB681B685B781A464921F86806F090
:101290002BFC02E0002301E000BF012318461037B9
:1012A000BD4680BD241F002080B584B002AF7860A9
:1012B000164B174A1749184805F090F8164806F0DB
:1012C000E4FB154804F0F9FF0021134806F0ECFB9D
:1012D000124B1979114B5B79104A126801920093F5
:1012E0000B46002220210C4804F06EFF0A4805F04E
:1012F00057F84FF4FA6002F0BBFE074804F01AF901
:101300004FF4FA7002F0B4FE00BFF6E7F5100008E3
:10131000F1110008DC490108E00400208C490108B3
:1013200080B582B000AF786039603968786810F0B5
:1013300020FA034618460837BD4680BD2DE9F04F18
:10134000ADF5137D22AF07F5E073A3F5AE7318601A
:10135000C94800F09DFC07F1E003D922002118469E
:1013600010F0DFF907F5E073A3F5AA7318467423AC
:101370001A46002110F0D5F9012387F8BF31012367
:1013800087F8BE31002387F8BD3107F1E0034B3306
:10139000BA4A14469C4604F1300E654626460FCEE6
:1013A00028606960AA60EB6010340CF1100C744581
:1013B000F3D16246234603CB106051601B78137251
:1013C00007F1E0033733AE4A1C46134607CB2060D3
:1013D0006160A2601B78237307F1E003C333A94A5D
:1013E0001068186092889A8007F1E003AF33A6492D
:1013F0001A460B4603CB1060516019889B78118107
:101400009372002387F8BC3107F1E00319469A482C
:1014100000F02AFE07F1E0030F331946964800F06A
:101420008DFE07F1E0031E331946934800F06CFF70
:1014300007F1E0032D3319468F4801F059F907F100
:101440006B0319468C4801F0A3F807F16A031946AB
:10145000894801F031F807F1E00319468B4802F0A2
:101460008FFE322002F004FE07F16C031946884813
:1014700002F0A3FE0346002B97F8BD31032B00F2C8
:10148000708201A252F823F0991400088115000817
:10149000A1160008F116000807F1E0030F337D499B
:1014A0001846FFF73DFF0346002B09D107F1E00383
:1014B0000F3379491846FFF733FF0346002B1CD042
:1014C00007F1E0031E3373491846FFF729FF03466F
:1014D000002B09D107F1E0031E336F491846FFF7CF
:1014E0001FFF0346002B08D007F5E073A3F2551346
:1014F0001B78002B01D0012300E00023002B00F01B
:10150000328207F1E003373319465B4800F000FDF3
:10151000034687F8BB31584801F052FE564801F0A7
:101520008BFE554801F0C4FE534801F0FDFE5248C1
:1015300001F036FF97F8BB31002B40F0148297F88A
:10154000BE31022B08D197F8B83119464A4801F04C
:10155000E9FB012387F8BE3197F8BF31002B0BD18F
:1015600097F8B8311946444801F002FB424801F0AF
:1015700037FA012387F8BF31012387F8BD31F2E143
:1015800007F1E0030F3343491846FFF7C9FE03464E
:10159000002B09D107F1E0030F333F491846FFF74D
:1015A000BFFE0346002B20D007F1E0031E3339496C
:1015B0001846FFF7B5FE0346002B09D107F1E003FB
:1015C0001E3335491846FFF7ABFE0346002B0CD0FF
:1015D00007F5E073A3F255131B78002B05D097F89D
:1015E000BF31002B01D0012300E00023002B00F0CD
:1015F000BC810021204800F0E3FC01211E4800F0DE
:10160000DFFC07F1E003D83319461B4801F078F9F5
:10161000034687F8BF3197F8BF31002B21D197F8E7
:10162000B81101231D4A144801F040FA034687F817
:10163000BF3197F8BF31002B09D197F8B83119465F
:101640000D4801F061FD022387F8BD318DE197F867
:10165000B8311946084801F08BFA074801F0C0F983
:1016600083E197F8B8311946034801F081FA02483E
:1016700001F0B6F979E100BF60050020083A0108E1
:10168000443A0108543A01085C3A0108D81700208E
:10169000A81800202842010834420108683A0108CD
:1016A00097F8BF31002B40F0628197F8BE31022BD2
:1016B00000F05D8197F8B81107F1E0034B331A464B
:1016C000AD4801F0B1FA034687F8BE3197F8BE3154
:1016D000022B03D1032387F8BD3148E197F8B831D5
:1016E0001946A54801F01EFB002387F8BD313EE1F5
:1016F00007F1E0034B3319469F4801F089F8034690
:1017000087F8BE3197F8BC31013387F8BC3197F8C0
:10171000BE31022B10D097F8BC31032B0CD900231B
:1017200087F8B73197F8B8311946934801F0FAFABB
:10173000002387F8BD311CE197F8BE31022B40F041
:101740001881012387F8B731002387F8BC3107F5EA
:10175000E073A3F5AA731B693B6607F5E073A3F575
:10176000AA735B691846FEF7EFFEC7E9160107F595
:10177000E073A3F5AA739B691846FEF7E5FEC7E977
:10178000140107F5E073A3F5AA73DB691846FEF7A9
:10179000DBFEC7E9120107F5E073A3F5AA731B6A24
:1017A0001846FEF7D1FEC7E9100107F5E073A3F56F
:1017B000AA735B6A1846FEF7C7FEC7E90E0107F574
:1017C000E073A3F5AA739B6A1846FEF7BDFEC7E94E
:1017D0000C0107F5E073A3F5AA73DB6A1846FEF760
:1017E000B3FEC7E90A0107F5E073A3F5AA731B6B03
:1017F0001846FEF7A9FEC7E9080107F5E073A3F54F
:10180000AA735B6B1846FEF79FFEC7E9060107F552
:10181000E073A3F5AA739B6B1846FEF795FE82460C
:101820008B4607F5E073A3F5AA73DB6B1846FEF74A
:101830008BFE8046894607F5E073A3F5AA7393F8FB
:1018400040307B6107F5E073A3F5AA7393F850303D
:101850003B6107F5E073A3F5AA735B6D1846FEF7CD
:1018600073FE04460D4607F5E073A3F5AA739A6D5F
:10187000FA6007F5E073A3F5AA73D96DB96007F5AF
:10188000E073A3F5AA731E6E7E6007F5E073A3F5FF
:10189000AA73586E07F5E073A3F5AA73996E07F55E
:1018A000E073A3F5AA73DA6E07F5E073A3F5AA73E4
:1018B0001B6F07F16C0620931F921E911D907A6892
:1018C0001C92B9681B91FA681A92CDE918453A69D9
:1018D00017927A691692CDE91489CDE912AB97ED8A
:1018E000067B8DED107B97ED087B8DED0E7B97EDE4
:1018F0000A7B8DED0C7B97ED0C7B8DED0A7B97EDD4
:101900000E7B8DED087B97ED107B8DED067B97EDC3
:10191000127B8DED047B97ED147B8DED027B97EDB3
:10192000167B8DED007B3B6E3246144914480FF058
:1019300095FE97F8B81107F1E00303F1C302FF2306
:101940000093104B0C4801F069FA0346052B97F8F9
:10195000B81107F1E003C3331A46074801F01AFB38
:1019600007E000BF50E500BF4EE500BF4CE500BFFB
:101970004AE500BF48E500BF60050020703A010855
:10198000600D00209015002080B582B000AF786017
:1019900039607B68012B08D13B684FF6FF72934298
:1019A00003D10449044800F00FF900BF0837BD46D1
:1019B00080BD00BFA02000206005002080B500AFE2
:1019C0004FF6FF710120FFF7DFFF80BD80B483B0C9
:1019D00000AF78600B46FB70FB781B09DBB21A4640
:1019E000094B995C7B685A1C7A600A461A70FB782E
:1019F00003F00F03044AD25C7B681A7000BF0C37F7
:101A0000BD465DF8047B70474042010890B583B045
:101A100000AF07F049F80346DBB27B6007F044F8FB
:101A200003461D4A1B0A13601C4C07F049F8034685
:101A300023607B68232B09D97B683D2B28BF3D237E
:101A4000DBB23D33DAB2144BDA710BE07B68092B61
:101A500001D9412200E030227B68DBB21344DAB2C4
:101A60000D4BDA7107F014F803461B0CDBB2194674
:101A70000B48FFF7ABFF07F00BF80346DBB2194644
:101A80000848FFF7A3FF044B00221A73024B1846C5
:101A90000C37BD4690BD00BF141900201719002057
:101AA0001C1900201E19002080B500AF094802F063
:101AB00016FB094802F013FB084802F010FB084827
:101AC00002F042FB074802F03FFB04F051F900BF6F
:101AD00080BD00BF90160020B4160020D81600204C
:101AE000D8170020A818002080B500AFFFF7DCFF52
:101AF00000BF80BD80B584B002AF786039607B687C
:101B0000012B36D13B684FF6FF72934231D1182337
:101B10000193012300934FF40073184A18491948A0
:101B200002F0BCFA18230193012300934FF40073D1
:101B3000154A1649164802F0B1FA182301930123F9
:101B400000934FF40073134A1349144802F0A6FAA5
:101B5000134BD9220121134802F0DBFA124B7422F5
:101B60000121124802F0D5FA05221149114802F06C
:101B700009FC00BF0837BD4680BD00BF4C3D0108D1
:101B80003D13000890160020543D0108D90E0008AE
:101B9000B41600205C3D0108A9120008D8160020E8
:101BA000FC160020D817002034180020A8180020A8
:101BB000041F00200419002080B500AF4FF6FF710C
:101BC0000120FFF797FF80BD80B582B000AF78603D
:101BD00039607B6818464FF400631A4600210FF005
:101BE000A0FD7B6803F500634FF4006200211846F6
:101BF0000FF097FD7B6803F500637A6802F5805269
:101C000013607B687A6802F5805253607B6803F545
:101C1000815304333968184602F03BFE7B6803F5B4
:101C200081530833184602F083FE7B6803F5805326
:101C30001A460023D362124B1B781946114A3B689F
:101C400042F831300E4B1B780E4ADB0013447A68A1
:101C50005A600B4B1B780133DAB2094B1A70084BF0
:101C60001B78032B02D9064B00221A70064907483D
:101C700002F0DAFC7B6818460837BD4680BD00BF1D
:101C80003C19002024190020693A0008053A000890
:101C900080B586B002AF78600023FB730123019307
:101CA0000A2300934FF47A7304228F49786801F075
:101CB000B3FB41F288320021786801F0DAFC034678
:101CC000FB73012301930A2300934FF47A730422D8
:101CD0008549786801F0A0FB41F2883200217868DC
:101CE00001F0C7FC0346FB73012301930A23009311
:101CF0004FF47A7304227C49786801F08DFB41F23D
:101D000088320021786801F0B4FC0346FB7301239C
:101D100001930A2300934FF47A730B227349786876
:101D200001F07AFB41F288320021786801F0A1FCD1
:101D30000346FB7343F6982002F09AF901230193BE
:101D40000A2300934FF47A7304226749786801F0FC
:101D500063FB41F288320021786801F08AFC034677
:101D6000FB73012301930A2300934FF47A73042237
:101D70005D49786801F050FB41F2883200217868B3
:101D800001F077FC0346FB73012301930A230093C0
:101D90004FF47A7304225449786801F03DFB41F214
:101DA00088320021786801F064FC0346FB7301234C
:101DB00001930A2300934FF47A7307224C49786801
:101DC00001F02AFB41F288320021786801F051FCD1
:101DD0000346FB73012301930A2300934FF47A73A4
:101DE00006224449786801F017FB41F2883200214D
:101DF000786801F03EFC0346FB73012301930A233C
:101E000000934FF47A730B223B49786801F004FB8E
:101E100041F288320021786801F02BFC0346FB7305
:101E2000012301930A2300934FF47A730C22334960
:101E3000786801F0F1FA41F288320021786801F007
:101E400018FC0346FB73012301930A2300934FF40C
:101E50007A7318222A49786801F0DEFA41F2883252
:101E60000021786801F005FC0346FB730123019310
:101E70000A2300934FF47A730B222249786801F009
:101E8000CBFA41F288320021786801F0F2FB034678
:101E9000FB73012301930A2300934FF47A730B22FF
:101EA0001949786801F0B8FA41F28832002178685F
:101EB00001F0DFFB0346FB73012301930A23009328
:101EC0004FF47A730C221149786801F0A5FA41F2B7
:101ED00088320021786801F0CCFB0346FB73FB7B62
:101EE00018461037BD4680BD5042010858420108CF
:101EF0000C430108144301086442010870420108C0
:101F0000804201089C420108A8420108B44201082D
:101F100080B592B002AF78603960002387F83F3017
:101F20000023FB6007F110032E22002118460FF05A
:101F3000F8FB07F10C033A68204918460FF08EFBB6
:101F400007F10C031846FEF793F903469AB207F11E
:101F50000C01012301930A2300934FF47A737868EC
:101F600001F05AFA4FF4FA620021786801F081FB1F
:101F7000034687F83F3097F83F30002B0FD17B683E
:101F800003F58153083379687A6802F58052928AA2
:101F900092B2184602F0D8FC0346002B01D0012370
:101FA00000E00023002B02D0012387F83F3097F890
:101FB0003F3018464037BD4680BD00BF743D010824
:101FC00080B58AB002AF78600B46FB700023FB77C8
:101FD0000023BB6007F10C0300221A605A609A606C
:101FE000DA60FA7807F108031E4918460FF036FB4D
:101FF00007F108031846FEF73BF903469AB207F1CA
:102000000801012301930A2300934FF47A7378683F
:1020100001F002FA41F288320021786801F029FBD0
:102020000346FB77FB7F002B0FD17B6803F58153C1
:10203000083379687A6802F58052928A92B218461B
:1020400002F082FC0346002B01D0012300E00023B4
:10205000002B01D00123FB77FB7F18462037BD46BC
:1020600080BD00BF903D010880B588B004AF7860A6
:102070003960012301930A2300934FF47A730A22F3
:102080002B49786801F0C8F94FF4FA6200217868AA
:1020900001F0EFFA0346FB73FB7B002B11D17B6849
:1020A00003F58153083379687A6802F58052928A81
:1020B00092B2184602F048FC0346002B01D10123DE
:1020C00000E00023002B24D07B6803F5815008300A
:1020D00079687B6803F580539B8A9AB23B680293C8
:1020E0000D2301933A230093124B02F053FC034655
:1020F000002B0CBF01230023DBB2002B13D13B6864
:102100000D491A460B4603CB106051601B781372C1
:102110000AE03B6808491A460B4603CB1060516041
:102120001B78137200E000BF1037BD4680BD00BFB2
:10213000C4420108A03D0108A83D010890B589B03E
:1021400004AF78603960012301930A2300934FF4B0
:102150007A730A226149786801F05EF94FF4FA62F5
:102160000021786801F085FA0346FB73FB7B002BA6
:1021700011D17B6803F58153083379687A6802F5D9
:102180008052928A92B2184602F0DEFB0346002B80
:1021900001D1012300E00023002B00F093807B6835
:1021A00003F58150083079687B6803F580539B8A7A
:1021B0009AB23B6802930D2301932C230093484B62
:1021C00002F0E8FB0346002B0CBF01230023DBB227
:1021D000002B6DD03B681B78303B072B5DD801A2EC
:1021E00052F823F0052200081522000829220008D1
:1021F0003D220008552200086522000877220008C9
:10220000872200083B6837491A460B4603CB10600B
:1022100051604CE03B6834491A460B4603CB1060D2
:1022200051601B78137242E03B6830491A460B46F6
:1022300003CB106051601B88138138E03B682C4948
:102240001A460B4603CB1060516019889B781181A8
:1022500093722CE03B6827491A460B4603CB10606B
:10226000516024E03B68244A1C46134607CB20609B
:102270006160A2601BE03B6820491A460B4603CB15
:102280001060516013E03B681D491A460B4603CBB2
:10229000106051601B78137209E03B6819491A46B7
:1022A0000B4603CB106051601B78137200BF12E025
:1022B0003B6814491A460B4603CB106051601B78EB
:1022C000137208E03B680F491A460B4603CB1060B7
:1022D00051601B7813721437BD4690BDD04201087F
:1022E000B43D0108BC3D0108C43D0108D03D0108D2
:1022F000DC3D0108E83D0108F03D0108FC3D010816
:10230000043E0108A83D010890B589B004AF78608B
:102310003960012301930A2300934FF47A730B224F
:102320005B49786801F078F84FF4FA620021786828
:1023300001F09FF90346FB73FB7B002B11D17B68F7
:1023400003F58153083379687A6802F58052928ADE
:1023500092B2184602F0F8FA0346002B01D101238D
:1023600000E00023002B00F087807B6803F581509C
:10237000083079687B6803F580539B8A9AB23B6882
:1023800002930D2301932C230093424B02F002FB96
:102390000346002B0CBF01230023DBB2002B61D0CE
:1023A0003B681B78303B062B51D801A252F823F032
:1023B000CD230008DD230008F123000805240008D0
:1023C0001D2400082D2400083F2400083B683249E2
:1023D0001A460B4603CB1060516042E03B682F4920
:1023E0001A460B4603CB106051601B78137238E01D
:1023F0003B682B491A460B4603CB106051601B8883
:1024000013812EE03B6827491A460B4603CB106028
:10241000516019889B781181937222E03B682249B0
:102420001A460B4603CB106051601AE03B681F4A06
:102430001C46134607CB20606160A26011E03B6838
:102440001B491A460B4603CB1060516009E03B68FC
:1024500018491A460B4603CB106051601B78137263
:1024600000BF12E03B6813491A460B4603CB1060CD
:1024700051601B78137208E03B680E491A460B4600
:1024800003CB106051601B7813721437BD4690BDAA
:10249000DC420108103E0108BC3D0108C43D0108B2
:1024A000D03D0108DC3D0108E83D0108F03D010890
:1024B000FC3D0108A83D010880B58AB004AF7860F2
:1024C00039600023FB6007F1100300221A609A8034
:1024D0003B6802221A70012301930A2300934FF4F0
:1024E0007A730B222849786800F096FF4FF4FA625D
:1024F0000021786801F0BDF80346FB75FB7D002BD9
:1025000011D17B6803F58153083379687A6802F545
:102510008052928A92B2184602F016FA0346002BB5
:1025200001D1012300E00023002B29D07B6803F5B3
:102530008150083079687B6803F580539B8A9AB292
:1025400007F10C0302932C2301933A2300930F4BC2
:1025500002F020FA0346002B0CBF01230023DBB25C
:10256000002B0DD03B7B302B02D0312B04D007E069
:102570003B6800221A7003E03B6801221A7000BF1A
:1025800000BF1837BD4680BDE8420108183E01086B
:1025900080B58AB004AF786039600023BB6007F172
:1025A0000C0300221A605A60C3F807203B6800221F
:1025B0001A70012301930A2300934FF47A730A22BD
:1025C0004549786800F028FF41F288320021786898
:1025D00001F04FF80346FB75FB7D002B11D17B68A2
:1025E00003F58153083379687A6802F58052928A3C
:1025F00092B2184602F0A8F90346002B01D101233C
:1026000000E00023002B62D07B6803F58150083086
:1026100079687B6803F580539B8A9AB207F10803B7
:1026200002932C2301933A2300932C4B02F0B2F92E
:102630000346002B0CBF01230023DBB2002B46D046
:1026400007F1080326491846FEF76AFE0346002BE9
:1026500014BF01230023DBB2002B03D03B68002210
:102660001A7034E007F108031E491846FEF758FEB9
:102670000346002B14BF01230023DBB2002B03D041
:102680003B6801221A7022E007F108031649184638
:10269000FEF746FE0346002B14BF01230023DBB2E6
:1026A000002B03D03B6802221A7010E007F10803E8
:1026B0000E491846FEF734FE0346002B14BF0123D3
:1026C0000023DBB2002B02D03B6803221A7000BF4C
:1026D0001837BD4680BD00BFF4420108203E010806
:1026E000283E0108343E0108383E0108403E0108FA
:1026F00080B58AB004AF786039600023FB6007F1D1
:10270000100300221A609A800023FB7501230193B5
:102710000A2300934FF47A7308223949786800F04D
:102720007BFE4FF4FA620021786800F0A2FF0346B6
:10273000BB75BB7D002B11D17B6803F5815308333A
:1027400079687A6802F58052928A92B2184602F04D
:10275000FBF80346002B01D1012300E00023002BEE
:1027600041D07B6803F58150083079687B6803F5B8
:1027700080539B8A9AB207F10C0302932C23019396
:102780003A2300931F4B02F005F90346002B0CBFC0
:1027900001230023DBB2002B1BD007F10C031846EA
:1027A0000EF0BAF90346FB7597F91730622B02DD7C
:1027B0000023FB7505E0FB7D5B00DBB2713BDBB208
:1027C000FB7597F917301A460F4938680EF046FF27
:1027D00012E03B680D491A460B4603CB106051606E
:1027E0001B78137208E03B6808491A460B4603CB76
:1027F000106051601B7813721837BD4680BD00BF52
:1028000000430108443E01084C3E0108A83D010870
:1028100080B5A0B004AF78603960012387F86E30CE
:10282000032387F86F300023BB6007F10C0360229D
:10283000002118460EF075FF012301930A2300932F
:102840004FF47A7312222C49786800F0E5FD4FF4BA
:10285000FA520021786800F00CFF034687F86E30CA
:1028600097F86E30002B11D17B6803F58153083344
:1028700079687A6802F58052928A92B2184602F01C
:1028800063F80346002B01D1012300E00023002B55
:102890002CD07B6803F58150083079687B6803F59C
:1028A00080539B8A9AB207F1080302932223019373
:1028B00022230093114B02F06DF80346002B0CBF4E
:1028C00001230023DBB2002B10D007F108031946C7
:1028D0003868FEF725FD0346002B14BF01230023B3
:1028E000DBB2002B02D0022387F86F3097F86F30ED
:1028F00018467037BD4680BD3C430108743E010850
:1029000080B58AB004AF786039600123BB750123BC
:10291000FB750023FB6007F1100300221A609A8008
:10292000032303930A230293022301932B2300938F
:102930004FF47A730F222849786800F0CFFD42F2F5
:1029400010720021786800F094FE0346BB75BB7DD1
:10295000002B11D17B6803F58153083379687A68BD
:1029600002F58052928A92B2184601F0EDFF0346BA
:10297000002B01D1012300E00023002B26D07B682F
:1029800003F58150083079687B6803F580539B8A92
:102990009AB207F10C0302930A2301933A2300939E
:1029A0000E4B01F0F7FF0346002B0CBF0123002361
:1029B000DBB2002B0AD00023FB7507F10C0318468D
:1029C0000EF0AAF80346DAB23B681A70FB7D18468F
:1029D0001837BD4680BD00BF1C430108843E010876
:1029E00080B58AB004AF78600123BB750123FB7505
:1029F0000023FB6007F1100300221A609A80032372
:102A000003930A230293022301932B2300934FF491
:102A10007A730E222349786800F060FD42F210724A
:102A20000021786800F025FE0346BB75BB7D002BB6
:102A300011D17B6803F58153083379687A6802F510
:102A40008052928A92B2184601F07EFF0346002B14
:102A500001D1012300E00023002B1DD07B6803F58A
:102A60008150083079687B6803F580539B8A9AB25D
:102A700007F10C0302930A2301933A2300930A4BB4
:102A800001F088FF0346002B0CBF01230023DBB2BB
:102A9000002B01D00023FB75FB7D18461837BD467F
:102AA00080BD00BF2C430108943E010880B59CB056
:102AB00002AFF8607A601A460B46FB721346BB728F
:102AC000012387F86630012387F8673000237B6194
:102AD00007F118034C22002118460EF022FEFA7A64
:102AE000BB7A07F1140000937B6820490EF0B6FD15
:102AF00007F114031846FDF7BBFB03469AB207F132
:102B00001401012301930A2300934FF47A73F868A8
:102B100000F082FC4FF4FA520021F86800F0A9FDA1
:102B2000034687F8663097F86630002B11D1FB68B2
:102B300003F581530833F968FA6802F58052928AE6
:102B400092B2184601F000FF0346002B01D1012389
:102B500000E00023002B02D0002387F8673097F8AD
:102B6000673018466837BD4680BD00BFA03E0108EB
:102B700080B59AB002AF78600B46FB70012387F8EE
:102B80005E30012387F85F300023FB6007F11003FC
:102B90004C22002118460EF0C4FDFA7807F10C0310
:102BA000204918460EF05AFD07F10C031846FDF7B0
:102BB0005FFB03469AB207F10C01012301930A233C
:102BC00000934FF47A73786800F026FC4FF4FA52C1
:102BD0000021786800F04DFD034687F85E3097F8D5
:102BE0005E30002B11D17B6803F58153083379687F
:102BF0007A6802F58052928A92B2184601F0A4FED9
:102C00000346002B01D1012300E00023002B02D05A
:102C1000002387F85F3097F85F3018466037BD466D
:102C200080BD00BFBC3E010880B5B0B004AFF86005
:102C30000B467A60FB72012387F8AE30012387F8D8
:102C4000AF300023BB6107F11C039222002118461C
:102C50000EF067FD00233B6100233B75FA7A07F114
:102C600018007B682C490EF0F9FC07F11803184690
:102C7000FDF7FEFA03469AB207F118010323039306
:102C80000A230293022301932B2300934FF47A73B8
:102C9000F86800F023FC47F230520021F86800F099
:102CA000E8FC034687F8AE3097F8AE30002B2CD105
:102CB000FB6803F581500830F968FB6803F5805321
:102CC0009B8A9AB207F1100302930A2301932C23E3
:102CD0000093124B01F05EFE0346002B0CBF012354
:102CE0000023DBB2002B10D007F110030C4918466B
:102CF000FEF716FB0346002B14BF01230023DBB2B3
:102D0000002B02D0022387F8AF3097F8AF30184677
:102D1000B037BD4680BD00BFD03E0108743E0108FB
:102D2000F03E010880B5AEB004AF78600B46FB7092
:102D3000012387F8A630012387F8A73000233B61E1
:102D400007F114039222002118460EF0EAFC00233A
:102D5000BB6000233B73FA7807F110032C49184637
:102D60000EF07CFC07F110031846FDF781FA0346CC
:102D70009AB207F11001032303930A23029302235B
:102D800001932B2300934FF47A73786800F0A6FB2D
:102D900042F210720021786800F06BFC034687F85D
:102DA000A63097F8A630002B2CD17B6803F5815014
:102DB000083079687B6803F580539B8A9AB207F1E3
:102DC000080302930A2301932C230093114B01F073
:102DD000E1FD0346002B0CBF01230023DBB2002BD7
:102DE00010D007F108030C491846FEF799FA03467C
:102DF000002B14BF01230023DBB2002B02D00323DE
:102E000087F8A73097F8A7301846A837BD4680BD89
:102E1000F43E01080C3F0108F03E010890B5AFB048
:102E200004AFF8607A603B600B46FB72012387F8C1
:102E3000A630012387F8A73000233B6107F1140374
:102E40009222002118460EF06CFCFC7A7868FDF79F
:102E50000FFA034607F1100022464B490EF0FEFB25
:102E600007F110031846FDF703FA03469AB207F17B
:102E70001001022301933E2300934FF47A73F86804
:102E800000F0CAFA4FF47A720021F86800F0F1FB02
:102E9000034687F8A63097F8A630002B6ED1FB6862
:102EA00003F581500830F968FB6803F580539B8A6D
:102EB0009AB2002302930A2301932C230093334BED
:102EC00001F068FD0346002B0CBF01230023DBB299
:102ED000002B53D07868FDF7CBF903469AB2032351
:102EE00003930A230293052301932B2300934FF4AA
:102EF0007A737968F86800F0F1FA4FF47A72002179
:102F0000F86800F0B6FB034687F8A63097F8A630BD
:102F1000002B11D1FB6803F581530833F968FA6877
:102F200002F58052928A92B2184601F00DFD0346D6
:102F3000002B01D1012300E00023002B1ED0FB68F1
:102F400003F581500830F968B7F8B83002933B6850
:102F500001930D2300930A230D4A01F0E3FD03467C
:102F6000002B0CBF01230023DBB2002B03D0052371
:102F700087F8A73002E0002387F8A73097F8A7303A
:102F80001846AC37BD4690BD183F0108303F0108D8
:102F9000343F010890B5B1B004AFF8600B467A60D9
:102FA000FB72012387F8AE30012387F8AF3000238E
:102FB000BB6107F11C039222002118460EF0B1FB01
:102FC00000233B6100233B75FC7A7868FDF750F9DC
:102FD000034607F11800224647490EF03FFB07F170
:102FE00018031846FDF744F903469AB207F1180191
:102FF000022301933E2300934FF47A73F86800F0A4
:103000000BFA4FF47A720021F86800F032FB0346A5
:1030100087F8AE3097F8AE30002B67D1FB6803F528
:1030200081500830F968FB6803F580539B8A9AB297
:10303000002302930A2301932C2300932F4B01F0CA
:10304000A9FC0346002B0CBF01230023DBB2002B9D
:103050004CD07868FDF70CF903469AB2032303932A
:103060000A230293012301932B2300934FF47A73D5
:103070007968F86800F032FA42F210720021F868BC
:1030800000F0F7FA034687F8AE3097F8AE30002B21
:103090002CD1FB6803F581500830F968FB6803F513
:1030A00080539B8A9AB207F1100302930A2301937B
:1030B0002C230093124B01F06DFC0346002B0CBF38
:1030C00001230023DBB2002B10D007F110030D49C0
:1030D0001846FEF725F90346002B14BF01230023F1
:1030E000DBB2002B02D0002387F8AF3097F8AF3067
:1030F0001846B437BD4690BD483F0108303F01082F
:10310000603F0108F03E010880B59AB002AF7860D8
:103110000B46FB70012387F85E30012387F85F3090
:103120000023FB6007F110034C22002118460EF02B
:10313000F8FAFA7807F10C03204918460EF08EFAD7
:1031400007F10C031846FDF793F803469AB207F10E
:103150000C01012301930A2300934FF47A737868DA
:1031600000F05AF94FF4FA520021786800F081FA21
:10317000034687F85E3097F85E30002B11D17B68EC
:1031800003F58153083379687A6802F58052928A90
:1031900092B2184601F0D8FB0346002B01D101235F
:1031A00000E00023002B02D0002387F85F3097F85F
:1031B0005F3018466037BD4680BD00BF703F0108D4
:1031C00080B586B002AF78600123BB730123FB7327
:1031D000012301930A2300934FF47A731D221549AA
:1031E000786800F019F94FF4FA620021786800F06D
:1031F00040FA0346BB73BB7B002B11D17B6803F500
:103200008153083379687A6802F58052928A92B2C3
:10321000184601F099FB0346002B01D1012300E081
:103220000023002B01D00023FB73FB7B18461037D3
:10323000BD4680BD5043010880B586B002AF7860BE
:103240000123BB730123FB73012301930A23009322
:103250004FF47A731B221549786800F0DDF84FF4BB
:10326000FA620021786800F004FA0346BB73BB7B66
:10327000002B11D17B6803F58153083379687A6894
:1032800002F58052928A92B2184601F05DFB034625
:10329000002B01D1012300E00023002B01D00023EB
:1032A000FB73FB7B18461037BD4680BD7043010899
:1032B00080B586B002AF78600123BB730123FB7336
:1032C000012301930A2300934FF47A7320221549B6
:1032D000786800F0A1F84FF4FA620021786800F0F5
:1032E000C8F90346BB73BB7B002B11D17B6803F588
:1032F0008153083379687A6802F58052928A92B2D3
:10330000184601F021FB0346002B01D1012300E008
:103310000023002B01D00023FB73FB7B18461037E2
:10332000BD4680BD8C43010880B586B002AF786091
:103330000123BB730123FB73012301930A23009331
:103340004FF47A732C221549786800F065F84FF431
:10335000FA620021786800F08CF90346BB73BB7BEE
:10336000002B11D17B6803F58153083379687A68A3
:1033700002F58052928A92B2184601F0E5FA0346AD
:10338000002B01D1012300E00023002B01D00023FA
:10339000FB73FB7B18461037BD4680BDB043010868
:1033A00080B586B002AF78600123BB730123FB7345
:1033B000012301930A2300934FF47A732A221549BB
:1033C000786800F029F84FF4FA620021786800F07C
:1033D00050F90346BB73BB7B002B11D17B6803F50F
:1033E0008153083379687A6802F58052928A92B2E2
:1033F000184601F0A9FA0346002B01D1012300E091
:103400000023002B01D00023FB73FB7B18461037F1
:10341000BD4680BDE043010880B584B000AFF860D0
:10342000B96011461A460B46FB801346BB80FB6809
:103430004FF40062002118460EF073F9FB6803F5A3
:1034400000634FF40062002118460EF06AF9002173
:10345000F86800F0C8F80121F86800F0C4F8FB68CB
:1034600003F580531A463B7E1372FB6803F58053C5
:103470001A463B7FD372FB6803F5805300225A72D1
:10348000FB6803F5805300221A73FB6803F5805331
:10349000FF229A73FB68FA6802F580521361FB6899
:1034A00003F5805300229A82FB6803F581530433AD
:1034B000FA6802F5805211694FF40062184601F073
:1034C0000AFAFB6803F581500430BB88FA88B968B2
:1034D00001F0EEF900BF1037BD4680BD80B584B065
:1034E00000AFF860B96011461A460B46FB801346E0
:1034F000BB80FB684FF40062002118460EF011F902
:10350000FB6803F500634FF40062002118460EF0DB
:1035100008F90021F86800F066F80121F86800F069
:1035200062F8FB6803F580531A4697F8203013724F
:10353000FB6803F580531A4697F82430D372FB6872
:1035400003F5805300225A72FB6803F58053002272
:103550001A73FB6803F58053FF229A73FB68FA68BD
:1035600002F580521361FB6803F5805300229A82B2
:10357000FB6803F580531A463B7E93773B7F013B04
:10358000DAB2FB6803F58053DA77FB6803F5815301
:103590000433FA6802F5805211694FF4006218464C
:1035A00001F099F9FB6803F581500430BB88FA8873
:1035B000B96801F07DF900BF1037BD4680BD80B409
:1035C00083B000AF78600B46FB70FB787A681344D9
:1035D00003F58153093301221A7000BF0C37BD4631
:1035E0005DF8047B704780B483B000AF78600B4611
:1035F000FB70FB787A68134403F58153093300228A
:103600001A7000BF0C37BD465DF8047B704780B46C
:1036100085B000AF78600B46FB700023FB73FB782E
:103620007A68134403F5815309331B78DBB2002B0E
:1036300014BF01230023DBB2002B02D00023FB7355
:1036400010E0FB787A68134403F5815309331B7843
:10365000DBB2002B0CBF01230023DBB2002B01D017
:103660000123FB73FB7B18461437BD465DF8047BD2
:10367000704780B584B000AF78600B46FB7013468E
:103680003B800023FB737B6803F580531A460023BD
:10369000D36205F0F1F902467B6803F58053DA62E4
:1036A00002E00A2000F0E4FCFB7819467868FFF796
:1036B000AEFF0346002B0CD005F0DEF902467B6816
:1036C00003F58053DB6AD21A3B889A4201D2012368
:1036D00000E00023002BE4D1FB7819467868FFF75F
:1036E00096FF0346002B14BF01230023DBB2002BFF
:1036F00001D00123FB73FB7B18461037BD4680BD0C
:1037000080B582B000AF78600B46FB707B6803F534
:103710008053DB7ADBB2012B0CBF01230023DBB229
:10372000002B00F08A80F8787B6803F580531B69D2
:103730005A1C796801F580510A6102461A707B684B
:1037400003F580539B8A9BB201339AB27B6803F5E1
:1037500080539A827B6803F580531B7BDBB2012B7D
:103760000CBF01230023DBB2002B0CD07B6803F5D8
:1037700080539B7B5BB2DBB20133DBB25AB27B6816
:1037800003F580539A737B6803F580539B7ADBB211
:10379000012B07D1FB784F2B02D0FB78452B01D1B1
:1037A000012300E00023002B1BD07B6803F580532E
:1037B00000229A727B6803F5805301221A73FB780A
:1037C0004F2B05D17B6803F5805302225A730DE01D
:1037D000FB78452B0AD17B6803F5805305225A7389
:1037E00004E07B6803F5805300229A72FB780A2B71
:1037F00004D17B6803F5805301229A727B6803F53C
:1038000080539B7B5BB21A467B6803F580535B7BDE
:10381000DBB29A42ACBF01230023DBB2002B00F0E5
:10382000ED8000217868FFF7CAFE7B6803F58153BD
:103830000433184601F061F8E0E07B6803F580533B
:10384000DB7ADBB2022B0CBF01230023DBB2002B9F
:1038500072D0F8787B6803F580531B695A1C79682D
:1038600001F580510A6102461A707B6803F58053A6
:103870009B8A9BB201339AB27B6803F580539A828C
:103880007B6803F580531B7ADBB20A2B14BF01233C
:103890000023DBB2002B0FD0FB783E2B40F0AE8034
:1038A00000217868FFF78BFE7B6803F581530433B2
:1038B000184601F022F8A1E07B6803F580531B7BDA
:1038C000DBB2012B04D1FB78452B01D1012300E0B1
:1038D0000023002B04D07B6803F5805302229A73E7
:1038E000FB780A2B0AD17B6803F580531B7BDBB284
:1038F0000133DAB27B6803F580531A737B6803F5F2
:1039000080531B7BDBB21A467B6803F580539B7B9D
:103910005BB29A420CBF01230023DBB2002B6DD0B7
:1039200000217868FFF74BFE7B6803F58153043371
:10393000184600F0E2FF61E07B6803F58053DB7A14
:10394000DBB2032B0CBF01230023DBB2002B55D0CD
:10395000F8787B6803F580531B695A1C796801F578
:1039600080510A6102461A707B6803F580539B8A76
:103970009BB201339AB27B6803F580539A827B68CD
:1039800003F580539B7FDBB2FA789A420CBF012388
:103990000023DBB2002B0CD07B6803F580539B7BAC
:1039A0005BB2DBB20133DBB25AB27B6803F5805302
:1039B0009A737B6803F580531B7ADBB2FA789A42DC
:1039C0000ED17B6803F580539B7B5BB21A467B6804
:1039D00003F58053DB7FDBB29A4201DB012300E079
:1039E0000023002B0AD000217868FFF7E8FD7B68F0
:1039F00003F581530433184600F07FFF00BF0837FA
:103A0000BD4680BD80B584B000AF78600B46FB70CA
:103A10000023FB730023FB7309E0FB7B114A52F880
:103A200033307A689A4206D0FB7B0133FB73FB7B11
:103A3000022BF2D900E000BFFB7B0A4ADB001344F3
:103A40005B68002B09D0FB7B064ADB0013445B68F4
:103A5000FA7811461846FFF753FE00BF1037BD46EF
:103A600080BD00BF2419002080B483B000AF78600F
:103A700000BF0C37BD465DF8047B704780B485B04D
:103A800000AFF860B9603B601346FB71FB68BA6831
:103A90005A60FB68FA791A72FB683A681A60FB6828
:103AA00018461437BD465DF8047B704780B58AB070
:103AB00002AFF860B9607A600023FB83322000F027
:103AC000D7FAAC233B7633237B760023BB76F868AA
:103AD00000F075F80346002B0CBF01230023DBB276
:103AE000002B68D0FB685868FB681B7A5B0099B2B2
:103AF000FB681B6807F118020093032306F054F9D2
:103B0000642000F0B5FAFB685868FB681B7A5B001C
:103B100099B2FB681B6807F110020093072306F0B7
:103B200041FA3A7CFB685A72FB685B7A5BB2002B05
:103B300036DB7B7C1A46FB681A61FB681B691B023B
:103B4000BA7C1A43FB681A61FB681B691B01FA7C8B
:103B50001209D2B21A43FB681A61FB7C03F00F0210
:103B6000FB68DA60FB68DB681B023A7D1A43FB687E
:103B7000DA60FB68DB681B027A7D1A43FB68DA6057
:103B8000BA7DFB689A72F86800F03AF80246BB68A2
:103B90001A60F86800F070F802467B681A600AE064
:103BA000FB8B0133FB830A2000F062FAFB8B322B84
:103BB00000D8A8E700BF00BF2037BD4680BD80B554
:103BC00084B000AF78600023FB737B6858687B6823
:103BD0001B7A5B0099B24FF47A73032206F014FC4F
:103BE0000346002B14BF01230023DBB2002B01D0BE
:103BF000012300E0FB7B18461037BD4680BD000066
:103C000080B584B000AF78607B68DB681846FCF74D
:103C100079FC4FF00002154BFCF718FE02460B46EC
:103C2000104619464FF00002104BFCF70FFE0246FB
:103C30000B46104619464FF000020D4BFCF7DCFC1A
:103C400002460B46104619464FF00002094BFCF79E
:103C50001BFB02460B4610461946FCF7A5FF034620
:103C6000FB60FB6818461037BD4680BD00009040E1
:103C7000000069400000494080B584B000AF786022
:103C80007B681B691846FCF73DFC4FF00002114BA6
:103C9000FCF7DCFD02460B46104619464FF00002C9
:103CA0000C4BFCF7D3FD02460B46104619464FF06D
:103CB0000002094BFCF7A0FC02460B4610461946D1
:103CC000FCF772FF0346FB60FB6818461037BD46E1
:103CD00080BD00BF000090400000594080B483B018
:103CE00000AF786039607B68104A9A607B68002278
:103CF000DA607B684FF000021A617B680B4A5A61F8
:103D00007B6800221A767B680022DA617B680022D9
:103D10001A627B6800225A627B683A689A627B6802
:103D200018460C37BD465DF8047B7047000080BF25
:103D300080B588B000AFF86187ED050AC7ED040AC9
:103D400087ED031ABA607B600B46FB76FB7EBA6890
:103D500097ED031AD7ED040A97ED050A1946F8699D
:103D600000F00EF87968F86900F0E8F83B6BFA6A41
:103D7000B96AF86900F01CF900BF2037BD4680BD64
:103D800080B59AB000AFF8610B4687ED050AC7ED24
:103D9000040A87ED031ABA60FB76002387F85B30CC
:103DA00097ED047AD7ED057A77EE677AC7ED157A45
:103DB00007F124032822002118460DF0B2FC00234D
:103DC0007B66FB699B6A002B01D10123A8E00023DD
:103DD0003B6630E0FB699B6A184604F0C1FE03466F
:103DE000002B14BF01230023DBB2002B01D00123E1
:103DF00096E0FB699B6A42F21071184604F0B5FF29
:103E00000346002B14BF01230023DBB2002B01D09B
:103E1000012385E0FB699B6A184605F041F90246DB
:103E20003B6E9B00603307F108010B4443F8442CC0
:103E30003B6E01333B663B6E092BCBDDFB699B6A16
:103E4000184604F05FFF0023FB650DE0FB6D9B004F
:103E5000603307F10802134453F8443C7A6E13446C
:103E60007B66FB6D0133FB65FB6D092BEEDD7B6E25
:103E70002D4AA2FB0323DB087B667B6E07EE903A9C
:103E8000B8EE677ADFED296AC7EE267A9FED287AC9
:103E900067EE877AC7ED147AD7ED146A97ED037A47
:103EA000C6EE877AB3EE007A67EE877AB1EE007AD3
:103EB00077EE877AC7ED137AD7ED137AB1EE007AF1
:103EC00077EEC77AF3EE006A87EEA67AD7ED157A19
:103ED00067EE277AFB69C3ED017AFB69D3ED016ACE
:103EE00097ED157AC6EE877A9FED127A67EE877A9C
:103EF000FB69C3ED007AFB6993ED007ADFED0D6A93
:103F0000C7EE267A9FED0C7A67EE877AFCEEE77AA9
:103F1000C7ED017A3B79DAB2BB681A7097F85B306B
:103F200018466837BD4680BDCDCCCCCC000080455E
:103F3000333353400000FA430000C84280B584B0D8
:103F400000AF7860396004F097FDF8607B6893ED0E
:103F5000027A7B68D3ED007AB4EEE77AF1EE10FADC
:103F600007D57B681A687B689A607B68FA68DA61B3
:103F700018E07B68DB69FA68D31A0C4A934211D3C4
:103F80007B6893ED027A7B68D3ED007A77EE677AEF
:103F90003B68C3ED007A7B681A687B689A607B682F
:103FA000FA68DA611037BD4680BD00BF80EE36008A
:103FB00080B584B000AFF860B9607A603B60FB68A0
:103FC0001A68FB681A61FB68D3ED057AF5EEC07AD2
:103FD000F1EE10FA04D5FB681A69FB685A6144E0F7
:103FE000FB6893ED047AFB68D3ED057A77EE677A88
:103FF000FDEEE77A17EE902AFB68DA6004F03CFDEC
:104000000246FB681A62FB681B7E002B11D1FB681D
:10401000DB68052B25DDFB6801221A76FB681A6A2E
:10402000FB685A627B68BA681A603B6800221A60B3
:1040300017E0FB68DB68002B0FDCFB681A6AFB6883
:104040005B6AD31A41F2873293420AD9FB68002295
:104050001A763B68BA681A6003E0FB681A6AFB6864
:104060005A62FB681A69FB685A611037BD4680BD09
:1040700080B582B000AF78607B684FF47A7202FB43
:1040800003F3054AA2FB03239B0918460AF052FEDC
:1040900000BF0837BD4680BDD34D621080B584B0E7
:1040A00000AFF860B9607A607B80FB6800221A621A
:1040B000FB68BA681A60FB680433796818460DF02B
:1040C0003CFCFB687A889A82FB68BA699A61FB6853
:1040D000FA69DA61FB6818461037BD4680BDB0B595
:1040E00084B002AF78607B6818687B68191D7B68B4
:1040F0009C8A7B689D697B68DB697A6820320192C3
:1041000000932B4622460AF0B7FC00BF0837BD4695
:10411000B0BD80B485B000AFF8607B600B467B819A
:1041200013463B81FB687A89A3F85420FB683A89DF
:10413000A3F85620FB687A689A65FB68184614371E
:10414000BD465DF8047B704790B585B002AF7860DE
:104150007B68B3F8543018467B68B3F856301C4679
:104160007B689A6D7B68043300210091214609F039
:10417000FDFD02467B681A6000BF0C37BD4690BD4E
:1041800080B584B000AF786039600123FB737B6831
:1041900018680023C822396809F0F6FE0346012B8F
:1041A00014BF01230023DBB2002B01D0032300E066
:1041B000FB7B18461037BD4680BD80B584B000AF8C
:1041C000786039600223FB737B681B683222396890
:1041D00018460AF079F80346012B0CBF012300238F
:1041E000DBB2002B01D0002300E0FB7B1846103728
:1041F000BD4680BD80B483B000AF78607B68184650
:104200000C37BD465DF8047B704780B582B000AFC7
:104210007860012009F09FFE02467B681A6000BFAB
:104220000837BD4680BD80B584B000AF78600123FB
:10423000FB737B681B684FF47A7118460AF026F905
:104240000346012B0CBF01230023DBB2002B01D05E
:10425000002300E0FB7B18461037BD4680BD80B5CB
:1042600084B000AF78600123FB737B68186800237B
:104270000022002109F088FEFB7B18461037BD465E
:1042800080BD80B483B000AF78607B6818460C377F
:10429000BD465DF8047B704780B582B000AF7860A2
:1042A00009F08AFA02467B681A6000BF0837BD46EB
:1042B00080BD000080B584B000AF7860EFF3058367
:1042C000FB60FB68002B14BF01230023DBB2002B33
:1042D0001ED07B6800225A607B6818687B680433B4
:1042E0001A46012109F010FC02467B689A607B683F
:1042F0009B68002B12D07B685B68002B0ED0094BAB
:104300004FF080521A60BFF34F8FBFF36F8F05E0FD
:104310007B681B680121184609F03AFB00BF103783
:10432000BD4680BD04ED00E080B584B002AF78608A
:104330007B6818684FF0FF330093002301220121AE
:1043400009F054FA00BF0837BD4680BD80B584B07F
:1043500002AF786039607B6818683B684FF47A7206
:1043600002FB03F3064AA2FB03239B0900930023ED
:104370000122012109F03AFA00BF0837BD4680BD8D
:10438000D34D621080B584B000AFF860B9601346B9
:10439000FB71FB680833184600F0CAFAFB680C335F
:1043A0001846FFF727FFFB68BA685A60FB68FA797E
:1043B0001A70FB680C331846FFF727FFFB68184696
:1043C0001037BD4680BDB0B590B004AFF860B9609D
:1043D0007A603B600123FB62FB680C331846FFF7F1
:1043E00022FF0346002B0CBF01230023DBB2002B6E
:1043F00042D0FB685B6807F114010022184607F001
:1044000040FBFB685B6807F128010022184607F0B3
:104410001AFC3B68002B17D0FB6803F10805FB680A
:1044200093F9003003936C4607F11C0393E80700EF
:1044300084E8070007F114030CCBB96A284600F0A2
:10444000C5FB02463B681A60BB68002B02D0BA6A03
:10445000BB681A607B68002B06D007F11403142296
:10446000194678680DF071FAFB680C331846FFF7AF
:10447000F6FE0023FB6214E03B68002B02D03B6891
:1044800000221A60BB68002B03D000231A68BB68A7
:104490001A607B68002B04D01422002178680DF08C
:1044A00054FAFB6ADBB218463037BD46B0BDB0B532
:1044B00090B004AFF860B9607A603B600123FB62A2
:1044C000FB680C331846FFF7AEFE0346002B0CBF0B
:1044D00001230023DBB2002B47D0FB685B6807F1A8
:1044E00014010022184607F0CCFAFB685B6807F15C
:1044F00028010022184607F0A6FBFB6893F900206C
:104500003B6C1A703B68002B17D0FB6803F1080561
:10451000FB6893F9003003936C4607F11C0393E8A2
:10452000070084E8070007F114030CCBB96A28469A
:1045300000F04CFB02463B681A60BB68002B02D0BF
:10454000BA6ABB681A607B68002B06D007F11403B7
:104550001422194678680DF0F8F9FB680C331846F8
:10456000FFF77DFE0023FB6214E03B68002B02D0C6
:104570003B6800221A60BB68002B03D000231A6836
:10458000BB681A607B68002B04D014220021786875
:104590000DF0DBF9FB6ADBB218463037BD46B0BD23
:1045A00080B58CB000AFF860B9607A60FB70012311
:1045B000FB62FB680C331846FFF735FE0346002B01
:1045C0000CBF01230023DBB2002B27D0FB685B6804
:1045D00000227968184607F0BAF9FB685B68002288
:1045E000B968184607F0ABFAFB68FA781A70FB68EE
:1045F0005B6807F114010022184607F042FAFB68D5
:104600005B6807F128010022184607F01CFBFB68D5
:104610000C331846FFF723FE0023FB62FB6ADBB274
:1046200018463037BD4680BD80B483B000AF786097
:104630003960064A7B681360054A3B68136000BF17
:104640000C37BD465DF8047B704700BF4019002061
:104650004419002080B584B000AF78607B685B6C43
:10466000BB817B6893F84230DBB2222B0CBF012365
:104670000023DBB2002B21D07B681B685B689BB2F8
:10468000DBB2FB81BB89002B07D0BB891B021AB2AE
:10469000B7F90E3013431BB2FB817B680B4A934280
:1046A0000AD10B4B1B68002B06D0094B1B68FA89FB
:1046B000D2B2114678689847002303E07B681B68F4
:1046C0005B68022318461037BD4680BDA02000203D
:1046D0004019002080B586B000AF78607B681B6809
:1046E0001B687B617B681B68DB683B617B681B68C0
:1046F0005B69FB600023BB607B6903F00F03BB6059
:10470000BB68002B0DD17B6903F02003002B08D080
:104710003B6903F02003002B03D07868FFF79AFF72
:10472000A4E07B681B685B69FB60BB68002B00F042
:104730008380FB6803F00103002B04D13B6903F481
:104740009073002B78D07B6903F00103002B0FD00E
:104750003B6903F48073002B0AD07B681B686FF001
:1047600001021A607B685B6C43F001027B685A644B
:104770007B6903F00203002B0FD0FB6803F00103F9
:10478000002B0AD07B681B686FF002021A607B68FE
:104790005B6C43F004027B685A647B6903F004039A
:1047A000002B0FD0FB6803F00103002B0AD07B68BD
:1047B0001B686FF004021A607B685B6C43F00202B6
:1047C0007B685A647B6903F00803002B14D03B69B3
:1047D00003F02003002B04D1FB6803F00103002B3E
:1047E0000AD07B681B686FF008021A607B685B6CFC
:1047F00043F008027B685A647B685B6C002B14BF33
:1048000001230023DBB2002B2DD07B6903F02003B2
:10481000002B0AD03B6903F02003002B05D07B68F6
:1048200000225A647B681B685B68786808F0EAFBC2
:104830007B6800225A6416E07B6903F08003002B3A
:1048400014D03B6903F08003002B0FD07B68094A2A
:1048500093420AD1084B1B68002B06D0064B1B68FD
:104860007868984701E000BF00E000BF1837BD46F8
:1048700080BD00BFA02000204419002080B582B078
:1048800000AF78607868FFF725FF00BF0837BD46A6
:1048900080BD80B483B000AF786039607B683A68CF
:1048A0001A607B6818460C37BD465DF8047B70477C
:1048B00080B584B000AFF860B9603B601346FB8000
:1048C000FB681868FA883B68B96808F039FA00BFD5
:1048D0001037BD4680BD80B584B000AFF860B960C8
:1048E0001346FB80FB681B68FA88B968184608F015
:1048F000B2FA00BF1037BD4680BD80B582B000AFB0
:1049000078607B681B68184608F0CAFA00BF083751
:10491000BD4680BD80B582B000AF7860396039682F
:1049200078680CF006FF034618460837BD4680BD80
:1049300080B483B000AF78607B6818460C37BD4602
:104940005DF8047B7047000080B586B000AFF8606A
:10495000B9601346FB800223FB750C49B8680CF064
:1049600008FF0346002B02D00023FB7508E008492E
:10497000B8680CF0FEFE0346002B01D00123FB7546
:10498000FB7D18461837BD4680BD00BFDC3F0108DF
:10499000E03F010890B5ADF5077D00AF07F506745F
:1049A000A4F50374206007F50670A0F5047001609B
:1049B000114607F50672A2F50672136007F5067335
:1049C000A3F212230A461A80022387F80D3200232D
:1049D000A7F8163207F50673A3F212231A8807F513
:1049E0000673A3F5047307F1140019680CF0AEFE0A
:1049F00007F50673A3F5067307F11402196810464C
:104A00000CF0B7FE0346002B01D1022385E0D7F856
:104A10003032002B01D100237FE097F8282207F1E4
:104A2000140311461846FFF775FFC7F80802D7F8B8
:104A30000832002B16D007F11403D7F80822D31A36
:104A4000C7F8103297F828323A2B05D1D7F8103230
:104A50000233C7F8103207E0D7F810320133C7F835
:104A6000103201E0022358E0D7F81032A7F80E32D6
:104A70003CE0B7F80E3207F50672A2F50472126830
:104A800013441B7897F82C229A420FD0B7F80E32B5
:104A900007F50672A2F5047212681A44B7F81632C6
:104AA000D7F830120B4412781A7015E0B7F80E32AE
:104AB00007F50672A2F50472126813441B7897F882
:104AC0002C229A4208D1B7F81632D7F83022134474
:104AD00000221A70002320E0B7F80E320133A7F845
:104AE0000E32B7F816320133A7F81632B7F816228D
:104AF00007F50673A3F212231988D7F81032CB1AE0
:104B00009A4208DA07F50673A3F21223B7F80E22C9
:104B10001B889A42ADD397F80D32184607F50777F0
:104B2000BD4690BD80B588B000AFF860B9607A60CE
:104B3000FB7000237B76FB6A002B01D1012340E050
:104B40007968B8680CF015FEF861FB69002B01D19B
:104B5000022336E07868FBF78BFB0246FB691344BF
:104B6000FB61FB690133FB61FB781946F869FFF7CC
:104B7000D1FE78617B69002B01D1022321E07B69A2
:104B80000133FB6100237B830AE0FB695A1CFA6155
:104B90001978FA6A7B8B581C788313440A461A707A
:104BA000FB691B7897F828209A4204D07A8B3B8EB9
:104BB000013B9A42E9DB7B8BFA6A134400221A70AC
:104BC0007B7E18462037BD4680BD000082B080B590
:104BD0008CB000AF7860396007F1380181E80C00D3
:104BE000BB783B627B78FB61FB78BB61BB69452B83
:104BF00002DC4FF4FA6301E040F26C73BA691344CB
:104C0000BB6197F838307B6197F839303B6197F892
:104C10003A30FB6097F94C2013461B019B1A9B000E
:104C2000BB600023FB6240F2B273BB6212E0B96A60
:104C3000786800F061F80346002B02D04FF4B77398
:104C400001E040F26D131A46FB6A1344FB62BB6A33
:104C50000133BB62BA6ABB699A42E8DBFB6A254A48
:104C600002FB03F3FB6201237B620FE07A6AB969FE
:104C7000786800F071F803461E4A02FB03F31A46F7
:104C8000FB6A1344FB627B6A01337B627A6AFB69CD
:104C90009A42EBDB3B6A013B164A02FB03F31A46DE
:104CA000FB6A1344FB627B694FF4616202FB03F30E
:104CB0001A46FB6A1344FB623A6913461B019B1AAE
:104CC0009B001A46FB6A1344FB62FB68FA6A1344B2
:104CD000FB62BA6813461B019B1A9B001A46FB6ACB
:104CE0009B1AFB62FB6A18463037BD46BDE8804020
:104CF00002B070478051010080B483B000AF78608B
:104D000039603B6803F00303002B0CD13A68114B68
:104D100083FB02135911D317CB1A642101FB03F350
:104D2000D31A002B0DD13A680A4B83FB0213D91119
:104D3000D317CB1A4FF4C87101FB03F3D31A002B1E
:104D400001D1012300E0002318460C37BD465DF871
:104D5000047B70471F85EB5180B584B000AFF860CD
:104D6000B9607A607B68022B08D1B968F868FFF7F0
:104D7000C3FF0346002B01D0012300E00023002BDA
:104D800001D01D2304E07B68013B034A52F8233025
:104D900018461037BD4680BD0C44010880B588B068
:104DA00002AF78600023FB75002001F037F87868C7
:104DB00001F083FA4B4B19794A4B5B79494A1268E7
:104DC000019200930B4600226821786801F0FCF9FB
:104DD0000121786801F031FF0221786802F0BBF907
:104DE0004149786802F08AF897F9172013469B002A
:104DF00013449B003D4A13441846FBF739FA034617
:104E0000FB73FB7DDB00DBB20333DAB2FB7B1946BD
:104E100089000B44DBB20133DBB20921009102218E
:104E2000786801F014FA00233B6114E03B69DBB2BF
:104E3000DB00DBB20A33D9B23A6913469B00134454
:104E40009B002A4A13440A460321786801F0B4FF04
:104E50003B6901333B613B69012BE7DD786801F079
:104E60009FFA00F0AFFFB860BB68002B9FD0BB6813
:104E7000282B06D197F91730DBB20133DBB2FB7573
:104E80001AE0BB681E2B0CD197F91730DBB2013B3F
:104E9000DBB2FB7597F91730002B0DDA0123FB7598
:104EA0000AE0BB680A2B07D197F91730104A52F86D
:104EB0002330184600F0B2FE97F91730002B03F0AC
:104EC0000103B8BF5B42FB75BB68322B06D0BB68E1
:104ED0003C2B03D0BB680A2B7FF466AF00BF1837AA
:104EE000BD4680BDD4490108D44D01083C440108A9
:104EF0000000002080B586B002AF7860002000F08E
:104F00008DFF786801F0D9F9786800F0A3FE354B81
:104F10001979344B5B79334A1268019200930B463E
:104F200002223021786801F04FF90121786801F000
:104F300084FE0221786802F00EF92B49786801F0AE
:104F4000DDFF092300931A2311220221786801F062
:104F50007EF9264B19220321786801F02DFF244B9E
:104F600023220521786801F027FF092300931A23E3
:104F700028220221786801F06AF91E4B30220321B1
:104F8000786801F019FF1C4B3A220521786801F07E
:104F900013FF092300931F2311225621786801F083
:104FA00056F9164B19225821786801F005FF144B69
:104FB00023225821786801F0FFFE786801F0F0F9AB
:104FC0004FF47A7000F00CFFF860FB68002B98D06B
:104FD000FB680A2B02D1062000F020FE00BF10372C
:104FE000BD4680BDCC490108D44D0108A040010850
:104FF000A8400108AC400108B4400108B8400108CD
:10500000C040010880B586B002AF7860002000F093
:1050100005FF786801F051F9786800F01BFE354B08
:105020001979344B5B79334A1268019200930B462D
:1050300002223021786801F0C7F80121786801F078
:10504000FCFD0221786802F086F82B49786801F0AF
:1050500055FF09230093332311220221786801F0C0
:10506000F6F8264B19220321786801F0A5FE244B9F
:1050700023220521786801F09FFE092300932E2347
:1050800028220221786801F0E2F81E4B3022032129
:10509000786801F091FE1A4B3A220521786801F0F8
:1050A0008BFE09230093332311225121786801F0EC
:1050B000CEF8154B19225221786801F07DFE104B75
:1050C00023225221786801F077FE786801F068F9B0
:1050D0004FF47A7000F084FEF860FB68002B98D0E3
:1050E000FB680A2B02D1062000F098FD00BF1037A4
:1050F000BD4680BDC4490108D44D0108C440010823
:10510000D0400108D8400108E440010880B586B0CD
:1051100002AF7860002000F081FE786801F0CDF8E1
:10512000786800F097FD354B1979344B5B79334A39
:105130001268019200930B4602223021786801F038
:1051400043F80121786801F078FD0221786802F0C7
:1051500002F82B49786801F0D1FE09230093292336
:1051600011220221786801F072F8264B19220321DE
:10517000786801F021FE244B23220F21786801F08A
:105180001BFE092300932E2328220221786801F0B8
:105190005EF81E4B30220321786801F00DFE1C4B97
:1051A0003A220521786801F007FE09230093332392
:1051B00011225121786801F04AF8164B1922522128
:1051C000786801F0F9FD144B23225221786801F030
:1051D000F3FD786801F0E4F84FF47A7000F000FE17
:1051E000F860FB68002B98D0FB680A2B02D10620E0
:1051F00000F014FD00BF1037BD4680BDBC4901085A
:10520000D44D0108F0400108FC40010800410108AC
:105210000C410108184101082441010880B586B0FD
:1052200002AF7860002000F0F9FD786801F045F8E1
:10523000786800F00FFD354B1979344B5B79334AB0
:105240001268019200930B4602223021786800F028
:10525000BBFF0121786801F0F0FC0221786801F0C1
:105260007AFF2B49786801F049FE0923009329232E
:1052700011220221786800F0EAFF264B192203214F
:10528000786801F099FD244B23220221786801F00F
:1052900093FD09230093332328220221786800F02C
:1052A000D6FF1E4B30220321786801F085FD1C4B90
:1052B0003A220521786801F07FFD092300931F231E
:1052C00011225421786800F0C2FF164B1922552193
:1052D000786801F071FD144B23225221786801F0A7
:1052E0006BFD786801F05CF84FF47A7000F078FD9F
:1052F000F860FB68002B98D0FB680A2B02D10620CF
:1053000000F08CFC00BF1037BD4680BDB4490108D9
:10531000D44D0108304101083C41010844410108D5
:1053200050410108584101086041010880B586B02C
:1053300002AF7860002000F071FD786800F0BDFFDA
:10534000786800F087FC354B1979344B5B79334A28
:105350001268019200930B4602223021786800F017
:1053600033FF0121786801F068FC0221786801F0C0
:10537000F2FE2B49786801F0C1FD0923009329232F
:1053800011220221786800F062FF264B19220321C6
:10539000786801F011FD244B23220221786801F086
:1053A0000BFD092300932E2328220221786800F0A8
:1053B0004EFF1E4B30220321786801F0FDFC1C4B90
:1053C0003A220521786801F0F7FC092300931A239B
:1053D00011225421786800F03AFF164B192255210A
:1053E000786801F0E9FC144B23225321786801F01E
:1053F000E3FC786800F0D4FF4FF47A7000F0F0FC22
:10540000F860FB68002B98D0FB680A2B02D10620BD
:1054100000F004FC00BF1037BD4680BDAC49010858
:10542000D44D010868410108744101088041010818
:105430008C410108944101089C41010880B586B067
:1054400002AF7860002000F0E9FC786800F035FFDA
:10545000786800F0FFFB3349786801F04FFD324B6C
:105460001979314B5B79304A1268019200930B46EF
:1054700010220A21786800F0A7FE2C4B2622052175
:10548000786801F099FC2A4B2E220521786801F0FA
:1054900093FC254B1979244B5B79234A12680192BE
:1054A00000930B460A223621786800F08DFE1F4BD0
:1054B00020223221786801F07FFC1D4B2822322106
:1054C000786801F079FC184B1979174B5B79164A0B
:1054D0001268019200930B4610226421786800F054
:1054E00073FE124B26226021786801F065FC104B98
:1054F0002E226021786801F05FFC786800F050FF90
:105500004FF47A7000F06CFCF860FB68002B9CD0C4
:10551000FB680A2B02D1062000F080FB00BF103789
:10552000BD4680BDD44D0108A4490108A44101082D
:10553000AC41010890B585B000AF7860814B1B6825
:10554000092B02D17F4B00221A600023FB810EE061
:10555000FA897D4913461B0113449B000B441A68CA
:10556000784B1B689A4206D0FB890133FB81FB898B
:10557000082BEDD900E000BFFB89082B00F2D98091
:10558000FF22002171480CF0CCF8FA896E491346CD
:105590001B0113449B000B4404331B687868984735
:1055A00000F030FC03460A2B4ED00A2BC0F2C58017
:1055B0003C2B00F3C2801E2BC0F2BF801E3B1E2B73
:1055C00000F2BB8001A252F823F000BFD3560008BE
:1055D0003B5700083B5700083B5700083B57000863
:1055E0003B5700083B5700083B5700083B57000853
:1055F0003B570008EB5600083B5700083B57000894
:105600003B5700083B5700083B5700083B57000832
:105610003B5700083B5700083B570008035700085A
:105620003B5700083B5700083B5700083B57000812
:105630003B5700083B5700083B5700083B57000802
:105640003B5700081B5700080023BB600023BB60CA
:105650003AE0FA893C4913461B011344BA681344E3
:10566000023351F82330092B0AD1FA8936491346FF
:105670001B0113449B000B441B68324A136027E054
:10568000FA89314913461B011344BA6813440233A3
:1056900051F8234000F0D2FA03469C420CBF01238C
:1056A0000023DBB2002B0CD0FA89274913461B01DB
:1056B0001344BA681344023351F82330214A13606B
:1056C00006E0BB680133BB60BB68092BC1DD35E078
:1056D00034E0FA891C4913461B0113449B000B4418
:1056E00038331B68174A136028E0FA8916491346B5
:1056F0001B0113449B000B4434331B68114A136095
:105700001CE0FA89104913461B0113449B000B440B
:1057100040331B680B4A136010E0FA890A491346AC
:105720001B0113449B000B443C331B68054A136068
:1057300004E0044B09221A6000E000BF00BF1437E8
:10574000BD4690BD080000200C0000204819002034
:10575000F0B5A1B006AF786007F1280007F110029C
:1057600007F1240107F10F0300930346B848FEF741
:105770009EFE002387F86730002387F866300020FC
:1057800000F04CFB786800F098FD0121786801F08A
:1057900054FA0221786801F0DEFCAE49786801F025
:1057A000ADFBAD4B0A220A21786801F005FB3B7C7A
:1057B0001E467B7C9C46BB7C97F8262097F82510DC
:1057C00097F82700044697F90F00054607F12C00CB
:1057D00004950394029101920093634632469F49D7
:1057E0000BF03CFF07F12C031E220521786801F025
:1057F000E3FA97F90F3013F1090F13DA97F96730CD
:105800000B2B0FDD97F966300233DBB21A4692009C
:105810001344D9B20923009305231622786800F0B7
:1058200016FD0EE097F966300133DBB21A4692009E
:105830001344D9B20923009305231622786800F097
:1058400006FD786800F0ACFD00F0BCFA38663B6EEF
:10585000002B97D03B6E322B13D03B6E322B00F3D4
:105860005E813B6E282B5BD03B6E282B00F357816B
:105870003B6E0A2B00F046813B6E1E2B00F0C4806D
:105880004DE197F96730DBB20133DBB287F867305F
:1058900097F96730052B25DC97F96730022B11DD6E
:1058A00097F96730032B06DD97F867300233DBB2D8
:1058B00087F8663033E197F867300133DBB287F859
:1058C00066302CE197F96730022B06D197F86630E5
:1058D0000233DBB287F8663021E197F8673087F84A
:1058E00066301CE197F96730062B0BD097F96730CB
:1058F000082B07D097F967300A2B03D097F9673048
:105900000C2B06D197F866300233DBB287F866308D
:1059100005E197F866300133DBB287F86630FEE0C8
:1059200097F967300D2B00F2F78001A252F823F0AF
:1059300069590008695900087D5900087D59000817
:105940009159000891590008A5590008A559000867
:10595000BD590008BD590008D5590008D55900089F
:10596000ED590008ED5900083A7C97F967303C4939
:10597000CB56DBB2D31ADBB23B7444E07A7C97F9A6
:1059800067303749CB56DBB2D31ADBB27B743AE0CF
:10599000BA7C97F967303249CB56DBB2D31ADBB207
:1059A000BB7430E097F8262097F967302C49CB5626
:1059B000DBB2D31ADBB287F8263024E097F8252033
:1059C00097F967302649CB56DBB2D31ADBB287F89A
:1059D000253018E097F8272097F967302049CB56F3
:1059E000DBB2D31ADBB287F827300CE097F90F301F
:1059F000DAB297F967301A49CB56DBB2D31ADBB269
:105A00005BB2FB7300BF87E097F967300D2B00F2A4
:105A1000858001A252F823F0655A0008655A0008F3
:105A2000795A0008795A00088D5A00088D5A0008E2
:105A3000A15A0008A15A0008B95A0008B95A00082A
:105A4000D15A0008D15A0008E95A0008E95A00085A
:105A500004190020D44D0108B4410108CC410108CB
:105A6000700200203A7C97F967305A49CB56DBB276
:105A70001344DBB23B7444E07A7C97F967305549B4
:105A8000CB56DBB21344DBB27B743AE0BA7C97F9B5
:105A900067305049CB56DBB21344DBB2BB7430E005
:105AA00097F8262097F967304A49CB56DBB2134462
:105AB000DBB287F8263024E097F8252097F9673085
:105AC0004449CB56DBB21344DBB287F8253018E0EB
:105AD00097F8272097F967303E49CB56DBB213443D
