:020000040800F2
:100000000000022059A20008319C0008399C000819
:10001000419C0008499C0008519C00080000000019
:100020000000000000000000000000007120010836
:10003000599C000800000000C122010841F400089A
:10004000A9A20008A9A20008A9A20008A9A2000864
:10005000A9A20008A9A20008A9A20008A9A2000854
:10006000A9A20008A9A20008A9A20008A9A2000844
:10007000A9A20008A9A20008A9A20008A9A2000834
:10008000A9A20008A9A20008A9A20008A9A2000824
:10009000A9A20008A9A20008A9A20008A9A2000814
:1000A000A9A20008A9A20008A9A20008A9A2000804
:1000B000A9A20008699C0008A9A20008A9A200083A
:1000C000A9A20008A9A20008A9A20008A9A20008E4
:1000D000A9A20008A9A20008819C0008A9A2000802
:1000E000A9A20008A9A20008A9A20008A9A20008C4
:1000F000A9A20008A9A20008A9A20008A9A20008B4
:10010000A9A20008A9A20008A9A20008A9A20008A3
:10011000A9A20008A9A20008A9A20008A9A2000893
:10012000A9A20008A9A20008A9A20008A9A2000883
:10013000A9A20008A9A20008A9A20008A9A2000873
:10014000A9A20008A9A20008A9A20008A9A2000863
:10015000A9A20008A9A20008A9A20008A9A2000853
:10016000A9A20008A9A20008A9A20008A9A2000843
:10017000A9A20008A9A20008A9A200080000000086
:08018000A9A20008A9A20008D1
:1001900010B5054C237833B9044B13B10448AFF3C1
:1001A00000800123237010BDC8040020000000005F
:1001B000F056010808B5034B1BB103490348AFF3E0
:1001C000008008BD00000000CC040020F0560108AB
:1001D00001F0FF01102A2BDB10F0070F08D010F8F8
:1001E000013B013A8B422DD010F0070F42B3F6D1FC
:1001F000F0B441EA012141EA014122F007047FF015
:1002000000070023F0E80256083C85EA010586EA6B
:10021000010685FA47F5A3FA87F586FA47F6A5FAA7
:1002200087F68EB9EED1F0BC01F0FF0102F00702B3
:1002300032B110F8013B013A83EA010313B1F8D15E
:100240000020704701387047002D06BF354603383F
:10025000073815F0010F07D1013015F4807F02BF78
:10026000013015F4C03F0130F0BC0138704700BFC9
:10027000034613F8012B002AFBD1181A01387047E6
:1002800081F0004102E000BF83F0004330B54FEA47
:1002900041044FEA430594EA050F08BF90EA020FB4
:1002A0001FBF54EA000C55EA020C7FEA645C7FEA47
:1002B000655C00F0E2804FEA5454D4EB5555B8BF6A
:1002C0006D420CDD2C4480EA020281EA030382EADB
:1002D000000083EA010180EA020281EA0303362D6D
:1002E00088BF30BD11F0004F4FEA01314FF4801C40
:1002F0004CEA113102D0404261EB410113F0004F52
:100300004FEA03334CEA133302D0524263EB430308
:1003100094EA050F00F0A780A4F10104D5F1200EA6
:100320000DDB02FA0EFC22FA05F2801841F1000101
:1003300003FA0EF2801843FA05F359410EE0A5F1D5
:1003400020050EF1200E012A03FA0EFC28BF4CF006
:10035000020C43FA05F3C01851EBE37101F00045BC
:1003600007D54FF0000EDCF1000C7EEB00006EEBC9
:100370000101B1F5801F1BD3B1F5001F0CD3490853
:100380005FEA30004FEA3C0C04F101044FEA4452AA
:1003900012F5800F80F09A80BCF1004F08BF5FEA31
:1003A000500C50F1000041EB045141EA050130BD11
:1003B0005FEA4C0C404141EB0101013C28BFB1F523
:1003C000801FE9D291F0000F04BF01460020B1FA6E
:1003D00081F308BF2033A3F10B03B3F120020CDA41
:1003E0000C3208DD02F1140CC2F10C0201FA0CF01F
:1003F00021FA02F10CE002F11402D8BFC2F1200C84
:1004000001FA02F120FA0CFCDCBF41EA0C01904039
:10041000E41AA2BF01EB0451294330BD6FEA040482
:100420001F3C1CDA0C340EDC04F11404C4F120026D
:1004300020FA04F001FA02F340EA030021FA04F37F
:1004400045EA030130BDC4F10C04C4F1200220FAD6
:1004500002F001FA04F340EA0300294630BD21FA14
:1004600004F0294630BD94F0000F83F4801306BFDA
:1004700081F480110134013D4EE77FEA645C18BFCE
:100480007FEA655C29D094EA050F08BF90EA020F65
:1004900005D054EA000C04BF1946104630BD91EA5D
:1004A000030F1EBF0021002030BD5FEA545C05D160
:1004B0004000494128BF41F0004130BD14F580049F
:1004C0003CBF01F5801130BD01F0004545F0FE4113
:1004D00041F470014FF0000030BD7FEA645C1ABF48
:1004E000194610467FEA655C1CBF0B46024650EA7F
:1004F000013406BF52EA033591EA030F41F40021AB
:1005000030BD00BF90F0000F04BF0021704730B530
:100510004FF4806404F132044FF000054FF0000105
:1005200050E700BF90F0000F04BF0021704730B5C6
:100530004FF4806404F1320410F0004548BF40429B
:100540004FF000013EE700BF42004FEAE2014FEAF0
:1005500031014FEA02701FBF12F07F4393F07F4FCB
:1005600081F06051704732F07F4208BF704793F0CE
:100570007F4F04BF41F40021704730B54FF46074E1
:1005800001F0004521F000411CE700BF50EA0102E4
:1005900008BF704730B54FF000050AE050EA01028D
:1005A00008BF704730B511F0004502D5404261EBFD
:1005B00041014FF4806404F132045FEA915C3FF43E
:1005C000D8AE4FF003025FEADC0C18BF03325FEADB
:1005D000DC0C18BF033202EBDC02C2F1200300FA8C
:1005E00003FC20FA02F001FA03FE40EA0E0021FAB1
:1005F00002F11444BDE600BF70B54FF0FF0C4CF49F
:10060000E06C1CEA11541DBF1CEA135594EA0C0F50
:1006100095EA0C0F00F0DEF82C4481EA030621EA8B
:100620004C5123EA4C5350EA013518BF52EA0335C6
:1006300041F4801143F4801338D0A0FB02CE4FF078
:100640000005E1FB02E506F00042E0FB03E54FF0A8
:100650000006E1FB03569CF0000F18BF4EF0010EA0
:10066000A4F1FF04B6F5007F64F5407404D25FEA9C
:100670004E0E6D4146EB060642EAC62141EA55514F
:100680004FEAC52040EA5E504FEACE2EB4F1FD0C91
:1006900088BFBCF5E06F1ED8BEF1004F08BF5FEA0F
:1006A000500E50F1000041EB045170BD06F00046C1
:1006B00046EA010140EA020081EA0301B4EB5C046E
:1006C000C2BFD4EB0C0541EA045170BD41F4801166
:1006D0004FF0000E013C00F3AB8014F1360FDEBF8B
:1006E000002001F0004170BDC4F10004203C35DA67
:1006F0000C341BDC04F11404C4F1200500FA05F3EA
:1007000020FA04F001FA05F240EA020001F000428A
:1007100021F0004110EBD37021FA04F642EB060100
:100720005EEA430E08BF20EAD37070BDC4F10C042A
:10073000C4F1200500FA04F320FA05F001FA04F2EE
:1007400040EA020001F0004110EBD37041F10001DA
:100750005EEA430E08BF20EAD37070BDC4F12005E5
:1007600000FA05F24EEA020E20FA04F301FA05F24D
:1007700043EA020321FA04F001F0004121FA04F2F5
:1007800020EA020000EBD3705EEA430E08BF20EAC5
:10079000D37070BD94F0000F0FD101F000464000FF
:1007A00041EB010111F4801F08BF013CF7D041EA81
:1007B000060195F0000F18BF704703F00046520085
:1007C00043EB030313F4801F08BF013DF7D043EA56
:1007D0000603704794EA0C0F0CEA135518BF95EA0C
:1007E0000C0F0CD050EA410618BF52EA4306D1D193
:1007F00081EA030101F000414FF0000070BD50EAB2
:10080000410606BF1046194652EA430619D094EA3B
:100810000C0F02D150EA013613D195EA0C0F05D125
:1008200052EA03361CBF104619460AD181EA030179
:1008300001F0004141F0FE4141F470014FF0000031
:1008400070BD41F0FE4141F4780170BD70B54FF0CC
:10085000FF0C4CF4E06C1CEA11541DBF1CEA13554C
:1008600094EA0C0F95EA0C0F00F0A7F8A4EB05042E
:1008700081EA030E52EA03354FEA013100F0888025
:100880004FEA03334FF0805545EA131343EA1263EE
:100890004FEA022245EA111545EA10654FEA0026A3
:1008A0000EF000419D4208BF964244F1FD0404F55C
:1008B000407402D25B084FEA3202B61A65EB0305B8
:1008C0005B084FEA32024FF480104FF4002CB6EB75
:1008D000020E75EB030E22BFB61A754640EA0C00F5
:1008E0005B084FEA3202B6EB020E75EB030E22BF35
:1008F000B61A754640EA5C005B084FEA3202B6EB76
:10090000020E75EB030E22BFB61A754640EA9C0034
:100910005B084FEA3202B6EB020E75EB030E22BF04
:10092000B61A754640EADC0055EA060E18D04FEAC2
:10093000051545EA16754FEA06164FEAC30343EA62
:1009400052734FEAC2025FEA1C1CC0D111F4801F2F
:100950000BD141EA00014FF000004FF0004CB6E728
:1009600011F4801F04BF01430020B4F1FD0C88BFC7
:10097000BCF5E06F3FF6AFAEB5EB030C04BFB6EBD2
:10098000020C5FEA500C50F1000041EB045170BDC5
:100990000EF0004E4EEA113114EB5C04C2BFD4EBF2
:1009A0000C0541EA045170BD41F480114FF0000E76
:1009B000013C90E645EA060E8DE60CEA135594EAF2
:1009C0000C0F08BF95EA0C0F3FF43BAF94EA0C0FF5
:1009D0000AD150EA01347FF434AF95EA0C0F7FF46A
:1009E00025AF104619462CE795EA0C0F06D152EABE
:1009F00003353FF4FDAE1046194622E750EA4106A2
:100A000018BF52EA43067FF4C5AE50EA41047FF4B2
:100A10000DAF52EA43057FF4EBAE12E74FF0FF3C17
:100A200006E000BF4FF0010C02E000BF4FF0010CE8
:100A30004DF804CD4FEA410C7FEA6C5C4FEA430C61
:100A400018BF7FEA6C5C1BD001B050EA410C0CBFB0
:100A500052EA430C91EA030F02BF90EA020F002012
:100A6000704710F1000F91EA030F58BF994208BF79
:100A700090422CBFD8176FEAE37040F00100704736
:100A80004FEA410C7FEA6C5C02D150EA013C07D18D
:100A90004FEA430C7FEA6C5CD6D152EA033CD3D0D8
:100AA0005DF8040B704700BF8446104662468C46D2
:100AB0001946634600E000BF01B5FFF7B7FF002805
:100AC00048BF10F1000F01BD4DF808EDFFF7F4FF2E
:100AD0000CBF012000205DF808FB00BF4DF808EDB9
:100AE000FFF7EAFF34BF012000205DF808FB00BFDC
:100AF0004DF808EDFFF7E0FF94BF012000205DF8FE
:100B000008FB00BF4DF808EDFFF7CEFF94BF0120B2
:100B100000205DF808FB00BF4DF808EDFFF7C4FFAB
:100B200034BF012000205DF808FB00BF4FEA410CF4
:100B30007FEA6C5C02D150EA013C0AD14FEA430CD7
:100B40007FEA6C5C02D152EA033C02D14FF0000014
:100B500070474FF0010070474FEA410212F5001252
:100B600015D211D56FF47873B3EB625212D94FEAF4
:100B7000C12343F0004343EA505311F0004F23FADE
:100B800002F018BF404270474FF00000704750EA33
:100B9000013005D111F0004008BF6FF000407047F0
:100BA0004FF00000704700BF4A0011D212F500124A
:100BB00011D20DD56FF47873B3EB62520ED44FEAB5
:100BC000C12343F0004343EA505323FA02F0704735
:100BD0004FF00000704750EA013002D14FF0FF3073
:100BE00070474FF0000070474FEA4102B2F1E04316
:100BF00024BFB3F5001CDCF1FE5C0DD901F0004C04
:100C00004FEAC0024CEA5070B2F1004F40EB830053
:100C100008BF20F00100704711F0804F21D113F17F
:100C20003872BCBF01F00040704741F480114FEAB8
:100C30005252C2F11802C2F1200C10FA0CF320FA41
:100C400002F018BF40F001004FEAC1234FEAD3235E
:100C500003FA0CFC40EA0C0023FA02F34FEA4303C8
:100C6000CCE77FEA625307D150EA01331EBF4FF051
:100C7000FE4040F44000704701F0004040F0FE406C
:100C800040F40000704700BF53B94AB9002908BFBB
:100C900000281CBF4FF0FF314FF0FF3000F06AB961
:100CA000ADF1080C6DE904CE00F006F8DDF804E0C3
:100CB000DDE9022304B070472DE9F047089D0C469A
:100CC000002B4ED194468C458646B2FA82F262D908
:100CD0004AB1C2F12003914020FA03F30CFA02FC5E
:100CE000194300FA02FE4FEA1C471FFA8CF6B1FBCB
:100CF000F7F44FEA1E4307FB141143EA014304FBD8
:100D000006F199420AD91CEB030304F1FF3080F08D
:100D10001281994240F20F81023C6344591A1FFA32
:100D20008EF3B1FBF7F007FB101143EA014300FB20
:100D300006F69E420AD91CEB030300F1FF3180F056
:100D4000FC809E4240F2F980634402389B1B40EADB
:100D5000044000211DB1D3400022C5E90032BDE8A6
:100D6000F0878B4205D90DB1C5E900010021084685
:100D7000F5E7B3FA83F1002946D1A34202D39042AA
:100D8000C0F0F080861A64EB03030120002DE6D04A
:100D9000C5E90063E3E7002A40F09080A1EB0C0472
:100DA0004FEA1C481FFA8CF70121B4FBF8F64FEA12
:100DB0001E4308FB164443EA044307FB06F098422F
:100DC00008D91CEB030306F1FF3402D2984200F26B
:100DD000CD8026461C1A1FFA8EF3B4FBF8F008FBF0
:100DE000104443EA044300FB07F79F4208D91CEB79
:100DF000030300F1FF3402D29F4200F2B08020468C
:100E0000DB1B40EA0640A5E7C1F120068B4022FA31
:100E100006F71F4320FA06FC04FA01F343EA0C0329
:100E2000F44000FA01F8380C4FEA1349B4FBF0FE25
:100E30001FFA87FC00FB1E4449EA04440EFB0CF930
:100E4000A14502FA01F20AD93C190EF1FF3A80F0ED
:100E50008480A14540F28180AEF1020E3C44A4EBB7
:100E600009041FFA83F9B4FBF0F300FB134449EAC9
:100E7000044403FB0CFCA44507D93C1903F1FF30E3
:100E800067D2A44565D9023B3C4443EA0E40A0FB2F
:100E90000293A4EB0C049C42CE469C4651D34ED008
:100EA00055B1B8EB0E0364EB0C0404FA06F6CB4024
:100EB0001E43CC40C5E90064002150E7C2F1200385
:100EC00020FA03F10CFA02FC24FA03F394400C43D9
:100ED0004FEA1C4800FA02FE1FFA8CF7B3FBF8F049
:100EE00008FB1031230C43EA014300FB07F1994250
:100EF00008D91CEB030300F1FF362CD299422AD902
:100F0000023863445B1AA4B2B3FBF8F108FB113357
:100F100044EA034401FB07F3A34208D91CEB040491
:100F200001F1FF3613D2A34211D902396444E41A05
:100F300041EA004139E70446F0E6084606E7C845BD
:100F4000AED2B9EB020E63EB070C0138A8E73146CD
:100F5000EDE7034699E73046D4E7D6467FE763449A
:100F600002384DE70646234608460FE7023E634433
:100F700030E700BF704700BF80B500AF00220821F6
:100F800002480AF089FB00BF80BD00BF0008024094
:100F900080B500AF0122082102480AF07DFB00BFA6
:100FA00080BD00BF00080240B0B582B000AF7860DD
:100FB0007B68D3ED127AB3EE047AF4EEC77AF1EEE1
:100FC00010FA1DD87B6893F84C30002B18D1FFF72E
:100FD000DFFF7B68012283F84C207B681A697B68FD
:100FE000C3F884207B68D3F884301B4A13601B4A03
:100FF0001B4B14461D460FCD0FC42B68236027E002
:101000007B68D3ED127A9FED177AF4EEC77AF1EE92
:1010100010FA00DA1CE07B6893F84C30012B17D1F2
:10102000FFF7AAFF7B68002283F84C207B681A69CF
:101030007B68C3F890207B68D3F890300A4A13602D
:101040000A4A074B14461D460FCD0FC42B68236078
:1010500000BF0837BD46B0BDF00400206405002085
:10106000500500200000BE42F40400207805002056
:1010700080B400AF034B1B781846BD465DF8047B77
:10108000704700BFED04002080B582B000AF7860EB
:1010900014220449786812F0E2FA00BF0837BD460E
:1010A00080BD00BF6405002080B582B000AF7860CD
:1010B00014220449786812F0D2FA00BF0837BD46FE
:1010C00080BD00BF78050020B0B483B000AF786069
:1010D0007B68074A1C4615460FCD0FC495E80700EC
:1010E00084E8070078680C37BD46B0BC704700BF85
:1010F000F8040020B0B483B000AF78607B68074A82
:101100001C4615460FCD0FC495E8070084E807007C
:1011100078680C37BD46B0BC704700BFF8040020AB
:10112000B0B483B000AF78607B68074A1C461546B0
:101130000FCD0FC495E8070084E8070078680C37E6
:10114000BD46B0BC704700BFF804002080B5AEB00B
:1011500002AF786007F10C03A4220021184612F0B8
:101160006AF900F063FD024607F10C0311461846C8
:1011700012F06DFA002387F8583097F85820614B29
:101180001A70FFF7F9FE00F01BFE5F4BD3F80B302F
:10119000F7EE000A00EE103A03F014F85A4BD3F8B9
:1011A000032013461A46584BD3F8073000EE903A06
:1011B00000EE102A554803F000FD534B93F9003020
:1011C0001946534804F03CF94F4BD3F80B30514AC1
:1011D000136007F10C0310334F4A50494C4803F099
:1011E000F8FFF86907F10C0303F1700207F10C0333
:1011F00003F16C0107F10C037833019307F10C0341
:10120000743300930346414803F0F6FA44494548D5
:1012100003F03CFD4449454803F038FD4449454846
:1012200003F034FD3E4B1B683B623D4B5B68FB6249
:101230003B4B9B68BB633C4B1B687B623A4B5B68D8
:101240003B63394B9B68FB63394B1B68BB62384B74
:101250005B687B63364B9B683B64314B1B69BB64AB
:1012600007F10C0340331946334802F0F3FF07F14E
:101270000C0344331946314803F0A8F8D7ED137A2C
:1012800097ED147A07F10C034833F0EE470AB0EEFD
:10129000670A184602F024FF97ED157A1D4BD3ED2F
:1012A000007A77EE677AF0EEE77A254BC3ED007AA5
:1012B000234BD3ED007AB1EE047AF4EEC77AF1EE67
:1012C00010FA08DD7B6D134A13607A6D0E4B0B33F9
:1012D0001A6000F0F9FC07F10C031846FFF764FEF2
:1012E00097F85820074B1A7007F10C031946154858
:1012F00003F040FE022114480AF0E7F9642003F0ED
:10130000B1FD66E7ED04002018180020E01A002067
:10131000D01A0020E4040020500500204C050020D5
:10132000F8040020341B0020140500205C1B002062
:1013300030050020841B0020AC1B0020C01B0020B7
:10134000E8040020701A00200000024080B582B03E
:1013500000AF786039607B68012B07D13B684FF69E
:10136000FF72934202D1034804F011FA00BF08371C
:10137000BD4680BDEC04002080B500AF4FF6FF7184
:101380000120FFF7E3FF80BD80B584B000AFF860B7
:101390007B600B46FB721346BB72FB7A283B232B08
:1013A00066D801A252F823F071140008391400081D
:1013B00071140008711400087114000871140008F9
:1013C00071140008711400087114000871140008E9
:1013D00071140008711400087114000871140008D9
:1013E00071140008711400087114000871140008C9
:1013F00071140008711400087114000871140008B9
:1014000071140008711400087114000871140008A8
:101410007114000871140008711400087114000898
:1014200071140008711400087114000843140008B6
:101430005114000861140008BB7A184603F012FD2D
:1014400016E0BB7A1A4620210C480AF025F90FE075
:10145000BB7A1A464FF4805108480AF01DF907E09C
:10146000BB7A1A464FF4804104480AF015F900BFD0
:10147000012318461037BD4680BD00BF000402405E
:1014800080B584B000AFF8607B600B46FB721346FA
:10149000BB72FB7A143B0C2B44D801A252F823F008
:1014A000291500082515000825150008D514000881
:1014B000F51400080D15000825150008251500086D
:1014C0002515000825150008251500082515000814
:1014D000E7140008BB7A9AB241F28833796815485C
:1014E0000CF037FB21E0BB7A1A464A21F86807F076
:1014F00015FE1AE0FB681B681B781A464921F8683C
:1015000007F00CFE012003F0ADFC0EE0012003F01B
:10151000A9FCFB681B685B781A464921F86807F04C
:10152000FDFD02E0002301E000BF01231846103753
:10153000BD4680BDA422002080B584B002AF786093
:10154000164B174A1749184806F062FA164807F072
:10155000B6FD154806F0CBF90021134807F0BEFD93
:10156000124B1979114B5B79104A12680192009362
:101570000B46002220210C4806F040F90A4806F0EC
:1015800029FA4FF47A6003F06DFC074805F044F93E
:101590004FF4FA7003F066FC00BFF6E78913000809
:1015A00081140008006801088C050020A867010864
:1015B00080B582B000AF786039603968786811F022
:1015C00062FF034618460837BD4680BD80B400AFB1
:1015D000024B1846BD465DF8047B70474B16002051
:1015E00080B400AF024B1846BD465DF8047B7047DF
:1015F0006916002080B487B000AF0F4B93F8D73046
:10160000012B07D13B1D0D4A92E8030018600433FB
:10161000197009E03B1D0A4A92E803001860043380
:10162000198002330A0C1A70002318461C37BD4675
:101630005DF8047B704700BF3C1600200857010886
:10164000105701082DE9F04FE7B022AFF865BE480A
:1016500000F03AFD07F16403A4220021184611F0BE
:10166000EAFE012387F80F31012387F80E310023AA
:1016700087F80D31B54BB64A14469C4604F1300E3E
:10168000654626460FCE28606960AA60EB6010347C
:101690000CF1100C7445F3D16246234603CB106065
:1016A00051601B781372AB4AAB4B144607CB2060DA
:1016B0006160A2601B782373A84BA94A1068186068
:1016C00092889A80A74AA84B03CB10605160198872
:1016D0009B7811819372002387F80C31A3499A48B3
:1016E00000F0DEFEA249984800F044FFA149964868
:1016F00001F026F8A049944801F016FA07F16303B7
:101700001946914801F060F907F1620319468E48C5
:1017100001F0EEF89549994803F02CFC322003F0D3
:10172000A1FB07F164031946954803F040FC03460A
:10173000002B97F80D31032B00F2198201A252F809
:1017400023F000BF551700081D180008F7180008FF
:10175000951900088B498648FFF72AFF0346002B9E
:1017600006D189498248FFF723FF0346002B13D097
:1017700084498048FFF71CFF0346002B06D18249AD
:101780007C48FFF715FF0346002B05D097F8633020
:10179000002B01D0012300E00023002B00F0E981A1
:1017A0006C49694800F0D0FD034687F80B31664864
:1017B00001F022FF644801F05BFF634801F094FFF1
:1017C000614801F0CDFF604802F006F897F80B3150
:1017D000002B40F0CE8197F80E31022B09D1634BDC
:1017E00093F8D8301946584801F0B8FC012387F81F
:1017F0000E3197F80F31002B0CD15C4B93F8D83099
:101800001946514801F0D0FB4F4801F005FB012378
:1018100087F80F31012387F80D31AAE1594954485F
:10182000FFF7C6FE0346002B06D157495048FFF785
:10183000BFFE0346002B17D052494E48FFF7B8FEB3
:101840000346002B06D150494A48FFF7B1FE034634
:10185000002B09D097F86330002B05D097F80F3193
:10186000002B01D0012300E00023002B00F0838136
:101870000021354800F0C0FD0121334800F0BCFDD7
:101880004249314801F058FA034687F80F3197F87A
:101890000F31002B24D1354B93F8D81001233C4A4B
:1018A000294801F01FFB034687F80F3197F80F31E5
:1018B000002B0AD12D4B93F8D8301946224801F05D
:1018C0003FFE022387F80D3155E1284B93F8D830BD
:1018D00019461D4801F068FB1B4801F09DFA4AE1DA
:1018E000224B93F8D8301946174801F05DFB164893
:1018F00001F092FA3FE197F80F31002B40F03D8163
:1019000097F80E31022B00F03881184B93F8D8303D
:101910000E4A19460C4801F0A3FB034687F80E3126
:1019200097F80E31022B03D1032387F80D3124E100
:101930000E4B93F8D8301946034801F00FFC0023F2
:1019400087F80D3119E100BF0C0600208716002032
:10195000185701087316002054570108FF1600207D
:1019600064570108EB1600206C5701083C16002054
:101970004B1600205A16002069160020701900200E
:10198000701A0020F05F0108FC5F010814170020A6
:10199000785701087D497E4801F056F9034687F8DB
:1019A0000E3197F80C31013387F80C3197F80E316E
:1019B000022B12D097F80C31032B0ED9754B002255
:1019C00083F8D720734B93F8D8301946704801F04C
:1019D000C5FB002387F80D31D1E097F80E31022BBB
:1019E00040F0CD806B4B012283F8D720002387F88D
:1019F0000C317B6FBB65BB6F1846FEF7A5FDC7E9D1
:101A00001401FB6F1846FEF79FFDC7E91201D7F8D6
:101A100080301846FEF798FDC7E91001D7F88430EA
:101A20001846FEF791FDC7E90E01D7F88830184631
:101A3000FEF78AFDC7E90C01D7F88C301846FEF78F
:101A400083FDC7E90A01D7F890301846FEF77CFD00
:101A5000C7E90801D7F894301846FEF775FDC7E9C5
:101A60000601D7F898301846FEF76EFDC7E9040165
:101A7000D7F89C301846FEF767FD82468B46D7F8AC
:101A8000A0301846FEF760FD8046894697F8B030D2
:101A9000FB6097F8D030BB60D7F8D4301846FEF71B
:101AA00053FD04460D46D7F8D8207A60D7F8DC10ED
:101AB0003960D7F8E060D7F8E800D7F8F410D7F825
:101AC0000021D7F8043107F1640C20931F921E9176
:101AD0001D901C9639681B917A681A92CDE91845B9
:101AE000BA681792FA681692CDE91489CDE912AB5B
:101AF00097ED047B8DED107B97ED067B8DED0E7BD6
:101B000097ED087B8DED0C7B97ED0A7B8DED0A7BC5
:101B100097ED0C7B8DED087B97ED0E7B8DED067BB5
:101B200097ED107B8DED047B97ED127B8DED027BA5
:101B300097ED147B8DED007BBB6D6246164917480F
:101B400011F016FC134B93F8D810FF230093144B9D
:101B5000144A0F4801F07EFB0346052B0D4B93F80A
:101B6000D830104A19460A4801F030FC07E000BF9F
:101B700006E000BF04E000BF02E000BF00E000BFDD
:101B80004FF47A7003F06EF9A8E500BF87160020C5
:101B90000C0600203C160020805701080C0E002087
:101BA00018170020FF16002080B582B000AF7860C3
:101BB00039607B68012B08D13B684FF6FF72934276
:101BC00003D10449044800F01BFA00BF0837BD46A2
:101BD00080BD00BF202400200C06002080B500AF8F
:101BE0004FF6FF710120FFF7DFFF80BD80B483B0A7
:101BF00000AF78600B46FB70FB781B09DBB21A461E
:101C0000094B995C7B685A1C7A600A461A70FB780B
:101C100003F00F03044AD25C7B681A7000BF0C37D4
:101C2000BD465DF8047B70470860010890B583B03D
:101C300000AF08F089FB0346DBB27B6008F084FB51
:101C400003461D4A1B0A13601C4C08F089FB03461F
:101C500023607B68232B09D97B683D2B28BF3D235C
:101C6000DBB23D33DAB2144BDA710BE07B68092B3F
:101C700001D9412200E030227B68DBB21344DAB2A2
:101C80000D4BDA7108F054FB03461B0CDBB219460E
:101C90000B48FFF7ABFF08F04BFB0346DBB21946DE
:101CA0000848FFF7A3FF044B00221A73024B1846A3
:101CB0000C37BD4690BD00BFC81B0020CB1B0020C9
:101CC000D01B0020D21B002080B584B000AF42F2B0
:101CD0001071354803F0A2F90346002B0CBF012315
:101CE0000023DBB2002B5BD010F08EFA2F4BBB60D1
:101CF00009F09AF82E4B0122DA602D4B0222DA60AD
:101D00002B4B1022DA602A4B2022DA60284B40222B
:101D1000DA60274B8022DA60264B00221A60254BBE
:101D200002221A61234B0B229A60224B0122DA60B5
:101D30003B4619461F4809F0D9F90346002B14BF4A
:101D400001230023DBB2002B29D11B4B7B601B4BF3
:101D5000FB6018E0BB68D3E90023F968022009F0B2
:101D60000FF80346002B0CBF01230023DBB2002B2E
:101D700006D0FB680433FB60BB680433BB6002E041
:101D800009F074F80CE0FA687B689A42E2D309F033
:101D90006DF810F06BFA044803F068F900E000BF3A
:101DA0001037BD4680BD00BFCC1A00201818002097
:101DB000003C0240D81B00200F000E0800000E0857
:101DC00090B482B000AF0023FB711A4B3B603B68BC
:101DD000B3F801309BB24FF6ED62934219D0164B27
:101DE000002262F012025A70002262F001029A7020
:101DF000114B4FF00002C3F803200F4B0F4AC3F8FA
:101E000007200D4B0E4AC3F80B200B4B05221A700E
:101E10000BE0094B3A68144620686168A26807C362
:101E2000A289A17B1A800A469A7000BF0837BD4676
:101E300090BC704700000E08181800200000A04059
:101E40000000C84280B500AF0A4803F042F80A48D3
:101E500003F03FF8094803F03CF8094803F06EF836
:101E6000084803F06BF8084803F0C9F805F092FA47
:101E700000BF80BD281800204C18002070180020DA
:101E800070190020701A0020CC1A002080B500AF15
:101E9000FFF7D8FF00BF80BD80B584B002AF786087
:101EA00039607B68012B5ED13B684FF6FF7293422D
:101EB00059D118230193012300934FF480632C4AD6
:101EC0002C492D4802F0E4FF1823019301230093CD
:101ED0004FF48063294A2A492A4802F0D9FF18237F
:101EE0000193012300934FF48063274A2749284830
:101EF00002F0CEFF274BD9220121274803F003F837
:101F0000264BA4220121264802F0FDFF254803F0BC
:101F10006BF805222449254803F03AF99FED241A6D
:101F2000F2EE040A9FED230A2349244802F022FC22
:101F30004FF47A7338222249224802F0CFFA22491C
:101F4000224802F086FE2249224802F082FE2249FF
:101F5000224802F07EFE2249224802F059F9224925
:101F6000224802F01BFA00BF0837BD4680BD00BF03
:101F70005C5A01084516000828180020645A010818
:101F80004D1100084C1800206C5A01083915000842
:101F9000701800209418002070190020CC1900201F
:101FA000701A0020CC1A002084220020D01A0020B1
:101FB000333353400000000058210020E01A002075
:101FC000302200201C1B0020D8230020341B0020BE
:101FD000682400205C1B002090230020841B00202C
:101FE000A0210020AC1B0020E8210020C01B002005
:101FF00080B500AF4FF6FF710120FFF74DFF80BDA8
:1020000080B582B000AF786039607B6818464FF4C5
:1020100000631A46002111F00EFA7B6803F5006395
:102020004FF400620021184611F005FA7B6803F5B1
:1020300000637A6802F5805213607B687A6802F563
:10204000805253607B6803F5815304333968184626
:1020500003F03BFB7B6803F581530833184603F01C
:1020600096FB7B6803F580531A460023D362124B1C
:102070001B781946114A3B6842F831300E4B1B78E9
:102080000E4ADB0013447A685A600B4B1B7801330D
:10209000DAB2094B1A70084B1B78032B02D9064B96
:1020A00000221A700649074803F0DAF97B681846DF
:1020B0000837BD4680BD00BF041C0020EC1B00207B
:1020C000A13E00083D3E000880B586B002AF7860B2
:1020D0000023FB73012301930A2300934FF47A73C7
:1020E00004228F49786801F0B3FB41F28832002165
:1020F000786801F0DAFC0346FB73012301930A239D
:1021000000934FF47A7304228549786801F0A0FBAC
:1021100041F288320021786801F0C7FC0346FB7366
:10212000012301930A2300934FF47A7304227C491C
:10213000786801F08DFB41F288320021786801F067
:10214000B4FC0346FB73012301930A2300934FF46D
:102150007A730B227349786801F07AFB41F2883276
:102160000021786801F0A1FC0346FB7343F6982038
:1021700002F078FE012301930A2300934FF47A734F
:1021800004226749786801F063FB41F2883200213C
:10219000786801F08AFC0346FB73012301930A234C
:1021A00000934FF47A7304225D49786801F050FB84
:1021B00041F288320021786801F077FC0346FB7316
:1021C000012301930A2300934FF47A7304225449A4
:1021D000786801F03DFB41F288320021786801F017
:1021E00064FC0346FB73012301930A2300934FF41D
:1021F0007A7307224C49786801F02AFB41F2883251
:102200000021786801F051FC0346FB730123019320
:102210000A2300934FF47A7306224449786801F048
:1022200017FB41F288320021786801F03EFC03463A
:10223000FB73012301930A2300934FF47A730B225B
:102240003B49786801F004FB41F28832002178684C
:1022500001F02BFC0346FB73012301930A23009337
:102260004FF47A730C223349786801F0F1FA41F2A5
:1022700088320021786801F018FC0346FB730123C3
:1022800001930A2300934FF47A7318222A4978683D
:1022900001F0DEFA41F288320021786801F005FC95
:1022A0000346FB73012301930A2300934FF47A73CF
:1022B0000B222249786801F0CBFA41F288320021E2
:1022C000786801F0F2FB0346FB73012301930A23B4
:1022D00000934FF47A730B221949786801F0B8FA29
:1022E00041F288320021786801F0DFFB0346FB737E
:1022F000012301930A2300934FF47A730C221149AE
:10230000786801F0A5FA41F288320021786801F07E
:10231000CCFB0346FB73FB7B18461037BD4680BDE4
:102320001860010820600108D4600108DC60010821
:102330002C600108386001084860010864600108E9
:10234000706001087C60010880B592B002AF7860CF
:102350003960002387F83F300023FB6007F110034A
:102360002E220021184611F066F807F10C033A6896
:102370002049184610F0FCFF07F10C031846FDF742
:1023800077FF03469AB207F10C01012301930A2358
:1023900000934FF47A73786801F05AFA4FF4FA62B6
:1023A0000021786801F081FB034687F83F3097F8F9
:1023B0003F30002B0FD17B6803F5815308337968D8
:1023C0007A6802F58052928A92B2184603F0EAF9CE
:1023D0000346002B01D0012300E00023002B02D094
:1023E000012387F83F3097F83F3018464037BD4605
:1023F00080BD00BF845A010880B58AB002AF786002
:102400000B46FB700023FB770023BB6007F10C0336
:1024100000221A605A609A60DA60FA7807F10803BD
:102420001E49184610F0A4FF07F108031846FDF7EF
:102430001FFF03469AB207F10801012301930A2303
:1024400000934FF47A73786801F002FA41F288320F
:102450000021786801F029FB0346FB77FB7F002B06
:102460000FD17B6803F58153083379687A6802F5E8
:102470008052928A92B2184603F094F90346002BD8
:1024800001D0012300E00023002B01D00123FB77C2
:10249000FB7F18462037BD4680BD00BFA05A01080B
:1024A00080B588B004AF78603960012301930A23B6
:1024B00000934FF47A730A222B49786801F0C8F927
:1024C0004FF4FA620021786801F0EFFA0346FB73DB
:1024D000FB7B002B11D17B6803F5815308337968AE
:1024E0007A6802F58052928A92B2184603F05AF93D
:1024F0000346002B01D1012300E00023002B24D050
:102500007B6803F58150083079687B6803F5805358
:102510009B8A9AB23B6802930D2301933A2300935E
:10252000124B03F065F90346002B0CBF0123002377
:10253000DBB2002B13D13B680D491A460B4603CB87
:10254000106051601B7813720AE03B6808491A4614
:102550000B4603CB106051601B78137200E000BF84
:102560001037BD4680BD00BF8C600108B05A01081D
:10257000B85A010890B589B004AF7860396001237A
:1025800001930A2300934FF47A730A226149786811
:1025900001F05EF94FF4FA620021786801F085FAE3
:1025A0000346FB73FB7B002B11D17B6803F5815342
:1025B000083379687A6802F58052928A92B2184696
:1025C00003F0F0F80346002B01D1012300E00023C3
:1025D000002B00F093807B6803F581500830796808
:1025E0007B6803F580539B8A9AB23B6802930D2364
:1025F00001932C230093484B03F0FAF80346002B79
:102600000CBF01230023DBB2002B6DD03B681B788D
:10261000303B072B5DD801A252F823F03D2600087D
:102620004D26000861260008752600088D26000842
:102630009D260008AF260008BF2600083B683749E2
:102640001A460B4603CB106051604CE03B6834499E
:102650001A460B4603CB106051601B78137242E0A0
:102660003B6830491A460B4603CB106051601B880B
:10267000138138E03B682C491A460B4603CB1060A7
:10268000516019889B78118193722CE03B6827492F
:102690001A460B4603CB1060516024E03B68244A85
:1026A0001C46134607CB20606160A2601BE03B68BC
:1026B00020491A460B4603CB1060516013E03B687B
:1026C0001D491A460B4603CB106051601B781372EC
:1026D00009E03B6819491A460B4603CB106051606C
:1026E0001B78137200BF12E03B6814491A460B4670
:1026F00003CB106051601B78137208E03B680F49F0
:102700001A460B4603CB106051601B7813721437C6
:10271000BD4690BD98600108C45A0108CC5A010812
:10272000D45A0108E05A0108EC5A0108F85A010885
:10273000005B01080C5B0108145B0108B85A010832
:1027400090B589B004AF78603960012301930A2302
:1027500000934FF47A730B225B49786801F078F8A4
:102760004FF4FA620021786801F09FF90346FB7389
:10277000FB7B002B11D17B6803F58153083379680B
:102780007A6802F58052928A92B2184603F00AF8EB
:102790000346002B01D1012300E00023002B00F0B1
:1027A00087807B6803F58150083079687B6803F582
:1027B00080539B8A9AB23B6802930D2301932C238A
:1027C0000093424B03F014F80346002B0CBF012387
:1027D0000023DBB2002B61D03B681B78303B062B1B
:1027E00051D801A252F823F0052800081528000846
:1027F000292800083D2800085528000865280008F9
:10280000772800083B6832491A460B4603CB106014
:10281000516042E03B682F491A460B4603CB1060DB
:1028200051601B78137238E03B682B491A460B46FF
:1028300003CB106051601B8813812EE03B68274951
:102840001A460B4603CB1060516019889B781181A2
:10285000937222E03B6822491A460B4603CB106074
:1028600051601AE03B681F4A1C46134607CB2060A4
:102870006160A26011E03B681B491A460B4603CB1E
:102880001060516009E03B6818491A460B4603CBBB
:10289000106051601B78137200BF12E03B6813494F
:1028A0001A460B4603CB106051601B78137208E088
:1028B0003B680E491A460B4603CB106051601B78EB
:1028C00013721437BD4690BDA4600108205B010857
:1028D000CC5A0108D45A0108E05A0108EC5A010800
:1028E000F85A0108005B01080C5B0108B85A01089E
:1028F00080B58AB004AF786039600023FB6007F1CF
:10290000100300221A609A803B6802221A70012389
:1029100001930A2300934FF47A730B2228497868B5
:1029200000F096FF4FF4FA620021786801F0BDF8DC
:102930000346FB75FB7D002B11D17B6803F58153AA
:10294000083379687A6802F58052928A92B2184602
:1029500002F028FF0346002B01D1012300E00023F1
:10296000002B29D07B6803F58150083079687B689B
:1029700003F580539B8A9AB207F10C0302932C2330
:1029800001933A2300930F4B02F032FF0346002BD2
:102990000CBF01230023DBB2002B0DD03B7B302B7F
:1029A00002D0312B04D007E03B6800221A7003E00C
:1029B0003B6801221A7000BF00BF1837BD4680BDBA
:1029C000B0600108285B010880B58AB004AF786068
:1029D00039600023BB6007F10C0300221A605A60C3
:1029E000C3F807203B6800221A70012301930A23D1
:1029F00000934FF47A730A224549786800F028FF63
:102A000041F288320021786801F04FF80346FB75E7
:102A1000FB7D002B11D17B6803F581530833796866
:102A20007A6802F58052928A92B2184602F0BAFE93
:102A30000346002B01D1012300E00023002B62D0CC
:102A40007B6803F58150083079687B6803F5805313
:102A50009B8A9AB207F1080302932C2301933A232D
:102A600000932C4B02F0C4FE0346002B0CBF012345
:102A70000023DBB2002B46D007F108032649184695
:102A8000FEF796FD0346002B14BF01230023DBB2A3
:102A9000002B03D03B6800221A7034E007F10803D2
:102AA0001E491846FEF784FD0346002B14BF012380
:102AB0000023DBB2002B03D03B6801221A7022E016
:102AC00007F1080316491846FEF772FD0346002B6E
:102AD00014BF01230023DBB2002B03D03B6802228A
:102AE0001A7010E007F108030E491846FEF760FD62
:102AF0000346002B14BF01230023DBB2002B02D0BE
:102B00003B6803221A7000BF1837BD4680BD00BF66
:102B1000BC600108305B0108385B0108445B0108B8
:102B2000485B0108505B010880B58AB004AF78604B
:102B300039600023FB6007F1100300221A609A80BD
:102B40000023FB75012301930A2300934FF47A734A
:102B500008223949786800F07BFE4FF4FA620021C0
:102B6000786800F0A2FF0346BB75BB7D002B11D136
:102B70007B6803F58153083379687A6802F58052DF
:102B8000928A92B2184602F00DFE0346002B01D144
:102B9000012300E00023002B41D07B6803F5815026
:102BA000083079687B6803F580539B8A9AB207F1F5
:102BB0000C0302932C2301933A2300931F4B02F042
:102BC00017FE0346002B0CBF01230023DBB2002BB2
:102BD0001BD007F10C0318460FF028FE0346FB75C7
:102BE00097F91730622B02DD0023FB7505E0FB7DB2
:102BF0005B00DBB2713BDBB2FB7597F917301A460D
:102C00000F49386810F0B4FB12E03B680D491A46D2
:102C10000B4603CB106051601B78137208E03B68D1
:102C200008491A460B4603CB106051601B7813729B
:102C30001837BD4680BD00BFC8600108545B01085D
:102C40005C5B0108B85A010880B5A0B004AF786099
:102C50003960012387F86E30032387F86F30002333
:102C6000BB6007F10C0360220021184610F0E3FB63
:102C7000012301930A2300934FF47A7312222C4903
:102C8000786800F0E5FD4FF4FA520021786800F012
:102C90000CFF034687F86E3097F86E30002B11D189
:102CA0007B6803F58153083379687A6802F58052AE
:102CB000928A92B2184602F075FD0346002B01D1AC
:102CC000012300E00023002B2CD07B6803F581500A
:102CD000083079687B6803F580539B8A9AB207F1C4
:102CE000080302932223019322230093114B02F045
:102CF0007FFD0346002B0CBF01230023DBB2002B1A
:102D000010D007F1080319463868FEF751FC034656
:102D1000002B14BF01230023DBB2002B02D00223BF
:102D200087F86F3097F86F3018467037BD4680BD12
:102D300004610108845B010880B58AB004AF786043
:102D400039600123BB750123FB750023FB6007F18C
:102D5000100300221A609A80032303930A2302932C
:102D6000022301932B2300934FF47A730F222849F7
:102D7000786800F0CFFD42F210720021786800F010
:102D800094FE0346BB75BB7D002B11D17B6803F518
:102D90008153083379687A6802F58052928A92B238
:102DA000184602F0FFFC0346002B01D1012300E08E
:102DB0000023002B26D07B6803F58150083079680A
:102DC0007B6803F580539B8A9AB207F10C03029348
:102DD0000A2301933A2300930E4B02F009FD0346A8
:102DE000002B0CBF01230023DBB2002B0AD00023F1
:102DF000FB7507F10C0318460FF018FD0346DAB215
:102E00003B681A70FB7D18461837BD4680BD00BF71
:102E1000E4600108945B010880B58AB004AF786073
:102E20000123BB750123FB750023FB6007F1100331
:102E300000221A609A80032303930A230293022339
:102E400001932B2300934FF47A730E222349786861
:102E500000F060FD42F210720021786800F025FE5B
:102E60000346BB75BB7D002B11D17B6803F58153F5
:102E7000083379687A6802F58052928A92B21846CD
:102E800002F090FC0346002B01D1012300E0002357
:102E9000002B1DD07B6803F58150083079687B6872
:102EA00003F580539B8A9AB207F10C0302930A231D
:102EB00001933A2300930A4B02F09AFC0346002B3D
:102EC0000CBF01230023DBB2002B01D00023FB75D4
:102ED000FB7D18461837BD4680BD00BFF460010871
:102EE000A45B010880B59CB002AFF8607A601A4616
:102EF0000B46FB721346BB72012387F86630012331
:102F000087F8673000237B6107F118034C2200210A
:102F1000184610F090FAFA7ABB7A07F11400009381
:102F20007B68204910F024FA07F114031846FDF7D6
:102F30009FF903469AB207F11401012301930A2372
:102F400000934FF47A73F86800F082FC4FF4FA5261
:102F50000021F86800F0A9FD034687F8663097F86D
:102F60006630002B11D1FB6803F581530833F968F3
:102F7000FA6802F58052928A92B2184602F012FC68
:102F80000346002B01D1012300E00023002B02D0D7
:102F9000002387F8673097F8673018466837BD46D2
:102FA00080BD00BFB05B010880B59AB002AF786009
:102FB0000B46FB70012387F85E30012387F85F30F2
:102FC0000023FB6007F110034C220021184610F08B
:102FD00032FAFA7807F10C032049184610F0C8F9C4
:102FE00007F10C031846FDF743F903469AB207F1BF
:102FF0000C01012301930A2300934FF47A7378683C
:1030000000F026FC4FF4FA520021786800F04DFDE4
:10301000034687F85E3097F85E30002B11D17B684D
:1030200003F58153083379687A6802F58052928AF1
:1030300092B2184602F0B6FB0346002B01D10123E1
:1030400000E00023002B02D0002387F85F3097F8C0
:103050005F3018466037BD4680BD00BFCC5B0108BD
:1030600080B5B0B004AFF8600B467A60FB72012304
:1030700087F8AE30012387F8AF300023BB6107F13A
:103080001C0392220021184610F0D5F900233B6161
:1030900000233B75FA7A07F118007B682C4910F081
:1030A00067F907F118031846FDF7E2F803469AB2EC
:1030B00007F11801032303930A23029302230193C8
:1030C0002B2300934FF47A73F86800F023FC47F247
:1030D00030520021F86800F0E8FC034687F8AE3073
:1030E00097F8AE30002B2CD1FB6803F581500830E7
:1030F000F968FB6803F580539B8A9AB207F11003C5
:1031000002930A2301932C230093124B02F070FBCD
:103110000346002B0CBF01230023DBB2002B10D091
:1031200007F110030C491846FEF742FA0346002B3C
:1031300014BF01230023DBB2002B02D0022387F847
:10314000AF3097F8AF301846B037BD4680BD00BFEE
:10315000E05B0108845B0108005C010880B5AEB04B
:1031600004AF78600B46FB70012387F8A63001237B
:1031700087F8A73000233B6107F114039222002156
:10318000184610F058F90023BB6000233B73FA780F
:1031900007F110032C49184610F0EAF807F1100364
:1031A0001846FDF765F803469AB207F110010323AC
:1031B00003930A230293022301932B2300934FF4DA
:1031C0007A73786800F0A6FB42F2107200217868EA
:1031D00000F06BFC034687F8A63097F8A630002B6A
:1031E0002CD17B6803F58150083079687B6803F542
:1031F00080539B8A9AB207F1080302930A23019332
:103200002C230093114B02F0F3FA0346002B0CBF62
:1032100001230023DBB2002B10D007F108030C4977
:103220001846FEF7C5F90346002B14BF01230023FF
:10323000DBB2002B02D0032387F8A73097F8A73022
:103240001846A837BD4680BD045C01081C5C010817
:10325000005C010890B5AFB004AFF8607A603B60E5
:103260000B46FB72012387F8A630012387F8A730AD
:1032700000233B6107F1140392220021184610F04D
:10328000DAF8FC7A7868FCF7F3FF034607F11000E0
:1032900022464B4910F06CF807F110031846FCF772
:1032A000E7FF03469AB207F11001022301933E2380
:1032B00000934FF47A73F86800F0CAFA4FF47A7208
:1032C0000021F86800F0F1FB034687F8A63097F874
:1032D000A630002B6ED1FB6803F581500830F968E9
:1032E000FB6803F580539B8A9AB2002302930A235A
:1032F00001932C230093334B02F07AFA0346002B00
:103300000CBF01230023DBB2002B53D07868FCF7FD
:10331000AFFF03469AB2032303930A2302930523C4
:1033200001932B2300934FF47A737968F86800F0C7
:10333000F1FA4FF47A720021F86800F0B6FB034608
:1033400087F8A63097F8A630002B11D1FB6803F55B
:1033500081530833F968FA6802F58052928A92B272
:10336000184602F01FFA0346002B01D1012300E0AA
:103370000023002B1ED0FB6803F581500830F9684C
:10338000B7F8B83002933B6801930D2300930A23EA
:103390000D4A02F0F5FA0346002B0CBF012300236F
:1033A000DBB2002B03D0052387F8A73002E000230F
:1033B00087F8A73097F8A7301846AC37BD4690BDC0
:1033C000285C0108405C0108445C010890B5B1B07C
:1033D00004AFF8600B467A60FB72012387F8AE30C9
:1033E000012387F8AF300023BB6107F11C03922251
:1033F0000021184610F01FF800233B6100233B75A5
:10340000FC7A7868FCF734FF034607F1180022467F
:1034100047490FF0ADFF07F118031846FCF728FFE6
:1034200003469AB207F11801022301933E23009349
:103430004FF47A73F86800F00BFA4FF47A720021B7
:10344000F86800F032FB034687F8AE3097F8AE30EC
:10345000002B67D1FB6803F581500830F968FB68E1
:1034600003F580539B8A9AB2002302930A230193A7
:103470002C2300932F4B02F0BBF90346002B0CBF0B
:1034800001230023DBB2002B4CD07868FCF7F0FE60
:1034900003469AB2032303930A2302930123019361
:1034A0002B2300934FF47A737968F86800F032FAAE
:1034B00042F210720021F86800F0F7FA034687F82C
:1034C000AE3097F8AE30002B2CD1FB6803F581505D
:1034D0000830F968FB6803F580539B8A9AB207F1BC
:1034E000100302930A2301932C230093124B02F042
:1034F0007FF90346002B0CBF01230023DBB2002B16
:1035000010D007F110030D491846FEF751F8034695
:10351000002B14BF01230023DBB2002B02D00023B9
:1035200087F8AF3097F8AF301846B437BD4690BD36
:10353000585C0108405C0108705C0108005C0108EF
:1035400080B59AB002AF78600B46FB70012387F814
:103550005E30012387F85F300023FB6007F1100322
:103560004C22002118460FF066FFFA7807F10C0391
:10357000204918460FF0FCFE07F10C031846FCF733
:1035800077FE03469AB207F10C01012301930A2347
:1035900000934FF47A73786800F05AF94FF4FA52B6
:1035A0000021786800F081FA034687F85E3097F8CA
:1035B0005E30002B11D17B6803F5815308337968A5
:1035C0007A6802F58052928A92B2184602F0EAF8BE
:1035D0000346002B01D1012300E00023002B02D081
:1035E000002387F85F3097F85F3018466037BD4694
:1035F00080BD00BF805C010880B586B002AF7860F6
:103600000123BB730123FB73012301930A2300935E
:103610004FF47A731D221549786800F019F94FF4B8
:10362000FA620021786800F040FA0346BB73BB7B66
:10363000002B11D17B6803F58153083379687A68D0
:1036400002F58052928A92B2184602F0ABF8034615
:10365000002B01D1012300E00023002B01D0002327
:10366000FB73FB7B18461037BD4680BD186101080F
:1036700080B586B002AF78600123BB730123FB7372
:10368000012301930A2300934FF47A731B221549F7
:10369000786800F0DDF84FF4FA620021786800F0F5
:1036A00004FA0346BB73BB7B002B11D17B6803F587
:1036B0008153083379687A6802F58052928A92B20F
:1036C000184602F06FF80346002B01D1012300E0F9
:1036D0000023002B01D00023FB73FB7B184610371F
:1036E000BD4680BD3861010880B586B002AF786004
:1036F0000123BB730123FB73012301930A2300936E
:103700004FF47A7320221549786800F0A1F84FF43D
:10371000FA620021786800F0C8F90346BB73BB7BEE
:10372000002B11D17B6803F58153083379687A68DF
:1037300002F58052928A92B2184602F033F803469C
:10374000002B01D1012300E00023002B01D0002336
:10375000FB73FB7B18461037BD4680BD54610108E2
:1037600080B586B002AF78600123BB730123FB7381
:10377000012301930A2300934FF47A732C221549F5
:10378000786800F065F84FF4FA620021786800F07C
:103790008CF90346BB73BB7B002B11D17B6803F50F
:1037A0008153083379687A6802F58052928A92B21E
:1037B000184601F0F7FF0346002B01D1012300E07A
:1037C0000023002B01D00023FB73FB7B184610372E
:1037D000BD4680BD7861010880B586B002AF7860D3
:1037E0000123BB730123FB73012301930A2300937D
:1037F0004FF47A732A221549786800F029F84FF4BB
:10380000FA620021786800F050F90346BB73BB7B75
:10381000002B11D17B6803F58153083379687A68EE
:1038200002F58052928A92B2184601F0BBFF03461D
:10383000002B01D1012300E00023002B01D0002345
:10384000FB73FB7B18461037BD4680BDA86101089D
:1038500080B584B000AFF860B96011461A460B46D7
:10386000FB801346BB80FB684FF4006200211846C2
:103870000FF0E1FDFB6803F500634FF400620021E7
:1038800018460FF0D8FD0021F86800F0C8F80121B3
:10389000F86800F0C4F8FB6803F580531A463B7ED5
:1038A0001372FB6803F580531A463B7FD372FB68A3
:1038B00003F5805300225A72FB6803F580530022FF
:1038C0001A73FB6803F58053FF229A73FB68FA684A
:1038D00002F580521361FB6803F5805300229A823F
:1038E000FB6803F581530433FA6802F580521169CD
:1038F0004FF40062184601F01DFFFB6803F581508C
:103900000430BB88FA88B96801F001FF00BF1037A6
:10391000BD4680BD80B584B000AFF860B960114687
:103920001A460B46FB801346BB80FB684FF40062CF
:10393000002118460FF07FFDFB6803F500634FF48C
:103940000062002118460FF076FD0021F86800F0B3
:1039500066F80121F86800F062F8FB6803F580530F
:103960001A4697F820301372FB6803F580531A4605
:1039700097F82430D372FB6803F5805300225A7203
:10398000FB6803F5805300221A73FB6803F580532C
:10399000FF229A73FB68FA6802F580521361FB6894
:1039A00003F5805300229A82FB6803F580531A4680
:1039B0003B7E93773B7F013BDAB2FB6803F5805394
:1039C000DA77FB6803F581530433FA6802F5805215
:1039D00011694FF40062184601F0ACFEFB6803F574
:1039E00081500430BB88FA88B96801F090FE00BFAE
:1039F0001037BD4680BD80B483B000AF78600B4601
:103A0000FB70FB787A68134403F581530933012274
:103A10001A7000BF0C37BD465DF8047B704780B458
:103A200083B000AF78600B46FB70FB787A68134474
:103A300003F58153093300221A7000BF0C37BD46CD
:103A40005DF8047B704780B485B000AF78600B46AA
:103A5000FB700023FB73FB787A68134403F58153F2
:103A600009331B78DBB2002B14BF01230023DBB228
:103A7000002B02D00023FB7310E0FB787A6813441C
:103A800003F5815309331B78DBB2002B0CBF0123F4
:103A90000023DBB2002B01D00123FB73FB7B184614
:103AA0001437BD465DF8047B704780B584B000AF25
:103AB00078600B46FB7013463B800023FB737B68EA
:103AC00003F580531A460023D36206F025FC024614
:103AD0007B6803F58053DA6202E00A2001F0C2F944
:103AE000FB7819467868FFF7AEFF0346002B0CD031
:103AF00006F012FC02467B6803F58053DB6AD21A9B
:103B00003B889A4201D2012300E00023002BE4D13C
:103B1000FB7819467868FFF796FF0346002B14BF21
:103B200001230023DBB2002B01D00123FB73FB7BBD
:103B300018461037BD4680BD80B582B000AF7860B2
:103B40000B46FB707B6803F58053DB7ADBB2012BFD
:103B50000CBF01230023DBB2002B00F08A80F87831
:103B60007B6803F580531B695A1C796801F5805105
:103B70000A6102461A707B6803F580539B8A9BB2E8
:103B800001339AB27B6803F580539A827B6803F510
:103B900080531B7BDBB2012B0CBF01230023DBB264
:103BA000002B0CD07B6803F580539B7B5BB2DBB2B0
:103BB0000133DBB25AB27B6803F580539A737B689A
:103BC00003F580539B7ADBB2012B07D1FB784F2B97
:103BD00002D0FB78452B01D1012300E00023002B0C
:103BE0001BD07B6803F5805300229A727B6803F533
:103BF000805301221A73FB784F2B05D17B6803F5A4
:103C0000805302225A730DE0FB78452B0AD17B6862
:103C100003F5805305225A7304E07B6803F5805353
:103C200000229A72FB780A2B04D17B6803F580533B
:103C300001229A727B6803F580539B7B5BB21A4624
:103C40007B6803F580535B7BDBB29A42ACBF0123F8
:103C50000023DBB2002B00F0ED8000217868FFF735
:103C6000CAFE7B6803F581530433184601F074FDE6
:103C7000E0E07B6803F58053DB7ADBB2022B0CBFFC
:103C800001230023DBB2002B72D0F8787B6803F5A8
:103C900080531B695A1C796801F580510A610246FC
:103CA0001A707B6803F580539B8A9BB201339AB2EA
:103CB0007B6803F580539A827B6803F580531B7AF7
:103CC000DBB20A2B14BF01230023DBB2002B0FD081
:103CD000FB783E2B40F0AE8000217868FFF78BFE2A
:103CE0007B6803F581530433184601F035FDA1E0EC
:103CF0007B6803F580531B7BDBB2012B04D1FB787F
:103D0000452B01D1012300E00023002B04D07B6868
:103D100003F5805302229A73FB780A2B0AD17B6841
:103D200003F580531B7BDBB20133DAB27B6803F50A
:103D300080531A737B6803F580531B7BDBB21A46F2
:103D40007B6803F580539B7B5BB29A420CBF0123D7
:103D50000023DBB2002B6DD000217868FFF74BFE0B
:103D60007B6803F581530433184601F0F5FC61E0EC
:103D70007B6803F58053DB7ADBB2032B0CBF012396
:103D80000023DBB2002B55D0F8787B6803F5805315
:103D90001B695A1C796801F580510A6102461A7044
:103DA0007B6803F580539B8A9BB201339AB27B6890
:103DB00003F580539A827B6803F580539B7FDBB2C7
:103DC000FA789A420CBF01230023DBB2002B0CD0FF
:103DD0007B6803F580539B7B5BB2DBB20133DBB2C4
:103DE0005AB27B6803F580539A737B6803F580535E
:103DF0001B7ADBB2FA789A420ED17B6803F58053C6
:103E00009B7B5BB21A467B6803F58053DB7FDBB29A
:103E10009A4201DB012300E00023002B0AD000219D
:103E20007868FFF7E8FD7B6803F581530433184693
:103E300001F092FC00BF0837BD4680BD80B584B05C
:103E400000AF78600B46FB700023FB730023FB730D
:103E500009E0FB7B114A52F833307A689A4206D067
:103E6000FB7B0133FB73FB7B022BF2D900E000BF2D
:103E7000FB7B0A4ADB0013445B68002B09D0FB7B09
:103E8000064ADB0013445B68FA7811461846FFF7D0
:103E900053FE00BF1037BD4680BD00BFEC1B0020A5
:103EA00080B483B000AF786000BF0C37BD465DF8CA
:103EB000047B704780B483B000AF074BD3ED007A2A
:103EC000FCEEE77AC7ED017A3B79DBB218460C3796
:103ED000BD465DF8047B7047081C002080B48BB0A1
:103EE00000AF87ED010A3D4BD3ED007A97ED017AE3
:103EF000B4EEE77AF1EE10FA02D84FF0000364E076
:103F0000364BD3ED0A7A97ED017AB4EEE77AF1EE0B
:103F100010FA01DB324B58E000237B6250E02F4A5D
:103F20007B6A9B0013441B683B627B6A01332B4A0C
:103F30009B0013441B68FB6197ED017AD7ED087A6B
:103F4000B4EEE77AF1EE10FA37DB97ED017AD7EDB0
:103F5000077AB4EEE77AF1EE10FA2ED5214A7B6AA1
:103F60009B0013441B68BB617B6A01331D4A9B00A5
:103F700013441B687B6197ED017AD7ED087A77EEE1
:103F8000676A97ED077AD7ED087A37EE677AC6EE5B
:103F9000877AC7ED047A97ED057AD7ED067A37EE82
:103FA000677AD7ED047A67EE277A97ED067A77EE8F
:103FB000277AC7ED037AFB6807E07B6A01337B62EF
:103FC0007B6A092BABD94FF0000307EE903AB0EEB5
:103FD000670A2C37BD465DF8047B7047000000205F
:103FE0000000C8422C00002080B588B000AF87EDEB
:103FF000010A3860344BD3ED007A97ED017A77EE01
:10400000677AF0EEE77AC7ED077AD7ED077AB7EE71
:10401000007AF4EEC77AF1EE10FA49DBD7ED077AB1
:10402000B0EE007AF4EEC77AF1EE10FA40D5274BE5
:104030001B7883F00103DBB2002B06D0234B012257
:104040001A70234A3B68136036E0214B1B683A68BC
:10405000D31ABB61BB6944F6206293422CD907F1A5
:10406000080319461B4800F0B1F9D7ED027AB0EE0B
:10407000670AFFF733FF87ED050A174B3B61174BC4
:1040800093ED007AD7ED047A27EE277AF7EE006AEF
:10409000D7ED047A76EEE76AD7ED057A66EEA77A71
:1040A00077EE277AC7ED037A0C4AFB68136003E0CA
:1040B000064B00221A7000E000BF034A7B681360C1
:1040C00000BF2037BD4680BD1C1C0020181C0020EE
:1040D000201C0020C01B00203333733F081C00202D
:1040E00080B588B000AFF86087ED020AC7ED010A1D
:1040F00006F012F9F8612E4B1B68FA69D31ABB61FE
:104100002B4AFB691360BB6907EE903AB8EE677AF9
:10411000DFED286AC7EE267AC7ED057A97ED027AB9
:10412000D7ED057A27EE277ADFED236AC7EE267AE8
:104130009FED217A67EE877AC7ED047A1F4B93EDE6
:10414000007AD7ED047A77EE677A1C4BC3ED007ADC
:104150001A4BD3ED007A9FED187AF4EEC77AF1EEA0
:1041600010FA02DD154B164A1A60144BD3ED007A93
:10417000F5EEC07AF1EE10FA03D5104B4FF00002C5
:104180001A60D7ED027AB8EE007AF4EEC77AF1EE53
:1041900010FA04DDF86997ED020AFFF725FF074BD7
:1041A0001A68FB681A6000BF2037BD4680BD00BF9B
:1041B000141C002000BA5B4A0000C842081C002002
:1041C0000000C84280B483B000AF87ED010AC7ED9C
:1041D000000A0B4A7B6813600A4A3B681360094B6C
:1041E00093ED007ADFED086AC7EE267A074BC3ED40
:1041F000007A00BF0C37BD465DF8047B704700BFF6
:10420000081C00200C1C002000006145101C002030
:1042100080B584B000AF786039607B684FF47A7203
:104220001A607B681033184600F0DEFE7B683A683F
:10423000DA607B681033184600F0E1FE4FF00003AF
:10424000FB604FF00003BB607B6818461037BD462B
:1042500080BD000080B588B000AF78603960002371
:10426000FB750023FB617B6810334FF47A611846BD
:1042700000F0D4FE0346002B0CBF01230023DBB269
:10428000002B7BD07B68DB68002B01D1012376E01B
:104290000023BB6135E07B68DB68184606F0B0F8A8
:1042A0000346002B14BF01230023DBB2002B06D0F2
:1042B0007B681033184600F0D9FE01235FE07B686D
:1042C000DB6843F69821184606F09FF90346002B59
:1042D00014BF01230023DBB2002B06D07B68103310
:1042E000184600F0C3FE012349E07B68DB681846EE
:1042F00006F016FA0246FB691344FB61BB69013301
:10430000BB617B681B68BA699A42C4D37B68DB686F
:10431000184606F047F97B681B68FA69B2FBF3F3AD
:10432000FB61FB6907EE903AB8EE677ADFED166A3B
:10433000C7EE267A9FED157A67EE877A9FED147A9D
:1043400077EEC77AC7ED047AD7ED047A9FED117A3C
:1043500077EEC77AC7ED037A97ED037ADFED0E6A41
:10436000C7EE267A7B68C3ED017A7B685A683B68A2
:104370001A607B681033184600F078FEFB7D184603
:104380002037BD4680BD00BF000080453333534019
:104390006F12033B3333D33F52499D3B80B582B00C
:1043A00000AF786039607B680433184600F01CFE6B
:1043B0007B683A681A607B680433184600F01FFE79
:1043C0007B6818460837BD4680BD000080B586B0C2
:1043D00000AF786039603223FB600023FB7200235A
:1043E0007B617B6804334FF47A61184600F016FE57
:1043F0000346002B0CBF01230023DBB2002B60D04F
:104400007B681B68002B01D101235BE000233B612B
:1044100035E07B681B68184605F0F2FF0346002B69
:1044200014BF01230023DBB2002B06D07B680433CA
:10443000184600F01BFE012344E07B681B6843F62E
:104440009821184606F0E1F80346002B14BF01231B
:104450000023DBB2002B06D07B680433184600F043
:1044600005FE01232EE07B681B68184606F058F90C
:1044700002467B6913447B613B6901333B613B69C5
:10448000312BC6D97B69114AA2FB03231B097B612F
:104490007B6907EE903AF8EE677A9FED0D7A67EE4A
:1044A000877A9FED0C7A67EE877A9FED0B7A77EE2D
:1044B000877A3B68C3ED007A7B680433184600F0C6
:1044C000D5FDFB7A18461837BD4680BD1F85EB51D8
:1044D0003333533A52B87641B81E053E80B584B0A6
:1044E00000AFF860B9603B601346FB71FB681433A2
:1044F000184600F079FDFB68BA685A60FB68FA79E3
:104500001A72FB683A681A60FB681433184600F0A8
:1045100076FDFB6818461037BD4680BD80B58AB071
:1045200002AFF860B9607A60FB6814334FF47A71B7
:10453000184600F073FD0346002B0CBF0123002337
:10454000DBB2002B00F084800023FB83322000F0DC
:1045500089FCAC233B7633237B760023BB76F8685B
:1045600000F07AF80346002B0CBF01230023DBB2D6
:10457000002B68D0FB685868FB681B7A5B0099B217
:10458000FB681B6807F118020093032307F0FCF98E
:10459000642000F067FCFB685868FB681B7A5B00CE
:1045A00099B2FB681B6807F110020093072307F01C
:1045B000E9FA3A7CFB685A72FB685B7A5BB2002BC3
:1045C00036DB7B7C1A46FB681A61FB681B691B02A1
:1045D000BA7C1A43FB681A61FB681B691B01FA7CF1
:1045E0001209D2B21A43FB681A61FB7C03F00F0276
:1045F000FB68DA60FB68DB681B023A7D1A43FB68E4
:10460000DA60FB68DB681B027A7D1A43FB68DA60BC
:10461000BA7DFB689A72F86800F03EF80246BB6803
:104620001A60F86800F074F802467B681A600AE0C5
:10463000FB8B0133FB830A2000F014FCFB8B322B35
:1046400000D8A8E700BFFB681433184600F00EFD41
:1046500000BF2037BD4680BD80B584B000AF786014
:104660000023FB737B6858687B681B7A5B0099B2F8
:104670004FF47A73032207F0B7FC0346002B14BFF4
:1046800001230023DBB2002B01D0012300E0FB7BE0
:1046900018461037BD4680BD80B584B000AF786045
:1046A0007B68DB681846FBF72DFF4FF00002154BC7
:1046B000FCF7CCF802460B46104619464FF00002B4
:1046C000104BFCF7C3F802460B46104619464FF054
:1046D00000020D4BFBF790FF02460B4610461946B1
:1046E0004FF00002094BFBF7CFFD02460B46104688
:1046F0001946FCF759FA0346FB60FB681846103769
:10470000BD4680BD00009040000069400000494067
:1047100080B584B000AF78607B681B691846FBF7F2
:10472000F1FE4FF00002114BFCF790F802460B46E9
:10473000104619464FF000020C4BFCF787F8024672
:104740000B46104619464FF00002094BFBF754FF89
:1047500002460B4610461946FCF726FA0346FB6054
:10476000FB6818461037BD4680BD00BF0000904072
:104770000000594080B586B000AF7861396187ED9F
:10478000030AC7ED020A87ED011A7B69194A9A608C
:104790007B690022DA607B694FF000021A617B6955
:1047A000144A5A617B6900221A767B690022DA6119
:1047B0007B6900221A627B6900225A627B69383366
:1047C000184600F011FC7B693A695A637B693833FB
:1047D000184600F014FC7B69FA689A627B69BA6833
:1047E000DA627B697A681A637B6918461837BD46B6
:1047F00080BD00BF000080BF80B584B000AFF8600E
:10480000B9607A603B60B968F86800F00FF87968C1
:10481000F86800F007F9FB69BA693968F86800F0D0
:1048200053F900BF1037BD4680BD000080B596B07B
:1048300000AFF860B960002387F85730FB68383361
:104840004FF47A71184600F0E9FB0346002B0CBFC9
:1048500001230023DBB2002B00F0D180FB6893ED35
:104860000B7AFB68D3ED0A7A77EE677AC7ED117A97
:1048700007F114032822002118460EF0DCFD002366
:104880003B65FB685B6B002B01D10123BCE000237F
:10489000FB643AE0FB685B6B184605F0B1FD03462C
:1048A000002B14BF01230023DBB2002B06D0FB68D2
:1048B0003833184600F0DAFB0123A5E0FB685B6B98
:1048C00042F21071184605F0A0FE0346002B14BFFB
:1048D00001230023DBB2002B06D0FB6838331846D7
:1048E00000F0C4FB01238FE0FB685B6B184605F00A
:1048F00017FF0246FB6C9B00503307F108010B4485
:1049000043F8442CFB6C0133FB64FB6C092BC1DDC9
:10491000FB685B6B184605F045FE0023BB640DE0A9
:10492000BB6C9B00503307F10802134453F8443C1E
:104930003A6D13443B65BB6C0133BB64BB6C092B04
:10494000EEDD3B6D324AA2FB0323DB083B653B6D8A
:1049500007EE903AB8EE677ADFED2E6AC7EE267A58
:104960009FED2D7A67EE877AC7ED107AFB6893ED9D
:104970000C7AD7ED106AC6EE877AB3EE007A67EE4E
:10498000877AB1EE007A77EE877AC7ED0F7AD7EDA6
:104990000F7AB1EE007A77EEC77AF3EE006A87EE0F
:1049A000A67AD7ED117A67EE277AFB68C3ED017A14
:1049B000FB68D3ED016A97ED117AC6EE877A9FED19
:1049C000177A67EE877AFB68C3ED007AFB6893ED90
:1049D000007ADFED126AC7EE267A9FED117A67EE54
:1049E000877AFCEEE77AC7ED017A3B79DAB2BB68E9
:1049F0001A70FB683833184600F038FB02E00123D8
:104A000087F8573097F8573018465837BD4680BD5D
:104A1000CDCCCCCC00008045333353400000FA436A
:104A20000000C84280B584B000AF786039607B6810
:104A300038334FF47A71184600F0F0FA0346002B31
:104A40000CBF01230023DBB2002B38D005F064FC3F
:104A5000F8607B6893ED027A7B68D3ED007AB4EE60
:104A6000E77AF1EE10FA0CD57B681A687B689A60D9
:104A70007B68FA68DA617B683833184600F0F6FA2A
:104A80001DE07B68DB69FA68D31A0E4A934211D3A2
:104A90007B6893ED027A7B68D3ED007A77EE677AD4
:104AA0003B68C3ED007A7B681A687B689A607B6814
:104AB000FA68DA617B683833184600F0D7FA1037A5
:104AC000BD4680BD80EE360080B584B000AFF86092
:104AD000B9607A603B60FB6838334FF47A711846EE
:104AE00000F09CFA0346002B0CBF01230023DBB22D
:104AF000002B5FD0FB681A68FB681A61FB68D3ED76
:104B0000057AF5EEC07AF1EE10FA09D5FB681A695C
:104B1000FB685A61FB683833184600F0A7FA49E091
:104B2000FB6893ED047AFB68D3ED057A77EE677A3C
:104B3000FDEEE77A17EE902AFB68DA6005F0ECFBF1
:104B40000246FB681A62FB681B7E002B11D1FB68D2
:104B5000DB68052B25DDFB6801221A76FB681A6AE3
:104B6000FB685A627B68BA681A603B6800221A6068
:104B700017E0FB68DB68002B0FDCFB681A6AFB6838
:104B80005B6AD31A41F2873293420AD9FB6800224A
:104B90001A763B68BA681A6003E0FB681A6AFB6819
:104BA0005A62FB681A69FB685A61FB683833184619
:104BB00000F05CFA1037BD4680BD80B584B000AF10
:104BC000F86087ED020AC7ED010AFB6838334FF43D
:104BD000FA51184600F022FA0346002B0CBF0123BD
:104BE0000023DBB2002B0AD0FB68BA689A62FB682C
:104BF0007A68DA62FB683833184600F037FA00BF8B
:104C00001037BD4680BD80B584B000AFF860B96094
:104C10007A60FB6838334FF4FA51184600F0FEF919
:104C20000346002B0CBF01230023DBB2002B0CD06A
:104C3000FB689A6ABB681A60FB68DA6A7B681A606C
:104C4000FB683833184600F011FA00BF1037BD4634
:104C500080BD80B582B000AF786039607B68043376
:104C60003968184600F031FD7B682433184600F09F
:104C7000BBF97B683A681A607B682433184600F0F9
:104C8000BEF97B6818460837BD4680BD80B582B046
:104C900000AF786039607B6824334FF47A7118462E
:104CA00000F0BCF90346002B0CBF01230023DBB24C
:104CB000002B00F0C6807B68181D4FF47A73042225
:104CC000644900F024FD7B68181D7B6803F108012E
:104CD0004FF4FA73192200F007FD4FF47A7000F0D8
:104CE000C1F87B68181D4FF47A7308225A4900F006
:104CF0000EFD7B68181D7B6803F108014FF47A7381
:104D0000192200F0F1FC7B68DB7A1B027A68127BC7
:104D100013431846FBF7F6FB4FF000024F4BFBF72F
:104D200095FD02460B4610461946FBF75DFF02460D
:104D30003B681A607B685B7B1B027A68927B1A4334
:104D40007B68DB7B1B061A437B681B7C1B041343BD
:104D50001846FBF7D7FB4FF00002414BFBF776FDFF
:104D600002460B4610461946FBF73EFF02463B68DB
:104D70005A607B685B7C1B027A68927C1A437B6872
:104D8000DB7C1B061A437B681B7D1B04134307EE69
:104D9000903AF8EE677A3B68C3ED027A7B685B7DF8
:104DA0001B027A68927D1A437B68DB7D1B061A43DF
:104DB0007B681B7E1B04134307EE903AF8EE677A7C
:104DC0003B68C3ED037A7B685B7E1B027A68927E48
:104DD00013431846FBF796FB4FF000021F4BFBF7FF
:104DE00035FD02460B4610461946FBF7FDFE02460E
:104DF0003B681A617B68DB7E1B027A68127F134373
:104E00001846FBF77FFB4FF00002154BFBF71EFD2A
:104E100002460B4610461946FBF7E6FE02463B6883
:104E20005A617B685B7F1B029BB27A68927F134357
:104E30009AB23B681A837B682433184600F016F94F
:104E400004E01C22002138680EF0F5FA00BF083794
:104E5000BD4680BDDC610108D4610108000024402A
:104E60000000594080B582B000AF78607B684FF495
:104E70007A7202FB03F3054AA2FB03239B0918463F
:104E80000BF0E0FD00BF0837BD4680BDD34D62107A
:104E900080B584B000AFF860B9607A607B80FB6851
:104EA00000221A62FB68BA681A60FB6804337968EA
:104EB00018460EF0CCFBFB687A889A82FB68BA69C8
:104EC0009A61FB68FA69DA61FB6818461037BD46DB
:104ED00080BDB0B584B002AF78607B6818687B682D
:104EE000191D7B689C8A7B689D697B68DB697A6891
:104EF0002032019200932B4622460BF045FC00BF66
:104F00000837BD46B0BD80B485B000AFF8607B60A7
:104F10000B467B8113463B81FB687A89A3F85420BA
:104F2000FB683A89A3F85620FB687A689A65FB68A3
:104F300018461437BD465DF8047B704790B585B0C0
:104F400002AF78607B68B3F8543018467B68B3F8DA
:104F500056301C467B689A6D7B68043300210091B3
:104F600021460AF08BFD02467B681A6000BF0C37B1
:104F7000BD4690BD80B584B000AF78603960012334
:104F8000FB737B6818680023C82239680AF084FE26
:104F90000346012B14BF01230023DBB2002B01D0F9
:104FA000032300E0FB7B18461037BD4680BD80B56B
:104FB00084B000AF786039600223FB737B681B68A4
:104FC0003222396818460BF007F80346012B0CBF54
:104FD00001230023DBB2002B01D0002300E0FB7B88
:104FE00018461037BD4680BD80B483B000AF7860EE
:104FF0007B6818460C37BD465DF8047B704780B56A
:1050000082B000AF786001200AF02DFE02467B6876
:105010001A6000BF0837BD4680BD000080B584B06F
:1050200000AF786039600123FB737B681A683B68C6
:105030004FF47A7101FB03F30B49A1FB03139B09A6
:10504000194610460BF0AAF80346012B0CBF0123AA
:105050000023DBB2002B01D0002300E0FB7B1846CD
:105060001037BD4680BD00BFD34D621080B584B0FF
:1050700000AF78600123FB737B681868002300226F
:1050800000210AF009FEFB7B18461037BD4680BDA3
:1050900080B483B000AF78607B6818460C37BD469B
:1050A0005DF8047B704780B582B000AF78600AF08D
:1050B0000BFA02467B681A6000BF0837BD4680BD08
:1050C00080B584B000AF7860EFF30583FB60FB68C8
:1050D000002B14BF01230023DBB2002B1ED07B6802
:1050E00000225A607B6818687B6804331A460121E5
:1050F0000AF092FB02467B689A607B689B68002BF3
:1051000012D07B685B68002B0ED0094B4FF08052A9
:105110001A60BFF34F8FBFF36F8F05E07B681B688A
:10512000012118460AF0BCFA00BF1037BD4680BD09
:1051300004ED00E080B584B002AF78607B68186849
:105140004FF0FF3300930023012201210AF0D6F92A
:1051500000BF0837BD4680BD80B584B002AF78601F
:1051600039607B6818683B684FF47A7202FB03F37E
:10517000064AA2FB03239B0900930023012201217D
:105180000AF0BCF900BF0837BD4680BDD34D6210A0
:1051900080B584B000AFF860B9601346FB71FB685E
:1051A0000833184600F0F3FAFB680C331846FFF793
:1051B0001BFFFB68BA685A60FB68FA791A70FB68D3
:1051C0000C331846FFF71BFFFB6818461037BD4627
:1051D00080BDB0B590B004AFF860B9607A603B6054
:1051E0000123FB62FB680C334FF47A611846FFF72A
:1051F00015FF0346002B0CBF01230023DBB2002B5D
:1052000042D0FB685B6807F114010022184608F0E1
:1052100028FAFB685B6807F128010022184608F0AD
:1052200002FB3B68002B17D0FB6803F10805FB6805
:1052300093F9003003936C4607F11C0393E80700D1
:1052400084E8070007F114030CCBB96A284600F084
:10525000EBFB02463B681A60BB68002B02D0BA6ABF
:10526000BB681A607B68002B06D007F11403142278
:10527000194678680EF0F3F9FB680C331846FFF70F
:10528000F5FE0023FB6214E03B68002B02D03B6874
:1052900000221A60BB68002B03D000231A68BB6889
:1052A0001A607B68002B04D01422002178680EF06D
:1052B000D6F9FB6ADBB218463037BD46B0BDB0B593
:1052C00090B004AFF860B9607A603B600123FB6284
:1052D000FB680C334FF47A711846FFF79FFE0346C4
:1052E000002B0CBF01230023DBB2002B47D0FB684F
:1052F0005B6807F114010022184608F0B2F9FB6858
:105300005B6807F128010022184608F08CFAFB6858
:1053100093F900203B6C1A703B68002B17D0FB6898
:1053200003F10805FB6893F9003003936C4607F11D
:105330001C0393E8070084E8070007F114030CCB73
:10534000B96A284600F070FB02463B681A60BB68E9
:10535000002B02D0BA6ABB681A607B68002B06D0AB
:1053600007F114031422194678680EF078F9FB68E7
:105370000C331846FFF77AFE0023FB6214E03B680B
:10538000002B02D03B6800221A60BB68002B03D0C0
:1053900000231A68BB681A607B68002B04D01422B3
:1053A000002178680EF05BF9FB6ADBB218463037F3
:1053B000BD46B0BD80B58CB000AFF860B9607A6012
:1053C000FB700123FB62FB680C334FF47A711846C3
:1053D000FFF724FE0346002B0CBF01230023DBB2A2
:1053E000002B27D0FB685B6800227968184608F01C
:1053F0009EF8FB685B680022B968184608F08FF9D0
:10540000FB68FA781A70FB685B6807F114010022E8
:10541000184608F026F9FB685B6807F128010022AE
:10542000184608F000FAFB680C331846FFF71EFE1A
:105430000023FB62FB6ADBB218463037BD4680BDF5
:1054400080B483B000AF78600B46FB707B68FA785D
:105450001A7000BF0C37BD465DF8047B7047000032
:1054600080B483B000AF78603960064A7B6813600F
:10547000054A3B68136000BF0C37BD465DF8047BEE
:10548000704700BF241C0020281C002080B584B079
:1054900000AF78607B685B6CBB817B6893F84230BF
:1054A000DBB2222B0CBF01230023DBB2002B21D067
:1054B0007B681B685B689BB2DBB2FB81BB89002BFE
:1054C00007D0BB891B021AB2B7F90E3013431BB2C7
:1054D000FB817B680B4A93420AD10B4B1B68002B64
:1054E00006D0094B1B68FA89D2B2114678689847F2
:1054F000002303E07B681B685B68022318461037B3
:10550000BD4680BD20240020241C002080B586B02C
:1055100000AF78607B681B681B687B617B681B68D9
:10552000DB683B617B681B685B69FB600023BB60D9
:105530007B6903F00F03BB60BB68002B0DD17B6957
:1055400003F02003002B08D03B6903F02003002B5D
:1055500003D07868FFF79AFFA4E07B681B685B695B
:10556000FB60BB68002B00F08380FB6803F0010345
:10557000002B04D13B6903F49073002B78D07B6936
:1055800003F00103002B0FD03B6903F48073002B61
:105590000AD07B681B686FF001021A607B685B6C45
:1055A00043F001027B685A647B6903F00203002B1D
:1055B0000FD0FB6803F00103002B0AD07B681B6847
:1055C0006FF002021A607B685B6C43F004027B6838
:1055D0005A647B6903F00403002B0FD0FB6803F0CF
:1055E0000103002B0AD07B681B686FF004021A606D
:1055F0007B685B6C43F002027B685A647B6903F052
:105600000803002B14D03B6903F02003002B04D1C6
:10561000FB6803F00103002B0AD07B681B686FF066
:1056200008021A607B685B6C43F008027B685A646E
:105630007B685B6C002B14BF01230023DBB2002BC3
:105640002DD07B6903F02003002B0AD03B6903F0C7
:105650002003002B05D07B6800225A647B681B68FE
:105660005B68786809F056FB7B6800225A6416E094
:105670007B6903F08003002B14D03B6903F08003A7
:10568000002B0FD07B68094A93420AD1084B1B6854
:10569000002B06D0064B1B687868984701E000BFD6
:1056A00000E000BF1837BD4680BD00BF20240020A9
:1056B000281C002080B582B000AF78607868FFF7C2
:1056C00025FF00BF0837BD4680BD80B483B000AF62
:1056D000786039607B683A681A607B6818460C37D6
:1056E000BD465DF8047B704780B584B000AFF860BC
:1056F000B9603B601346FB80FB681868FA883B681A
:10570000B96809F098F900BF1037BD4680BD80B573
:1057100084B000AFF860B9603B601346FB80FB6863
:105720001868FA883B68B96809F0FAF800BF1037C2
:10573000BD4680BD80B584B000AFF860B960134647
:10574000FB80FB681B68FA88B968184609F00AFAFA
:1057500000BF1037BD4680BD80B582B000AF786015
:105760007B681B68184609F023FA00BF0837BD465E
:1057700080BD80B582B000AF7860396039687868E4
:105780000DF061FE034618460837BD4680BD80B463
:1057900083B000AF78607B6818460C37BD465DF873
:1057A000047B704780B586B000AFF860B9601346DF
:1057B000FB800223FB750C49B8680DF064FE0346BC
:1057C000002B02D00023FB7508E00849B8680DF0F3
:1057D0005AFE0346002B01D00123FB75FB7D1846C2
:1057E0001837BD4680BD00BFEC5C0108F05C0108C5
:1057F00090B5ADF5077D00AF07F50674A4F5037409
:10580000206007F50670A0F504700160114607F5E9
:105810000672A2F50672136007F50673A3F212234F
:105820000A461A80022387F80D320023A7F81632A1
:1058300007F50673A3F212231A8807F50673A3F57A
:10584000047307F1140019680DF00AFE07F50673DA
:10585000A3F5067307F11402196810460DF013FE44
:105860000346002B01D1022385E0D7F83032002B0C
:1058700001D100237FE097F8282207F11403114695
:105880001846FFF776FFC7F80802D7F80832002B52
:1058900016D007F11403D7F80822D31AC7F810322C
:1058A00097F828323A2B05D1D7F810320233C7F8CF
:1058B000103207E0D7F810320133C7F8103201E098
:1058C000022358E0D7F81032A7F80E323CE0B7F8C0
:1058D0000E3207F50672A2F50472126813441B78A3
:1058E00097F82C229A420FD0B7F80E3207F50672BD
:1058F000A2F5047212681A44B7F81632D7F83012BB
:105900000B4412781A7015E0B7F80E3207F50672DC
:10591000A2F50472126813441B7897F82C229A425D
:1059200008D1B7F81632D7F83022134400221A7083
:10593000002320E0B7F80E320133A7F80E32B7F893
:1059400016320133A7F81632B7F8162207F5067398
:10595000A3F212231988D7F81032CB1A9A4208DA28
:1059600007F50673A3F21223B7F80E221B889A429A
:10597000ADD397F80D32184607F50777BD4690BDB1
:1059800080B588B000AFF860B9607A60FB70002322
:105990007B76FB6A002B01D1012340E07968B8686F
:1059A0000DF071FDF861FB69002B01D1022336E097
:1059B0007868FAF75DFC0246FB691344FB61FB69FA
:1059C0000133FB61FB781946F869FFF7D2FE786175
:1059D0007B69002B01D1022321E07B690133FB614C
:1059E00000237B830AE0FB695A1CFA611978FA6A82
:1059F0007B8B581C788313440A461A70FB691B780A
:105A000097F828209A4204D07A8B3B8E013B9A4229
:105A1000E9DB7B8BFA6A134400221A707B7E1846FE
:105A20002037BD4680BD000082B080B58CB000AF8D
:105A30007860396007F1380181E80C00BB783B627F
:105A40007B78FB61FB78BB61BB69452B02DC4FF4C3
:105A5000FA6301E040F26C73BA691344BB6197F8D2
:105A600038307B6197F839303B6197F83A30FB600A
:105A700097F94C2013461B019B1A9B00BB60002327
:105A8000FB6240F2B273BB6212E0B96A786800F060
:105A900061F80346002B02D04FF4B77301E040F2E7
:105AA0006D131A46FB6A1344FB62BB6A0133BB6287
:105AB000BA6ABB699A42E8DBFB6A254A02FB03F338
:105AC000FB6201237B620FE07A6AB969786800F0B3
:105AD00071F803461E4A02FB03F31A46FB6A13449D
