:020000040800F2
:10000000000002200D650008BD5D0008C55D000808
:10001000CD5D0008D55D0008DD5D00080000000032
:10002000000000000000000000000000C1C800083F
:10003000E55D00080000000011CB0008E9A60008FB
:100040005D6500085D6500085D6500085D65000888
:100050005D6500085D6500085D6500085D65000878
:100060005D6500085D6500085D6500085D65000868
:100070005D6500085D6500085D6500085D65000858
:100080005D6500085D6500085D6500085D65000848
:100090005D6500085D6500085D6500085D65000838
:1000A0005D6500085D6500085D6500085D65000828
:1000B0005D650008F55D00085D6500085D65000888
:1000C0005D6500085D6500085D6500085D65000808
:1000D0005D6500085D650008095E00081D5E00089A
:1000E0005D6500085D6500085D6500085D650008E8
:1000F0005D6500085D6500085D6500085D650008D8
:100100005D6500085D6500085D6500085D650008C7
:100110005D650008315E00085D6500085D650008EA
:100120005D6500085D6500085D6500085D650008A7
:100130005D6500085D6500085D6500085D65000897
:100140005D6500085D6500085D6500085D65000887
:100150005D6500085D6500085D6500085D65000877
:100160005D6500085D6500085D6500085D65000867
:100170005D6500085D6500085D6500080000000021
:080180005D6500085D650008E3
:1001900010B5054C237833B9044B13B10448AFF3C1
:1001A00000800123237010BD200200200000000009
:1001B000C800010808B5034B1BB103490348AFF35E
:1001C000008008BD0000000024020020C8000108D3
:1001D00001F0FF01102A2BDB10F0070F08D010F8F8
:1001E000013B013A8B422DD010F0070F42B3F6D1FC
:1001F000F0B441EA012141EA014122F007047FF015
:1002000000070023F0E80256083C85EA010586EA6B
:10021000010685FA47F5A3FA87F586FA47F6A5FAA7
:1002200087F68EB9EED1F0BC01F0FF0102F00702B3
:1002300032B110F8013B013A83EA010313B1F8D15E
:100240000020704701387047002D06BF354603383F
:10025000073815F0010F07D1013015F4807F02BF78
:10026000013015F4C03F0130F0BC0138704700BFC9
:10027000034613F8012B002AFBD1181A01387047E6
:1002800081F0004102E000BF83F0004330B54FEA47
:1002900041044FEA430594EA050F08BF90EA020FB4
:1002A0001FBF54EA000C55EA020C7FEA645C7FEA47
:1002B000655C00F0E2804FEA5454D4EB5555B8BF6A
:1002C0006D420CDD2C4480EA020281EA030382EADB
:1002D000000083EA010180EA020281EA0303362D6D
:1002E00088BF30BD11F0004F4FEA01314FF4801C40
:1002F0004CEA113102D0404261EB410113F0004F52
:100300004FEA03334CEA133302D0524263EB430308
:1003100094EA050F00F0A780A4F10104D5F1200EA6
:100320000DDB02FA0EFC22FA05F2801841F1000101
:1003300003FA0EF2801843FA05F359410EE0A5F1D5
:1003400020050EF1200E012A03FA0EFC28BF4CF006
:10035000020C43FA05F3C01851EBE37101F00045BC
:1003600007D54FF0000EDCF1000C7EEB00006EEBC9
:100370000101B1F5801F1BD3B1F5001F0CD3490853
:100380005FEA30004FEA3C0C04F101044FEA4452AA
:1003900012F5800F80F09A80BCF1004F08BF5FEA31
:1003A000500C50F1000041EB045141EA050130BD11
:1003B0005FEA4C0C404141EB0101013C28BFB1F523
:1003C000801FE9D291F0000F04BF01460020B1FA6E
:1003D00081F308BF2033A3F10B03B3F120020CDA41
:1003E0000C3208DD02F1140CC2F10C0201FA0CF01F
:1003F00021FA02F10CE002F11402D8BFC2F1200C84
:1004000001FA02F120FA0CFCDCBF41EA0C01904039
:10041000E41AA2BF01EB0451294330BD6FEA040482
:100420001F3C1CDA0C340EDC04F11404C4F120026D
:1004300020FA04F001FA02F340EA030021FA04F37F
:1004400045EA030130BDC4F10C04C4F1200220FAD6
:1004500002F001FA04F340EA0300294630BD21FA14
:1004600004F0294630BD94F0000F83F4801306BFDA
:1004700081F480110134013D4EE77FEA645C18BFCE
:100480007FEA655C29D094EA050F08BF90EA020F65
:1004900005D054EA000C04BF1946104630BD91EA5D
:1004A000030F1EBF0021002030BD5FEA545C05D160
:1004B0004000494128BF41F0004130BD14F580049F
:1004C0003CBF01F5801130BD01F0004545F0FE4113
:1004D00041F470014FF0000030BD7FEA645C1ABF48
:1004E000194610467FEA655C1CBF0B46024650EA7F
:1004F000013406BF52EA033591EA030F41F40021AB
:1005000030BD00BF90F0000F04BF0021704730B530
:100510004FF4806404F132044FF000054FF0000105
:1005200050E700BF90F0000F04BF0021704730B5C6
:100530004FF4806404F1320410F0004548BF40429B
:100540004FF000013EE700BF42004FEAE2014FEAF0
:1005500031014FEA02701FBF12F07F4393F07F4FCB
:1005600081F06051704732F07F4208BF704793F0CE
:100570007F4F04BF41F40021704730B54FF46074E1
:1005800001F0004521F000411CE700BF50EA0102E4
:1005900008BF704730B54FF000050AE050EA01028D
:1005A00008BF704730B511F0004502D5404261EBFD
:1005B00041014FF4806404F132045FEA915C3FF43E
:1005C000D8AE4FF003025FEADC0C18BF03325FEADB
:1005D000DC0C18BF033202EBDC02C2F1200300FA8C
:1005E00003FC20FA02F001FA03FE40EA0E0021FAB1
:1005F00002F11444BDE600BF70B54FF0FF0C4CF49F
:10060000E06C1CEA11541DBF1CEA135594EA0C0F50
:1006100095EA0C0F00F0DEF82C4481EA030621EA8B
:100620004C5123EA4C5350EA013518BF52EA0335C6
:1006300041F4801143F4801338D0A0FB02CE4FF078
:100640000005E1FB02E506F00042E0FB03E54FF0A8
:100650000006E1FB03569CF0000F18BF4EF0010EA0
:10066000A4F1FF04B6F5007F64F5407404D25FEA9C
:100670004E0E6D4146EB060642EAC62141EA55514F
:100680004FEAC52040EA5E504FEACE2EB4F1FD0C91
:1006900088BFBCF5E06F1ED8BEF1004F08BF5FEA0F
:1006A000500E50F1000041EB045170BD06F00046C1
:1006B00046EA010140EA020081EA0301B4EB5C046E
:1006C000C2BFD4EB0C0541EA045170BD41F4801166
:1006D0004FF0000E013C00F3AB8014F1360FDEBF8B
:1006E000002001F0004170BDC4F10004203C35DA67
:1006F0000C341BDC04F11404C4F1200500FA05F3EA
:1007000020FA04F001FA05F240EA020001F000428A
:1007100021F0004110EBD37021FA04F642EB060100
:100720005EEA430E08BF20EAD37070BDC4F10C042A
:10073000C4F1200500FA04F320FA05F001FA04F2EE
:1007400040EA020001F0004110EBD37041F10001DA
:100750005EEA430E08BF20EAD37070BDC4F12005E5
:1007600000FA05F24EEA020E20FA04F301FA05F24D
:1007700043EA020321FA04F001F0004121FA04F2F5
:1007800020EA020000EBD3705EEA430E08BF20EAC5
:10079000D37070BD94F0000F0FD101F000464000FF
:1007A00041EB010111F4801F08BF013CF7D041EA81
:1007B000060195F0000F18BF704703F00046520085
:1007C00043EB030313F4801F08BF013DF7D043EA56
:1007D0000603704794EA0C0F0CEA135518BF95EA0C
:1007E0000C0F0CD050EA410618BF52EA4306D1D193
:1007F00081EA030101F000414FF0000070BD50EAB2
:10080000410606BF1046194652EA430619D094EA3B
:100810000C0F02D150EA013613D195EA0C0F05D125
:1008200052EA03361CBF104619460AD181EA030179
:1008300001F0004141F0FE4141F470014FF0000031
:1008400070BD41F0FE4141F4780170BD70B54FF0CC
:10085000FF0C4CF4E06C1CEA11541DBF1CEA13554C
:1008600094EA0C0F95EA0C0F00F0A7F8A4EB05042E
:1008700081EA030E52EA03354FEA013100F0888025
:100880004FEA03334FF0805545EA131343EA1263EE
:100890004FEA022245EA111545EA10654FEA0026A3
:1008A0000EF000419D4208BF964244F1FD0404F55C
:1008B000407402D25B084FEA3202B61A65EB0305B8
:1008C0005B084FEA32024FF480104FF4002CB6EB75
:1008D000020E75EB030E22BFB61A754640EA0C00F5
:1008E0005B084FEA3202B6EB020E75EB030E22BF35
:1008F000B61A754640EA5C005B084FEA3202B6EB76
:10090000020E75EB030E22BFB61A754640EA9C0034
:100910005B084FEA3202B6EB020E75EB030E22BF04
:10092000B61A754640EADC0055EA060E18D04FEAC2
:10093000051545EA16754FEA06164FEAC30343EA62
:1009400052734FEAC2025FEA1C1CC0D111F4801F2F
:100950000BD141EA00014FF000004FF0004CB6E728
:1009600011F4801F04BF01430020B4F1FD0C88BFC7
:10097000BCF5E06F3FF6AFAEB5EB030C04BFB6EBD2
:10098000020C5FEA500C50F1000041EB045170BDC5
:100990000EF0004E4EEA113114EB5C04C2BFD4EBF2
:1009A0000C0541EA045170BD41F480114FF0000E76
:1009B000013C90E645EA060E8DE60CEA135594EAF2
:1009C0000C0F08BF95EA0C0F3FF43BAF94EA0C0FF5
:1009D0000AD150EA01347FF434AF95EA0C0F7FF46A
:1009E00025AF104619462CE795EA0C0F06D152EABE
:1009F00003353FF4FDAE1046194622E750EA4106A2
:100A000018BF52EA43067FF4C5AE50EA41047FF4B2
:100A10000DAF52EA43057FF4EBAE12E74FF0FF3C17
:100A200006E000BF4FF0010C02E000BF4FF0010CE8
:100A30004DF804CD4FEA410C7FEA6C5C4FEA430C61
:100A400018BF7FEA6C5C1BD001B050EA410C0CBFB0
:100A500052EA430C91EA030F02BF90EA020F002012
:100A6000704710F1000F91EA030F58BF994208BF79
:100A700090422CBFD8176FEAE37040F00100704736
:100A80004FEA410C7FEA6C5C02D150EA013C07D18D
:100A90004FEA430C7FEA6C5CD6D152EA033CD3D0D8
:100AA0005DF8040B704700BF8446104662468C46D2
:100AB0001946634600E000BF01B5FFF7B7FF002805
:100AC00048BF10F1000F01BD4DF808EDFFF7F4FF2E
:100AD0000CBF012000205DF808FB00BF4DF808EDB9
:100AE000FFF7EAFF34BF012000205DF808FB00BFDC
:100AF0004DF808EDFFF7E0FF94BF012000205DF8FE
:100B000008FB00BF4DF808EDFFF7CEFF94BF0120B2
:100B100000205DF808FB00BF4DF808EDFFF7C4FFAB
:100B200034BF012000205DF808FB00BF4FEA410CF4
:100B30007FEA6C5C02D150EA013C0AD14FEA430CD7
:100B40007FEA6C5C02D152EA033C02D14FF0000014
:100B500070474FF0010070474FEA410212F5001252
:100B600015D211D56FF47873B3EB625212D94FEAF4
:100B7000C12343F0004343EA505311F0004F23FADE
:100B800002F018BF404270474FF00000704750EA33
:100B9000013005D111F0004008BF6FF000407047F0
:100BA0004FF00000704700BF4A0011D212F500124A
:100BB00011D20DD56FF47873B3EB62520ED44FEAB5
:100BC000C12343F0004343EA505323FA02F0704735
:100BD0004FF00000704750EA013002D14FF0FF3073
:100BE00070474FF0000070477BB972B90029BEBF53
:100BF00000204FF0004106E008BF00281CBF6FF046
:100C000000414FF0FF3000F0B5B9ADF1080C6DE9CF
:100C100004CE002909DB002B1ADB00F04DF8DDF8CB
:100C200004E0DDE9022304B07047404261EB41017A
:100C3000002B1BDB00F040F8DDF804E0DDE90223C7
:100C400004B0404261EB4101524263EB4303704701
:100C5000524263EB430300F02FF8DDF804E0DDE9D6
:100C6000022304B0404261EB41017047524263EB02
:100C7000430300F021F8DDF804E0DDE9022304B0CD
:100C8000524263EB4303704753B94AB9002908BF86
:100C900000281CBF4FF0FF314FF0FF3000F06AB961
:100CA000ADF1080C6DE904CE00F006F8DDF804E0C3
:100CB000DDE9022304B070472DE9F047089D0C469A
:100CC000002B4ED194468C458646B2FA82F262D908
:100CD0004AB1C2F12003914020FA03F30CFA02FC5E
:100CE000194300FA02FE4FEA1C471FFA8CF6B1FBCB
:100CF000F7F44FEA1E4307FB141143EA014304FBD8
:100D000006F199420AD91CEB030304F1FF3080F08D
:100D10001281994240F20F81023C6344591A1FFA32
:100D20008EF3B1FBF7F007FB101143EA014300FB20
:100D300006F69E420AD91CEB030300F1FF3180F056
:100D4000FC809E4240F2F980634402389B1B40EADB
:100D5000044000211DB1D3400022C5E90032BDE8A6
:100D6000F0878B4205D90DB1C5E900010021084685
:100D7000F5E7B3FA83F1002946D1A34202D39042AA
:100D8000C0F0F080861A64EB03030120002DE6D04A
:100D9000C5E90063E3E7002A40F09080A1EB0C0472
:100DA0004FEA1C481FFA8CF70121B4FBF8F64FEA12
:100DB0001E4308FB164443EA044307FB06F098422F
:100DC00008D91CEB030306F1FF3402D2984200F26B
:100DD000CD8026461C1A1FFA8EF3B4FBF8F008FBF0
:100DE000104443EA044300FB07F79F4208D91CEB79
:100DF000030300F1FF3402D29F4200F2B08020468C
:100E0000DB1B40EA0640A5E7C1F120068B4022FA31
:100E100006F71F4320FA06FC04FA01F343EA0C0329
:100E2000F44000FA01F8380C4FEA1349B4FBF0FE25
:100E30001FFA87FC00FB1E4449EA04440EFB0CF930
:100E4000A14502FA01F20AD93C190EF1FF3A80F0ED
:100E50008480A14540F28180AEF1020E3C44A4EBB7
:100E600009041FFA83F9B4FBF0F300FB134449EAC9
:100E7000044403FB0CFCA44507D93C1903F1FF30E3
:100E800067D2A44565D9023B3C4443EA0E40A0FB2F
:100E90000293A4EB0C049C42CE469C4651D34ED008
:100EA00055B1B8EB0E0364EB0C0404FA06F6CB4024
:100EB0001E43CC40C5E90064002150E7C2F1200385
:100EC00020FA03F10CFA02FC24FA03F394400C43D9
:100ED0004FEA1C4800FA02FE1FFA8CF7B3FBF8F049
:100EE00008FB1031230C43EA014300FB07F1994250
:100EF00008D91CEB030300F1FF362CD299422AD902
:100F0000023863445B1AA4B2B3FBF8F108FB113357
:100F100044EA034401FB07F3A34208D91CEB040491
:100F200001F1FF3613D2A34211D902396444E41A05
:100F300041EA004139E70446F0E6084606E7C845BD
:100F4000AED2B9EB020E63EB070C0138A8E73146CD
:100F5000EDE7034699E73046D4E7D6467FE763449A
:100F600002384DE70646234608460FE7023E634433
:100F700030E700BF704700BFB0B5ADF5866D04AF78
:100F800007F58463A3F21C43186007F55173D92257
:100F9000002118460CF075FE07F58463A3F5A873CD
:100FA000184674231A4600210CF06BFE07F5846383
:100FB000A3F21443184640F2C2231A4600210CF053
:100FC00060FE4FF47A7003F0E9FD974800F044FEAC
:100FD0000523964A9649974804F0FAFA00F04AFD2C
:100FE000024607F53473114618460DF01AF8002230
:100FF00091498F4808F09FF9002290498C4808F0E9
:101000007CFA8D4B8D4D052203926C4603F108024C
:1010100007CA84E807000CCB2968864804F046FA22
:1010200003461A4607F58463A3F5A8731A61824B39
:101030001B781A46804B5B7819467F4B9B78009350
:101040000B467F497F480CF0B9FD7C4B9B781946D5
:101050007A4B5B781A4613469B0013447A4A134432
:10106000764AD27800920A46784979480CF0A6FD73
:1010700007F551731946774803F035FE0346002BF8
:101080000CBF01230023DBB2002B1ED007F55173E8
:101090000F331A4648F21011634800F009FF07F5B4
:1010A00051732D331A4648F220215F4800F000FFAB
:1010B00097F81B34012B01D1674B00E0674B1A46B0
:1010C00048F23031584800F0F3FE07F10C0319469E
:1010D000634803F008FE0346002B0CBF01230023E6
:1010E000DBB2002B67D007F10C03643318460BF01A
:1010F000C3FF024607F58463A3F5A8731A6607F1D8
:101100000C03A033574A19464A4804F08EF907F5F4
:101110008463A3F2144393F8C132032B12D1524AD1
:1011200045F21011404800F0C3FE504A45F220211C
:101130003D4800F0BDFE4C4A45F230313A4800F0DF
:10114000B7FE2CE007F58463A3F2144393F8C13291
:10115000042B12D1454A45F21011334800F0A8FE85
:10116000414A45F22021304800F0A2FE3E4A45F2B5
:1011700030312D4800F09CFE11E03B4A45F2101141
:10118000294800F095FE384A45F22021264800F013
:101190008FFE354A45F23031234800F089FE07F5CD
:1011A0008463A3F5A8731B6E9BB21A4647F2100125
:1011B0001D4800F0FBFD2B4B1B7803F00703072BAA
:1011C0000BD0284B1B7803F00703062B05D0254BCB
:1011D0001B7803F00703052B4ED1254B1B78002B02
:1011E0006FD1234B01221A7007F58463A3F5A8730E
:1011F0001A6907F58463A3F5A8735A660E4B1B782A
:101200001A460D4B5B7819460B4B9B7800930B46A7
:101210000B4918480CF0D2FC164A47F2202102482C
:1012200000F046FE4DE000BF94020020F4123F673C
:10123000D41C0020A0020020400200203C0200201C
:10124000E0000108A402002000000020F0000108D6
:10125000B80200208C1700200001010808010108D5
:101260007C1B0020CC0200201001010814010108A1
:10127000CD020020D0020020484B1B78002B20D04C
:10128000464B00221A7007F58463A3F5A8731A6908
:1012900007F58463A3F5A8739A66414B1B781A4639
:1012A0003F4B5B7819463E4B9B7800930B463D497C
:1012B0003D480CF083FC3C4A47F230313B4800F09B
:1012C000F7FD07F58463A3F5A8731B6907F534726E
:1012D00002F1540007F5347202F1500107F534723F
:1012E0005C32029207F53472583201920093034641
:1012F0000A469FED2F1AF2EE040A9FED2E0A0021F6
:101300002D4803F0B3FA07F5347303F1700207F5C3
:1013100034736C331946294803F066F9284A41F2C0
:101320001001224800F0C4FD264A4FF481511F48A5
:1013300000F0BEFD07F58463A3F5A87393F8503061
:101340001A4642F21001194800F030FD07F5846397
:10135000A3F5A873DB6E9BB21A4644F21001134842
:1013600000F024FD07F58463A3F5A8731B6F9BB2FF
:101370001A4644F220010D4800F018FD07F53473B9
:101380001946114803F092FC4FF400510F4806F043
:1013900006F8962003F002FC29E600BFCD020020EB
:1013A00040020020E0000108D0020020940200204A
:1013B000333353400000000054020020800200201C
:1013C000A4020020B80200205C180020000802409F
:1013D00080B582B000AF786039607B68012B16D190
:1013E0003B684FF6FF72934211D10B490B4803F053
:1013F00013FA4FF47A73382209490A4803F0DCF8EB
:1014000009490A4800F018FC094803F069FE00BFCA
:101410000837BD4680BD00BF381C002054020020A4
:10142000801C002080020020881D002094020020E3
:10143000A002002080B500AF4FF6FF710120FFF73A
:10144000C7FF80BD80B5ADF5347D00AF07F53473BF
:10145000A3F53373186007F53473A3F53173184699
:1014600040F2C2231A4600210CF00BFC4FF47A70B4
:1014700003F094FB07F10C0319460B4800F056FEED
:1014800007F10C0303F2C1231946074800F0C6FE1A
:1014900007F10C031946054803F008FC4FF47A7075
:1014A00003F07CFB00BFE5E7E40200207C1B00208A
:1014B00080B582B000AF786039607B68012B0BD1BA
:1014C0003B684FF6FF72934206D14FF40043044A43
:1014D0000449054800F0C0FD00BF0837BD4680BD87
:1014E00000100240601E0020E402002080B500AF22
:1014F0004FF6FF710120FFF7DBFF80BD80B582B0A2
:1015000000AF78603960396878680CF0E2FB034618
:1015100018460837BD4680BDF0B5E3B008AF07F503
:10152000B473A3F5AE731860C94801F04FF907F121
:101530008803D922002118460CF0A3FB07F5B473E9
:10154000A3F5AA73184674231A4600210CF099FBE0
:10155000012387F86731012387F86631002387F874
:10156000653107F188034B33BA4A14469C4604F1AF
:10157000300E654626460FCE28606960AA60EB6093
:1015800010340CF1100C7445F3D16246234603CBA2
:10159000106051601B78137207F188033733AE4A2D
:1015A0001C46134607CB20606160A2601B78237342
:1015B00007F18803C333A94A1068186092889A809B
:1015C00007F18803AF33A6491A460B4603CB1060D8
:1015D000516019889B7811819372002387F86431D8
:1015E00007F1880319469A4801F0DCFA07F18803ED
:1015F0000F331946964801F03FFB07F188031E336D
:101600001946934801F01EFC07F188032D33194653
:101610008F4801F00BFE07F1130319468C4801F0C7
:1016200055FD07F112031946894801F0E3FC07F163
:10163000880319468B4803F039FB322003F0AEFAD9
:1016400007F114031946884803F04DFB0346002BAD
:1016500097F86531032B00F2B88101A252F823F00C
:10166000711600085917000879180008C9180008F1
:1016700007F188030F337D491846FFF73FFF034604
:10168000002B09D107F188030F3379491846FFF77A
:1016900035FF0346002B1CD007F188031E33734926
:1016A0001846FFF72BFF0346002B09D107F18803EB
:1016B0001E336F491846FFF721FF0346002B08D061
:1016C00007F5B473A3F255131B78002B01D0012347
:1016D00000E00023002B00F07A8107F18803373304
:1016E00019465B4801F0B2F9034687F86331584860
:1016F00002F004FB564802F03DFB554802F076FB31
:10170000534802F0AFFB524802F0E8FB97F8633110
:10171000002B40F05C8197F86631022B08D197F8D6
:10172000603119464A4802F09BF8012387F8663178
:1017300097F86731002B0BD197F860311946444870
:1017400001F0B4FF424801F0E9FE012387F8673158
:10175000012387F865313AE107F188030F334349E4
:101760001846FFF7CBFE0346002B09D107F188038B
:101770000F333F491846FFF7C1FE0346002B20D028
:1017800007F188031E3339491846FFF7B7FE0346B1
:10179000002B09D107F188031E3335491846FFF79E
:1017A000ADFE0346002B0CD007F5B473A3F255131E
:1017B0001B78002B05D097F86731002B01D001234F
:1017C00000E00023002B00F004810021204801F0FC
:1017D00095F901211E4801F091F907F18803D833EA
:1017E00019461B4801F02AFE034687F8673197F82F
:1017F0006731002B21D197F8601101231D4A14484D
:1018000001F0F2FE034687F8673197F86731002B45
:1018100009D197F8603119460D4802F013FA0223F6
:1018200087F86531D5E097F860311946084801F02E
:101830003DFF074801F072FECBE097F86031194692
:10184000034801F033FF024801F068FEC1E000BF29
:101850001405002018010108540101086401010861
:101860006C0101088C1700205C180020EC070108AF
:10187000F80701087801010897F86731002B40F05C
:10188000AA8097F86631022B00F0A58097F86011C6
:1018900007F188034B331A46514801F063FF0346B2
:1018A00087F8663197F86631022B03D1032387F856
:1018B000653190E097F860311946494801F0D0FF52
:1018C000002387F8653186E007F188034B3319461A
:1018D000434801F03BFD034687F8663197F86431D1
:1018E000013387F8643197F86631022B10D097F8EE
:1018F0006431032B0CD9002387F85F3197F86031EE
:101900001946374801F0ACFF002387F8653164E0E1
:1019100097F86631022B60D1012387F85F310023ED
:1019200087F8643107F5B473A3F5AA731B69BB602C
:1019300007F5B473A3F5AA7393F850307B6007F5ED
:10194000B473A3F5AA735B6D1846FEF7FDFD02465E
:101950000B4607F5B471A1F5AA71896D07F5B4704E
:10196000A0F5AA70C06D07F5B474A4F5AA74E46E6E
:1019700007F5B475A5F5AA752D6F07F1140607953F
:10198000069405900491CDE902237A680092BB6821
:101990003246144914480CF011F997F8601107F118
:1019A000880303F1C302FF230093104B0C4801F09E
:1019B000D3FF0346052B97F8601107F18803C33363
:1019C0001A46074802F084F807E000BF08E600BFA7
:1019D00006E600BF04E600BF02E600BF00E600BF67
:1019E0001405002080010108140D0020441500207A
:1019F00080B582B000AF786039607B68012B08D178
:101A00003B684FF6FF72934203D10449044800F04B
:101A100079FE00BF0837BD4680BD00BF181E0020FC
:101A20001405002080B500AF4FF6FF710120FFF7CD
:101A3000DFFF80BD80B483B000AF78600B46FB70E1
:101A4000FB781B09DBB21A46094B995C7B685A1C70
:101A50007A600A461A70FB7803F00F03044AD25CDE
:101A60007B681A7000BF0C37BD465DF8047B704779
:101A70000408010890B583B000AF04F0BFFD034631
:101A8000DBB27B6004F0BAFD03461D4A1B0A1360FB
:101A90001C4C04F0BFFD034623607B68232B09D94F
:101AA0007B683D2B28BF3D23DBB23D33DAB2144BBC
:101AB000DA710BE07B68092B01D9412200E030226A
:101AC0007B68DBB21344DAB20D4BDA7104F08AFDA5
:101AD00003461B0CDBB219460B48FFF7ABFF04F0C3
:101AE00081FD0346DBB219460848FFF7A3FF044B0C
:101AF00000221A73024B18460C37BD4690BD00BF3A
:101B0000D81B0020DB1B0020E01B0020E21B002074
:101B100080B500AF094803F078F8094803F075F87C
:101B2000084803F072F8084803F0A4F8074803F0E7
:101B3000A1F8074803F09EF800BF80BD44160020BE
:101B4000681600208C1600208C1700205C180020DE
:101B50007C1B002080B500AFFFF7DAFF00BF80BD1F
:101B600080B584B002AF786039607B68012B38D1D2
:101B70003B684FF6FF72934233D118230193012340
:101B800000934FF40073194A19491A4803F01CF8DE
:101B900018230193012300934FF48073164A1749C9
:101BA000174803F011F818230193012300934FF411
:101BB0000073144A1449154803F006F8144BD9224F
:101BC0000121144803F03BF8134B74220121134800
:101BD00003F035F8124B40F2C2220121114803F004
:101BE0002EF800BF0837BD4680BD00BF6C04010859
:101BF0001915000844160020740401084514000853
:101C00006816002080040108790F00088C16002057
:101C1000B01600208C170020E81700205C18002068
:101C2000B81800207C1B002080B500AF4FF6FF7174
:101C30000120FFF795FF80BD80B582B000AF7860CE
:101C400039607B6808333968184603F0FAF97B6815
:101C500018460837BD4680BD80B582B000AF7860B9
:101C600041F21001786800F087F94FF481517868EB
:101C700000F082F948F21011786800F07DF948F21E
:101C80002021786800F078F948F23031786800F067
:101C900073F945F21011786800F06EF945F22021D1
:101CA000786800F069F945F23031786800F064F93D
:101CB00046F21011786800F05FF946F2202178684A
:101CC00000F05AF946F23031786800F055F947F2E1
:101CD0002021786800F050F947F23031786800F040
:101CE0004BF9002244F21001786800F05FF80022FE
:101CF00044F22001786800F059F8002242F2100105
:101D0000786800F053F8002247F21001786800F07C
:101D10004DF89FED250A43F21011786800F084F821
:101D20009FED210A43F22021786800F07DF89FEDB5
:101D30001E0A43F23031786800F076F89FED1A0AF7
:101D40004FF45151786800F06FF89FED170A43F295
:101D50005051786800F068F89FED130A43F2606113
:101D6000786800F061F89FED100A43F2111178686D
:101D700000F05AF89FED0C0A43F27071786800F099
:101D800053F89FED090A4FF46251786800F04CF85F
:101D90009FED050A43F69011786800F045F800BF02
:101DA0000837BD4680BD00BF0000000080B59CB074
:101DB00000AF78600B467B8013463B80002387F89A
:101DC0006F300023BB6007F10C036022002118462E
:101DD0000BF057FF5A233B72A5237B720523BB727E
:101DE0008223FB727B687A881A807B685B783B73FE
:101DF0007B681B787B737B683A881A807B685B788A
:101E0000BB737B681B78FB737B6803F1080007F1E9
:101E100008014FF47A73082203F022F997F86F3023
:101E200018467037BD4680BD80B59EB000AFF860E3
:101E30000B4687ED010A7B81002387F8773000236A
:101E40003B6107F114036022002118460BF019FFD3
:101E50005A233B74A5237B740723BB748223FB7432
:101E6000FB687A891A80FB685B783B75FB681B7896
:101E70007B75FB687A685A60FB68DB79BB75FB6829
:101E80009B79FB75FB685B793B76FB681B797B76FE
:101E9000FB6803F1080007F110014FF47A730A227E
:101EA00003F0DEF897F8773018467837BD4680BDE6
:101EB00080B5A0B002AFF8600B467A607B8100234A
:101EC00087F87730002387F8763000233B6107F1ED
:101ED00014036022002118460BF0D3FE5A233B74F2
:101EE000A5237B748223FB74FB687A891A80FB68C4
:101EF0005B783B75FB681B787B75032387F876302E
:101F000007F1100297F87630009306237968F86895
:101F100000F069F8034687F8763097F87630033397
:101F200087F8763097F8763078333B44202203F8F0
:101F3000682C97F87630013387F8763097F876304A
:101F400078333B44202203F8682C97F87630BB7432
:101F5000FB6803F1080097F876309BB203339AB21E
:101F600007F110014FF47A7303F07AF897F877309D
:101F700018467837BD4680BD80B59CB000AF78600C
:101F80000B467B80002387F86F300023BB6007F18E
:101F90000C036022002118460BF073FE5A233B729B
:101FA000A5237B720523BB728223FB727B687A8830
:101FB0001A807B685B783B737B681B787B7300239C
:101FC000BB730023FB737B6803F1080007F1080172
:101FD0004FF47A73082203F043F897F86F301846ED
:101FE0007037BD4680BD80B586B000AFF860B9607F
:101FF0007A60FB70B868FEF73BF9386100237B61BB
:102000001FE0BA687B6913441B78002B10D0BA68B4
:102010007B691A44FB7879680B4412781A7097F838
:102020002030013387F82030FB780133FB7005E066
:10203000FB787A68134400221A7006E07B6901334A
:102040007B617A693B699A42DBD397F82030184666
:102050001837BD4680BD000080B584B000AFF86081
:10206000B9607A607B80FB681846FF231A4600211E
:102070000BF007FEFB68FF33FF22002118460BF030
:1020800000FEFB6803F1FF02FB68C3F80022FA6858
:10209000FB68C3F80422FB6803F50573B9681846AA
:1020A00002F0CFFFFB6803F50673184603F018F83B
:1020B0001A4B1B7819461A4ABB6842F83130174B45
:1020C0001B78174ADB001344FA685A60134B1B78DD
:1020D0000133DAB2114B1A70104B1B78032B02D963
:1020E0000E4B00221A700F490F4802F02FFEFB68BA
:1020F0007A68C3F80C22FB687A88A3F81022FB6880
:10210000D3F80C02FB68B3F810320022194605F030
:102110002DF9FB6818461037BD4680BD001C002015
:10212000E81B0020F12600088D26000880B588B045
:1021300002AF786039600023FB750023FB73012335
:1021400001930D2300934FF47A7306223149786886
:1021500000F0F4F84FF496620021786800F0E3F99B
:102160000346FB73FB7B002B3AD17B681B78282B43
:1021700036D17B685B784E2B32D07B689B78412BC5
:102180002ED07B68DB784B2B2AD07B683B6107E045
:10219000BB891A463B6913443B61FB7D0133FB75E8
:1021A000FB7D172B18D87B6803F50670FA7D134664
:1021B0009B0013445B001A463B681A44202301939A
:1021C00007F10C0300930A23396903F0D6F803469C
:1021D000002B01D1012300E00023002BD8D115E012
:1021E0000023FB750FE0FA7D13469B0013445B0050
:1021F0001A463B68134408491A460B461B8813804D
:10220000FB7D0133FB75FB7D172BECD91837BD46E1
:1022100080BD00BF140801089404010880B588B08F
:1022200002AF786039600023FB750023BB75012382
:1022300001930D2300934FF47A7305223E49786889
:1022400000F07CF84FF496620021786800F06BF99A
:102250000346BB75BB7D002B6BD17B681B78282B9D
:1022600067D17B685B784E2B63D07B689B78412B72
:102270005FD07B68DB784B2B5BD07B683B617B68F6
:1022800003F5067007F108022023019307F10E03FE
:1022900000930223396903F070F80346002B0CBF4A
:1022A00001230023DBB2002B43D03B7A423B112BAE
:1022B0003ED801A252F823F0192300083123000868
:1022C00029230008312300082123000831230008B6
:1022D000312300083123000831230008312300088E
:1022E000112300083123000831230008312300089E
:1022F00001230008312300083123000809230008C6
:102300003B6801221A7014E03B6802221A7010E048
:102310003B6803221A700CE03B6804221A7008E044
:102320003B6805221A7004E03B6806221A7000E040
:1023300000BF1837BD4680BD1C08010880B586B0B7
:1023400000AFF860B96011461A460B46FB80134691
:10235000BB80FB68FF22002118460BF092FCFB6853
:10236000FF33FF22002118460BF08BFC0021F86898
:1023700000F099F80121F86800F095F8FB6897F8EB
:10238000202083F82A22FA68FB68C3F81C22FB6825
:102390000022A3F82022FB6803F50570FB68D3F840
:1023A0001C32FF22194602F06EFE97F82430012BF2
:1023B0003ED1FB88013B9BB21A46B968F86800F031
:1023C000EEF80346FB82FB6803F1FF00FB88013B4C
:1023D0001A46B9680BF02DFEFB68FA8AA3F80822AA
:1023E000FB88013BFA6892F80912FA6813440A461E
:1023F00083F8FF20FB880133FB80FB88013BFA68F0
:1024000092F80812FA6813440A4683F8FF20FB8802
:102410000133FB80FB88013BFA6813440D2283F8EB
:10242000FF20FB88FA681344002283F8FF2006E0AF
:10243000FB68FF33FA88B96818460BF0FAFDFB68B1
:10244000D3F80C02FB68B3F810320122194604F0ED
:102450008DFFFB6803F50570FB6803F1FF01BB8886
:10246000FA8802F0FDFDFB68D3F80C02FB68B3F8B4
:1024700010320022194604F079FF00BF1837BD461C
:1024800080BD80B483B000AF78600B46FB70FB78F2
:102490007A681344012283F82C2200BF0C37BD4612
:1024A0005DF8047B704780B483B000AF78600B4662
:1024B000FB70FB787A681344002283F82C2200BF5B
:1024C0000C37BD465DF8047B704780B485B000AF23
:1024D00078600B46FB700023FB73FB787A6813442B
:1024E00093F82C32DBB2002B14BF01230023DBB2A4
:1024F000002B02D00023FB730EE0FB787A681344B4
:1025000093F82C32DBB2002B0CBF01230023DBB28B
:10251000002B01D00123FB73FB7B18461437BD460B
:102520005DF8047B704780B584B000AF78600B46DF
:10253000FB7013463B800023FB730023BB6004F059
:1025400045F8B86002E00A2002F028FBFB78194643
:102550007868FFF7BAFF0346002B09D004F036F87D
:102560000246BB68D21A3B889A4201D2012300E09E
:102570000023002BE7D1FB7819467868FFF7A5FF09
:102580000346002B14BF01230023DBB2002B01D034
:102590000123FB73FB7B18461037BD4680BD80B41A
:1025A00087B000AFF860B9601346FB804FF6FF7349
:1025B0007B820023BB822BE0BB8ABA6813441B7862
:1025C0007B747B7C9AB27B8A53407B820023FB75B1
:1025D00018E07B8ADBB203F001033B747B8A5B0863
:1025E0007B827B8AC3F30E037B823B7C012B06D16B
:1025F0007B8A83F4BF4383F07E03DB437B82FB7DD6
:102600000133FB75FB7D072BE3D9BB8A0133BB820A
:10261000BA8AFB889A42CFD37B8A18461C37BD46BC
:102620005DF8047B704780B582B000AF78600B46E0
:10263000FB70F8787B68D3F81C32591C7A68C2F8B2
:102640001C1202461A707B68B3F820329BB2013329
:102650009AB27B68A3F820227B6893F82A32DBB217
:10266000FA789A420CBF01230023DBB2002B09D079
:1026700000217868FFF705FF7B6803F505731846AE
:1026800002F013FD00BF0837BD4680BD80B584B0A1
:1026900000AF78600B46FB700023FB730023FB73D5
:1026A00009E0FB7B114A52F833307A689A4206D02F
:1026B000FB7B0133FB73FB7B022BF2D900E000BFF5
:1026C000FB7B0A4ADB0013445B68002B09D0FB7BD1
:1026D000064ADB0013445B68FA7811461846FFF798
:1026E000A2FF00BF1037BD4680BD00BFE81B002021
:1026F00080B483B000AF786000BF0C37BD465DF892
:10270000047B704780B582B000AF786039607B6829
:1027100018464FF400631A4600210BF0B2FA7B68AA
:1027200003F500634FF40062002118460BF0A9FA8C
:102730007B6803F500637A6802F5805213607B685A
:102740007A6802F5805253607B6803F58153043345
:102750003968184602F075FC7B6803F5815308332D
:10276000184602F0BDFC7B6803F580531A4600232F
:10277000D362124B1B781946114A3B6842F831303C
:102780000E4B1B780E4ADB0013447A685A600B4BE1
:102790001B780133DAB2094B1A70084B1B78032BF4
:1027A00002D9064B00221A700649074802F0B8FA0F
:1027B0007B6818460837BD4680BD00BF1C1C002042
:1027C000041C0020A54500084145000880B586B0DE
:1027D00002AF78600023FB73012301930A23009367
:1027E0004FF47A7304228F49786801F0B3FB41F209
:1027F00088320021786801F0DAFC0346FB7301237C
:1028000001930A2300934FF47A7304228549786870
:1028100001F0A0FB41F288320021786801F0C7FC8A
:102820000346FB73012301930A2300934FF47A7349
:1028300004227C49786801F08DFB41F28832002146
:10284000786801F0B4FC0346FB73012301930A236B
:1028500000934FF47A730B227349786801F07AFB86
:1028600041F288320021786801F0A1FC0346FB7335
:1028700043F6982002F092F9012301930A23009372
:102880004FF47A7304226749786801F063FB41F2E0
:1028900088320021786801F08AFC0346FB7301232B
:1028A00001930A2300934FF47A7304225D497868F8
:1028B00001F050FB41F288320021786801F077FC8A
:1028C0000346FB73012301930A2300934FF47A73A9
:1028D00004225449786801F03DFB41F2883200211E
:1028E000786801F064FC0346FB73012301930A231B
:1028F00000934FF47A7307224C49786801F02AFB61
:1029000041F288320021786801F051FC0346FB73E4
:10291000012301930A2300934FF47A73062244495A
:10292000786801F017FB41F288320021786801F0E5
:102930003EFC0346FB73012301930A2300934FF4EB
:102940007A730B223B49786801F004FB41F288322C
:102950000021786801F02BFC0346FB7301230193EF
:102960000A2300934FF47A730C223349786801F0FC
:10297000F1FA41F288320021786801F018FC034630
:10298000FB73012301930A2300934FF47A731822F7
:102990002A49786801F0DEFA41F28832002178682D
:1029A00001F005FC0346FB73012301930A23009306
:1029B0004FF47A730B222249786801F0CBFA41F286
:1029C00088320021786801F0F2FB0346FB73012393
:1029D00001930A2300934FF47A730B221949786804
:1029E00001F0B8FA41F288320021786801F0DFFB8B
:1029F0000346FB73012301930A2300934FF47A7378
:102A00000C221149786801F0A5FA41F288320021C0
:102A1000786801F0CCFB0346FB73FB7B184610374C
:102A2000BD4680BD240801082C080108E008010803
:102A3000E80801083808010844080108540801089A
:102A4000700801087C0801088808010880B592B068
:102A500002AF78603960002387F83F300023FB60C5
:102A600007F110032E22002118460BF00AF907F196
:102A70000C033A68204918460BF0A0F807F10C0344
:102A80001846FDF7F5FB03469AB207F10C01012346
:102A900001930A2300934FF47A73786801F05AFA8D
:102AA0004FF4FA620021786801F081FB034687F851
:102AB0003F3097F83F30002B0FD17B6803F58153EF
:102AC000083379687A6802F58052928A92B2184681
:102AD00002F012FB0346002B01D0012300E000238B
:102AE000002B02D0012387F83F3097F83F3018467B
:102AF0004037BD4680BD00BFA804010880B58AB03C
:102B000002AF78600B46FB700023FB770023BB60AD
:102B100007F10C0300221A605A609A60DA60FA78B2
:102B200007F108031E4918460BF048F807F108039F
:102B30001846FDF79DFB03469AB207F108010123F1
:102B400001930A2300934FF47A73786801F002FA34
:102B500041F288320021786801F029FB0346FB77B7
:102B6000FB7F002B0FD17B6803F581530833796815
:102B70007A6802F58052928A92B2184602F0BCFA44
:102B80000346002B01D0012300E00023002B01D0DD
:102B90000123FB77FB7F18462037BD4680BD00BF71
:102BA000C404010880B588B004AF7860396001239F
:102BB00001930A2300934FF47A730A222B49786811
:102BC00001F0C8F94FF4FA620021786801F0EFFAD9
:102BD0000346FB73FB7B002B11D17B6803F581530C
:102BE000083379687A6802F58052928A92B2184660
:102BF00002F082FA0346002B01D1012300E00023FA
:102C0000002B24D07B6803F58150083079687B68FD
:102C100003F580539B8A9AB23B6802930D2301937C
:102C20003A230093124B02F08DFA0346002B0CBF9F
:102C300001230023DBB2002B13D13B680D491A4658
:102C40000B4603CB106051601B7813720AE03B689F
:102C500008491A460B4603CB106051601B7813726B
:102C600000E000BF1037BD4680BD00BF98080108D6
:102C7000D4040108DC04010890B589B004AF786081
:102C80003960012301930A2300934FF47A730A22D7
:102C90006149786801F05EF94FF4FA6200217868C2
:102CA00001F085FA0346FB73FB7B002B11D17B6897
:102CB00003F58153083379687A6802F58052928A65
:102CC00092B2184602F018FA0346002B01D10123F4
:102CD00000E00023002B00F093807B6803F5815017
:102CE000083079687B6803F580539B8A9AB23B6809
:102CF00002930D2301932C230093484B02F022FAF8
:102D00000346002B0CBF01230023DBB2002B6DD048
:102D10003B681B78303B072B5DD801A252F823F0AB
:102D2000412D0008512D0008652D0008792D00085F
:102D3000912D0008A12D0008B32D0008C32D000817
:102D40003B6837491A460B4603CB106051604CE094
:102D50003B6834491A460B4603CB106051601B7820
:102D6000137242E03B6830491A460B4603CB1060B1
:102D700051601B88138138E03B682C491A460B468A
:102D800003CB1060516019889B78118193722CE0FD
:102D90003B6827491A460B4603CB1060516024E07C
:102DA0003B68244A1C46134607CB20606160A26042
:102DB0001BE03B6820491A460B4603CB106051606C
:102DC00013E03B681D491A460B4603CB1060516067
:102DD0001B78137209E03B6819491A460B4603CB6E
:102DE000106051601B78137200BF12E03B681449F9
:102DF0001A460B4603CB106051601B78137208E033
:102E00003B680F491A460B4603CB106051601B7894
:102E100013721437BD4690BDA4080108E8040108E8
:102E2000F0040108F8040108040501081005010870
:102E30001C050108240501083005010838050108B2
:102E4000DC04010890B589B004AF786039600123D3
:102E500001930A2300934FF47A730B225B4978683D
:102E600001F078F84FF4FA620021786801F09FF9D8
:102E70000346FB73FB7B002B11D17B6803F5815369
:102E8000083379687A6802F58052928A92B21846BD
:102E900002F032F90346002B01D1012300E00023A8
:102EA000002B00F087807B6803F58150083079683B
:102EB0007B6803F580539B8A9AB23B6802930D238B
:102EC00001932C230093424B02F03CF90346002B64
:102ED0000CBF01230023DBB2002B61D03B681B78C1
:102EE000303B062B51D801A252F823F0092F0008DD
:102EF000192F00082D2F0008412F0008592F000816
:102F0000692F00087B2F00083B6832491A460B46A0
:102F100003CB1060516042E03B682F491A460B46D4
:102F200003CB106051601B78137238E03B682B496B
:102F30001A460B4603CB106051601B8813812EE0AC
:102F40003B6827491A460B4603CB1060516019882D
:102F50009B781181937222E03B6822491A460B4606
:102F600003CB106051601AE03B681F4A1C461346B1
:102F700007CB20606160A26011E03B681B491A46E4
:102F80000B4603CB1060516009E03B6818491A46B4
:102F90000B4603CB106051601B78137200BF12E028
:102FA0003B6813491A460B4603CB106051601B78EF
:102FB000137208E03B680E491A460B4603CB1060BB
:102FC00051601B7813721437BD4690BDB0080108DC
:102FD00044050108F0040108F8040108040501088B
:102FE000100501081C050108240501083005010829
:102FF000DC04010880B58AB004AF78603960002332
:10300000FB6007F1100300221A609A803B680222DD
:103010001A70012301930A2300934FF47A730B2251
:103020002849786800F096FF4FF4FA62002178682A
:1030300001F0BDF80346FB75FB7D002B11D17B68C9
:1030400003F58153083379687A6802F58052928AD1
:1030500092B2184602F050F80346002B01D101232A
:1030600000E00023002B29D07B6803F58150083055
:1030700079687B6803F580539B8A9AB207F10C0349
:1030800002932C2301933A2300930F4B02F05AF83A
:103090000346002B0CBF01230023DBB2002B0DD015
:1030A0003B7B302B02D0312B04D007E03B68002261
:1030B0001A7003E03B6801221A7000BF00BF183786
:1030C000BD4680BDBC0801084C05010880B58AB02A
:1030D00004AF786039600023BB6007F10C03002265
:1030E0001A605A60C3F807203B6800221A70012357
:1030F00001930A2300934FF47A730A2245497868B2
:1031000000F028FF41F288320021786801F04FF882
:103110000346FB75FB7D002B11D17B6803F58153C2
:10312000083379687A6802F58052928A92B218461A
:1031300001F0E2FF0346002B01D1012300E0002350
:10314000002B62D07B6803F58150083079687B687A
:1031500003F580539B8A9AB207F1080302932C234C
:1031600001933A2300932C4B01F0ECFF0346002B14
:103170000CBF01230023DBB2002B46D007F108036C
:1031800026491846FEF7BAF90346002B14BF01235F
:103190000023DBB2002B03D03B6800221A7034E01E
:1031A00007F108031E491846FEF7A8F90346002B4D
:1031B00014BF01230023DBB2002B03D03B680122A4
:1031C0001A7022E007F1080316491846FEF796F92F
:1031D0000346002B14BF01230023DBB2002B03D0D6
:1031E0003B6802221A7010E007F108030E491846E6
:1031F000FEF784F90346002B14BF01230023DBB242
:10320000002B02D03B6803221A7000BF1837BD465E
:1032100080BD00BFC8080108540501085C0501080D
:10322000680501086C0501087405010880B58AB0BD
:1032300004AF786039600023FB6007F110030022BF
:103240001A609A800023FB75012301930A230093DF
:103250004FF47A7308223949786800F07BFE4FF406
:10326000FA620021786800F0A2FF0346BB75BB7DBF
:10327000002B11D17B6803F58153083379687A6894
:1032800002F58052928A92B2184601F035FF034649
:10329000002B01D1012300E00023002B41D07B68EB
:1032A00003F58150083079687B6803F580539B8A69
:1032B0009AB207F10C0302932C2301933A23009353
:1032C0001F4B01F03FFF0346002B0CBF01230023DF
:1032D000DBB2002B1BD007F10C03184609F0CCFE23
:1032E0000346FB7597F91730622B02DD0023FB754F
:1032F00005E0FB7D5B00DBB2713BDBB2FB7597F950
:1033000017301A460F4938680AF058FC12E03B683B
:103310000D491A460B4603CB106051601B7813729F
:1033200008E03B6808491A460B4603CB1060516021
:103330001B7813721837BD4680BD00BFD408010842
:103340007805010880050108DC04010880B5A0B0FB
:1033500004AF78603960012387F86E30032387F863
:103360006F300023BB6007F10C0360220021184678
:103370000AF087FC012301930A2300934FF47A7328
:1033800012222C49786800F0E5FD4FF4FA52002132
:10339000786800F00CFF034687F86E3097F86E30BF
:1033A000002B11D17B6803F58153083379687A6863
:1033B00002F58052928A92B2184601F09DFE0346B1
:1033C000002B01D1012300E00023002B2CD07B68CF
:1033D00003F58150083079687B6803F580539B8A38
:1033E0009AB207F108030293222301932223009348
:1033F000114B01F0A7FE0346002B0CBF0123002355
:10340000DBB2002B10D007F1080319463868FEF72D
:1034100075F80346002B14BF01230023DBB2002BF9
:1034200002D0022387F86F3097F86F301846703754
:10343000BD4680BD10090108A805010880B58AB005
:1034400004AF786039600123BB750123FB7500234D
:10345000FB6007F1100300221A609A800323039394
:103460000A230293022301932B2300934FF47A73D0
:103470000F222849786800F0CFFD42F21072002137
:10348000786800F094FE0346BB75BB7D002B11D11C
:103490007B6803F58153083379687A6802F58052B6
:1034A000928A92B2184601F027FE0346002B01D102
:1034B000012300E00023002B26D07B6803F5815018
:1034C000083079687B6803F580539B8A9AB207F1CC
:1034D0000C0302930A2301933A2300930E4B01F04D
:1034E00031FE0346002B0CBF01230023DBB2002B6F
:1034F0000AD00023FB7507F10C03184609F0BCFD48
:103500000346DAB23B681A70FB7D18461837BD4691
:1035100080BD00BFF0080108B805010880B58AB079
:1035200004AF78600123BB750123FB750023FB60AA
:1035300007F1100300221A609A80032303930A23E1
:103540000293022301932B2300934FF47A730E22EC
:103550002349786800F060FD42F21072002178681B
:1035600000F025FE0346BB75BB7D002B11D17B68A7
:1035700003F58153083379687A6802F58052928A9C
:1035800092B2184601F0B8FD0346002B01D1012389
:1035900000E00023002B1DD07B6803F5815008302C
:1035A00079687B6803F580539B8A9AB207F10C0314
:1035B00002930A2301933A2300930A4B01F0C2FDC0
:1035C0000346002B0CBF01230023DBB2002B01D0EC
:1035D0000023FB75FB7D18461837BD4680BD00BF34
:1035E00000090108C805010880B59CB002AFF86069
:1035F0007A601A460B46FB721346BB72012387F8AA
:103600006630012387F8673000237B6107F11803D8
:103610004C22002118460AF034FBFA7ABB7A07F1F3
:10362000140000937B6820490AF0C8FA07F11403DC
:103630001846FCF71DFE03469AB207F11401012358
:1036400001930A2300934FF47A73F86800F082FC28
:103650004FF4FA520021F86800F0A9FD034687F8FC
:10366000663097F86630002B11D1FB6803F5815363
:103670000833F968FA6802F58052928A92B21846C5
:1036800001F03AFD0346002B01D1012300E00023A5
:10369000002B02D0002387F8673097F86730184670
:1036A0006837BD4680BD00BFD405010880B59AB01B
:1036B00002AF78600B46FB70012387F85E30012370
:1036C00087F85F300023FB6007F110034C220021D4
:1036D00018460AF0D6FAFA7807F10C032049184682
:1036E0000AF06CFA07F10C031846FCF7C1FD03461B
:1036F0009AB207F10C01012301930A2300934FF4BE
:103700007A73786800F026FC4FF4FA52002178684A
:1037100000F04DFD034687F85E3097F85E30002BD1
:1037200011D17B6803F58153083379687A6802F513
:103730008052928A92B2184601F0DEFC0346002BBA
:1037400001D1012300E00023002B02D0002387F8E1
:103750005F3097F85F3018466037BD4680BD00BFC8
:10376000F005010880B5B0B004AFF8600B467A6090
:10377000FB72012387F8AE30012387F8AF300023B6
:10378000BB6107F11C039222002118460AF079FA66
:1037900000233B6100233B75FA7A07F118007B6830
:1037A0002C490AF00BFA07F118031846FCF760FDE4
:1037B00003469AB207F11801032303930A230293E5
:1037C000022301932B2300934FF47A73F86800F0DF
:1037D00023FC47F230520021F86800F0E8FC034671
:1037E00087F8AE3097F8AE30002B2CD1FB6803F58C
:1037F00081500830F968FB6803F580539B8A9AB2C0
:1038000007F1100302930A2301932C230093124B18
:1038100001F098FC0346002B0CBF01230023DBB210
:10382000002B10D007F110030C491846FDF766FE77
:103830000346002B14BF01230023DBB2002B02D070
:10384000022387F8AF3097F8AF301846B037BD463F
:1038500080BD00BF04060108A80501082406010870
:1038600080B5AEB004AF78600B46FB70012387F8DB
:10387000A630012387F8A73000233B6107F114032A
:103880009222002118460AF0FCF90023BB600023B5
:103890003B73FA7807F110032C4918460AF08EF9A9
:1038A00007F110031846FCF7E3FC03469AB207F150
:1038B0001001032303930A230293022301932B2372
:1038C00000934FF47A73786800F0A6FB42F210720E
:1038D0000021786800F06BFC034687F8A63097F863
:1038E000A630002B2CD17B6803F581500830796815
:1038F0007B6803F580539B8A9AB207F10803029311
:103900000A2301932C230093114B01F01BFC034667
:10391000002B0CBF01230023DBB2002B10D007F1DA
:1039200008030C491846FDF7E9FD0346002B14BFB8
:1039300001230023DBB2002B02D0032387F8A7303A
:1039400097F8A7301846A837BD4680BD280601085D
:10395000400601082406010890B5AFB004AFF86036
:103960007A603B600B46FB72012387F8A630012387
:1039700087F8A73000233B6107F11403922200214E
:1039800018460AF07EF9FC7A7868FCF771FC034669
:1039900007F1100022464B490AF010F907F1100315
:1039A0001846FCF765FC03469AB207F110010223A2
:1039B00001933E2300934FF47A73F86800F0CAFA3B
:1039C0004FF47A720021F86800F0F1FB034687F8A3
:1039D000A63097F8A630002B6ED1FB6803F5815016
:1039E0000830F968FB6803F580539B8A9AB200237C
:1039F00002930A2301932C230093334B01F0A2FB83
:103A00000346002B0CBF01230023DBB2002B53D055
:103A10007868FCF72DFC03469AB2032303930A232C
:103A20000293052301932B2300934FF47A73796853
:103A3000F86800F0F1FA4FF47A720021F86800F0AB
:103A4000B6FB034687F8A63097F8A630002B11D1B5
:103A5000FB6803F581530833F968FA6802F5805270
:103A6000928A92B2184601F047FB0346002B01D11F
:103A7000012300E00023002B1ED0FB6803F58150DA
:103A80000830F968B7F8B83002933B6801930D230A
:103A900000930A230D4A01F01DFC0346002B0CBFC6
:103AA00001230023DBB2002B03D0052387F8A730C6
:103AB00002E0002387F8A73097F8A7301846AC3704
:103AC000BD4690BD4C060108640601086806010861
:103AD00090B5B1B004AFF8600B467A60FB72012379
:103AE00087F8AE30012387F8AF300023BB6107F1C0
:103AF0001C039222002118460AF0C3F800233B6100
:103B000000233B75FC7A7868FCF7B2FB034607F1AB
:103B10001800224647490AF051F807F118031846E1
:103B2000FCF7A6FB03469AB207F1180102230193A2
:103B30003E2300934FF47A73F86800F00BFA4FF4C9
:103B40007A720021F86800F032FB034687F8AE3045
:103B500097F8AE30002B67D1FB6803F58150083031
:103B6000F968FB6803F580539B8A9AB2002302939D
:103B70000A2301932C2300932F4B01F0E3FA034611
:103B8000002B0CBF01230023DBB2002B4CD0786844
:103B9000FCF76EFB03469AB2032303930A230293B6
:103BA000012301932B2300934FF47A737968F8680B
:103BB00000F032FA42F210720021F86800F0F7FAD1
:103BC000034687F8AE3097F8AE30002B2CD1FB6857
:103BD00003F581500830F968FB6803F580539B8A30
:103BE0009AB207F1100302930A2301932C23009346
:103BF000124B01F0A7FA0346002B0CBF0123002350
:103C0000DBB2002B10D007F110030D491846FDF769
:103C100075FC0346002B14BF01230023DBB2002BED
:103C200002D0002387F8AF3097F8AF301846B4378A
:103C3000BD4690BD7C060108640601089406010893
:103C40002406010880B59AB002AF78600B46FB707D
:103C5000012387F85E30012387F85F300023FB6083
:103C600007F110034C22002118460AF00AF8FA78EE
:103C700007F10C032049184609F0A0FF07F10C03D7
:103C80001846FCF7F5FA03469AB207F10C01012336
:103C900001930A2300934FF47A73786800F05AF97D
:103CA0004FF4FA520021786800F081FA034687F851
:103CB0005E3097F85E30002B11D17B6803F581539D
:103CC000083379687A6802F58052928A92B218466F
:103CD00001F012FA0346002B01D1012300E000237A
:103CE000002B02D0002387F85F3097F85F3018462A
:103CF0006037BD4680BD00BFA406010880B586B010
:103D000002AF78600123BB730123FB73012301938E
:103D10000A2300934FF47A731D221549786800F046
:103D200019F94FF4FA620021786800F040FA03466E
:103D3000BB73BB7B002B11D17B6803F58153083328
:103D400079687A6802F58052928A92B2184601F038
:103D5000D3F90346002B01D1012300E00023002BFF
:103D600001D00023FB73FB7B18461037BD4680BD96
:103D70002409010880B586B002AF78600123BB73C7
:103D80000123FB73012301930A2300934FF47A73F9
:103D90001B221549786800F0DDF84FF4FA62002123
:103DA000786800F004FA0346BB73BB7B002B11D18B
:103DB0007B6803F58153083379687A6802F580528D
:103DC000928A92B2184601F097F90346002B01D16E
:103DD000012300E00023002B01D00023FB73FB7BB9
:103DE00018461037BD4680BD4409010880B586B02D
:103DF00002AF78600123BB730123FB73012301939E
:103E00000A2300934FF47A7320221549786800F052
:103E1000A1F84FF4FA620021786800F0C8F903466F
:103E2000BB73BB7B002B11D17B6803F58153083337
:103E300079687A6802F58052928A92B2184601F047
:103E40005BF90346002B01D1012300E00023002B86
:103E500001D00023FB73FB7B18461037BD4680BDA5
:103E60006009010880B586B002AF78600123BB739A
:103E70000123FB73012301930A2300934FF47A7308
:103E80002C221549786800F065F84FF4FA62002199
:103E9000786800F08CF90346BB73BB7B002B11D113
:103EA0007B6803F58153083379687A6802F580529C
:103EB000928A92B2184601F01FF90346002B01D1F5
:103EC000012300E00023002B01D00023FB73FB7BC8
:103ED00018461037BD4680BD8409010880B586B0FC
:103EE00002AF78600123BB730123FB7301230193AD
:103EF0000A2300934FF47A732A221549786800F058
:103F000029F84FF4FA620021786800F050F903466E
:103F1000BB73BB7B002B11D17B6803F58153083346
:103F200079687A6802F58052928A92B2184601F056
:103F3000E3F80346002B01D1012300E00023002B0E
:103F400001D00023FB73FB7B18461037BD4680BDB4
:103F5000B409010880B584B000AFF860B9601146BB
:103F60001A460B46FB801346BB80FB684FF4006289
:103F70000021184609F085FEFB6803F500634FF445
:103F800000620021184609F07CFE0021F86800F06C
:103F9000C8F80121F86800F0C4F8FB6803F5805305
:103FA0001A463B7E1372FB6803F580531A463B7F2B
:103FB000D372FB6803F5805300225A72FB6803F545
:103FC000805300221A73FB6803F58053FF229A7313
:103FD000FB68FA6802F580521361FB6803F58053B1
:103FE00000229A82FB6803F581530433FA6802F5D4
:103FF000805211694FF40062184601F044F8FB68E2
:1040000003F581500430BB88FA88B96801F028F8BC
:1040100000BF1037BD4680BD80B584B000AFF860EA
:10402000B96011461A460B46FB801346BB80FB68FD
:104030004FF400620021184609F023FEFB6803F5E7
:1040400000634FF400620021184609F01AFE0021B7
:10405000F86800F066F80121F86800F062F8FB6883
:1040600003F580531A4697F820301372FB6803F566
:1040700080531A4697F82430D372FB6803F58053B7
:1040800000225A72FB6803F5805300221A73FB6802
:1040900003F58053FF229A73FB68FA6802F5805299
:1040A0001361FB6803F5805300229A82FB6803F5D5
:1040B00080531A463B7E93773B7F013BDAB2FB6825
:1040C00003F58053DA77FB6803F581530433FA680C
:1040D00002F5805211694FF40062184600F0D3FFD8
:1040E000FB6803F581500430BB88FA88B96800F09A
:1040F000B7FF00BF1037BD4680BD80B483B000AFAE
:1041000078600B46FB70FB787A68134403F58153A3
:10411000093301221A7000BF0C37BD465DF8047BDD
:10412000704780B483B000AF78600B46FB70FB78BB
:104130007A68134403F58153093300221A7000BFD3
:104140000C37BD465DF8047B704780B485B000AF86
:1041500078600B46FB700023FB73FB787A6813448E
:1041600003F5815309331B78DBB2002B14BF012305
:104170000023DBB2002B02D00023FB7310E0FB789E
:104180007A68134403F5815309331B78DBB2002BA3
:104190000CBF01230023DBB2002B01D00123FB73F2
:1041A000FB7B18461437BD465DF8047B704780B52D
:1041B00084B000AF78600B46FB7013463B80002351
:1041C000FB737B6803F580531A460023D36202F029
:1041D000FDF902467B6803F58053DA6202E00A20AB
:1041E00000F0DCFCFB7819467868FFF7AEFF034669
:1041F000002B0CD002F0EAF902467B6803F58053ED
:10420000DB6AD21A3B889A4201D2012300E00023E4
:10421000002BE4D1FB7819467868FFF796FF034638
:10422000002B14BF01230023DBB2002B01D001239C
:10423000FB73FB7B18461037BD4680BD80B582B04E
:1042400000AF78600B46FB707B6803F58053DB7A28
:10425000DBB2012B0CBF01230023DBB2002B00F0EB
:104260008A80F8787B6803F580531B695A1C79684B
:1042700001F580510A6102461A707B6803F580538C
:104280009B8A9BB201339AB27B6803F580539A8272
:104290007B6803F580531B7BDBB2012B0CBF012332
:1042A0000023DBB2002B0CD07B6803F580539B7B93
:1042B0005BB2DBB20133DBB25AB27B6803F58053E9
:1042C0009A737B6803F580539B7ADBB2012B07D18D
:1042D000FB784F2B02D0FB78452B01D1012300E066
:1042E0000023002B1BD07B6803F5805300229A72B9
:1042F0007B6803F5805301221A73FB784F2B05D19D
:104300007B6803F5805302225A730DE0FB78452B3E
:104310000AD17B6803F5805305225A7304E07B6859
:1043200003F5805300229A72FB780A2B04D17B6834
:1043300003F5805301229A727B6803F580539B7BBF
:104340005BB21A467B6803F580535B7BDBB29A4213
:10435000ACBF01230023DBB2002B00F0ED80002175
:104360007868FFF7CAFE7B6803F58153043318466B
:1043700000F09BFEE0E07B6803F58053DB7ADBB264
:10438000022B0CBF01230023DBB2002B72D0F87884
:104390007B6803F580531B695A1C796801F58051CD
:1043A0000A6102461A707B6803F580539B8A9BB2B0
:1043B00001339AB27B6803F580539A827B6803F5D8
:1043C00080531B7ADBB20A2B14BF01230023DBB21C
:1043D000002B0FD0FB783E2B40F0AE800021786898
:1043E000FFF78BFE7B6803F581530433184600F01A
:1043F0005CFEA1E07B6803F580531B7BDBB2012BE5
:1044000004D1FB78452B01D1012300E00023002BD0
:1044100004D07B6803F5805302229A73FB780A2B41
:104420000AD17B6803F580531B7BDBB20133DAB220
:104430007B6803F580531A737B6803F580531B7BFD
:10444000DBB21A467B6803F580539B7B5BB29A42D2
:104450000CBF01230023DBB2002B6DD00021786854
:10446000FFF74BFE7B6803F581530433184600F0D9
:104470001CFE61E07B6803F58053DB7ADBB2032B23
:104480000CBF01230023DBB2002B55D0F8787B68EA
:1044900003F580531B695A1C796801F580510A6144
:1044A00002461A707B6803F580539B8A9BB20133E6
:1044B0009AB27B6803F580539A827B6803F5805338
:1044C0009B7FDBB2FA789A420CBF01230023DBB258
:1044D000002B0CD07B6803F580539B7B5BB2DBB277
:1044E0000133DBB25AB27B6803F580539A737B6861
:1044F00003F580531B7ADBB2FA789A420ED17B68BF
:1045000003F580539B7B5BB21A467B6803F58053AF
:10451000DB7FDBB29A4201DB012300E00023002BAA
:104520000AD000217868FFF7E8FD7B6803F5815326
:104530000433184600F0B9FD00BF0837BD4680BD02
:1045400080B584B000AF78600B46FB700023FB732E
:104550000023FB7309E0FB7B114A52F833307A6881
:104560009A4206D0FB7B0133FB73FB7B022BF2D913
:1045700000E000BFFB7B0A4ADB0013445B68002BB2
:1045800009D0FB7B064ADB0013445B68FA781146CE
:104590001846FFF753FE00BF1037BD4680BD00BF71
:1045A000041C002080B483B000AF786000BF0C37DB
:1045B000BD465DF8047B704780B485B000AFF860FD
:1045C000B9603B601346FB71FB68BA685A60FB68D0
:1045D000FA791A72FB683A681A60FB681846143751
:1045E000BD465DF8047B704780B58AB002AFF860C5
:1045F000B9607A600023FB83322000F0CFFAAC234D
:104600003B7633237B760023BB76F86800F075F8A1
:104610000346002B0CBF01230023DBB2002B68D024
:10462000FB685868FB681B7A5B0099B2FB681B68E3
:1046300007F118020093032303F010F8642000F040
:10464000ADFAFB685868FB681B7A5B0099B2FB689F
:104650001B6807F110020093072303F0FDF83A7C72
:10466000FB685A72FB685B7A5BB2002B36DB7B7CA3
:104670001A46FB681A61FB681B691B02BA7C1A4365
:10468000FB681A61FB681B691B01FA7C1209D2B234
:104690001A43FB681A61FB7C03F00F02FB68DA60C7
:1046A000FB68DB681B023A7D1A43FB68DA60FB6833
:1046B000DB681B027A7D1A43FB68DA60BA7DFB680F
:1046C0009A72F86800F03AF80246BB681A60F86817
:1046D00000F070F802467B681A600AE0FB8B013339
:1046E000FB830A2000F05AFAFB8B322B00D8A8E794
:1046F00000BF00BF2037BD4680BD80B584B000AF8D
:1047000078600023FB737B6858687B681B7A5B00CA
:1047100099B24FF47A73032203F0D0FA0346002BC8
:1047200014BF01230023DBB2002B01D0012300E0E2
:10473000FB7B18461037BD4680BD000080B584B0B5
:1047400000AF78607B68DB681846FBF7DBFE4FF054
:104750000002154BFCF77AF802460B461046194644
:104760004FF00002104BFCF771F802460B46104662
:1047700019464FF000020D4BFBF73EFF02460B4679
:10478000104619464FF00002094BFBF77DFD02462B
:104790000B4610461946FCF707FA0346FB60FB6818
:1047A00018461037BD4680BD0000904000006940AB
:1047B0000000494080B584B000AF78607B681B6919
:1047C0001846FBF79FFE4FF00002114BFCF73EF836
:1047D00002460B46104619464FF000020C4BFCF700
:1047E00035F802460B46104619464FF00002094BB9
:1047F000FBF702FF02460B4610461946FCF7D4F9B8
:104800000346FB60FB6818461037BD4680BD00BFFD
:10481000000090400000594080B483B000AF786041
:1048200039607B68104A9A607B680022DA607B6896
:104830004FF000021A617B680B4A5A617B680022C4
:104840001A767B680022DA617B6800221A627B6834
:1048500000225A627B683A689A627B6818460C3775
:10486000BD465DF8047B7047000080BF80B588B00E
:1048700000AFF86187ED050AC7ED040A87ED031A5A
:10488000BA607B600B46FB76FB7EBA6897ED031A35
:10489000D7ED040A97ED050A1946F86900F00EF8FD
:1048A0007968F86900F0E8F83B6BFA6AB96AF86968
:1048B00000F01CF900BF2037BD4680BD80B59AB01E
:1048C00000AFF8610B4687ED050AC7ED040A87EDD6
:1048D000031ABA60FB76002387F85B3097ED047A01
:1048E000D7ED057A77EE677AC7ED157A07F12403DD
:1048F00028220021184609F0C4F900237B66FB69D1
:104900009B6A002B01D10123A8E000233B6630E025
:10491000FB699B6A184601F0CDFE0346002B14BFCD
:1049200001230023DBB2002B01D0012396E0FB69B9
:104930009B6A42F21071184601F0C1FF0346002B3A
:1049400014BF01230023DBB2002B01D0012385E03B
:10495000FB699B6A184602F03DF802463B6E9B00DD
:10496000603307F108010B4443F8442C3B6E0133DC
:104970003B663B6E092BCBDDFB699B6A184601F059
:104980006BFF0023FB650DE0FB6D9B00603307F1BF
:104990000802134453F8443C7A6E13447B66FB6D63
:1049A0000133FB65FB6D092BEEDD7B6E2D4AA2FB0F
:1049B0000323DB087B667B6E07EE903AB8EE677ADE
:1049C000DFED296AC7EE267A9FED287A67EE877AAF
:1049D000C7ED147AD7ED146A97ED037AC6EE877A9D
:1049E000B3EE007A67EE877AB1EE007A77EE877AD7
:1049F000C7ED137AD7ED137AB1EE007A77EEC77A66
:104A0000F3EE006A87EEA67AD7ED157A67EE277A7D
:104A1000FB69C3ED017AFB69D3ED016A97ED157A65
:104A2000C6EE877A9FED127A67EE877AFB69C3ED4F
:104A3000007AFB6993ED007ADFED0D6AC7EE267A06
:104A40009FED0C7A67EE877AFCEEE77AC7ED017A84
:104A50003B79DAB2BB681A7097F85B301846683752
:104A6000BD4680BDCDCCCCCC000080453333534017
:104A70000000FA430000C84280B584B000AF7860FF
:104A8000396001F0A3FDF8607B6893ED027A7B68E2
:104A9000D3ED007AB4EEE77AF1EE10FA07D57B6831
:104AA0001A687B689A607B68FA68DA6118E07B684C
:104AB000DB69FA68D31A0C4A934211D37B6893EDF1
:104AC000027A7B68D3ED007A77EE677A3B68C3EDB4
:104AD000007A7B681A687B689A607B68FA68DA619A
:104AE0001037BD4680BD00BF80EE360080B584B073
:104AF00000AFF860B9607A603B60FB681A68FB68D9
:104B00001A61FB68D3ED057AF5EEC07AF1EE10FA82
:104B100004D5FB681A69FB685A613CE0FB6893EDB9
:104B2000047AFB68D3ED057A77EE677AFDEEE77AD3
:104B300017EE902AFB68DA6001F048FD0246FB6838
:104B40001A62FB681B7E002B0ED1FB68DB68052B0D
:104B50001DDDFB6801221A76FB681A6AFB685A623F
:104B60007B68BA681A6012E0FB68DB68002B0EDC19
:104B7000FB681A6AFB685B6AD31A41F28732934278
:104B800005D9FB6800221A763B68BA681A60FB6890
:104B90001A69FB685A611037BD4680BD80B582B086
:104BA00000AF78607B684FF47A7202FB03F3054A2A
:104BB000A2FB03239B09184606F046FD00BF0837F9
:104BC000BD4680BDD34D621080B584B000AFF860A3
:104BD000B9607A607B80FB6800221A62FB68BA6861
:104BE0001A60FB6804337968184609F01AFAFB6802
:104BF0007A889A82FB68BA699A61FB68FA69DA6115
:104C0000FB6818461037BD4680BDB0B584B002AF12
:104C100078607B6818687B68191D7B689C8A7B6854
:104C20009D697B68DB697A682032019200932B468C
:104C3000224606F0ABFB00BF0837BD46B0BD80B4CE
:104C400085B000AFF8607B600B467B8113463B81EB
:104C5000FB687A89A3F85420FB683A89A3F85620A8
:104C6000FB687A689A65FB6818461437BD465DF89C
:104C7000047B704790B585B002AF78607B68B3F86D
:104C8000543018467B68B3F856301C467B689A6DE2
:104C90007B68043300210091214605F087FE02461F
:104CA0007B681A6000BF0C37BD4690BD80B584B0EC
:104CB00000AF786039600123FB737B6818680023BC
:104CC000C822396805F012FF0346012B14BF0123E7
:104CD0000023DBB2002B01D0032300E0FB7B18464E
:104CE0001037BD4680BD80B584B000AF78603960B4
:104CF0000223FB737B681B6832223968184606F072
:104D000095F80346012B0CBF01230023DBB2002BD7
:104D100001D0002300E0FB7B18461037BD4680BD64
:104D200080B483B000AF78603960064A7B68136056
:104D3000054A3B68136000BF0C37BD465DF8047B35
:104D4000704700BF241C0020301C002080B483B0BA
:104D500000AF78603960064A7B681360054A3B689B
:104D6000136000BF0C37BD465DF8047B704700BF81
:104D7000281C0020341C002080B584B000AF78606F
:104D80007B685B6CBB817B6893F84230DBB2222B83
:104D90000CBF01230023DBB2002B3FD07B681B68D4
:104DA0005B689BB2DBB2FB81BB89002B07D0BB8960
:104DB0001B021AB2B7F90E3013431BB2FB817B689A
:104DC0001A4A93420AD11A4B1B68002B06D0184B83
:104DD0001B68FA89D2B21146786898477B68154AF1
:104DE00093420AD1144B1B68002B06D0124B1B6850
:104DF000FA89D2B21146786898477B680F4A934285
:104E00000AD10F4B1B68002B06D00D4B1B68FA898B
:104E1000D2B2114678689847002303E07B681B688C
:104E20005B68022318461037BD4680BD881D0020F0
:104E3000201C0020181E0020241C0020601E0020C2
:104E4000281C002080B586B000AF78607B681B68A6
:104E50001B687B617B681B68DB683B617B681B6848
:104E60005B69FB600023BB607B6903F00F03BB60E1
:104E7000BB68002B0DD17B6903F02003002B08D009
:104E80003B6903F02003002B03D07868FFF774FF21
:104E9000BCE07B681B685B69FB60BB68002B00F0B3
:104EA0008380FB6803F00103002B04D13B6903F40A
:104EB0009073002B78D07B6903F00103002B0FD097
:104EC0003B6903F48073002B0AD07B681B686FF08A
:104ED00001021A607B685B6C43F001027B685A64D4
:104EE0007B6903F00203002B0FD0FB6803F0010382
:104EF000002B0AD07B681B686FF002021A607B6887
:104F00005B6C43F004027B685A647B6903F0040322
:104F1000002B0FD0FB6803F00103002B0AD07B6845
:104F20001B686FF004021A607B685B6C43F002023E
:104F30007B685A647B6903F00803002B14D03B693B
:104F400003F02003002B04D1FB6803F00103002BC6
:104F50000AD07B681B686FF008021A607B685B6C84
:104F600043F008027B685A647B685B6C002B14BFBB
:104F700001230023DBB2002B45D07B6903F0200323
:104F8000002B0AD03B6903F02003002B05D07B687F
:104F900000225A647B681B685B68786805F00EF82D
:104FA0007B6800225A642EE07B6903F08003002BAB
:104FB0002CD03B6903F08003002B27D07B68154A77
:104FC000934207D1144B1B68002B03D0124B1B6874
:104FD000786898477B68114A934207D1104B1B6849
:104FE000002B03D00E4B1B68786898477B680D4AEE
:104FF00093420AD10C4B1B68002B06D00A4B1B684E
:105000007868984701E000BF00E000BF1837BD4650
:1050100080BD00BF881D00202C1C0020181E002011
:10502000301C0020601E0020341C002080B582B09F
:1050300000AF78607868FFF705FF00BF0837BD460E
:1050400080BD80B483B000AF786039607B683A6817
:105050001A607B6818460C37BD465DF8047B7047C4
:1050600080B584B000AFF860B9603B601346FB8048
:10507000FB681868FA883B68B96804F03DFE00BF19
:105080001037BD4680BD80B584B000AFF860B96010
:105090001346FB80FB681B68FA88B968184604F061
:1050A000B6FE00BF1037BD4680BD80B582B000AFF0
:1050B00078607B681B68184604F0CEFE00BF083796
:1050C000BD4680BD80B582B000AF78603960396878
:1050D000786808F0DEFD034618460837BD4680BDF7
:1050E00080B483B000AF78607B6818460C37BD464B
:1050F0005DF8047B7047000080B586B000AFF860B3
:10510000B9601346FB800223FB750C49B86808F0B0
:10511000E0FD0346002B02D00023FB7508E00849A0
:10512000B86808F0D6FD0346002B01D00123FB75BB
:10513000FB7D18461837BD4680BD00BF100701082B
:105140001407010890B5ADF5077D00AF07F50674AB
:10515000A4F50374206007F50670A0F504700160E3
:10516000114607F50672A2F50672136007F506737D
:10517000A3F212230A461A80022387F80D32002375
:10518000A7F8163207F50673A3F212231A8807F55B
:105190000673A3F5047307F11400196808F086FD7F
:1051A00007F50673A3F5067307F114021968104694
:1051B00008F08FFD0346002B01D1022385E0D7F8CC
:1051C0003032002B01D100237FE097F8282207F12D
:1051D000140311461846FFF775FFC7F80802D7F801
:1051E0000832002B16D007F11403D7F80822D31A7F
:1051F000C7F8103297F828323A2B05D1D7F8103279
:105200000233C7F8103207E0D7F810320133C7F87D
:10521000103201E0022358E0D7F81032A7F80E321E
:105220003CE0B7F80E3207F50672A2F50472126878
:1052300013441B7897F82C229A420FD0B7F80E32FD
:1052400007F50672A2F5047212681A44B7F816320E
:10525000D7F830120B4412781A7015E0B7F80E32F6
:1052600007F50672A2F50472126813441B7897F8CA
:105270002C229A4208D1B7F81632D7F830221344BC
:1052800000221A70002320E0B7F80E320133A7F88D
:105290000E32B7F816320133A7F81632B7F81622D5
:1052A00007F50673A3F212231988D7F81032CB1A28
:1052B0009A4208DA07F50673A3F21223B7F80E2212
:1052C0001B889A42ADD397F80D32184607F5077739
:1052D000BD4690BD80B588B000AFF860B9607A6017
:1052E000FB7000237B76FB6A002B01D1012340E099
:1052F0007968B86808F0EDFCF861FB69002B01D112
:10530000022336E07868FAF7B3FF0246FB691344DC
:10531000FB61FB690133FB61FB781946F869FFF714
:10532000D1FE78617B69002B01D1022321E07B69EA
:105330000133FB6100237B830AE0FB695A1CFA619D
:105340001978FA6A7B8B581C788313440A461A70C2
:10535000FB691B7897F828209A4204D07A8B3B8E01
:10536000013B9A42E9DB7B8BFA6A134400221A70F4
:105370007B7E18462037BD4680BD80B487B000AF25
:10538000F860B9607A607B8000237B75BB68002B76
:1053900008D07B68002B05D07B88002B02D03B6AAD
:1053A000002B01D101233AE00023FB8202E0BB681D
:1053B0000133BB60BB681B7897F824209A42F6D073
:1053C000BB681B78282BF2D00AE0BB685A1CBA6075
:1053D00019787A68FB8A581CF88213440A461A70B6
:1053E000BB681B78002B0AD0BB681B7897F8242079
:1053F0009A4204D0FA8A7B88013B9A42E5DBFB8A19
:105400007A68134400221A70FB8A002B01D1012311
:1054100005E0FB8A01339AB23B6A1A807B7D18460D
:105420001C37BD465DF8047B704780B588B000AF7F
:10543000F860B9607A600023FB76B868FAF718FF65
:1054400078617B69002B02D07B69082B01D901238D
:1054500027E07B6800221A700023FB611CE0BA6819
:10546000FB6913441B78FB74FB7C302B04D0FB7C62
:10547000312B01D0012314E07B681B785B005AB20A
:10548000FB7C303BDBB25BB213435BB2DAB27B68CE
:105490001A70FB690133FB61FA697B699A42DED3BA
:1054A000FB7E18462037BD4680BD000082B080B527
:1054B0008CB000AF7860396007F1380181E80C00EA
:1054C000BB783B627B78FB61FB78BB61BB69452B9A
:1054D00002DC4FF4FA6301E040F26C73BA691344E2
:1054E000BB6197F838307B6197F839303B6197F8AA
:1054F0003A30FB6097F94C2013461B019B1A9B0026
:10550000BB600023FB6240F2B273BB6211E0B96A78
:10551000786800F0BFF80346002B02D04FF4B77351
:1055200001E040F26D13FA6A1344FB62BB6A013377
:10553000BB62BA6ABB699A42E9DBFB6A234A02FB97
:1055400003F3FB6201237B620EE07A6AB969786833
:1055500000F0D0F803461D4A02FB03F3FA6A134435
:10556000FB627B6A01337B627A6AFB699A42ECDBFD
:105570003B6A013B154A02FB03F3FA6A1344FB62E0
:105580007B694FF4616202FB03F3FA6A1344FB6226
:105590003A6913461B019B1A9B001A46FB6A134487
:1055A000FB62FA6AFB681344FB62BA681346120195
:1055B0009B1A9B001A46FB6A1344FB62FB6A18465F
:1055C0003037BD46BDE8804002B0704780510100D1
:1055D000B0B590B000AFF860B9607A603B603B68EE
:1055E0009B00FB63FA6B13461B019B1ABB63BA6BF0
:1055F00013461B019B1A9B001A467B6813447B6071
:105600007B68DA171C461546C7E9044507F1100305
:10561000184608F075FB78637B6B5B6903F26C736B
:105620001B4A82FB03125111DA178A1A642101FB0B
:1056300002F29A1AD3B287F833307B6B1B69DBB264
:105640000133DBB287F831307B6BDB68DBB287F884
:1056500032307B6B9B68DBB23B777B6B5B68DBB28A
:105660007B777B6B1B68DBB2BB7707F11C030022E7
:105670001946B86803F0C5FD07F13003002219464A
:10568000B86803F0B6FE00BF4037BD46B0BD00BFEE
:105690001F85EB5180B483B000AF786039603B6800
:1056A00003F00303002B0CD13A68114B83FB021368
:1056B0005911D317CB1A642101FB03F3D31A002B22
:1056C0000DD13A680A4B83FB0213D911D317CB1AB9
:1056D0004FF4C87101FB03F3D31A002B01D101234E
:1056E00000E0002318460C37BD465DF8047B704788
:1056F0001F85EB5180B584B000AFF860B9607A6067
:105700007B68022B08D1B968F868FFF7C3FF03462E
:10571000002B01D0012300E00023002B01D01D232A
:1057200004E07B68013B034A52F8233018461037E7
:10573000BD4680BDE009010880B584B000AF3B469E
:1057400000221A605A609A60DA60214B214A1A607E
:105750001F4B4FF480325A601D4B00229A601C4B45
:1057600000221A611A4B00221A76194B002283F884
:105770002020174B0022DA62154B174A9A62144B0D
:105780000022DA60124B0122DA61114B002283F809
:1057900030200F4B01225A610D4800F047FF0346AD
:1057A000002B01D000F00CFA00233B6001237B604A
:1057B0000723BB603B461946054801F019F903462B
:1057C000002B01D000F0FCF900BF1037BD4680BDB2
:1057D000381C0020002001400100000F80B58AB075
:1057E00000AF786007F1140300221A605A609A60D3
:1057F000DA601A617B681B68174A934227D100233D
:105800003B61164B5B6C154A43F480735364134B36
:105810005B6C03F480733B613B690023FB600F4BBF
:105820001B6B0E4A43F0010313630C4B1B6B03F01D
:105830000103FB60FB6801237B610323BB61002341
:10584000FB6107F114031946054801F0F3FB00BFA3
:105850002837BD4680BD00BF00200140003802400F
:105860000000024080B500AFFCF774F905F022FF9C
:1058700000BF80BD80B58CB000AF07F11C030022D3
:105880001A605A609A60DA601A610023BB61404B6B
:105890001B6B3F4A43F0040313633D4B1B6B03F048
:1058A0000403BB61BB6900237B61394B1B6B384A26
:1058B00043F080031363364B1B6B03F080037B6163
:1058C0007B6900233B61324B1B6B314A43F0010380
:1058D00013632F4B1B6B03F001033B613B690023F8
:1058E000FB602B4B1B6B2A4A43F010031363284BBE
:1058F0001B6B03F01003FB60FB680023BB60244BB1
:105900001B6B234A43F002031363214B1B6B03F011
:105910000203BB60BB6800237B601D4B1B6B1C4AF2
:1059200043F0080313631A4B1B6B03F008037B60FF
:105930007B6800224FF40051164801F017FD002249
:105940004FF40041144801F011FD4FF40053FB6186
:1059500001233B6200237B620023BB6207F11C032F
:1059600019460C4801F066FB4FF40043FB6101232C
:105970003B6200237B620023BB6207F11C031946D4
:10598000054801F057FB00BF3037BD4680BD00BF62
:1059900000380240000802400010024080B500AF0D
:1059A000124B134A1A60114B124A5A600F4B0022D5
:1059B0009A600E4B0022DA600C4B4FF480421A6161
:1059C0000A4B00225A61094B00229A61074B0022C0
:1059D000DA61064B00221A62044801F0FBFC034620
:1059E000002B01D000F0ECF800BF80BD801C00202F
:1059F00000540040A086010080B58AB000AF7860F6
:105A000007F1140300221A605A609A60DA601A6182
:105A10007B681B68194A93422CD100233B61184BC9
:105A20001B6B174A43F002031363154B1B6B03F008
:105A300002033B613B694FF440737B611223BB61FE
:105A40000023FB6103233B6204237B6207F1140301
:105A500019460C4801F0EEFA0023FB60084B1B6C62
:105A6000074A43F400131364054B1B6C03F4001343
:105A7000FB60FB6800BF2837BD4680BD0054004076
:105A8000003802400004024080B500AF00F068FD1D
:105A900000F018F8FFF7EEFEFFF74EFEFFF77EFF6F
:105AA00000F094F800F0A6FA00F0CEFA00F0F6FA52
:105AB00000F01EFB00F046FB00F06EFBFFF7D2FE8D
:105AC00000BFFDE780B594B000AF07F1200330229E
:105AD0000021184608F0D5F807F10C0300221A60DF
