:020000040800F2
:100000000000022075940008398D0008418D000819
:10001000498D0008518D0008598D0008000000002E
:10002000000000000000000000000000911701081F
:10003000618D000800000000E119010865EB00086F
:10004000C5940008C5940008C5940008C59400082C
:10005000C5940008C5940008C5940008C59400081C
:10006000C5940008C5940008C5940008C59400080C
:10007000C5940008C5940008C5940008C5940008FC
:10008000C5940008C5940008718D0008C594000847
:10009000C5940008C5940008C5940008C5940008DC
:1000A000C5940008C5940008C5940008C5940008CC
:1000B000C59400088D8D0008C5940008C5940008FB
:1000C000C5940008C5940008C5940008C5940008AC
:1000D000C5940008C5940008A58D0008B98D0008D6
:1000E000C5940008C5940008C5940008C59400088C
:1000F000C5940008C5940008C5940008C59400087C
:10010000C5940008C5940008C5940008C59400086B
:10011000C5940008C5940008C5940008C59400085B
:10012000C5940008C5940008CD8D0008C59400084A
:10013000C5940008C5940008C5940008C59400083B
:10014000C5940008C5940008C5940008C59400082B
:10015000C5940008C5940008C5940008C59400081B
:10016000C5940008C5940008C5940008C59400080B
:10017000C5940008C5940008C5940008000000005C
:08018000C5940008C5940008B5
:1001900010B5054C237833B9044B13B10448AFF3C1
:1001A00000800123237010BD8803002000000000A0
:1001B0001850010808B5034B1BB103490348AFF3BE
:1001C000008008BD000000008C03002018500108CA
:1001D00001F0FF01102A2BDB10F0070F08D010F8F8
:1001E000013B013A8B422DD010F0070F42B3F6D1FC
:1001F000F0B441EA012141EA014122F007047FF015
:1002000000070023F0E80256083C85EA010586EA6B
:10021000010685FA47F5A3FA87F586FA47F6A5FAA7
:1002200087F68EB9EED1F0BC01F0FF0102F00702B3
:1002300032B110F8013B013A83EA010313B1F8D15E
:100240000020704701387047002D06BF354603383F
:10025000073815F0010F07D1013015F4807F02BF78
:10026000013015F4C03F0130F0BC0138704700BFC9
:10027000034613F8012B002AFBD1181A01387047E6
:1002800081F0004102E000BF83F0004330B54FEA47
:1002900041044FEA430594EA050F08BF90EA020FB4
:1002A0001FBF54EA000C55EA020C7FEA645C7FEA47
:1002B000655C00F0E2804FEA5454D4EB5555B8BF6A
:1002C0006D420CDD2C4480EA020281EA030382EADB
:1002D000000083EA010180EA020281EA0303362D6D
:1002E00088BF30BD11F0004F4FEA01314FF4801C40
:1002F0004CEA113102D0404261EB410113F0004F52
:100300004FEA03334CEA133302D0524263EB430308
:1003100094EA050F00F0A780A4F10104D5F1200EA6
:100320000DDB02FA0EFC22FA05F2801841F1000101
:1003300003FA0EF2801843FA05F359410EE0A5F1D5
:1003400020050EF1200E012A03FA0EFC28BF4CF006
:10035000020C43FA05F3C01851EBE37101F00045BC
:1003600007D54FF0000EDCF1000C7EEB00006EEBC9
:100370000101B1F5801F1BD3B1F5001F0CD3490853
:100380005FEA30004FEA3C0C04F101044FEA4452AA
:1003900012F5800F80F09A80BCF1004F08BF5FEA31
:1003A000500C50F1000041EB045141EA050130BD11
:1003B0005FEA4C0C404141EB0101013C28BFB1F523
:1003C000801FE9D291F0000F04BF01460020B1FA6E
:1003D00081F308BF2033A3F10B03B3F120020CDA41
:1003E0000C3208DD02F1140CC2F10C0201FA0CF01F
:1003F00021FA02F10CE002F11402D8BFC2F1200C84
:1004000001FA02F120FA0CFCDCBF41EA0C01904039
:10041000E41AA2BF01EB0451294330BD6FEA040482
:100420001F3C1CDA0C340EDC04F11404C4F120026D
:1004300020FA04F001FA02F340EA030021FA04F37F
:1004400045EA030130BDC4F10C04C4F1200220FAD6
:1004500002F001FA04F340EA0300294630BD21FA14
:1004600004F0294630BD94F0000F83F4801306BFDA
:1004700081F480110134013D4EE77FEA645C18BFCE
:100480007FEA655C29D094EA050F08BF90EA020F65
:1004900005D054EA000C04BF1946104630BD91EA5D
:1004A000030F1EBF0021002030BD5FEA545C05D160
:1004B0004000494128BF41F0004130BD14F580049F
:1004C0003CBF01F5801130BD01F0004545F0FE4113
:1004D00041F470014FF0000030BD7FEA645C1ABF48
:1004E000194610467FEA655C1CBF0B46024650EA7F
:1004F000013406BF52EA033591EA030F41F40021AB
:1005000030BD00BF90F0000F04BF0021704730B530
:100510004FF4806404F132044FF000054FF0000105
:1005200050E700BF90F0000F04BF0021704730B5C6
:100530004FF4806404F1320410F0004548BF40429B
:100540004FF000013EE700BF42004FEAE2014FEAF0
:1005500031014FEA02701FBF12F07F4393F07F4FCB
:1005600081F06051704732F07F4208BF704793F0CE
:100570007F4F04BF41F40021704730B54FF46074E1
:1005800001F0004521F000411CE700BF50EA0102E4
:1005900008BF704730B54FF000050AE050EA01028D
:1005A00008BF704730B511F0004502D5404261EBFD
:1005B00041014FF4806404F132045FEA915C3FF43E
:1005C000D8AE4FF003025FEADC0C18BF03325FEADB
:1005D000DC0C18BF033202EBDC02C2F1200300FA8C
:1005E00003FC20FA02F001FA03FE40EA0E0021FAB1
:1005F00002F11444BDE600BF70B54FF0FF0C4CF49F
:10060000E06C1CEA11541DBF1CEA135594EA0C0F50
:1006100095EA0C0F00F0DEF82C4481EA030621EA8B
:100620004C5123EA4C5350EA013518BF52EA0335C6
:1006300041F4801143F4801338D0A0FB02CE4FF078
:100640000005E1FB02E506F00042E0FB03E54FF0A8
:100650000006E1FB03569CF0000F18BF4EF0010EA0
:10066000A4F1FF04B6F5007F64F5407404D25FEA9C
:100670004E0E6D4146EB060642EAC62141EA55514F
:100680004FEAC52040EA5E504FEACE2EB4F1FD0C91
:1006900088BFBCF5E06F1ED8BEF1004F08BF5FEA0F
:1006A000500E50F1000041EB045170BD06F00046C1
:1006B00046EA010140EA020081EA0301B4EB5C046E
:1006C000C2BFD4EB0C0541EA045170BD41F4801166
:1006D0004FF0000E013C00F3AB8014F1360FDEBF8B
:1006E000002001F0004170BDC4F10004203C35DA67
:1006F0000C341BDC04F11404C4F1200500FA05F3EA
:1007000020FA04F001FA05F240EA020001F000428A
:1007100021F0004110EBD37021FA04F642EB060100
:100720005EEA430E08BF20EAD37070BDC4F10C042A
:10073000C4F1200500FA04F320FA05F001FA04F2EE
:1007400040EA020001F0004110EBD37041F10001DA
:100750005EEA430E08BF20EAD37070BDC4F12005E5
:1007600000FA05F24EEA020E20FA04F301FA05F24D
:1007700043EA020321FA04F001F0004121FA04F2F5
:1007800020EA020000EBD3705EEA430E08BF20EAC5
:10079000D37070BD94F0000F0FD101F000464000FF
:1007A00041EB010111F4801F08BF013CF7D041EA81
:1007B000060195F0000F18BF704703F00046520085
:1007C00043EB030313F4801F08BF013DF7D043EA56
:1007D0000603704794EA0C0F0CEA135518BF95EA0C
:1007E0000C0F0CD050EA410618BF52EA4306D1D193
:1007F00081EA030101F000414FF0000070BD50EAB2
:10080000410606BF1046194652EA430619D094EA3B
:100810000C0F02D150EA013613D195EA0C0F05D125
:1008200052EA03361CBF104619460AD181EA030179
:1008300001F0004141F0FE4141F470014FF0000031
:1008400070BD41F0FE4141F4780170BD70B54FF0CC
:10085000FF0C4CF4E06C1CEA11541DBF1CEA13554C
:1008600094EA0C0F95EA0C0F00F0A7F8A4EB05042E
:1008700081EA030E52EA03354FEA013100F0888025
:100880004FEA03334FF0805545EA131343EA1263EE
:100890004FEA022245EA111545EA10654FEA0026A3
:1008A0000EF000419D4208BF964244F1FD0404F55C
:1008B000407402D25B084FEA3202B61A65EB0305B8
:1008C0005B084FEA32024FF480104FF4002CB6EB75
:1008D000020E75EB030E22BFB61A754640EA0C00F5
:1008E0005B084FEA3202B6EB020E75EB030E22BF35
:1008F000B61A754640EA5C005B084FEA3202B6EB76
:10090000020E75EB030E22BFB61A754640EA9C0034
:100910005B084FEA3202B6EB020E75EB030E22BF04
:10092000B61A754640EADC0055EA060E18D04FEAC2
:10093000051545EA16754FEA06164FEAC30343EA62
:1009400052734FEAC2025FEA1C1CC0D111F4801F2F
:100950000BD141EA00014FF000004FF0004CB6E728
:1009600011F4801F04BF01430020B4F1FD0C88BFC7
:10097000BCF5E06F3FF6AFAEB5EB030C04BFB6EBD2
:10098000020C5FEA500C50F1000041EB045170BDC5
:100990000EF0004E4EEA113114EB5C04C2BFD4EBF2
:1009A0000C0541EA045170BD41F480114FF0000E76
:1009B000013C90E645EA060E8DE60CEA135594EAF2
:1009C0000C0F08BF95EA0C0F3FF43BAF94EA0C0FF5
:1009D0000AD150EA01347FF434AF95EA0C0F7FF46A
:1009E00025AF104619462CE795EA0C0F06D152EABE
:1009F00003353FF4FDAE1046194622E750EA4106A2
:100A000018BF52EA43067FF4C5AE50EA41047FF4B2
:100A10000DAF52EA43057FF4EBAE12E74FF0FF3C17
:100A200006E000BF4FF0010C02E000BF4FF0010CE8
:100A30004DF804CD4FEA410C7FEA6C5C4FEA430C61
:100A400018BF7FEA6C5C1BD001B050EA410C0CBFB0
:100A500052EA430C91EA030F02BF90EA020F002012
:100A6000704710F1000F91EA030F58BF994208BF79
:100A700090422CBFD8176FEAE37040F00100704736
:100A80004FEA410C7FEA6C5C02D150EA013C07D18D
:100A90004FEA430C7FEA6C5CD6D152EA033CD3D0D8
:100AA0005DF8040B704700BF8446104662468C46D2
:100AB0001946634600E000BF01B5FFF7B7FF002805
:100AC00048BF10F1000F01BD4DF808EDFFF7F4FF2E
:100AD0000CBF012000205DF808FB00BF4DF808EDB9
:100AE000FFF7EAFF34BF012000205DF808FB00BFDC
:100AF0004DF808EDFFF7E0FF94BF012000205DF8FE
:100B000008FB00BF4DF808EDFFF7CEFF94BF0120B2
:100B100000205DF808FB00BF4DF808EDFFF7C4FFAB
:100B200034BF012000205DF808FB00BF4FEA410CF4
:100B30007FEA6C5C02D150EA013C0AD14FEA430CD7
:100B40007FEA6C5C02D152EA033C02D14FF0000014
:100B500070474FF0010070474FEA410212F5001252
:100B600015D211D56FF47873B3EB625212D94FEAF4
:100B7000C12343F0004343EA505311F0004F23FADE
:100B800002F018BF404270474FF00000704750EA33
:100B9000013005D111F0004008BF6FF000407047F0
:100BA0004FF00000704700BF4A0011D212F500124A
:100BB00011D20DD56FF47873B3EB62520ED44FEAB5
:100BC000C12343F0004343EA505323FA02F0704735
:100BD0004FF00000704750EA013002D14FF0FF3073
:100BE00070474FF0000070474FEA4102B2F1E04316
:100BF00024BFB3F5001CDCF1FE5C0DD901F0004C04
:100C00004FEAC0024CEA5070B2F1004F40EB830053
:100C100008BF20F00100704711F0804F21D113F17F
:100C20003872BCBF01F00040704741F480114FEAB8
:100C30005252C2F11802C2F1200C10FA0CF320FA41
:100C400002F018BF40F001004FEAC1234FEAD3235E
:100C500003FA0CFC40EA0C0023FA02F34FEA4303C8
:100C6000CCE77FEA625307D150EA01331EBF4FF051
:100C7000FE4040F44000704701F0004040F0FE406C
:100C800040F40000704700BF53B94AB9002908BFBB
:100C900000281CBF4FF0FF314FF0FF3000F06AB961
:100CA000ADF1080C6DE904CE00F006F8DDF804E0C3
:100CB000DDE9022304B070472DE9F047089D0C469A
:100CC000002B4ED194468C458646B2FA82F262D908
:100CD0004AB1C2F12003914020FA03F30CFA02FC5E
:100CE000194300FA02FE4FEA1C471FFA8CF6B1FBCB
:100CF000F7F44FEA1E4307FB141143EA014304FBD8
:100D000006F199420AD91CEB030304F1FF3080F08D
:100D10001281994240F20F81023C6344591A1FFA32
:100D20008EF3B1FBF7F007FB101143EA014300FB20
:100D300006F69E420AD91CEB030300F1FF3180F056
:100D4000FC809E4240F2F980634402389B1B40EADB
:100D5000044000211DB1D3400022C5E90032BDE8A6
:100D6000F0878B4205D90DB1C5E900010021084685
:100D7000F5E7B3FA83F1002946D1A34202D39042AA
:100D8000C0F0F080861A64EB03030120002DE6D04A
:100D9000C5E90063E3E7002A40F09080A1EB0C0472
:100DA0004FEA1C481FFA8CF70121B4FBF8F64FEA12
:100DB0001E4308FB164443EA044307FB06F098422F
:100DC00008D91CEB030306F1FF3402D2984200F26B
:100DD000CD8026461C1A1FFA8EF3B4FBF8F008FBF0
:100DE000104443EA044300FB07F79F4208D91CEB79
:100DF000030300F1FF3402D29F4200F2B08020468C
:100E0000DB1B40EA0640A5E7C1F120068B4022FA31
:100E100006F71F4320FA06FC04FA01F343EA0C0329
:100E2000F44000FA01F8380C4FEA1349B4FBF0FE25
:100E30001FFA87FC00FB1E4449EA04440EFB0CF930
:100E4000A14502FA01F20AD93C190EF1FF3A80F0ED
:100E50008480A14540F28180AEF1020E3C44A4EBB7
:100E600009041FFA83F9B4FBF0F300FB134449EAC9
:100E7000044403FB0CFCA44507D93C1903F1FF30E3
:100E800067D2A44565D9023B3C4443EA0E40A0FB2F
:100E90000293A4EB0C049C42CE469C4651D34ED008
:100EA00055B1B8EB0E0364EB0C0404FA06F6CB4024
:100EB0001E43CC40C5E90064002150E7C2F1200385
:100EC00020FA03F10CFA02FC24FA03F394400C43D9
:100ED0004FEA1C4800FA02FE1FFA8CF7B3FBF8F049
:100EE00008FB1031230C43EA014300FB07F1994250
:100EF00008D91CEB030300F1FF362CD299422AD902
:100F0000023863445B1AA4B2B3FBF8F108FB113357
:100F100044EA034401FB07F3A34208D91CEB040491
:100F200001F1FF3613D2A34211D902396444E41A05
:100F300041EA004139E70446F0E6084606E7C845BD
:100F4000AED2B9EB020E63EB070C0138A8E73146CD
:100F5000EDE7034699E73046D4E7D6467FE763449A
:100F600002384DE70646234608460FE7023E634433
:100F700030E700BF704700BF80B5ADF5926D04AF9C
:100F800007F59063A3F27C43186007F56973D922D3
:100F90000021184611F0E3FE07F59063A3F5A8734E
:100FA000184674231A46002111F0D9FE07F5906304
:100FB000A3F2744318464FF449731A46002111F006
:100FC000CEFE4FF47A7003F06DFF01F08DF802460B
:100FD00007F54C731146184611F0CDFF07F54C7319
:100FE0001033002200219D4804F0F5F807F56973DD
:100FF00019469B4803F0FBFF0346002B07F10C0347
:101000001946984803F0F3FF0346002B0CBF012359
:101010000023DBB2002B00F0958007F10C03643352
:10102000184611F097F8024607F59063A3F5A873E8
:101030001A6607F10C03A0338B4A19468B4804F05B
:10104000B4FC07F59063A3F2744393F8C132032B09
:1010500007F59063A3F2744393F8C12207F59063F8
:10106000A3F5A87383F8402007F59063A3F27443B7
:10107000D3F8182307F59063A3F5A8735A6107F511
:101080009063A3F27443D3F81C2307F59063A3F590
:10109000A8739A6107F59063A3F27443D3F82023F1
:1010A00007F59063A3F5A873DA6107F59063A3F2DF
:1010B0007443D3F8C82207F59063A3F5A8731A62A6
:1010C00007F59063A3F27443D3F8E42207F5906325
:1010D000A3F5A8735A6207F59063A3F27443D3F89B
:1010E000002307F59063A3F5A8739A6207F5906350
:1010F000A3F27443D3F8CC2207F59063A3F5A87349
:10110000DA6207F59063A3F27443D3F8E82207F597
:101110009063A3F5A8731A6307F59063A3F2744371
:10112000D3F8042307F59063A3F5A8735A6307F572
:101130009063A3F27443D3F8D02207F59063A3F52C
:10114000A8739A63484B1B7803F00703072B0BD057
:10115000454B1B7803F00703062B05D0424B1B7849
:1011600003F00703052B1FD1414B1B78002B3AD10D
:101170003F4B01221A7007F59063A3F5A8731A6913
:1011800007F59063A3F5A8735A663A4B1B781A4685
:10119000384B5B781946374B9B7800930B463649A2
:1011A000364811F079FD1EE0314B1B78002B1AD028
:1011B0002F4B00221A7007F59063A3F5A8731A69E4
:1011C00007F59063A3F5A8739A662A4B1B781A4615
:1011D000284B5B781946274B9B7800930B46264992
:1011E000264811F059FD07F59063A3F5A8731B6914
:1011F00007F54C7202F1540007F54C7202F15001F0
:1012000007F54C725C32029207F54C72583201922B
:10121000009303460A469FED1A1AF2EE040A9FED68
:10122000190A0021184803F06DFC07F54C7303F10F
:10123000700207F54C736C331946144803F020FB19
:1012400007F54C731946124803F0B4FE0221114809
:1012500009F0A1FE962003F025FEBFE6E835002048
:101260003C3100208C350020F9030020F8030020D9
:10127000FA030020A403002030500108FC030020E2
:101280003333534000000000B8030020E403002083
:101290000C3200200000024080B582B000AF7860C0
:1012A00039607B68012B12D13B684FF6FF72934285
:1012B0000DD10949094803F0FBFB4FF47A7338223A
:1012C0000749084803F0C4FA074804F0CAF900BF08
:1012D0000837BD4680BD00BF6C3B0020B80300202E
:1012E0005C3C0020E4030020F803002080B500AF40
:1012F0004FF6FF710120FFF7CFFF80BD80B584B0AE
:1013000000AFF8607B600B46FB721346BB72FB7A42
:10131000283B232B67D801A252F823F0E7130008DB
:10132000AD130008E7130008E7130008E7130008EF
:10133000E7130008E7130008E7130008E7130008A5
:10134000E7130008E7130008E7130008E713000895
:10135000E7130008E7130008E7130008E713000885
:10136000E7130008E7130008E7130008E713000875
:10137000E7130008E7130008E7130008E713000865
:10138000E7130008E7130008E7130008E713000855
:10139000E7130008E7130008E7130008E713000845
:1013A000B7130008C7130008D7130008BB7A184604
:1013B00003F078FD17E0BB7A1A464FF400710C4831
:1013C00009F0D0FD0FE0BB7A1A464FF4805109486E
:1013D00009F0C8FD07E0BB7A1A464FF48041054882
:1013E00009F0C0FD00BF012318461037BD4680BD7F
:1013F000000C02400004024080B584B000AFF860E9
:101400007B600B46FB721346BB72FB7A143B0C2BC2
:1014100044D801A252F823F0A11400089D1400083A
:101420009D1400084D1400086D1400088514000870
:101430009D1400089D1400089D1400089D140008C8
:101440009D1400089D1400085F140008BB7A9AB22E
:1014500041F28833796815480BF0A5FE21E0BB7A8C
:101460001A464A21F86806F0F7FE1AE0FB681B6886
:101470001B781A464921F86806F0EEFE012003F0B9
:1014800011FD0EE0012003F00DFDFB681B685B7889
:101490001A464921F86806F0DFFE02E0002301E069
:1014A00000BF012318461037BD4680BDD03C002048
:1014B00080B584B002AF7860164B174A17491848B8
:1014C00005F044FB164806F098FE154805F0ADFA05
:1014D0000021134806F0A0FE124B1979114B5B79DD
:1014E000104A1268019200930B46002220210C48FA
:1014F00005F022FA0A4805F00BFB4FF4FA6003F0FE
:10150000D1FC074804F07EFE4FF4FA7003F0CAFCE9
:1015100000BFF6E7FD120008F91300088C5F010810
:1015200010040020445F010880B58AB000AFF86065
:101530000B4687ED010AC7ED000A7B814FF00003DF
:101540007B6297ED017AF0EE006AC7EE267AC7ED6E
:10155000077A00237B8427E07B8C5B00FA681344C6
:101560001B8807EE903AF8EEE76A97ED007AC6EE30
:10157000877A97ED017A67EE277AC7ED057A97EDBE
:10158000057AD7ED077A77EE677AC7ED047AD7ED5B
:10159000047A67EEA77A97ED097A77EE277AC7ED96
:1015A000097A7B8C01337B847A8C7B899A42D3D3F2
:1015B0007B8907EE903AB8EEE77AD7ED096AC6EE76
:1015C000877AC7ED067AB869FEF7BEFF02460B467A
:1015D00043EC102B10F0B8FC53EC102B10461946BE
:1015E000FFF702FB034607EE903AB0EE670A283792
:1015F000BD4680BD0000000080B5ADF54C7D00AF5C
:1016000007F54C73A3F54B73186007F54C73A3F5FE
:10161000497318464FF449731A46002111F09FFB95
:101620004FF47A7003F03EFC7D4803F01FFC7D48C8
:1016300003F01CFC7C4803F019FC40F2DC527B49AF
:101640007B4808F08BFA7B480CF01EF807F10C037E
:101650001946794800F0B6FE07F10C0303F2C123E6
:101660001946754800F026FF744B1B78DBB2002B3F
:1016700014BF01230023DBB2002B00F0C0806F4BAE
:1016800000221A70DFED6E0A9FED6E0A4FF4FA71B8
:101690006D48FFF749FFF0EE407A07F54C73A3F56C
:1016A0004973C3EDC67A07F54C73A3F54973D3F8B4
:1016B00018331846FEF748FF57A3D3E90023FFF776
:1016C0000DFA0346002B08D007F54C73A3F54973B8
:1016D0004FF00002C3F818230FE007F54C73A3F591
:1016E0004973D3EDC67A9FED597A67EE877A07F58D
:1016F0004C73A3F54973C3EDC67ADFED510A9FED34
:10170000510A4FF4FA715248FFF70EFFF0EE407A9B
:1017100007F54C73A3F54973C3EDC77A07F54C730E
:10172000A3F54973D3F81C331846FEF70DFF3AA30F
:10173000D3E90023FFF7D2F90346002B08D007F5C1
:101740004C73A3F549734FF00002C3F81C230FE05C
:1017500007F54C73A3F54973D3EDC77A9FED3B7A38
:1017600067EE877A07F54C73A3F54973C3EDC77A23
:10177000DFED330A9FED330A4FF4FA713548FFF776
:10178000D3FEF0EE407A07F54C73A3F54973C3ED31
:10179000C87A07F54C73A3F54973D3F8203318467C
:1017A000FEF7D2FE1CA3D3E90023FFF797F9034607
:1017B000002B08D007F54C73A3F549734FF00002D6
:1017C000C3F820230FE007F54C73A3F54973D3ED5D
:1017D000C87A9FED1E7A67EE877A07F54C73A3F5FA
:1017E0004973C3EDC87A40F2DC521049104808F042
:1017F000B5F907F10C031946174803F0DBFB07F1B5
:101800000C031946144803F0D5FB642003F04AFB8F
:101810001CE700BFAFF30080B81E85EB51B89E3FB8
:10182000C0060020E4060020080700202C07002046
:10183000B43B0020743D0020900400209C1E00203A
:1018400000F07F4533335340E41200200000FA4398
:10185000CC160020B41A00208C35002080B485B04E
:1018600000AF78607B681B681C4A93422FD100232D
:10187000FB6025E0FA6813465B001344184A32F80F
:101880001310184AFB6822F81310FA6813465B001D
:1018900013440133124A32F81310134AFB6822F83A
:1018A0001310FA6813465B00134402330C4A32F8F3
:1018B00013100E4AFB6822F81310FB680133FB601B
:1018C000FB68B3F5FA7FD5DB094B01221A7000BF24
:1018D0001437BD465DF8047B704700BF002101400E
:1018E0002C070020E4120020CC160020B41A00209F
:1018F0009C1E002080B485B000AF78607B681B68B8
:101900001A4A93422BD10023FB6025E0FA68134664
:101910005B001344164A32F81310164AFB6822F88B
:101920001310FA6813465B0013440133104A32F86F
:101930001310114AFB6822F81310FA6813465B0073
:10194000134402330A4A32F813100C4AFB6822F897
:101950001310FB680133FB60FB68F92BD6DD00BF79
:101960001437BD465DF8047B704700BF002101407D
:101970002C070020E4120020CC160020B41A00200E
:1019800080B582B000AF786039607B68012B17D1D9
:101990003B684FF6FF72934212D14FF400430A4A5C
:1019A0000A490B4800F0A4FC0A490B4803F04AFA24
:1019B0000A490B4803F046FA0A490B4803F042FA79
:1019C00000BF0837BD4680BD00100240943E002095
:1019D00090040020043E0020C0060020DC3E0020D1
:1019E000E4060020BC3D00200807002080B500AFC1
:1019F0004FF6FF710120FFF7C3FF80BD80B582B0B5
:101A000000AF786039603968786811F0D0F9034622
:101A100018460837BD4680BD2DE9F04FADF5137D62
:101A200022AF07F5E073A3F5AE731860C94801F063
:101A300019F807F1E003D9220021184611F08FF9B7
:101A400007F5E073A3F5AA73184674231A4600211C
:101A500011F085F9012387F8BF31012387F8BE31E2
:101A6000002387F8BD3107F1E0034B33BA4A14462F
:101A70009C4604F1300E654626460FCE286069600C
:101A8000AA60EB6010340CF1100C7445F3D162467F
:101A9000234603CB106051601B78137207F1E003FB
:101AA0003733AE4A1C46134607CB20606160A26004
:101AB0001B78237307F1E003C333A94A1068186049
:101AC00092889A8007F1E003AF33A6491A460B4685
:101AD00003CB1060516019889B78118193720023A9
:101AE00087F8BC3107F1E00319469A4801F0A6F9DE
:101AF00007F1E0030F331946964801F009FA07F1A0
:101B0000E0031E331946934801F0E8FA07F1E003B9
:101B10002D3319468F4801F0D5FC07F16B031946A8
:101B20008C4801F01FFC07F16A031946894801F04F
:101B3000ADFB07F1E00319468B4803F03BFA322076
:101B400003F0B0F907F16C031946884803F04FFA27
:101B50000346002B97F8BD31032B00F2708201A2DF
:101B600052F823F0751B00085D1C00087D1D00085D
:101B7000CD1D000807F1E0030F337D491846FFF73C
:101B80003DFF0346002B09D107F1E0030F337949EC
:101B90001846FFF733FF0346002B1CD007F1E00384
:101BA0001E3373491846FFF729FF0346002B09D15E
:101BB00007F1E0031E336F491846FFF71FFF034686
:101BC000002B08D007F5E073A3F255131B78002B08
:101BD00001D0012300E00023002B00F0328207F146
:101BE000E003373319465B4801F07CF8034687F879
:101BF000BB31584802F0CEF9564802F007FA554872
:101C000002F040FA534802F079FA524802F0B2FA70
:101C100097F8BB31002B40F0148297F8BE31022BAD
:101C200008D197F8B83119464A4801F065FF0123F9
:101C300087F8BE3197F8BF31002B0BD197F8B83138
:101C40001946444801F07EFE424801F0B3FD0123ED
:101C500087F8BF31012387F8BD31F2E107F1E003D6
:101C60000F3343491846FFF7C9FE0346002B09D13D
:101C700007F1E0030F333F491846FFF7BFFE034665
:101C8000002B20D007F1E0031E3339491846FFF737
:101C9000B5FE0346002B09D107F1E0031E33354999
:101CA0001846FFF7ABFE0346002B0CD007F5E07398
:101CB000A3F255131B78002B05D097F8BF31002BEA
:101CC00001D0012300E00023002B00F0BC810021A3
:101CD000204801F05FF801211E4801F05BF807F190
:101CE000E003D83319461B4801F0F4FC034687F89B
:101CF000BF3197F8BF31002B21D197F8B8110123DC
:101D00001D4A144801F0BCFD034687F8BF3197F81F
:101D1000BF31002B09D197F8B83119460D4802F0B0
:101D2000DDF8022387F8BD318DE197F8B831194607
:101D3000084801F007FE074801F03CFD83E197F8F1
:101D4000B8311946034801F0FDFD024801F032FDAB
:101D500079E100BFA01E0020405001087C5001081E
:101D60008C500108945001083C3100200C320020B6
:101D70003C58010848580108A050010897F8BF31A5
:101D8000002B40F0628197F8BE31022B00F05D819C
:101D900097F8B81107F1E0034B331A46AD4801F04C
:101DA0002DFE034687F8BE3197F8BE31022B03D1D2
:101DB000032387F8BD3148E197F8B8311946A548A3
:101DC00001F09AFE002387F8BD313EE107F1E00300
:101DD0004B3319469F4801F005FC034687F8BE3196
:101DE00097F8BC31013387F8BC3197F8BE31022B2C
:101DF00010D097F8BC31032B0CD9002387F8B731EA
:101E000097F8B8311946934801F076FE002387F819
:101E1000BD311CE197F8BE31022B40F0188101233F
:101E200087F8B731002387F8BC3107F5E073A3F5D5
:101E3000AA731B693B6607F5E073A3F5AA735B6998
:101E40001846FEF781FBC7E9160107F5E073A3F515
:101E5000AA739B691846FEF777FBC7E9140107F5DB
:101E6000E073A3F5AA73DB691846FEF76DFBC7E9BB
:101E7000120107F5E073A3F5AA731B6A1846FEF773
:101E800063FBC7E9100107F5E073A3F5AA735B6A6A
:101E90001846FEF759FBC7E90E0107F5E073A3F5F5
:101EA000AA739B6A1846FEF74FFBC7E90C0107F5BA
:101EB000E073A3F5AA73DB6A1846FEF745FBC7E992
:101EC0000A0107F5E073A3F5AA731B6B1846FEF72A
:101ED0003BFBC7E9080107F5E073A3F5AA735B6B49
:101EE0001846FEF731FBC7E9060107F5E073A3F5D5
:101EF000AA739B6B1846FEF727FB82468B4607F5B5
:101F0000E073A3F5AA73DB6B1846FEF71DFB804652
:101F1000894607F5E073A3F5AA7393F840307B6117
:101F200007F5E073A3F5AA7393F850303B6107F50A
:101F3000E073A3F5AA735B6D1846FEF705FB044634
:101F40000D4607F5E073A3F5AA739A6DFA6007F5DD
:101F5000E073A3F5AA73D96DB96007F5E073A3F533
:101F6000AA731E6E7E6007F5E073A3F5AA73586E20
:101F700007F5E073A3F5AA73996E07F5E073A3F56F
:101F8000AA73DA6E07F5E073A3F5AA731B6F07F166
:101F90006C0620931F921E911D907A681C92B9685E
:101FA0001B91FA681A92CDE918453A6917927A6935
:101FB0001692CDE91489CDE912AB97ED067B8DED34
:101FC000107B97ED087B8DED0E7B97ED0A7B8DEDF9
:101FD0000C7B97ED0C7B8DED0A7B97ED0E7B8DEDE9
:101FE000087B97ED107B8DED067B97ED127B8DEDD9
:101FF000047B97ED147B8DED027B97ED167B8DEDC9
:10200000007B3B6E32461449144810F045FE97F8A9
:10201000B81107F1E00303F1C302FF230093104B53
:102020000C4801F0E5FD0346052B97F8B81107F1C0
:10203000E003C3331A46074801F096FE07E000BFED
:1020400050E500BF4EE500BF4CE500BF4AE500BFCC
:1020500048E500BFA01E0020A8500108A0260020CF
:10206000D02E002080B582B000AF786039607B68E8
:10207000012B08D13B684FF6FF72934203D104490C
:10208000044800F08BFC00BF0837BD4680BD00BF90
:102090004C3E0020A01E002080B500AF4FF6FF711F
:1020A0000120FFF7DFFF80BD80B483B000AF786010
:1020B0000B46FB70FB781B09DBB21A46094B995C97
:1020C0007B685A1C7A600A461A70FB7803F00F038B
:1020D000044AD25C7B681A7000BF0C37BD465DF8BD
:1020E000047B70475458010890B583B000AF07F0E7
:1020F00039FA0346DBB27B6007F034FA03461D4A27
:102100001B0A13601C4C07F039FA034623607B68F6
:10211000232B09D97B683D2B28BF3D23DBB23D3300
:10212000DAB2144BDA710BE07B68092B01D941223A
:1021300000E030227B68DBB21344DAB20D4BDA7177
:1021400007F004FA03461B0CDBB219460B48FFF7F5
:10215000ABFF07F0FBF90346DBB219460848FFF76F
:10216000A3FF044B00221A73024B18460C37BD46DE
:1021700090BD00BFF8350020FB3500200036002060
:102180000236002080B500AF0C4802F0C2FE0C48B9
:1021900002F0BFFE0B4802F0BCFE0B4802F0B9FE95
:1021A0000A4802F0EBFE0A4802F0E8FE094802F095
:1021B000E5FE04F0A3F900BF80BD00BFD02F0020D2
:1021C000F42F0020183000203C3000203C3100204B
:1021D0000C3200208C35002080B500AFFFF7D2FF15
:1021E00000BF80BD80B584B002AF786039607B6885
:1021F000012B48D13B684FF6FF72934243D118231D
:102200000193012300934FF40073214A214922488E
:1022100002F05EFE18230193012300934FF4007334
:102220001E4A1F491F4802F053FE18230193012341
:1022300000934FF400731C4A1C491D4802F048FEED
:1022400018230193012300934FF40073194A1A498C
:102250001A4802F03DFE1A4BD9220121194802F01A
:1022600072FE194B74220121184802F06CFE184BC3
:102270004FF449720121174802F065FE0522164904
:10228000164802F087FF00BF0837BD4680BD00BF7B
:1022900084530108191A0008D02F00208C5301081C
:1022A000F9150008F42F002098530108790F000851
:1022B00018300020A0530108B11400083C30002061
:1022C000603000203C310020983100200C3200208A
:1022D000683200208C350020B03C0020E83500201A
:1022E00080B500AF4FF6FF710120FFF77BFF80BD87
:1022F00080B584B000AFF860B9607A607B80FB681D
:102300001846FF231A46002110F029FDFB68FF3311
:10231000FF220021184610F022FDFB6803F1FF02A6
:10232000FB68C3F80022FA68FB68C3F80422FB6864
:1023300003F50573B968184603F031F9FB6803F536
:102340000673184603F08DF91A4B1B7819461A4A82
:10235000BB6842F83130174B1B78174ADB00134437
:10236000FA685A60134B1B780133DAB2114B1A70BA
:10237000104B1B78032B02D90E4B00221A700F4909
:102380000F4802F0B3FFFB687A68C3F80C22FB68C1
:102390007A88A3F81022FB68D3F80C02FB68B3F824
:1023A00010320022194608F0DDFDFB681846103790
:1023B000BD4680BD2036002008360020892900084F
:1023C0002529000880B588B002AF78603960002305
:1023D000FB750023FB73012301930D2300934FF43E
:1023E0007A7306223149786800F0F4F84FF4966267
:1023F0000021786800F0E3F90346FB73FB7B002BB8
:102400003AD17B681B78282B36D17B685B784E2BC2
:1024100032D07B689B78412B2ED07B68DB784B2BAE
:102420002AD07B683B6107E0BB891A463B691344AD
:102430003B61FB7D0133FB75FB7D172B18D87B6857
:1024400003F50670FA7D13469B0013445B001A46A1
:102450003B681A442023019307F10C0300930A23DD
:10246000396903F04AFA0346002B01D1012300E049
:102470000023002BD8D115E00023FB750FE0FA7D77
:1024800013469B0013445B001A463B6813440849FB
:102490001A460B461B881380FB7D0133FB75FB7DC1
:1024A000172BECD91837BD4680BD00BF6458010812
:1024B000B053010880B588B002AF7860396000235E
:1024C000FB750023BB75012301930D2300934FF48B
:1024D0007A7305223E49786800F07CF84FF49662E2
:1024E0000021786800F06BF90346BB75BB7D002BBB
:1024F0006BD17B681B78282B67D17B685B784E2B70
:1025000063D07B689B78412B5FD07B68DB784B2B5B
:102510005BD07B683B617B6803F5067007F10802BE
:102520002023019307F10E0300930223396903F07E
:10253000E4F90346002B0CBF01230023DBB2002B80
:1025400043D03B7A423B112B3ED801A252F823F0F4
:10255000B1250008C9250008C1250008C9250008C3
:10256000B9250008C9250008C9250008C9250008A3
:10257000C9250008C9250008A9250008C9250008A3
:10258000C9250008C925000899250008C9250008A3
:10259000C9250008A12500083B6801221A7014E033
:1025A0003B6802221A7010E03B6803221A700CE0AC
:1025B0003B6804221A7008E03B6805221A7004E0A8
:1025C0003B6806221A7000E000BF1837BD4680BD88
:1025D0006C58010880B586B000AFF860B96011464C
:1025E0001A460B46FB801346BB80FB68FF22002186
:1025F000184610F0B4FBFB68FF33FF220021184699
:1026000010F0ADFB0021F86800F099F80121F8689E
:1026100000F095F8FB6897F8202083F82A22FA68E2
:10262000FB68C3F81C22FB680022A3F82022FB6889
:1026300003F50570FB68D3F81C32FF22194602F03F
:10264000E3FF97F82430012B3ED1FB88013B9BB27E
:102650001A46B968F86800F0EEF80346FB82FB689A
:1026600003F1FF00FB88013B1A46B96810F08BFCB0
:10267000FB68FA8AA3F80822FB88013BFA6892F803
:102680000912FA6813440A4683F8FF20FB880133D5
:10269000FB80FB88013BFA6892F80812FA68134441
:1026A0000A4683F8FF20FB880133FB80FB88013B4F
:1026B000FA6813440D2283F8FF20FB88FA6813445C
:1026C000002283F8FF2006E0FB68FF33FA88B96830
:1026D000184610F058FCFB68D3F80C02FB68B3F8FE
:1026E00010320122194608F03DFCFB6803F5057025
:1026F000FB6803F1FF01BB88FA8802F072FFFB68F8
:10270000D3F80C02FB68B3F810320022194608F027
:1027100029FC00BF1837BD4680BD80B483B000AF30
:1027200078600B46FB70FB787A681344012283F8CB
:102730002C2200BF0C37BD465DF8047B704780B487
:1027400083B000AF78600B46FB70FB787A68134467
:10275000002283F82C2200BF0C37BD465DF8047BB5
:10276000704780B485B000AF78600B46FB700023E3
:10277000FB73FB787A68134493F82C32DBB2002B9E
:1027800014BF01230023DBB2002B02D00023FB7314
:102790000EE0FB787A68134493F82C32DBB2002BFE
:1027A0000CBF01230023DBB2002B01D00123FB73FC
:1027B000FB7B18461437BD465DF8047B704780B537
:1027C00084B000AF78600B46FB7013463B8000235B
:1027D000FB730023BB6006F0ADFEB86002E00A2088
:1027E00002F060FBFB7819467868FFF7BAFF0346F2
:1027F000002B09D006F09EFE0246BB68D21A3B8829
:102800009A4201D2012300E00023002BE7D1FB789C
:1028100019467868FFF7A5FF0346002B14BF012374
:102820000023DBB2002B01D00123FB73FB7B184696
:102830001037BD4680BD80B487B000AFF860B96086
:102840001346FB804FF6FF737B820023BB822BE095
:10285000BB8ABA6813441B787B747B7C9AB27B8AF0
:1028600053407B820023FB7518E07B8ADBB203F0C8
:1028700001033B747B8A5B087B827B8AC3F30E0374
:102880007B823B7C012B06D17B8A83F4BF4383F0A0
:102890007E03DB437B82FB7D0133FB75FB7D072BD6
:1028A000E3D9BB8A0133BB82BA8AFB889A42CFD371
:1028B0007B8A18461C37BD465DF8047B704780B59F
:1028C00082B000AF78600B46FB70F8787B68D3F875
:1028D0001C32591C7A68C2F81C1202461A707B68B6
:1028E000B3F820329BB201339AB27B68A3F820225E
:1028F0007B6893F82A32DBB2FA789A420CBF012344
:102900000023DBB2002B09D000217868FFF705FF18
:102910007B6803F50573184602F088FE00BF083790
:10292000BD4680BD80B584B000AF78600B46FB70BB
:102930000023FB730023FB7309E0FB7B114A52F871
:1029400033307A689A4206D0FB7B0133FB73FB7B02
:10295000022BF2D900E000BFFB7B0A4ADB001344E4
:102960005B68002B09D0FB7B064ADB0013445B68E5
:10297000FA7811461846FFF7A2FF00BF1037BD4690
:1029800080BD00BF0836002080B483B000AF7860FF
:1029900000BF0C37BD465DF8047B704780B582B040
:1029A00000AF786039607B6818464FF400631A46C0
:1029B000002110F0D4F97B6803F500634FF4006246
:1029C0000021184610F0CBF97B6803F500637A68A4
:1029D00002F5805213607B687A6802F5805253607A
:1029E0007B6803F5815304333968184602F0D7FD3C
:1029F0007B6803F581530833184602F032FE7B688A
:102A000003F580531A460023D362124B1B781946F4
:102A1000114A3B6842F831300E4B1B780E4ADB00FE
:102A200013447A685A600B4B1B780133DAB2094BB6
:102A30001A70084B1B78032B02D9064B00221A7020
:102A40000649074802F03CFC7B6818460837BD463B
:102A500080BD00BF3C360020243600203D480008E1
:102A6000D947000880B586B002AF78600023FB73B9
:102A7000012301930A2300934FF47A7304228F49B0
:102A8000786801F0B3FB41F288320021786801F0E8
:102A9000DAFC0346FB73012301930A2300934FF4EE
:102AA0007A7304228549786801F0A0FB41F28832EC
:102AB0000021786801F0C7FC0346FB7301230193F2
:102AC0000A2300934FF47A7304227C49786801F05A
:102AD0008DFB41F288320021786801F0B4FC034696
:102AE000FB73012301930A2300934FF47A730B22A3
:102AF0007349786801F07AFB41F2883200217868E6
:102B000001F0A1FC0346FB7343F6982002F0CAF9DA
:102B1000012301930A2300934FF47A730422674937
:102B2000786801F063FB41F288320021786801F097
:102B30008AFC0346FB73012301930A2300934FF49D
:102B40007A7304225D49786801F050FB41F28832C3
:102B50000021786801F077FC0346FB7301230193A1
:102B60000A2300934FF47A7304225449786801F0E1
:102B70003DFB41F288320021786801F064FC034695
:102B8000FB73012301930A2300934FF47A73072206
:102B90004C49786801F02AFB41F2883200217868BC
:102BA00001F051FC0346FB73012301930A230093B8
:102BB0004FF47A7306224449786801F017FB41F21A
:102BC00088320021786801F03EFC0346FB73012344
:102BD00001930A2300934FF47A730B223B497868E0
:102BE00001F004FB41F288320021786801F02BFCEF
:102BF0000346FB73012301930A2300934FF47A7376
:102C00000C223349786801F0F1FA41F28832002150
:102C1000786801F018FC0346FB73012301930A2333
:102C200000934FF47A7318222A49786801F0DEFA8B
:102C300041F288320021786801F005FC0346FB73FD
:102C4000012301930A2300934FF47A730B22224944
:102C5000786801F0CBFA41F288320021786801F0FF
:102C6000F2FB0346FB73012301930A2300934FF405
:102C70007A730B221949786801F0B8FA41F2883268
:102C80000021786801F0DFFB0346FB730123019309
:102C90000A2300934FF47A730C221149786801F0EB
:102CA000A5FA41F288320021786801F0CCFB034696
:102CB000FB73FB7B18461037BD4680BD7458010876
:102CC0007C58010830590108385901088858010812
:102CD00094580108A4580108C0580108CC580108AC
:102CE000D858010880B592B002AF786039600023EF
:102CF00087F83F300023FB6007F110032E220021EC
:102D0000184610F02CF807F10C033A6820491846D1
:102D10000FF0C2FF07F10C031846FDF7A9FA0346AE
:102D20009AB207F10C01012301930A2300934FF497
:102D30007A73786801F05AFA4FF4FA6200217868E1
:102D400001F081FB034687F83F3097F83F30002BB6
:102D50000FD17B6803F58153083379687A6802F5EF
:102D60008052928A92B2184602F086FC0346002BEB
:102D700001D0012300E00023002B02D0012387F8BB
:102D80003F3097F83F3018464037BD4680BD00BF02
:102D9000C453010880B58AB002AF78600B46FB705F
:102DA0000023FB770023BB6007F10C0300221A60AD
:102DB0005A609A60DA60FA7807F108031E491846EB
:102DC0000FF06AFF07F108031846FDF751FA0346B2
:102DD0009AB207F10801012301930A2300934FF4EB
:102DE0007A73786801F002FA41F28832002178683B
:102DF00001F029FB0346FB77FB7F002B0FD17B689B
:102E000003F58153083379687A6802F58052928A13
:102E100092B2184602F030FC0346002B01D0012389
:102E200000E00023002B01D00123FB77FB7F184635
:102E30002037BD4680BD00BFE053010880B588B093
:102E400004AF78603960012301930A2300934FF4A3
:102E50007A730A222B49786801F0C8F94FF4FA62B4
:102E60000021786801F0EFFA0346FB73FB7B002B2F
:102E700011D17B6803F58153083379687A6802F5CC
:102E80008052928A92B2184602F0F6FB0346002B5B
:102E900001D1012300E00023002B24D07B6803F53F
:102EA0008150083079687B6803F580539B8A9AB219
:102EB0003B6802930D2301933A230093124B02F0D7
:102EC00001FC0346002B0CBF01230023DBB2002BC7
:102ED00013D13B680D491A460B4603CB1060516075
:102EE0001B7813720AE03B6808491A460B4603CB6D
:102EF000106051601B78137200E000BF1037BD46B0
:102F000080BD00BFE8580108F0530108F8530108DC
:102F100090B589B004AF78603960012301930A232A
:102F200000934FF47A730A226149786801F05EF9E0
:102F30004FF4FA620021786801F085FA0346FB73CA
:102F4000FB7B002B11D17B6803F581530833796833
:102F50007A6802F58052928A92B2184602F08CFB8F
:102F60000346002B01D1012300E00023002B00F0D9
:102F700093807B6803F58150083079687B6803F59E
:102F800080539B8A9AB23B6802930D2301932C23B2
:102F90000093484B02F096FB0346002B0CBF012325
:102FA0000023DBB2002B6DD03B681B78303B072B36
:102FB0005DD801A252F823F0D92F0008E92F0008AC
:102FC000FD2F0008113000082930000839300008B2
:102FD0004B3000085B3000083B6837491A460B4607
:102FE00003CB106051604CE03B6834491A460B46F5
:102FF00003CB106051601B78137242E03B6830498C
:103000001A460B4603CB106051601B88138138E0D1
:103010003B682C491A460B4603CB10605160198857
:103020009B78118193722CE03B6827491A460B4626
:1030300003CB1060516024E03B68244A1C461346D1
:1030400007CB20606160A2601BE03B6820491A4604
:103050000B4603CB1060516013E03B681D491A46D4
:103060000B4603CB106051601B78137209E03B687C
:1030700019491A460B4603CB106051601B78137236
:1030800000BF12E03B6814491A460B4603CB1060A0
:1030900051601B78137208E03B680F491A460B46D3
:1030A00003CB106051601B7813721437BD4690BD7E
:1030B000F4580108045401080C5401081454010880
:1030C000205401082C5401083854010840540108C8
:1030D0004C54010854540108F853010890B589B0C4
:1030E00004AF78603960012301930A2300934FF401
:1030F0007A730B225B49786801F078F84FF4FA6232
:103100000021786801F09FF90346FB73FB7B002BDD
:1031100011D17B6803F58153083379687A6802F529
:103120008052928A92B2184602F0A6FA0346002B09
:1031300001D1012300E00023002B00F087807B6891
:1031400003F58150083079687B6803F580539B8ACA
:103150009AB23B6802930D2301932C230093424BB8
:1031600002F0B0FA0346002B0CBF01230023DBB2B0
:10317000002B61D03B681B78303B062B51D801A255
:1031800052F823F0A1310008B1310008C531000820
:10319000D9310008F131000801320008133200086B
:1031A0003B6832491A460B4603CB1060516042E03F
:1031B0003B682F491A460B4603CB106051601B78C1
:1031C000137238E03B682B491A460B4603CB10605C
:1031D00051601B8813812EE03B6827491A460B4635
:1031E00003CB1060516019889B781181937222E0A3
:1031F0003B6822491A460B4603CB106051601AE027
:103200003B681F4A1C46134607CB20606160A260E2
:1032100011E03B681B491A460B4603CB1060516016
:1032200009E03B6818491A460B4603CB1060516011
:103230001B78137200BF12E03B6813491A460B4615
:1032400003CB106051601B78137208E03B680E4995
:103250001A460B4603CB106051601B78137214376B
:10326000BD4690BD00590108605401080C54010886
:1032700014540108205401082C5401083854010842
:10328000405401084C540108F853010880B58AB035
:1032900004AF786039600023FB6007F1100300225F
:1032A0001A609A803B6802221A70012301930A2354
:1032B00000934FF47A730B222849786800F096FF48
:1032C0004FF4FA620021786801F0BDF80346FB75FF
:1032D000FB7D002B11D17B6803F58153083379689E
:1032E0007A6802F58052928A92B2184602F0C4F9C6
:1032F0000346002B01D1012300E00023002B29D03D
:103300007B6803F58150083079687B6803F580534A
:103310009B8A9AB207F10C0302932C2301933A2360
:1033200000930F4B02F0CEF90346002B0CBF012394
:103330000023DBB2002B0DD03B7B302B02D0312B96
:1033400004D007E03B6800221A7003E03B680122CA
:103350001A7000BF00BF1837BD4680BD0C59010868
:103360006854010880B58AB004AF786039600023E2
:10337000BB6007F10C0300221A605A60C3F80720F3
:103380003B6800221A70012301930A2300934FF433
:103390007A730A224549786800F028FF41F28832A2
:1033A0000021786801F04FF80346FB75FB7D002B88
:1033B00011D17B6803F58153083379687A6802F587
:1033C0008052928A92B2184602F056F90346002BB8
:1033D00001D1012300E00023002B62D07B6803F5BC
:1033E0008150083079687B6803F580539B8A9AB2D4
:1033F00007F1080302932C2301933A2300932C4BEB
:1034000002F060F90346002B0CBF01230023DBB25E
:10341000002B46D007F1080326491846FEF7EEFABE
:103420000346002B14BF01230023DBB2002B03D083
:103430003B6800221A7034E007F108031E49184661
:10344000FEF7DCFA0346002B14BF01230023DBB296
:10345000002B03D03B6801221A7022E007F1080319
:1034600016491846FEF7CAFA0346002B14BF01237B
:103470000023DBB2002B03D03B6802221A7010E05D
:1034800007F108030E491846FEF7B8FA0346002B69
:1034900014BF01230023DBB2002B02D03B680322C0
:1034A0001A7000BF1837BD4680BD00BF185901080B
:1034B00070540108785401088454010888540108A4
:1034C0009054010880B58AB004AF78603960002359
:1034D000FB6007F1100300221A609A800023FB753D
:1034E000012301930A2300934FF47A730822394988
:1034F000786800F07BFE4FF4FA620021786800F0F3
:10350000A2FF0346BB75BB7D002B11D17B6803F581
:103510008153083379687A6802F58052928A92B2B0
:10352000184602F0A9F80346002B01D1012300E060
:103530000023002B41D07B6803F581500830796867
:103540007B6803F580539B8A9AB207F10C030293C0
:103550002C2301933A2300931F4B02F0B3F8034648
:10356000002B0CBF01230023DBB2002B1BD007F183
:103570000C0318460EF0EEFD0346FB7597F9173065
:10358000622B02DD0023FB7505E0FB7D5B00DBB2F7
:10359000713BDBB2FB7597F917301A460F49386853
:1035A0000FF07AFB12E03B680D491A460B4603CB3D
:1035B000106051601B78137208E03B6808491A4696
:1035C0000B4603CB106051601B7813721837BD4651
:1035D00080BD00BF24590108945401089C5401087F
:1035E000F853010880B5A0B004AF786039600123BA
:1035F00087F86E30032387F86F300023BB6007F134
:103600000C036022002118460FF0A9FB012301934F
:103610000A2300934FF47A7312222C49786800F041
:10362000E5FD4FF4FA520021786800F00CFF0346E4
:1036300087F86E3097F86E30002B11D17B6803F558
:103640008153083379687A6802F58052928A92B27F
:10365000184602F011F80346002B01D1012300E0C7
:103660000023002B2CD07B6803F58150083079684B
:103670007B6803F580539B8A9AB207F10803029393
:103680002223019322230093114B02F01BF80346DF
:10369000002B0CBF01230023DBB2002B10D007F15D
:1036A000080319463868FEF7A9F90346002B14BF32
:1036B00001230023DBB2002B02D0022387F86F30F6
:1036C00097F86F3018467037BD4680BD60590108C5
:1036D000C454010880B58AB004AF78603960012312
:1036E000BB750123FB750023FB6007F1100300226B
:1036F0001A609A80032303930A23029302230193FF
:103700002B2300934FF47A730F222849786800F036
:10371000CFFD42F210720021786800F094FE03465B
:10372000BB75BB7D002B11D17B6803F5815308333A
:1037300079687A6802F58052928A92B2184601F04E
:103740009BFF0346002B01D1012300E00023002B47
:1037500026D07B6803F58150083079687B6803F5D3
:1037600080539B8A9AB207F10C0302930A230193B8
:103770003A2300930E4B01F0A5FF0346002B0CBF2C
:1037800001230023DBB2002B0AD00023FB7507F1D5
:103790000C0318460EF0DEFC0346DAB23B681A70E2
:1037A000FB7D18461837BD4680BD00BF4059010853
:1037B000D454010880B58AB004AF78600123BB758A
:1037C0000123FB750023FB6007F1100300221A6040
:1037D0009A80032303930A230293022301932B234A
:1037E00000934FF47A730E222349786800F060FD4D
:1037F00042F210720021786800F025FE0346BB7586
:10380000BB7D002B11D17B6803F5815308337968A8
:103810007A6802F58052928A92B2184601F02CFF23
:103820000346002B01D1012300E00023002B1DD013
:103830007B6803F58150083079687B6803F5805315
:103840009B8A9AB207F10C0302930A2301933A234D
:1038500000930A4B01F036FF0346002B0CBF0123F7
:103860000023DBB2002B01D00023FB75FB7D184643
:103870001837BD4680BD00BF50590108E454010807
:1038800080B59CB002AFF8607A601A460B46FB72B6
:103890001346BB72012387F86630012387F867302F
:1038A00000237B6107F118034C22002118460FF01A
:1038B00056FAFA7ABB7A07F1140000937B68204924
:1038C0000FF0EAF907F114031846FCF7D1FC0346A0
:1038D0009AB207F11401012301930A2300934FF4D4
:1038E0007A73F86800F082FC4FF4FA520021F8680D
:1038F00000F0A9FD034687F8663097F86630002B84
:1039000011D1FB6803F581530833F968FA6802F5B1
:103910008052928A92B2184601F0AEFE0346002B06
:1039200001D1012300E00023002B02D0002387F8FF
:10393000673097F8673018466837BD4680BD00BFCE
:10394000F054010880B59AB002AF78600B46FB7066
:10395000012387F85E30012387F85F300023FB6086
:1039600007F110034C22002118460FF0F8F9FA78FD
:1039700007F10C03204918460FF08EF907F10C03EC
:103980001846FCF775FC03469AB207F10C010123B7
:1039900001930A2300934FF47A73786800F026FCB1
:1039A0004FF4FA520021786800F04DFD034687F885
:1039B0005E3097F85E30002B11D17B6803F58153A0
:1039C000083379687A6802F58052928A92B2184672
:1039D00001F052FE0346002B01D1012300E0002339
:1039E000002B02D0002387F85F3097F85F3018462D
:1039F0006037BD4680BD00BF0C55010880B5B0B032
:103A000004AFF8600B467A60FB72012387F8AE3092
:103A1000012387F8AF300023BB6107F11C0392221A
:103A2000002118460FF09BF900233B6100233B75F2
:103A3000FA7A07F118007B682C490FF02DF907F18D
:103A400018031846FCF714FC03469AB207F1180154
:103A5000032303930A230293022301932B2300934E
:103A60004FF47A73F86800F023FC47F230520021DB
:103A7000F86800F0E8FC034687F8AE3097F8AE30FF
:103A8000002B2CD1FB6803F581500830F968FB68E6
:103A900003F580539B8A9AB207F1100302930A231D
:103AA00001932C230093124B01F00CFE0346002BD4
:103AB0000CBF01230023DBB2002B10D007F1100351
:103AC0000C491846FDF79AFF0346002B14BF01234B
:103AD0000023DBB2002B02D0022387F8AF3097F827
:103AE000AF301846B037BD4680BD00BF2055010835
:103AF000C45401084055010880B5AEB004AF7860E9
:103B00000B46FB70012387F8A630012387F8A73006
:103B100000233B6107F114039222002118460FF0A5
:103B20001EF90023BB6000233B73FA7807F11003F2
:103B30002C4918460FF0B0F807F110031846FCF7AF
:103B400097FB03469AB207F11001032303930A235C
:103B50000293022301932B2300934FF47A73786826
:103B600000F0A6FB42F210720021786800F06BFCB6
:103B7000034687F8A63097F8A630002B2CD17B6837
:103B800003F58150083079687B6803F580539B8A80
:103B90009AB207F1080302930A2301932C2300939E
:103BA000114B01F08FFD0346002B0CBF01230023B6
:103BB000DBB2002B10D007F108030C491846FDF7C3
:103BC0001DFF0346002B14BF01230023DBB2002B93
:103BD00002D0032387F8A73097F8A7301846A837F4
:103BE000BD4680BD445501085C550108405501089B
:103BF00090B5AFB004AFF8607A603B600B46FB72E3
:103C0000012387F8A630012387F8A73000233B6102
:103C100007F114039222002118460FF0A0F8FC7A55
:103C20007868FCF725FB034607F1100022464B4954
:103C30000FF032F807F110031846FCF719FB0346A2
:103C40009AB207F11001022301933E2300934FF42F
:103C50007A73F86800F0CAFA4FF47A720021F868B3
:103C600000F0F1FB034687F8A63097F8A630002B4A
:103C70006ED1FB6803F581500830F968FB6803F5E5
:103C800080539B8A9AB2002302930A2301932C2328
:103C90000093334B01F016FD0346002B0CBF0123AC
:103CA0000023DBB2002B53D07868FCF7E1FA03461F
:103CB0009AB2032303930A230293052301932B2330
:103CC00000934FF47A737968F86800F0F1FA4FF4D2
:103CD0007A720021F86800F0B6FB034687F8A63038
:103CE00097F8A630002B11D1FB6803F581530833F8
:103CF000F968FA6802F58052928A92B2184601F089
:103D0000BBFC0346002B01D1012300E00023002B64
:103D10001ED0FB6803F581500830F968B7F8B83059
:103D200002933B6801930D2300930A230D4A01F08F
:103D300091FD0346002B0CBF01230023DBB2002BB7
:103D400003D0052387F8A73002E0002387F8A730C7
:103D500097F8A7301846AC37BD4690BD68550108A6
:103D6000805501088455010890B5B1B004AFF860E2
:103D70000B467A60FB72012387F8AE30012387F887
:103D8000AF300023BB6107F11C03922200211846CB
:103D90000EF0E5FF00233B6100233B75FC7A786859
:103DA000FCF766FA034607F11800224647490EF071
:103DB00073FF07F118031846FCF75AFA03469AB244
:103DC00007F11801022301933E2300934FF47A7305
:103DD000F86800F00BFA4FF47A720021F86800F0EE
:103DE00032FB034687F8AE3097F8AE30002B67D130
:103DF000FB6803F581500830F968FB6803F58053D0
:103E00009B8A9AB2002302930A2301932C230093E6
:103E10002F4B01F057FC0346002B0CBF012300235E
:103E2000DBB2002B4CD07868FCF722FA03469AB23A
:103E3000032303930A230293012301932B2300936B
:103E40004FF47A737968F86800F032FA42F210722F
:103E50000021F86800F0F7FA034687F8AE3097F8CB
:103E6000AE30002B2CD1FB6803F581500830F96887
:103E7000FB6803F580539B8A9AB207F11003029303
:103E80000A2301932C230093124B01F01BFC0346E1
:103E9000002B0CBF01230023DBB2002B10D007F155
:103EA00010030D491846FDF7A9FD0346002B14BF6A
:103EB00001230023DBB2002B02D0002387F8AF30B0
:103EC00097F8AF301846B437BD4690BD98550108F5
:103ED00080550108B05501084055010880B59AB0D9
:103EE00002AF78600B46FB70012387F85E30012338
:103EF00087F85F300023FB6007F110034C2200219C
:103F000018460EF02CFFFA7807F10C0320491846EA
:103F10000EF0C2FE07F10C031846FCF7A9F90346A0
:103F20009AB207F10C01012301930A2300934FF485
:103F30007A73786800F05AF94FF4FA5200217868E1
:103F400000F081FA034687F85E3097F85E30002B68
:103F500011D17B6803F58153083379687A6802F5DB
:103F60008052928A92B2184601F086FB0346002BDB
:103F700001D1012300E00023002B02D0002387F8A9
:103F80005F3097F85F3018466037BD4680BD00BF90
:103F9000C055010880B586B002AF78600123BB73BD
:103FA0000123FB73012301930A2300934FF47A73D7
:103FB0001D221549786800F019F94FF4FA620021C2
:103FC000786800F040FA0346BB73BB7B002B11D12D
:103FD0007B6803F58153083379687A6802F580526B
:103FE000928A92B2184601F047FB0346002B01D19A
:103FF000012300E00023002B01D00023FB73FB7B97
:1040000018461037BD4680BD7459010880B586B08A
:1040100002AF78600123BB730123FB73012301937B
:104020000A2300934FF47A731B221549786800F035
:10403000DDF84FF4FA620021786800F004FA0346D4
:10404000BB73BB7B002B11D17B6803F58153083315
:1040500079687A6802F58052928A92B2184601F025
:104060000BFB0346002B01D1012300E00023002BB2
:1040700001D00023FB73FB7B18461037BD4680BD83
:104080009459010880B586B002AF78600123BB73F4
:104090000123FB73012301930A2300934FF47A73E6
:1040A00020221549786800F0A1F84FF4FA62002147
:1040B000786800F0C8F90346BB73BB7B002B11D1B5
:1040C0007B6803F58153083379687A6802F580527A
:1040D000928A92B2184601F0CFFA0346002B01D122
:1040E000012300E00023002B01D00023FB73FB7BA6
:1040F00018461037BD4680BDB059010880B586B05E
:1041000002AF78600123BB730123FB73012301938A
:104110000A2300934FF47A732C221549786800F033
:1041200065F84FF4FA620021786800F08CF90346D4
:10413000BB73BB7B002B11D17B6803F58153083324
:1041400079687A6802F58052928A92B2184601F034
:1041500093FA0346002B01D1012300E00023002B3A
:1041600001D00023FB73FB7B18461037BD4680BD92
:10417000D459010880B586B002AF78600123BB73C3
:104180000123FB73012301930A2300934FF47A73F5
:104190002A221549786800F029F84FF4FA620021C4
:1041A000786800F050F90346BB73BB7B002B11D13C
:1041B0007B6803F58153083379687A6802F5805289
:1041C000928A92B2184601F057FA0346002B01D1A9
:1041D000012300E00023002B01D00023FB73FB7BB5
:1041E00018461037BD4680BD045A010880B584B01A
:1041F00000AFF860B96011461A460B46FB801346C3
:10420000BB80FB684FF40062002118460EF0A7FD4A
:10421000FB6803F500634FF40062002118460EF0BE
:104220009EFD0021F86800F0C8F80121F86800F050
:10423000C4F8FB6803F580531A463B7E1372FB6893
:1042400003F580531A463B7FD372FB6803F5805316
:1042500000225A72FB6803F5805300221A73FB6830
:1042600003F58053FF229A73FB68FA6802F58052C7
:104270001361FB6803F5805300229A82FB6803F503
:1042800081530433FA6802F5805211694FF40062D9
:10429000184601F0B9F9FB6803F581500430BB887A
:1042A000FA88B96801F09DF900BF1037BD4680BD9E
:1042B00080B584B000AFF860B96011461A460B466D
:1042C000FB801346BB80FB684FF400620021184658
:1042D0000EF045FDFB6803F500634FF4006200211A
:1042E00018460EF03CFD0021F86800F066F8012148
:1042F000F86800F062F8FB6803F580531A4697F8F7
:1043000020301372FB6803F580531A4697F8243067
:10431000D372FB6803F5805300225A72FB6803F5E1
:10432000805300221A73FB6803F58053FF229A73AF
:10433000FB68FA6802F580521361FB6803F580534D
:1043400000229A82FB6803F580531A463B7E9377DE
:104350003B7F013BDAB2FB6803F58053DA77FB68F9
:1043600003F581530433FA6802F5805211694FF462
:104370000062184601F048F9FB6803F581500430EB
:10438000BB88FA88B96801F02CF900BF1037BD4628
:1043900080BD80B483B000AF78600B46FB70FB78C3
:1043A0007A68134403F58153093301221A7000BF60
:1043B0000C37BD465DF8047B704780B483B000AF16
:1043C00078600B46FB70FB787A68134403F58153E1
:1043D000093300221A7000BF0C37BD465DF8047B1C
:1043E000704780B485B000AF78600B46FB70002347
:1043F000FB73FB787A68134403F5815309331B7808
:10440000DBB2002B14BF01230023DBB2002B02D050
:104410000023FB7310E0FB787A68134403F58153A3
:1044200009331B78DBB2002B0CBF01230023DBB266
:10443000002B01D00123FB73FB7B18461437BD46CC
:104440005DF8047B704780B584B000AF78600B46A0
:10445000FB7013463B800023FB737B6803F580539E
:104460001A460023D36205F065F802467B6803F51F
:104470008053DA6202E00A2000F014FDFB7819464E
:104480007868FFF7AEFF0346002B0CD005F052F81A
:1044900002467B6803F58053DB6AD21A3B889A4256
:1044A00001D2012300E00023002BE4D1FB78194660
:1044B0007868FFF796FF0346002B14BF0123002303
:1044C000DBB2002B01D00123FB73FB7B18461037B6
:1044D000BD4680BD80B582B000AF78600B46FB70F2
:1044E0007B6803F58053DB7ADBB2012B0CBF012321
:1044F0000023DBB2002B00F08A80F8787B6803F59C
:1045000080531B695A1C796801F580510A61024683
:104510001A707B6803F580539B8A9BB201339AB271
:104520007B6803F580539A827B6803F580531B7B7D
:10453000DBB2012B0CBF01230023DBB2002B0CD01C
:104540007B6803F580539B7B5BB2DBB20133DBB24C
:104550005AB27B6803F580539A737B6803F58053E6
:104560009B7ADBB2012B07D1FB784F2B02D0FB7873
:10457000452B01D1012300E00023002B1BD07B68D9
:1045800003F5805300229A727B6803F58053012261
:104590001A73FB784F2B05D17B6803F580530222F9
:1045A0005A730DE0FB78452B0AD17B6803F58053E5
:1045B00005225A7304E07B6803F5805300229A7247
:1045C000FB780A2B04D17B6803F5805301229A7291
:1045D0007B6803F580539B7B5BB21A467B6803F5CF
:1045E00080535B7BDBB29A42ACBF01230023DBB27A
:1045F000002B00F0ED8000217868FFF7CAFE7B6891
:1046000003F581530433184601F010F8E0E07B68AD
:1046100003F58053DB7ADBB2022B0CBF01230023AE
:10462000DBB2002B72D0F8787B6803F580531B69EE
:104630005A1C796801F580510A6102461A707B683C
:1046400003F580539B8A9BB201339AB27B6803F5D2
:1046500080539A827B6803F580531B7ADBB20A2B66
:1046600014BF01230023DBB2002B0FD0FB783E2BBD
:1046700040F0AE8000217868FFF78BFE7B6803F581
:1046800081530433184600F0D1FFA1E07B6803F5A5
:1046900080531B7BDBB2012B04D1FB78452B01D16E
:1046A000012300E00023002B04D07B6803F5805336
:1046B00002229A73FB780A2B0AD17B6803F5805398
:1046C0001B7BDBB20133DAB27B6803F580531A73CC
:1046D0007B6803F580531B7BDBB21A467B6803F5CE
:1046E00080539B7B5BB29A420CBF01230023DBB259
:1046F000002B6DD000217868FFF74BFE7B6803F537
:1047000081530433184600F091FF61E07B6803F5A4
:104710008053DB7ADBB2032B0CBF01230023DBB217
:10472000002B55D0F8787B6803F580531B695A1C21
:10473000796801F580510A6102461A707B6803F5B9
:1047400080539B8A9BB201339AB27B6803F58053F6
:104750009A827B6803F580539B7FDBB2FA789A429A
:104760000CBF01230023DBB2002B0CD07B6803F5C8
:1047700080539B7B5BB2DBB20133DBB25AB27B6806
:1047800003F580539A737B6803F580531B7ADBB281
:10479000FA789A420ED17B6803F580539B7B5BB21B
:1047A0001A467B6803F58053DB7FDBB29A4201DB5C
:1047B000012300E00023002B0AD000217868FFF7D6
:1047C000E8FD7B6803F581530433184600F02EFFA3
:1047D00000BF0837BD4680BD80B584B000AF7860AB
:1047E0000B46FB700023FB730023FB7309E0FB7B8C
:1047F000114A52F833307A689A4206D0FB7B013373
:10480000FB73FB7B022BF2D900E000BFFB7B0A4A63
:10481000DB0013445B68002B09D0FB7B064ADB00FE
:1048200013445B68FA7811461846FFF753FE00BF41
:104830001037BD4680BD00BF2436002080B483B051
:1048400000AF786000BF0C37BD465DF8047B704751
:1048500080B485B000AFF860B9603B601346FB716F
:10486000FB68BA685A60FB68FA791A72FB683A68A2
:104870001A60FB6818461437BD465DF8047B704724
:1048800080B58AB002AFF860B9607A600023FB831C
:10489000322000F007FBAC233B7633237B760023EA
:1048A000BB76F86800F075F80346002B0CBF0123B7
:1048B0000023DBB2002B68D0FB685868FB681B7ACA
:1048C0005B0099B2FB681B6807F118020093032391
:1048D00006F0C0FC642000F0E5FAFB685868FB684D
:1048E0001B7A5B0099B2FB681B6807F1100200930A
:1048F000072306F0ADFD3A7CFB685A72FB685B7AD1
:104900005BB2002B36DB7B7C1A46FB681A61FB68C6
:104910001B691B02BA7C1A43FB681A61FB681B699E
:104920001B01FA7C1209D2B21A43FB681A61FB7CA4
:1049300003F00F02FB68DA60FB68DB681B023A7D5C
:104940001A43FB68DA60FB68DB681B027A7D1A4356
:10495000FB68DA60BA7DFB689A72F86800F03AF892
:104960000246BB681A60F86800F070F802467B687F
:104970001A600AE0FB8B0133FB830A2000F092FAF5
:10498000FB8B322B00D8A8E700BF00BF2037BD4605
:1049900080BD80B584B000AF78600023FB737B6876
:1049A00058687B681B7A5B0099B24FF47A730322D4
:1049B00006F080FF0346002B14BF01230023DBB267
:1049C000002B01D0012300E0FB7B18461037BD46C9
:1049D00080BD000080B584B000AF78607B68DB6884
:1049E0001846FBF78FFD4FF00002154BFBF72EFF2B
:1049F00002460B46104619464FF00002104BFBF7DB
:104A000025FF02460B46104619464FF000020D4B9B
:104A1000FBF7F2FD02460B46104619464FF0000226
:104A2000094BFBF731FC02460B4610461946FCF7D2
:104A3000BBF80346FB60FB6818461037BD4680BDD7
:104A400000009040000069400000494080B584B0FB
:104A500000AF78607B681B691846FBF753FD4FF089
:104A60000002114BFBF7F2FE02460B4610461946B8
:104A70004FF000020C4BFBF7E9FE02460B461046D6
:104A800019464FF00002094BFBF7B6FD02460B46F4
:104A900010461946FCF788F80346FB60FB68184689
:104AA0001037BD4680BD00BF000090400000594057
:104AB00080B483B000AF786039607B68104A9A6038
:104AC0007B680022DA607B684FF000021A617B6825
:104AD0000B4A5A617B6800221A767B680022DA61F1
:104AE0007B6800221A627B6800225A627B683A68FF
:104AF0009A627B6818460C37BD465DF8047B7047A8
:104B0000000080BF80B588B000AFF86187ED050A6E
:104B1000C7ED040A87ED031ABA607B600B46FB768B
:104B2000FB7EBA6897ED031AD7ED040A97ED050AE4
:104B30001946F86900F00EF87968F86900F0E8F8AD
:104B40003B6BFA6AB96AF86900F01CF900BF2037BC
:104B5000BD4680BD80B59AB000AFF8610B4687EDC9
:104B6000050AC7ED040A87ED031ABA60FB76002335
:104B700087F85B3097ED047AD7ED057A77EE677AA0
:104B8000C7ED157A07F124032822002118460EF0FC
:104B9000E6F800237B66FB699B6A002B01D10123A9
:104BA000A8E000233B6630E0FB699B6A184604F0EE
:104BB00035FD0346002B14BF01230023DBB2002B7D
:104BC00001D0012396E0FB699B6A42F210711846FE
:104BD00004F029FE0346002B14BF01230023DBB29F
:104BE000002B01D0012385E0FB699B6A184605F084
:104BF000C5F802463B6E9B00603307F108010B4489
:104C000043F8442C3B6E01333B663B6E092BCBDDF6
:104C1000FB699B6A184604F0D3FD0023FB650DE099
:104C2000FB6D9B00603307F10802134453F8443CCA
:104C30007A6E13447B66FB6D0133FB65FB6D092BBC
:104C4000EEDD7B6E2D4AA2FB0323DB087B667B6EC9
:104C500007EE903AB8EE677ADFED296AC7EE267A5A
:104C60009FED287A67EE877AC7ED147AD7ED146A3C
:104C700097ED037AC6EE877AB3EE007A67EE877A0D
:104C8000B1EE007A77EE877AC7ED137AD7ED137A13
:104C9000B1EE007A77EEC77AF3EE006A87EEA67A75
:104CA000D7ED157A67EE277AFB69C3ED017AFB69C8
:104CB000D3ED016A97ED157AC6EE877A9FED127AE9
:104CC00067EE877AFB69C3ED007AFB6993ED007AA2
:104CD000DFED0D6AC7EE267A9FED0C7A67EE877AD4
:104CE000FCEEE77AC7ED017A3B79DAB2BB681A705D
:104CF00097F85B3018466837BD4680BDCDCCCCCC2C
:104D000000008045333353400000FA430000C8429E
:104D100080B584B000AF7860396004F00BFCF860B7
:104D20007B6893ED027A7B68D3ED007AB4EEE77A84
:104D3000F1EE10FA07D57B681A687B689A607B6889
:104D4000FA68DA6118E07B68DB69FA68D31A0C4A02
:104D5000934211D37B6893ED027A7B68D3ED007A9E
:104D600077EE677A3B68C3ED007A7B681A687B68E8
:104D70009A607B68FA68DA611037BD4680BD00BF73
:104D800080EE360080B584B000AFF860B9607A601C
:104D90003B60FB681A68FB681A61FB68D3ED057A13
:104DA000F5EEC07AF1EE10FA04D5FB681A69FB68DB
:104DB0005A6144E0FB6893ED047AFB68D3ED057A11
:104DC00077EE677AFDEEE77A17EE902AFB68DA60F5
:104DD00004F0B0FB0246FB681A62FB681B7E002BE6
:104DE00011D1FB68DB68052B25DDFB6801221A76F3
:104DF000FB681A6AFB685A627B68BA681A603B688B
:104E000000221A6017E0FB68DB68002B0FDCFB68F0
:104E10001A6AFB685B6AD31A41F2873293420AD955
:104E2000FB6800221A763B68BA681A6003E0FB68E8
:104E30001A6AFB685A62FB681A69FB685A61103784
:104E4000BD4680BD80B582B000AF786039607B68B8
:104E500004333968184600F0A2FB7B683A681A6090
:104E60007B6818460837BD4680BD000080B582B01B
:104E700000AF78607B68181D4FF47A7304220849EC
:104E800000F0AFFB7B68181D7B6803F108014FF44D
:104E9000FA73192200F092FB00BF0837BD4680BDAF
:104EA000305A010880B582B000AF78607B684FF45B
:104EB0007A7202FB03F3054AA2FB03239B091846FF
:104EC0000BF052F900BF0837BD4680BDD34D6210CC
:104ED00080B584B000AFF860B9607A607B80FB6811
:104EE00000221A62FB68BA681A60FB6804337968AA
:104EF00018460EF040F8FB687A889A82FB68BA6917
:104F00009A61FB68FA69DA61FB6818461037BD469A
:104F100080BDB0B584B002AF78607B6818687B68EC
:104F2000191D7B689C8A7B689D697B68DB697A6850
:104F30002032019200932B4622460AF0B7FF00BFB1
:104F40000837BD46B0BD80B485B000AFF8607B6067
:104F50000B467B8113463B81FB687A89A3F854207A
:104F6000FB683A89A3F85620FB687A689A65FB6863
:104F700018461437BD465DF8047B704790B585B080
:104F800002AF78607B68B3F8543018467B68B3F89A
:104F900056301C467B689A6D7B6804330021009173
:104FA00021460AF0FDF802467B681A6000BF0C3704
:104FB000BD4690BD80B584B000AF786039600123F4
:104FC000FB737B6818680023C82239680AF0F6F979
:104FD0000346012B14BF01230023DBB2002B01D0B9
:104FE000032300E0FB7B18461037BD4680BD80B52B
:104FF00084B000AF786039600223FB737B681B6864
:105000003222396818460AF079FB0346012B0CBF9F
:1050100001230023DBB2002B01D0002300E0FB7B47
:1050200018461037BD4680BD80B483B000AF7860AD
:105030007B6818460C37BD465DF8047B704780B529
:1050400082B000AF786001200AF09FF902467B68C9
:105050001A6000BF0837BD4680BD80B584B000AF80
:1050600078600123FB737B681B684FF47A711846E4
:105070000AF026FC0346012B0CBF01230023DBB200
:10508000002B01D0002300E0FB7B18461037BD4603
:1050900080BD80B584B000AF78600123FB737B686E
:1050A00018680023002200210AF088F9FB7B1846CB
:1050B0001037BD4680BD80B483B000AF78607B6898
:1050C00018460C37BD465DF8047B704780B582B04A
:1050D00000AF786009F08AFD02467B681A6000BF65
:1050E0000837BD4680BD000080B584B000AF786051
:1050F000EFF30583FB60FB68002B14BF0123002343
:10510000DBB2002B1ED07B6800225A607B681868D7
:105110007B6804331A46012109F010FF02467B68C0
:105120009A607B689B68002B12D07B685B68002BC1
:105130000ED0094B4FF080521A60BFF34F8FBFF370
:105140006F8F05E07B681B680121184609F03AFE65
:1051500000BF1037BD4680BD04ED00E080B584B0CF
:1051600002AF786039607B6818683B684FF47A72E8
:1051700002FB03F3064AA2FB03239B0900930023CF
:105180000122012109F04CFD00BF0837BD4680BD5A
:10519000D34D621080B584B000AFF860B96013469B
:1051A000FB71FB680833184600F05BFAFB680C33B0
:1051B0001846FFF739FFFB68BA685A60FB68FA794E
:1051C0001A70FB680C331846FFF739FFFB68184666
:1051D0001037BD4680BDB0B590B004AFF860B9607F
:1051E0007A603B600123FB62FB680C331846FFF7D3
:1051F00034FF0346002B0CBF01230023DBB2002B3E
:1052000043D0FB685B6807F114010022184607F0E1
:10521000F4FDFB685B6807F128010022184607F0DF
:105220004AFE3B68002B18D0FB6803F10805FB68B9
:1052300093F9003003936C4607F11C0393E80700D1
:1052400084E8070007F114030CCBB96A284600F084
:10525000EDFB03461A463B681A60BB68002B02D080
:10526000BA6ABB681A607B68002B06D007F114038A
:105270001422194678680DF086FEFB680C33184638
:10528000FFF707FF0023FB6214E03B68002B02D00E
:105290003B6800221A60BB68002B03D000231A6809
:1052A000BB681A607B68002B04D014220021786848
:1052B0000DF069FEFB6ADBB218463037BD46B0BD63
:1052C00080B483B000AF78603960064A7B681360B1
:1052D000054A3B68136000BF0C37BD465DF8047B90
:1052E000704700BF403600204836002080B483B0AD
:1052F00000AF78603960064A7B681360054A3B68F6
:10530000136000BF0C37BD465DF8047B704700BFDB
:10531000443600204C36002080B584B000AF786061
:105320007B685B6CBB817B6893F84230DBB2222BDD
:105330000CBF01230023DBB2002B30D07B681B683D
:105340005B689BB2DBB2FB81BB89002B07D0BB89BA
:105350001B021AB2B7F90E3013431BB2FB817B68F4
:10536000134A93420AD1134B1B68002B06D0114BF2
:105370001B68FA89D2B21146786898477B680E4A52
:1053800093420AD10D4B1B68002B06D00B4B1B68B8
:10539000FA89D2B2114678689847002303E07B6807
:1053A0001B685B68022318461037BD4680BD00BFEE
:1053B0004C3E002040360020943E00204436002021
:1053C00080B586B000AF78607B681B681B687B6126
:1053D0007B681B68DB683B617B681B685B69FB6003
:1053E0000023BB607B6903F00F03BB60BB68002B2D
:1053F0000DD17B6903F02003002B08D03B6903F03B
:105400002003002B03D07868FFF786FFB0E07B68AD
:105410001B685B69FB60BB68002B00F08380FB6846
:1054200003F00103002B04D13B6903F49073002BBC
:1054300078D07B6903F00103002B0FD03B6903F4A4
:105440008073002B0AD07B681B686FF001021A6022
:105450007B685B6C43F001027B685A647B6903F0F4
:105460000203002B0FD0FB6803F00103002B0AD0CE
:105470007B681B686FF002021A607B685B6C43F00C
:1054800004027B685A647B6903F00403002B0FD08D
:10549000FB6803F00103002B0AD07B681B686FF0E8
:1054A00004021A607B685B6C43F002027B685A64FA
:1054B0007B6903F00803002B14D03B6903F0200341
:1054C000002B04D1FB6803F00103002B0AD07B689A
:1054D0001B686FF008021A607B685B6C43F008027F
:1054E0007B685A647B685B6C002B14BF012300232C
:1054F000DBB2002B39D07B6903F02003002B0AD0EC
:105500003B6903F02003002B05D07B6800225A641E
:105510007B681B685B68786808F08EFF7B680022F8
:105520005A6422E07B6903F08003002B20D03B69A2
:1055300003F08003002B1BD07B680F4A934207D1F6
:105540000E4B1B68002B03D00C4B1B6878689847E8
:105550007B680B4A93420AD10A4B1B68002B06D08A
:10556000084B1B687868984701E000BF00E000BF67
:105570001837BD4680BD00BF4C3E00204836002095
:10558000943E00204C36002080B582B000AF786099
:105590007868FFF715FF00BF0837BD4680BD80B4AF
:1055A00083B000AF786039607B683A681A607B68C6
:1055B00018460C37BD465DF8047B704780B584B053
:1055C00000AFF860B9603B601346FB80FB68186869
:1055D000FA883B68B96808F0C0FD00BF1037BD46C7
:1055E00080BD80B584B000AFF860B9603B60134601
:1055F000FB80FB681868FA883B68B96808F022FDF0
:1056000000BF1037BD4680BD80B584B000AFF860E4
:10561000B9601346FB80FB681B68FA88B9681846B6
:1056200008F032FE00BF1037BD4680BD80B582B0A5
:1056300000AF78607B681B68184608F04BFE00BF1F
:105640000837BD4680BD80B582B000AF7860396054
:10565000396878680DF08BFB034618460837BD465D
:1056600080BD80B483B000AF78607B6818460C378B
:10567000BD465DF8047B704780B586B000AFF8602A
:10568000B9601346FB800223FB750C49B8680DF026
:105690008EFB0346002B02D00023FB7508E008496F
:1056A000B8680DF084FB0346002B01D00123FB7585
:1056B000FB7D18461837BD4680BD00BF2C5601083B
:1056C0003056010890B5ADF5077D00AF07F50674BB
:1056D000A4F50374206007F50670A0F5047001605E
:1056E000114607F50672A2F50672136007F50673F8
:1056F000A3F212230A461A80022387F80D320023F0
:10570000A7F8163207F50673A3F212231A8807F5D5
:105710000673A3F5047307F1140019680DF034FB48
:1057200007F50673A3F5067307F11402196810460E
:105730000DF03DFB0346002B01D1022385E0D7F895
:105740003032002B01D100237FE097F8282207F1A7
:10575000140311461846FFF776FFC7F80802D7F87A
:105760000832002B16D007F11403D7F80822D31AF9
:10577000C7F8103297F828323A2B05D1D7F81032F3
:105780000233C7F8103207E0D7F810320133C7F8F8
:10579000103201E0022358E0D7F81032A7F80E3299
:1057A0003CE0B7F80E3207F50672A2F504721268F3
:1057B00013441B7897F82C229A420FD0B7F80E3278
:1057C00007F50672A2F5047212681A44B7F8163289
:1057D000D7F830120B4412781A7015E0B7F80E3271
:1057E00007F50672A2F50472126813441B7897F845
:1057F0002C229A4208D1B7F81632D7F83022134437
:1058000000221A70002320E0B7F80E320133A7F807
:105810000E32B7F816320133A7F81632B7F816224F
:1058200007F50673A3F212231988D7F81032CB1AA2
:105830009A4208DA07F50673A3F21223B7F80E228C
:105840001B889A42ADD397F80D32184607F50777B3
:10585000BD4690BD80B588B000AFF860B9607A6091
:10586000FB7000237B76FB6A002B01D1012340E013
:105870007968B8680DF09BFAF861FB69002B01D1DB
:10588000022336E07868FAF7F3FC0246FB6913441A
:10589000FB61FB690133FB61FB781946F869FFF78F
:1058A000D2FE78617B69002B01D1022321E07B6964
:1058B0000133FB6100237B830AE0FB695A1CFA6118
:1058C0001978FA6A7B8B581C788313440A461A703D
:1058D000FB691B7897F828209A4204D07A8B3B8E7C
:1058E000013B9A42E9DB7B8BFA6A134400221A706F
:1058F0007B7E18462037BD4680BD80B487B000AFA0
:10590000F860B9607A607B8000237B75BB68002BF0
:1059100008D07B68002B05D07B88002B02D03B6A27
:10592000002B01D101233AE00023FB8202E0BB6897
:105930000133BB60BB681B7897F824209A42F6D0ED
:10594000BB681B78282BF2D00AE0BB685A1CBA60EF
:1059500019787A68FB8A581CF88213440A461A7030
:10596000BB681B78002B0AD0BB681B7897F82420F3
:105970009A4204D0FA8A7B88013B9A42E5DBFB8A93
:105980007A68134400221A70FB8A002B01D101238C
:1059900005E0FB8A01339AB23B6A1A807B7D184688
:1059A0001C37BD465DF8047B704780B588B000AFFA
:1059B000F860B9607A600023FB76B868FAF758FCA3
:1059C00078617B69002B02D07B69082B01D9012308
:1059D00027E07B6800221A700023FB611CE0BA6894
:1059E000FB6913441B78FB74FB7C302B04D0FB7CDD
:1059F000312B01D0012314E07B681B785B005AB285
:105A0000FB7C303BDBB25BB213435BB2DAB27B6848
:105A10001A70FB690133FB61FA697B699A42DED334
:105A2000FB7E18462037BD4680BD000082B080B5A1
:105A30008CB000AF7860396007F1380181E80C0064
:105A4000BB783B627B78FB61FB78BB61BB69452B14
:105A500002DC4FF4FA6301E040F26C73BA6913445C
:105A6000BB6197F838307B6197F839303B6197F824
:105A70003A30FB6097F94C2013461B019B1A9B00A0
:105A8000BB600023FB6240F2B273BB6211E0B96AF3
:105A9000786800F05DF80346002B02D04FF4B7732E
:105AA00001E040F26D13FA6A1344FB62BB6A0133F2
:105AB000BB62BA6ABB699A42E9DBFB6A234A02FB12
:105AC00003F3FB6201237B620EE07A6AB9697868AE
:105AD00000F06EF803461D4A02FB03F3FA6A134412
